:020000040800F2
:1000000018050020318600083D7F00083F7F00086A
:10001000477F00084F7F0008577F0008000000005E
:100020000000000000000000000000005F7F0008EA
:10003000617F000800000000637F0008657F000802
:10004000717F000885860008898600088D86000873
:1000500091860008958600087F7F0008897F000848
:10006000937F00089D7F0008A77F000899860008FD
:100070009D860008A1860008A5860008A9860008BC
:10008000AD860008B1860008B5860008B98600086C
:10009000BD860008C1860008C5860008B17F00083B
:1000A000C9860008CD860008D1860008D5860008DC
:1000B000D9860008D77F0008DD860008E1860008A1
:1000C000E5860008E9860008ED860008F18600084C
:1000D000F586000805820008F9860008FD860008FC
:1000E000618200080187000805870008BFF34F8F71
:1000F000DFF8100E006810F4E060DFF8201C084301
:10010000DFF8001E0860BFF34F8F00BFFDE780B52A
:10011000DFF80C0C0069DFF8081CC968401ADFF82A
:10012000001C8968401A0A21B0FBF1F0DFF8F41BCB
:100130008860DFF8EC0B0069DFF8E41BC968DFF8C2
:10014000E82B1278521F4FF47A7303FB0211884296
:1001500003D20120DFF8CC1B887001F0D5F9DFF85D
:10016000C40B407E00282BD1DFF8B80B8078002824
:1001700026D0DFF8B00B007E012821D0642001F0EA
:100180002EFFDFF8A00B407E002819D10020DFF8F9
:10019000941B087501F09AF901224FF40071DFF801
:1001A000200E02F009F80120DFF8781B087601F034
:1001B0008DF901224FF48071DFF8700B01F0FCFF24
:1001C000DFF8600B407E012804D0DFF8580B807800
:1001D00000281ED1DFF84C0B007E002819D000202B
:1001E000DFF8401B087601F071F900224FF48071AE
:1001F000DFF8380B01F0E0FF0120DFF8281B08755D
:1002000001F064F900224FF40071DFF8B40D01F041
:10021000D3FF01BD00B583B0684602F032F8DFF8C5
:10022000040B0078002805D100220421DFF83C0EE1
:1002300001F0C2FFDFF8EC0A0078022837D19DF800
:100240000500142190FBF1F201FB1200C0B20B2853
:1002500006DB01220421DFF8140E01F0ADFF26E0D9
:10026000C0B2022190FBF1F0C0B2022190FBF1F28A
:1002700001FB1200012806D100220421DFF8EC0D59
:1002800001F09AFF13E0BDF80600052190FBF1F0A4
:10029000642806DA00220421DFF8D00D01F08CFF7B
:1002A00005E001220421DFF8C40D01F085FFDFF82D
:1002B000740A0078052815D1BDF80600FA2190FBD4
:1002C000F1F201FB12007E2806DB01220421DFF897
:1002D0009C0D01F071FF05E000220421DFF88C0D78
:1002E00001F06AFFDFF83C0A0078082805D10022F7
:1002F0000421DFF8780D01F05FFFDFF8280A0078AD
:10030000012805D100220421DFF8600D01F054FF1F
:10031000DFF8100A0078062805D100220421DFF852
:100320004C0D01F049FFDFF8FC090078072805D1E2
:1003300000220421DFF8340D01F03EFF07BD80B537
:10034000DFF8E0090078052804D0DFF8D809007844
:1003500004286BD1DFF8CC09407C002817D0DFF8E7
:10036000C409C07D012805D10020DFF8B819C8757F
:1003700001F0ACF8DFF84C2CD2E9000101F087FF66
:10038000B0F5FA7F03D90020DFF898194874DFF838
:10039000382CD2E9000101F07AFFB0F5FA7F28D9B4
:1003A000DFF88009C07D012823D1DFF81C0C01F0A3
:1003B00097FFDFF8180C00680A30DFF86419C96885
:1003C000884204D20020DFF8081C08700BE0DFF838
:1003D000000C0078FF2806D0DFF8F40B0078401CF2
:1003E000DFF8EC1B0870DFF83809C068DFF8DC1BA9
:1003F0000860DFF87C0C0078DFF8D41B09788842AD
:1004000014D2DFF82009C07D012805D10020DFF8D3
:100410001419C87501F05AF80020DFF8B41B0870F1
:10042000DFF80409007880B201F0F3F801BD70B57F
:10043000DFF8A02CD2E9000101F029FFFB28C0F071
:10044000A880DFF8900C01F04BFFDFF8D8080078A7
:10045000002804D1DFF8CC08806802F02CF9DFF81E
:10046000C4080078022804D1DFF8B808806802F0D8
:10047000B0F9DFF8B0080078032823D1DFF8A80C22
:100480004668300002F024FC02F036FC0022DFF85F
:100490009C3C02F059FC04000D00DFF8940C00684D
:1004A00002F02AFC02000B002000290002F01EFDD1
:1004B00002F048FE010089B26420B6FBF0F080B281
:1004C00002F00AFADFF85C08007804283ED1DFF871
:1004D0005408C07D002801D1012600E00026DFF885
:1004E000480C806802F008FC0022DFF8403C02F073
:1004F0002BFC04000D00DFF8380C006802F0FCFB58
:1005000002000B002000290002F0F0FC02F030FE97
:10051000DFF8101848603300DBB21C00DFF8080C6D
:10052000806802F03BFE6421B0FBF1F22300DFF8AB
:10053000F007C068DFF8481C0968401A6421B0FB66
:10054000F1F1DFF8E007406802F062FADFF8D40763
:100550000078052801D102F09CF8DFF8C807007880
:10056000082801D101F04EFFDFF8B8070078012814
:1005700001D101F047FFDFF8AC070078062801D170
:1005800001F040FFDFF89C070078072801D101F057
:1005900039FF70BD00B583B00A2001F0B7FB684693
:1005A00001F06FFEDFF87C070078042822D00A20D3
:1005B00001F09EFB002001F094FB9DF80500022154
:1005C00090FBF1F201FB120000280AD0BDF80600F2
:1005D000642190FBF1F0D0F10A00C0B201F08FFB72
:1005E00048E0BDF80600642190FBF1F0C0B201F0D4
:1005F00086FB3FE09DF80500022190FBF1F201FB34
:100600001200002818D0BDF80600642190FBF1F01C
:10061000C0B201F074FBBDF80600642190FBF1F05C
:10062000C0B201F065FBBDF80600642190FBF1F05B
:10063000C0B201F056FB1DE0BDF80600642190FB3E
:10064000F1F0D0F10A00C0B201F059FBBDF806008C
:10065000642190FBF1F0D0F10A00C0B201F048FB38
:10066000BDF80600642190FBF1F0D0F10A00C0B2A1
:1006700001F037FB07BD2DE970436421DFF87C0DE5
:1006800002F038FE0121DFF8740D02F0DDFE0400F7
:100690000221DFF8680D02F0D7FE0321DFF85C0DC0
:1006A00002F0D2FE06000421DFF8500D02F0CCFE6D
:1006B0000500ADB2280002F00BFB02F01DFB0200AA
:1006C0000B000020DFF8F81A02F010FC8046894683
:1006D000A4B2200002F0FCFA02F00EFB42464B46A8
:1006E00002F032FBDFF8DC2ADFF8DC3A02F02CFB08
:1006F0000022DFF8D83A02F027FB02F023FDDFF8F2
:1007000024168881ADB2280002F0E2FA02F0F4FA71
:1007100002000B000020DFF8A81A02F0E7FB04003B
:100720000D00B6B2300002F0D3FA02F0E5FA220072
:100730002B0002F009FB02000B00DFF8940ADFF83F
:10074000941A02F0C5FFDFF8902ADFF8903A02F021
:10075000CDFB0022DFF8883A03F07AF802F0F2FCD1
:10076000DFF8C015C881DFF8940C02F099FDDFF8BE
:100770008C0C02F025FDBDE8708380B500F0ACFE66
:1007800000F0A4FE01F03EFEDFF898050078002896
:1007900012D100224FF48071DFF8640C01F00CFDDF
:1007A00000224FF40071DFF8580C01F005FD002025
:1007B000DFF87015087411E001224FF48071DFF842
:1007C000400C01F0F9FC01224FF40071DFF8300C0D
:1007D00001F0F2FC0120DFF84C150874DFF8440545
:1007E000007802281BD101224FF48071DFF8100C31
:1007F00001F0E2FC01224FF40071DFF8040C01F07B
:10080000DBFC0120DFF81C1508740020DFF814154C
:10081000C87500F05BFE0220DFF808150870DFF8ED
:1008200004050078042810D1DFF8F8044078032884
:1008300005D1DFF8EC04C068DFF844190860012036
:10084000DFF8E014C87500F041FEDFF8D804007846
:1008500005280ED1DFF86C0701F042FDDFF8C40473
:10086000C07D012805D10020DFF8B814C87500F05C
:100870002DFEDFF8B0040078DFF8A814487001BD41
:1008800080B5FFF733FC01BDC0B2002808D00228B4
:100890000CD008D304280FD00BD305280FD011E0BB
:1008A00040F6B8300FE040F6B8300CE041F2883046
:1008B00009E043F6982006E047F2305003E04EF698
:1008C000602000E000207047F8B503F035F800F034
:1008D00089FC40F6B8320221102001F013FD00F02F
:1008E000C3F900F07FFC00F023FA00F0B8FA00F042
:1008F000F5FA00F025FB00F06DFB00F0BBFB00F00B
:10090000EBFB00F017FC00F0FFFA00F03BFCDFF817
:10091000F40A03F051F803F028FD0220DFF8041474
:1009200008700720DFF8FC134870FFF726FF01224C
:100930002021DFF88C0601F03FFCDFF8C00A02F04E
:100940003FFC322000F03BFEDFF8BC0A006850F4A8
:100950000060DFF8B41A0860DFF8AC0A006810F431
:100960000060009000984CF6CC40DFF8A01A0968AF
:1009700008606DE00120DFF8AC13C87500F0A6FD3B
:10098000DFF88C0A0078002803D0DFF8880A01F02D
:10099000A7FC00F08BFD002823D0DFF88803007847
:1009A00005281ED1DFF8680A0078FFF76DFF040004
:1009B000DFF8602AD2E9000101F069FC6108814298
:1009C0000DD2DFF80026D2E9000101F060FCB0F59D
:1009D0007A7F04D90420D3490870FFF7CEFE00F0D7
:1009E00051FDD0480078052810D1DFF8240A00789E
:1009F000FFF74AFF0400DFF8CC25D2E9000101F03F
:100A000046FC844202D20420C649087000F04EFD24
:100A1000002805D0C3480078022801D100F032FD3B
:100A200000F048FD002803D000F056FD00F02FFD37
:100A300000F044FD002803D000F04EFD00F02CFD36
:100A400000F040FD002803D000F046FD00F029FD35
:100A5000FFF711FEFFF75BFB03F07CF9FFF7E7FC04
:100A6000FFF76DFCFFF7D6FBFFF794FDDFF89C095D
:100A700003F014FEDFF8A00903F02DFEA94800786A
:100A8000042840F08780A748407C002823D0052018
:100A9000A4490870DFF87C29D2E9000101F0F7FBD6
:100AA0000400DFF86C090078FFF7EEFE844210D2F4
:100AB000DFF85C090078052807D0DFF854090078D2
:100AC000401CDFF84C19087003E00020DFF84019E3
:100AD0000870FFF752FEDFF85006406803F01AFE78
:100AE00006000F008E48C06803F014FE04000D00DD
:100AF000DFF88C06006803F00DFE02000B002000FA
:100B0000290002F0E5FD0022DFF8C03602F0EEF920
:100B100004000D00DFF81806006802F0EDF822006E
:100B20002B0002F011F902000B003000390002F036
:100B3000CFFD03F0FDFDDFF8F0158860DFF8E80574
:100B4000806803F03DFE012824DA7548C0687449C6
:100B5000C96810F114029142F9D30220714908705A
:100B6000FFF70BFEDFF8C0050068DFF8BC15496829
:100B70000C18DFF8B405806802F010FB201ADFF8CB
:100B8000A81508600020DFF8A01548600020DFF8F5
:100B900098158860DFF89005406800280CD06148FF
:100BA0000078022808D103205E490870FFF7E5FDB0
:100BB00000F092FC00F066FC5A488068DFF85C1890
:100BC000097864225143884208D2564800780228A6
:100BD00004D1002053490870FFF7CFFD51488068C9
:100BE000DFF83818097864225143884208D34D4809
:100BF0000078002804D102204A490870FFF7BDFDA3
:100C000000F054FC002814D046480078032810D186
:100C1000042044490870DFF8FC0701F061FB002064
:100C2000DFF8EC170870FFF7A8FD00F055FC00F0A6
:100C300029FC00F03BFC00283FF4ABAE39480078BB
:100C400004287FF4A6AE00F047FC00F03FFC00F063
:100C500019FC3448C07D01287FF48CAE0020314956
:100C6000C87500F033FC94E600B593B009200990F4
:100C70005FF480300A9000200B9001200D9001203D
:100C80000F90022010905FF4803011905FF480107C
:100C9000129009A803F0B6FD002805D04FF40371A7
:100CA000DFF87C0700F0EAFB0F200490022005909B
:100CB000002006904FF480600790002008900121EA
:100CC00004A803F0C8FF002805D040F21A21DFF87D
:100CD000500700F0D3FB022000904FF480400290B8
:100CE000684604F0F9F8002805D040F22121DFF829
:100CF000300700F0C3FB04F0A1F84FF47A71B0FBA9
:100D0000F1F004F073FA042004F074FA00220021D8
:100D10005FF0FF3004F054FA13B000BD0400FA0590
:100D2000600C00202C0C0020130100200008014062
:100D300000B58BB0DFF8EC06DFF8C01608604FF4A2
:100D40008070DFF8B81688600020DFF8B016C86041
:100D50000020DFF8A81648615FF46020DFF89C16D9
:100D6000C8610020DFF8941648600120DFF88C1677
:100D70000861DFF8880604F063FA002805D040F225
:100D80004221DFF89C0600F079FB1020089001203A
:100D9000099000200A9008A9DFF8600604F0EBFA39
:100DA000002805D04FF41371DFF8740600F066FBDD
:100DB0000420009001200190042004900020029063
:100DC0004FF4E0400790002006900020059000209E
:100DD00003906946DFF8240602F04BFB002805D09B
:100DE00040F25B21DFF8380600F048FB0520009058
:100DF000022001906946DFF8040602F03AFB002861
:100E000005D04FF41971DFF8180600F037FB1020F9
:100E1000009003200190012002906946DFF8DC0574
:100E200002F027FB002805D040F26E21DFF8F00524
:100E300000F024FB1120009004200190002002907B
:100E40006946DFF8B80502F014FB002805D04FF41E
:100E50001E71DFF8CC0500F011FB0BB000BD80B5B2
:100E6000DFF8C405DFF8C41508601020DFF8BC15F2
:100E700048600020DFF8B41588600020DFF8AC156A
:100E8000C8600020DFF8A41508610020DFF89C1579
:100E900048610020DFF8941588610020DFF88C1588
:100EA000C8610020DFF8841508620020DFF87C1597
:100EB00048620020DFF8741588620020DFF86C15A6
:100EC000C862DFF8680504F061FB002805D040F235
:100ED0008F21DFF84C0500F0D1FA01BD80B5DFF8B5
:100EE0005005DFF850150860DFF8480504F0F8FBFE
:100EF000002805D040F29B21DFF8240500F0BEFA5F
:100F000001BD00000CED00E080B5DFF82C05DFF836
:100F1000FC1408600520DFF8F414486040F2DC504F
:100F2000DFF8E8148860DFF8E40403F08FFB0028A2
:100F300005D040F2A921DFF8E80400F09FFA01BDD6
:100F400080B5DFF8F804DFF8F81408600020DFF857
:100F5000F01448600020DFF8E81488600020DFF813
:100F6000E014C8600020DFF8D81408610020DFF822
:100F7000D01448614FF40070DFF8C4148861002079
:100F8000DFF8BC14C8610020DFF8B4140862002048
:100F9000DFF8AC1448620020DFF8A41488620A204D
:100FA000DFF89C14C862DFF8980404F0ABFB00285B
:100FB00005D040F2C121DFF8680400F05FFA01BDFE
:100FC00000100140E40C0020EC0C0020700D00200B
:100FD000AA0D002000B587B0DFF86804DFF82414FC
:100FE00008602F20DFF81C1448600020DFF814147C
:100FF000886040F2E730DFF80C14C8604FF40070EE
:10100000DFF8001408610020DFF8F8138861DFF8CA
:10101000F40302F0B5FC002805D040F2D521DFF83A
:10102000000400F02BFA4FF48050029002A9DFF880
:10103000D40302F08AFD002805D040F2DB21DFF85E
:10104000E00300F01BFA00200090002001906946A8
:10105000DFF8B00304F09CFB002805D040F2E22149
:10106000DFF8BC0300F00AFA07B000BD000C014035
:101070001101002080B5DFF8D003DFF8D01308603D
:101080004FF41650DFF8C41348600020DFF8BC139B
:1010900088600020DFF8B413C8600020DFF8AC13CC
:1010A00008610C20DFF8A41348610020DFF89C13CE
:1010B00088610020DFF89413C861DFF8900304F022
:1010C00095FB002804D040F2F521D54800F0D6F970
:1010D00001BD0000F40C002080B5DFF87403DFF8D8
:1010E000741308604FF41650DA4948600020D9495B
:1010F00088600020D749C8600020D64908610C20CC
:10110000D44948610020D34988610020D149C86191
:10111000D04804F06BFB002804D04FF44271C04863
:1011200000F0ACF901BD0000B00C0020000024402C
:101130000800002080B5C848C84908604FF4165020
:10114000C64948600020C54988600020C349C8607E
:101150000020C24908610C20C04948610020BF49F5
:1011600088610020BD49C861BC4804F03FFB0028ED
:1011700004D040F21B31AA4800F080F901BD000004
:101180006C0D002080B5B648A34908604FF4C070CC
:10119000A14948607F20A04988607F209E49C8609F
:1011A0004FF400709C4908619B4803F07DFA0028C9
:1011B00004D040F22B319A4800F060F901BD0000E4
:1011C0000000F83F0AD7A3703D0A094000408F4055
:1011D000E17A14AE47E1F63F22FDF675E09C713FDF
:1011E0000000394000B585B09E48006850F04000CE
:1011F0009C4908609B48006810F0400000900098EF
:101200009848006850F010009649086095480068BA
:1012100010F01000009000989248006850F0040010
:10122000904908608F48006810F004000090009812
:101230008C48006850F008008A49086089480068B6
:1012400010F00800009000988648006850F02000D8
:10125000844908608348006810F0200000900098DE
:10126000002240F2FF31804800F0A6FF002248F241
:10127000C3117E4800F0A0FF002241F207017C4824
:1012800000F09AFF00224FF680717A4800F094FF38
:1012900000224FF47F415A4800F08EFF3C2001901D
:1012A000754802900020039001A9724800F0A0FE4A
:1012B00043200190704802900120039001A96D48DD
:1012C00000F096FE4FF47C4001906B4802900120A4
:1012D000039001A9644800F08BFE40F2FF300190BA
:1012E000012002900220049001A95F4800F080FED6
:1012F00048F2C3100190012002900220049001A93D
:101300005A4800F075FE41F207000190012002905A
:101310000220049001A9564800F06AFE4FF6807042
:101320000190012002900220049001A9514800F090
:101330005FFE4FF47F400190012002900220049054
:1013400001A92F4800F054FEFF20019000200290D8
:101350000120039001A92A4800F04AFE782001905C
:10136000002002900120039001A9414800F040FEB6
:101370004FF460700190404802900120039001A951
:101380003B4800F035FE00220221062003F018FF42
:10139000062003F026FF00220221072003F010FFA1
:1013A000072003F01EFF00220221082003F008FF9F
:1013B000082003F016FF00220221092003F000FF9D
:1013C000092003F00EFF002202210A2003F0F8FE9C
:1013D0000A2003F006FF00220221172003F0F0FE8E
:1013E000172003F0FEFE00220221282003F0E8FE71
:1013F000282003F0F6FE05B000BD0000FC0B002025
:1014000000140140FC0A00201C100240A40C002023
:1014100010010020DC0C00204C0C002012010020E8
:10142000048400080024014000640040B80A002041
:1014300000300240D40C0020003000400038004052
:10144000180A002000040040003801403C0B002036
:10145000004400407C0B002000480040BC0B0020F2
:10146000002C00401810024000100140000801400C
:10147000000C0140001801400000111080B5FEF77B
:1014800035FEFEE70020DFF8481A0870704700209C
:10149000DFF8441A087070470020DFF8401A08701F
:1014A00070470020DFF8381A08707047DFF8200A0C
:1014B00000787047DFF8200A00787047DFF81C0AD0
:1014C00000787047DFF8180A0078704780B5DFF8B9
:1014D000140A00F005FF01BD80B5DFF80C0A00F02A
:1014E000FFFE01BD80B54021DFF8000A00F05BFE81
:1014F000002804D00020DFF8F819C87603E00120A6
:10150000DFF8EC19C87601BD80B51021DFF8DC09E1
:1015100000F049FE002804D00020DFF8D4194876F6
:1015200003E00120DFF8C819487601BD80B520210D
:10153000DFF8B80900F037FE002804D00120DFF8FA
:10154000B019887603E00020DFF8A419887601BD81
:1015500080B50821DFF8940900F025FE002804D0AA
:101560000120DFF88C19087703E00020DFF88019EC
:10157000087701BD38B5DFF87C090068401CDFF84A
:1015800074190860DFF86C09006803F0C3F80022E2
:10159000DFF8643901F0D8FB04000D00DFF85C09C6
:1015A000006803F0B7F802000B002000290001F0EA
:1015B0009DFC01F0DDFDDFF84819086131BD38B54B
:1015C000DFF8381909680A22B1FBF2F180B200FB9A
:1015D00001F0DFF820190860DFF81809006803F04F
:1015E00099F80022DFF8103901F0AEFB04000D007D
:1015F000DFF80809006803F08DF802000B002000F6
:10160000290001F073FC01F0B3FDDFF8F418086164
:1016100031BD38B5DFF8E41809680A22B1FBF2F1F0
:1016200080B200FB01F0DFF8CC180968884207D2CD
:10163000DFF8C0180968081ADFF8B818086003E076
:101640000020DFF8B0180860DFF8A808006803F091
:1016500061F80022DFF8A03801F076FB04000D00ED
:10166000DFF89808006803F055F802000B0020002E
:10167000290001F03BFC01F07BFDDFF884180861D4
:1016800031BD704780B5DFF86C08C068401CDFF8DA
:101690006418C860DFF86C28D2E9000100F0F7FD9B
:1016A000B0F5FA7F07D2DFF860080078401CDFF859
:1016B0005818087003E00020DFF84C180870DFF8B5
:1016C000480800781A2803DB0120DFF82418487442
:1016D000DFF8300800F004FE01BD704738B5DFF8D0
:1016E00014088068401CDFF80C188860DFF80408D4
:1016F000806803F00FF80022DFF8FC3701F024FBCC
:1017000004000D00DFF8F407006803F003F802009E
:101710000B002000290001F0E9FB01F029FDDFF8B2
:10172000E0178860DFF8E427D2E9000100F0AFFDA0
:10173000B0F5FA7F07D2DFF8D8070078401CDFF851
:10174000D017087003E00020DFF8C4170870DFF836
:10175000BC0700F0C5FDDFF8B80700781A2852DB97
:101760000020DFF88C178870DFF894070169DFF834
:101770009007C268DFF87C070068DFF880371B68D5
:101780000A24B3FBF4F3DFF88C472478891ADFF8D6
:1017900070279268891A4FF47A72B1FBF2F1611ADC
:1017A00001FB0300DFF84C170860DFF8480700680A
:1017B00002F0B0FF0022DFF8403701F0C5FA040064
:1017C0000D00DFF83807006802F0A4FF02000B00EC
:1017D0002000290001F08AFB01F0CAFCDFF8201785
:1017E0000861DFF81C070069DFF81417C968401AA0
:1017F000DFF80C178968401A4FF47A71B0FBF1F0EA
:10180000DFF8EC16886031BD38B5DFF8E8064068CF
:10181000401CDFF8E0164860DFF8D806406802F0A8
:1018200079FF0022DFF8D03601F08EFA04000D00B7
:10183000DFF8E406006802F06DFF02000B002000F4
:10184000290001F053FB01F093FCDFF8B416C860E7
:1018500031BD10B5DFF8C4060078411CDFF8BC26A6
:101860001170C0B20528C0F222810020DFF8AC164A
:101870000870DFF8AC060478601CDFF8A416087066
:101880000221DFF8680600F08EFCDFF89816E4B25B
:101890000855DFF88C0600780A2803DB0020DFF803
:1018A00080160870DFF880060078002804D1DFF881
:1018B0007C060078012846D1DFF868060078DFF85A
:1018C000641649780818DFF85C1689780818DFF87C
:1018D0005416C9780818DFF84C1609790818DFF88B
:1018E000441649790818DFF83C1689790818DFF89A
:1018F0003416C9790818DFF82C16097A0818DFF8A9
:101900002416497A081800281DD10020DFF81C167B
:101910000870DFF814060078002810D1DFF8E00521
:101920004068401CDFF8D8154860DFF8C8054068FB
:10193000DFF8FC1508600120DFF8F81508700020BA
:10194000DFF8E4150870DFF8E0050078002804D11E
:10195000DFF8D8050078002846D1DFF8C805007800
:10196000DFF8C01549780818DFF8B8158978081825
:10197000DFF8B015C9780818DFF8A8150979081834
:10198000DFF8A01549790818DFF898158979081843
:10199000DFF89015C9790818DFF88815097A081852
:1019A000DFF88015497A08180A281DD10120DFF8D0
:1019B0007C150870DFF870050078002810D1DFF87A
:1019C00040054068401CDFF838154860DFF8240502
:1019D0004068DFF8641508600120DFF858150870CA
:1019E0000020DFF844150870DFF84805007800286B
:1019F0005DD00020DFF83C150870DFF83405006882
:101A0000002854D0DFF83005006800284FD0DFF8F8
:101A10002C050078411CDFF824251170DFF818151B
:101A20000968DFF80C251268914207D2DFF800152B
:101A30000968DFF804251268891A06E0DFF8F8144F
:101A40000968DFF8EC241268891ADFF8F424C0B2C0
:101A500042F82010DFF8E4040078042827DB002097
:101A6000DFF8D8140870DFF8D8040068DFF8D01465
:101A70008968401A04F098F9642818DADFF8C0047D
:101A80004068DFF8BC14C968401A04F08DF9642876
:101A90000DDA0020002106E0DFF8A424C9B252F8D4
:101AA00021201018491CC9B20429F5DB400810BDDB
:101AB00010B5DFF890040078411CDFF8882411701D
:101AC000C0B20528C0F20C810020DFF8781408703D
:101AD000DFF874040478601CDFF86C1408700421CB
:101AE000DFF8080400F05FFBDFF86014E4B208558B
:101AF000DFF8540400780A2803DB0020DFF84814DC
:101B00000870DFF84C040078002804D1DFF84404A2
:101B10000078012846D1DFF834040078DFF82C146F
:101B200049780818DFF8241489780818DFF81C149D
:101B3000C9780818DFF8141409790818DFF80C14AC
:101B400049790818DFF8041489790818DFF8FC13BC
:101B5000C9790818DFF8F413097A0818DFF8EC13CC
:101B6000497A081800281DD10020DFF8E813087012
:101B7000DFF8DC030078002810D1DFF88403006868
:101B8000401CDFF87C130860DFF868030068DFF8AA
:101B9000C81308600120DFF8C41308700020DFF8C4
:101BA000B0130870DFF8A8030078002804D1DFF82C
:101BB000A4030078002843D1DFF890030078DFF811
:101BC0008C1349780818DFF8841389780818DFF82F
:101BD0007C13C9780818DFF8741309790818DFF83E
:101BE0006C1349790818DFF8641389790818DFF84D
:101BF0005C13C9790818DFF85413097A0818DFF85C
:101C00004C13497A08180A281AD10120DFF8441326
:101C10000870DFF83C03007800280DD1B848006850
:101C2000401CB7490860B3480068DFF83413086007
:101C30000120DFF8281308700020DFF81413087063
:101C4000DFF81803007800284AD00020C349087044
:101C5000C1480068002843D0C148006800283FD030
:101C6000C0480078411CBF4A1170BD490968BA4A92
:101C70001268914205D2B8490968B94A1268891AAE
:101C800004E0B7490968B44A1268891AB64AC0B272
:101C900042F82010B3480078042821DB0020B14925
:101CA0000870B1480068B0498968401A04F07CF8AF
:101CB000642815DAAC484068AB49C968401A04F09A
:101CC00073F864280CDA0020002105E0A64AC9B2A6
:101CD00052F821201018491CC9B20429F6DB40082B
:101CE00010BDC0B20B2800DB0A20A0490870704765
:101CF000C0B20B2800DB0A209C4988707047C0B234
:101D00000B2800DB0A20994948707047C0B20B28A5
:101D100000DB0A209549C870704710B50400714A6D
:101D2000D2E9000100F0B3FA332864D3A4B2B4F5C9
:101D3000807F04D18E480088401C8D490880A4B261
:101D4000042C06D1FFF760FD8A480088401C8949B1
:101D50000880A4B2082C06D1FFF7C0FC8648008892
:101D6000401C85490880A4B2102C06D1FFF78AFCDC
:101D700082480088401C81490880A4B2202C06D1EA
:101D8000FFF7F8FB7E480088401C7D490880A4B21C
:101D9000012C04D17B480088401C7A490880A4B2F9
:101DA000802C04D178480088401C77490880A4B270
:101DB000B4F5007F04D175480088401C7349088041
:101DC000A4B2B4F5806F04D171480088401C7049FA
:101DD0000880A4B2B4F5006F04D16E480088401C9E
:101DE0006C490880A4B2B4F5805F04D16A480088C9
:101DF000401C694908803C4AD2E9000100F047FADA
:101E0000332861D3A4B2022C1BD1644AD2E9000169
:101E100000F03DFAB0F5FA7F13D9052000F0DFF8A5
:101E200002215F4800F0BFF900284FD05B4800F066
:101E300057FA0120264908705A480078401C594931
:101E40000870A4B2B4F5005F0CD1574AD2E9000182
:101E500000F01DFAC92805D3534800F041FA0120CB
:101E60001C490870A4B2B4F5804F0CD14F4AD2E996
:101E7000000100F00CFAC92805D34C4800F030FAF4
:101E8000012017490870A4B2B4F5004F0CD1484A9C
:101E9000D2E9000100F0FBF9C92805D3444800F05D
:101EA0001FFA01200C490870A4B2402C0CD1414A01
:101EB000D2E9000100F0EBF9C92805D33D4800F054
:101EC0000FFA0120054908703B48048010BD00004E
:101ED000AD0D0020AE0D0020AF0D0020B00D002094
:101EE000B10D0020140D00200C0D00200014014045
:101EF0002C0C0020740C00200088C340000000203F
:101F0000600C00201C0D0020B20D0020240D0020CC
:101F1000B30D00201301002004000020B60D0020A6
:101F2000B40D0020BC0C002014010020B50D0020D1
:101F3000740D0020B70D0020780D0020B80D002092
:101F4000840C0020BB0D0020B90D0020C80C00201F
:101F500015010020BA0D00207C0D0020BC0D0020D2
:101F6000800D0020BD0D0020940C0020840D002069
:101F7000920D0020940D0020960D0020980D002059
:101F80009A0D00209C0D00209E0D0020A00D002029
:101F9000A20D0020A40D0020A60D00202C0D002075
:101FA00000180140BE0D0020340D00203C0D002023
:101FB000440D00204C0D0020900D002002B44FF085
:101FC0000E0101FB00F04FF0240190FBF1F10844F9
:101FD000C82880F2098000BF00BF033804E002B4C3
:101FE0004FF4615101FB00F00138FDD802BC70478D
:101FF000F8B400250024002500220026002307E075
:10200000DFF8E4512D6835EA0404774D2C605B1C41
:10201000102B80F0C680012414FA03F50C682C40C4
:10202000AC42F4D14E68002E27D0012E1AD0022ED9
:102030001DD0032E2FD0112E16D0122E1AD06B4F7A
:10204000BE421AD06A4FBE4217D06A4FBE4214D069
:10205000694FBE4211D0694FBE420ED0684FBE429A
:102060000BD01AE0CA6818E0CA68121D15E0CA68E9
:10207000083212E0CA680C320FE08A68002A01D1E7
:10208000042207E08A68012A02D10822056101E0E2
:102090000822456101E00022FFE7FF2C01D805007E
:1020A00000E0051DFF2C01D89E0002E0B3F10806F8
:1020B000B6002F685FF00F0C1CFA06FC37EA0C071D
:1020C00012FA06F63E432E604D68ED009FD54D4D49
:1020D0002D6855F001054B4E35604A4D2D6815F0C1
:1020E00001050095009D484D9E0855F826500F2685
:1020F00013F00307FFB2BF00BE40B543434EB042EA
:1021000001D100260FE0424EB04201D101260AE083
:10211000404EB04201D1022605E03F4EB04201D10F
:10212000032600E0042613F00307FFB2BF00BE4001
:102130003543354E9F0846F827504D68ED0305D5C9
:10214000364D2D682543354E356004E0334D2D68FE
:10215000A543324E35604D68AD0305D5304D2D6831
:1021600025432F4E356004E02D4D2D68A5432C4EA0
:1021700035604D68ED0205D52A4D2D682543294E61
:10218000356004E0274D2D68A543264E35604D6827
:10219000AD027FF535AF144D2D682C43124D2C60E8
:1021A00035E7F1BC7047806889B2084201D0012050
:1021B00000E00020C0B27047D2B2002A02D089B23B
:1021C000016102E089B209040161704780B51649D6
:1021D000096880B2014205D080B21349086080B21C
:1021E000FFF79BFD01BD00000C0401400000111031
:1021F0000000121000002110000022100000311019
:102200000000321018100240080001400008014090
:10221000000C014000100140001401400004014086
:102220000404014008040140140401403348C088FC
:10223000401C3249C8803148C088B0F57A7F07DB3E
:1022400000202E49C8802D484079401C2B494871F8
:102250002A4840793C2807DB002028494871274854
:102260000079401C25490871244800793C2807DB87
:1022700000202249087121480068401C1F4908605D
:1022800070471E49D1E90023C0E90023704703B419
:102290001A4800681A49194A12794EF660235A43BF
:1022A00001FB0020154949794FF47A7202FB0100C5
:1022B0001249C98808180099114A02FB11009DF8BB
:1022C00004104EF6602202FB11009DF805104FF439
:1022D0007A7202FB1100BDF80610401A02B0704776
:1022E000064909680160054909790171034949797D
:1022F00041710249C988C18070470000540D002017
:1023000080EE360070B58AB006000C00150000F0B3
:1023100076F94AF6C870FFF751FEDFF85009C4702D
:10232000DFF8480906710020DFF8401948710020E5
:10233000DFF8381988710020DFF830194870E4B2EE
:10234000022C07DBDFF82409407850F00800DFF8A2
:102350001C194870032000F0E2F841F28830FFF7C2
:102360002DFE032000F0DBF841F28830FFF726FE57
:10237000032000F0D4F841F28830FFF71FFE02205E
:1023800000F0CDF8C820FFF719FEDFF8E00840782C
:1023900050F02000C0B200F09EF80420DFF8CC1806
:1023A000087000F086F800F02DF80220DFF8BC1865
:1023B0008870DFF8B808807850F00400C0B200F0F0
:1023C0008AF841F28830FFF7F9FD05A8DFF8A01878
:1023D000142203F0FDFC05AA0021002000F01BF8E8
:1023E0006846DFF89018142203F0F2FC6A460121D7
:1023F000002000F010F82800FFF7F1FD00F002F8CF
:102400000AB070BD80B5012000F065F840F6AC5010
:10241000FFF7D4FD01BD10B51400C9B2C0B200F081
:10242000CFF80AE0207800F068F8DFF8400840793B
:10243000401CDFF838184871641C2078002837D019
:10244000DFF828084079DFF824180979884212D388
:102450000020DFF818184871DFF810088079401C58
:10246000DFF808188871DFF804088179DFF8FC07C5
:10247000407900F0A5F820780A280FD1DFF8EC07A2
:102480008079401CDFF8E4178871DFF8E007817974
:10249000DFF8D807407900F093F8CDE720780D28D1
:1024A000C0D1DFF8C8078179002000F089F8C3E7C0
:1024B00010BD80B5DFF8B407007850F00400DFF8F5
:1024C000AC170870DFF8A407007850F00800C0B21D
:1024D00000F001F801BD10B5040000220221DFF870
:1024E0009C07FFF769FE2000C0B2000900F017F852
:1024F00014F00F0000F013F810BD10B50400012215
:102500000221DFF87807FFF757FE2000C0B200096C
:1025100000F005F814F00F0000F001F810BD10B540
:102520000400200706D501220121DFF84C07FFF740
:1025300043FE05E000220121DFF83C07FFF73CFEE7
:10254000600706D501220221DFF82C07FFF734FED1
:1025500005E000220221DFF82007FFF72DFEA0078B
:1025600006D501220421DFF81007FFF725FE05E05C
:1025700000220421DFF80007FFF71EFEE00706D562
:1025800001220821DFF8F006FFF716FE05E0002221
:102590000821DFF8E406FFF70FFE01220121DFF832
:1025A000DC06FFF709FE3C20FFF708FD00220121B1
:1025B000DFF8C806FFF700FE3C20FFF7FFFC10BD68
:1025C00010B582B06A46DFF8B8361C6814600A009D
:1025D000DFF89836DB78D2B29A4200D30021DFF8D8
:1025E0008C265071DFF8842691716A46C9B2515C1D
:1025F000081850F08000C0B2FFF76DFF13BD80B522
:1026000001220821DFF87006FFF7D6FD002208211D
:10261000DFF86406FFF7D0FD01220421DFF8580639
:10262000FFF7CAFD00220421DFF84C06FFF7C4FDC6
:1026300001220221DFF84006FFF7BEFD0022022141
:10264000DFF83406FFF7B8FD01220121DFF8280684
:10265000FFF7B2FD00220121DFF81C06FFF7ACFDF9
:1026600001220121DFF81406FFF7A6FD0022012157
:10267000DFF80806FFF7A0FD01220221DFF8FC05C4
:10268000FFF79AFD00220221DFF8F005FFF794FD25
:1026900001BD80B5DFF8EC2501210020FFF7BBFE6E
:1026A000DFF8EC050088ADF800006A46012109203A
:1026B000FFF7B1FE01BD10B588B00400D3A2002120
:1026C0000020FFF7A8FE02A8DFF8BC150A68026028
:1026D00002AA00210320FFF79EFEDFF8B0250021AB
:1026E0000420FFF798FE42F21070844201D342F2B8
:1026F0000F746420B4FBF0F06421B0FBF1F13031D1
:102700008DF800109DF80010302902D120218DF89D
:1027100000106421B0FBF1F201FB12010A22B1FBAF
:10272000F2F130318DF801109DF80110302906D1F9
:102730009DF80010202902D120218DF801100A21D6
:10274000B0FBF1F201FB120030308DF802000020E6
:102750008DF803000DF1010200210920FFF75BFE57
:102760006420B4FBF0F100FB11402C218DF8001027
:102770000A21B0FBF1F130318DF801100A21B0FBD4
:10278000F1F201FB120030308DF8020000208DF8CC
:1027900003006A4600210B20FFF73DFEA7208DF8BD
:1027A00008002E208DF8090000208DF80A0002AAEA
:1027B00000210E20FFF72FFE03A8DFF8D814142203
:1027C00003F006FB03AA01210020FFF724FE08B056
:1027D00010BD10B58CB0040002A8DFF8BC141422A0
:1027E00003F0F6FA02AA00210020FFF714FEDFF83A
:1027F000AC04844201D3DFF8A8446420B4FBF0F0B9
:102800006421B0FBF1F130318DF800109DF800101B
:10281000302902D120218DF800106421B0FBF1F2A3
:1028200001FB12010A22B1FBF2F130318DF80110E7
:102830009DF80110302906D19DF80010202902D101
:1028400020218DF801100A21B0FBF1F201FB1200EA
:1028500030308DF8020000208DF803006A46002118
:102860000820FFF7D8FD6420B4FBF0F100FB114015
:102870002C218DF800100A21B0FBF1F130318DF8D8
:1028800001100A21B0FBF1F201FB120030308DF88B
:10289000020000208DF803006A4600210B20FFF79C
:1028A000BAFDA7208DF808002E208DF80900002021
:1028B0008DF80A0002AA00210E20FFF7ACFD07A840
:1028C000DFF8E013142203F083FA07AA01210020A5
:1028D000FFF7A1FD0CB010BD10B58AB00C0080B29E
:1028E000B0F57A7F01DB40F2E73080B2642190FBE3
:1028F000F1F130318DF800109DF80010302902D12F
:1029000020218DF8001080B2642190FBF1F201FBD0
:1029100012010A2291FBF2F130318DF801109DF87D
:102920000110302906D19DF80010202902D1202164
:102930008DF8011080B20A2190FBF1F201FB120028
:1029400030308DF8020000208DF803006A46002127
:102950000020FFF760FD02A8DFF84C13D1E9002347
:10296000C0E9002302AA00210320FFF754FDA4B20E
:10297000B4F57A7F01DB40F2E734A4B2642094FB23
:10298000F0F030308DF800009DF80000302802D1C2
:1029900020208DF80000A4B2642094FBF0F100FB2D
:1029A00011400A2190FBF1F030308DF801002E200B
:1029B0008DF80200A4B20A2094FBF0F100FB114054
:1029C00030308DF8030000208DF804006A460021A5
:1029D0000920FFF720FDA7208DF800002E208DF89C
:1029E000010000208DF802006A4600210E20FFF74A
:1029F00012FD04A8DFF8B412142203F0E9F904AAC6
:102A000001210020FFF707FD0AB010BD4845200056
:102A1000F0B58FB004000E0015001F0009A8DFF804
:102A20009012142203F0D4F904A8DFF888121422BB
:102A300003F0CEF9FFB2002F05D004AA0021002038
:102A4000FFF7E9FC04E009AA00210020FFF7E3FCFE
:102A5000B6F57A7F01D340F2E736642E2ED3642098
:102A6000B6FBF0F030308DF800009DF80000302803
:102A700002D120208DF800006420B6FBF0F100FBAD
:102A800011600A21B0FBF1F030308DF801009DF8A3
:102A90000100302806D19DF80000202802D1202016
:102AA0008DF801002C208DF802000A20B6FBF0F111
:102AB00000FB116030308DF8030013E020208DF80A
:102AC00000000A20B6FBF0F030308DF801002C2019
:102AD0008DF802000A20B6FBF0F100FB11603030E7
:102AE0008DF8030000208DF804006A4600210920BB
:102AF000FFF791FCA7208DF800002E208DF8010033
:102B000000208DF802006A4600210D20FFF783FCAB
:102B1000B4F57A7F01D340F2E734642C2ED36420DD
:102B2000B4FBF0F030308DF800009DF80000302844
:102B300002D120208DF800006420B4FBF0F100FBEE
:102B400011400A21B0FBF1F030308DF801009DF802
:102B50000100302806D19DF80000202802D1202055
:102B60008DF801002C208DF802000A20B4FBF0F152
:102B700000FB114030308DF8030013E020208DF869
:102B800000000A20B4FBF0F030308DF801002C205A
:102B90008DF802000A20B4FBF0F100FB1140303048
:102BA0008DF8030000208DF804006A460121002002
:102BB000FFF731FC20208DF80000A7208DF80100E0
:102BC0002E208DF802002D208DF8030000208DF8B6
:102BD00004006A4601210420FFF71DFC6420B5FBB8
:102BE000F0F030308DF800009DF80000302802D160
:102BF00020208DF800009DF80000302802D1202010
:102C00008DF800006420B5FBF0F100FB11500A21A3
:102C1000B0FBF1F030308DF801009DF80100302854
:102C200006D19DF80000202802D120208DF8010057
:102C30000A20B5FBF0F100FB115030308DF8020096
:102C400000208DF803006A4601210820FFF7E3FB0E
:102C500002A8DFF86410D1E90023C0E9002302AA2A
:102C600001210B20FFF7D7FB0FB0F0BD5C0D00205A
:102C70004C850008608500080010014000080140F4
:102C80007C86000874850008808600085486000849
:102C900042310008888500089C850008A086010054
:102CA0009F860100B08500085C860008C485000886
:102CB000D8850008EC85000864860008002840F1EB
:102CC0000980F446404200F005F850F000406047AB
:102CD000002800BF0AD0B0FA80F18840D1F19D01F0
:102CE000C905020672F1004241EB102070470268EC
:102CF000531C0360117070475FF0FF0C1CEAD05149
:102D000014BF614506E0C110400721F0E04101F128
:102D10006051704779B900F0004100020AD0B0FA62
:102D200080FC00FA0CF001F16051A1EB0C5101EBB9
:102D3000D0214005704741020CBF40F4E0016FF024
:102D40000001002070470102B0B581EA030C0CF0CD
:102D5000004C40F2FF7515EA11541DBF15EA1357D8
:102D6000AC42AF4239E0E41923EA455343F48013FF
:102D7000C90241F0004141EA505EC7021100A7FBC1
:102D8000020200284FF00000EEFB01204FF000018E
:102D9000E3FB072118BF42F001024018002149411E
:102DA000E3FB0E01A4F580640F0302D25200404100
:102DB000494154F101046CDD470872F1004250F1C1
:102DC000000051EB0451A1F580115CBF41EA0C01F8
:102DD000B0BD4CEA05510020B0BD05EA1357AC4226
:102DE00014BFAF4241E050EA410E1CBF52EA430E0D
:102DF00002E061460020B0BD24423C441BD15FEAA2
:102E0000070EF6D0090302BF01460020AEF1140EF2
:102E1000B1FA81F7AEEB070401FA07FE0C37C7F1F0
:102E2000200100FA07F7C8404EEA000E23EA455396
:102E300043F48013A2E733F00043B3FA83F704BFEF
:102E4000B2FA82FE77440B3FE41BB7F1200E2FBF8E
:102E500002FA0EF3BB40C7F1200E22FA0EFE38BF75
:102E600043EA0E03BA40641C82E750EA410E14BFE5
:102E700052EA430E6FF000014FF4001717EB430FB7
:102E80008ABF194617EB410FB5E74CEA0551002000
:102E9000B0BDD4F10104B4F120070FDAC4F120076A
:102EA000520828BF42F0010210FA07F501FA07F7AD
:102EB000E1BF2A43E0403843E1400FE0352C98DC85
:102EC000C7F1200452EA400220FA07F218BF42F08C
:102ED000010231FA07F0A1400A43002172F10042D9
:102EE00050F1000051EB0C01B0BD01022DE9F041A1
:102EF00040F2FF7581EA030C0CF0004C15EA115406
:102F00001DBF15EA1357AC42AF42E9E0BC41C1F323
:102F10001301C3F31303801A994143F4801304D2BD
:102F2000641E4000494180185941C90241EA50518C
:102F3000B1FBF3F603FB1611A2FB0675D7EBC0201D
:102F4000A94102D2761E80185941C90241EA505166
:102F5000B1FBF3FE03FB1E11A2FB0E75D7EBC020E5
:102F6000A94103D2AEF1010E80185941890241EA0C
:102F70009051760546EA8E2EB1FBF3F603FB16114F
:102F8000A2FB0675D7EB8020A94102D2761E8018DD
:102F90005941C90241EA50514EEA060EB1FBF3F61F
:102FA00003FB1611A2FB0675D7EBC020A94102D284
:102FB000761E80185941C90241EA5051B1FBF3F71E
:102FC00003FB1711A2FB0735D3EBC020A94167F122
:102FD00000070CBF004247F0010766F3D5274FEA10
:102FE0001E31B80814F5806414DDBD0775F1004288
:102FF00050EB0E5051EB045111F5801F5CBF41EABC
:103000000C01BDE8F0814CF07F6141F0E04100200F
:10301000BDE8F081BD076D0840EA0E5041F4801113
:10302000D4F10104B4F120060ADAC4F1200602004A
:10303000E04001FA06F3E1401843B24015430EE0C8
:10304000342C14DCC6F1200445EA40056D0820FA52
:1030500006F2154321FA06F0A1400D43002175F157
:10306000004250F1000051EB0C01BDE8F08100205E
:103070005FEA0C01BDE8F081CFB992185B41B3FA69
:1030800083F704BFB2FA82F6BF190B3FB7F12006EF
:103090002FBF02FA06F3BB40C7F1200622FA06F65C
:1030A00038BF3343BA401CB1E419641E2FE77F4296
:1030B00031F00041B1FA81F404BFB0FA80F6A419EE
:1030C0000B3CB4F120062FBF00FA06F1A140C4F179
:1030D000200620FA06F638BF3143A0403C1B16E715
:1030E000AC421ABF05EA1357AF4214E050EA41065A
:1030F0001CBF52EA4306BFE750EA4107304661462B
:103100001CBF41EA0551BDE8F08152EA430C08BFFB
:10311000C143BDE8F08100204FF4001616EB410FCB
:1031200098BF16EB430F08BF16EB410F24BFC143F6
:1031300005E016EB430F0CBF61464CEA0551BDE8B4
:10314000F081AE00F446400D40EAC120490006D2AD
:1031500000F014F8004248BF6FF00040604700F0F4
:103160000DF84FF0004188428CBF0846404260474E
:10317000400D40EAC120490080F00D8040F0004041
:10318000490DA1F58061491C05D4D1F11F0154BF3F
:10319000C840C01770474FF00000704740000DD284
:1031A000010E7F390AD4D1F11F0104D4C00140F0CF
:1031B0000040C84070477FF0000070470020704713
:1031C00010B50400002094F82400012801D1022049
:1031D00065E0012084F82400200002F070F9C0B2FC
:1031E000002858D1A16ADFF8BC24114051F4805165
:1031F000A1622168DFF8B024914209D1DFF8AC1454
:10320000096811F4702F01D1012102E0002100E0D2
:103210000121002904D0A16A31F48011A16203E0E8
:10322000A16A51F48011A162A16AC90501D40021EB
:10323000E162002184F824107FF00401226811600B
:1032400021684968490529D42168896811F4E04159
:10325000B1F5E04F18D12168DFF84C24914209D133
:10326000DFF84814096811F4702F01D1012102E040
:10327000002100E00121002906D02168896851F46D
:1032800002112268916009E02168896851F40041C7
:103290002268916002E0002184F82410C0B210BDC1
:1032A00010B50400002094F82400012801D1022068
:1032B0001FE0012084F82400A06AC00510D4206813
:1032C000406840050CD4200002F03AF9C0B2002852
:1032D0000BD1A16A31F4885151F00101A16204E0DF
:1032E000A06A50F02000A0620120002184F8241080
:1032F000C0B210BDF8B504000D00002000900027FA
:1033000002F092FD06002068806B10F4401F16D179
:103310002068006840076DD415F1010FF8D0002D2A
:1033200004D002F081FD801B8542F1D2A06A50F0EA
:103330000400A062002084F82400032083E002201F
:1033400001F04EFE21680969DFF86423114215D1AE
:103350002168C968DFF85C2311420FD1216809692F
:10336000DFF85423114207D12168C968DFF84C23E4
:10337000114201D114211CE029211AE021680969B8
:10338000DFF83423114205D12168C968DFF82C2306
:1033900011420BD021680969DFF82423114207D1BB
:1033A0002168C968DFF81823114201D1542100E0D7
:1033B000FC21DFF8EC221268B2FBF0F001FB00F711
:1033C00002E00098401C00900098B84212D215F11B
:1033D000010FF6D0002D04D002F026FD801B85429F
:1033E000EFD2A06A50F00400A062002084F824000C
:1033F000032028E07FF00E0021680860A06A50F4E6
:103400000050A0622068806810F4E040B0F5E04F02
:103410000DD020684068400514D42068806810F4FE
:103420006020B0F5602F0DD1E06800280AD1A06AB5
:1034300030F48050A062A06AC00503D4A06A50F0A6
:103440000100A0620020F2BD002202290AD00CD3A4
:10345000042901D003D308E00068826C07E000680B
:10346000426C04E00068026C01E00068C26B10006E
:10347000704778B40A000021002300938368002B72
:1034800090F82430012B01D1022006E1012380F8BD
:1034900024308368002B12D15368012B09D10368B3
:1034A0009B6B9B0D9B05146853EAC4330468A363AC
:1034B00035E0816A51F02001816201212FE013691A
:1034C0005468A3421CD303689B6B1F24156956687C
:1034D000751BED1C05267543AC4054F44014A34302
:1034E0001469641E53EA0453146815695668751B01
:1034F000ED1C05267543AC4023430468A3630EE02E
:1035000003689B6B1F2415695668751BED1C052607
:103510007543AC4054F44014A3430468A3630368A8
:103520009B68DB0707D403689B68664C2340D4691B
:1035300023430468A3609369012B0FD1D369B3F5CA
:10354000E04F06D103685B6853F4806304686360EE
:1035500004E0816A51F02001816201215369012B4D
:103560000ED19369002B06D103685B6853F4805336
:103570000468636004E0816A51F0200181620121E6
:1035800013680A2B12D30368DB68072415680A3D09
:1035900003267543AC40A343946815680A3D03268F
:1035A0007543AC4023430468E3600FE003681B6984
:1035B0000724156803267543AC40A3439468156837
:1035C00003267543AC402343046823611368102B22
:1035D00002D01368112B05D103689B6853F40003D4
:1035E0000468A3605368012B04D01ED3032B13D0AF
:1035F00009D31AE003685B691B0B1B03D4682343E0
:103600000468636119E003689B691B0B1B03D468A2
:1036100023430468A36110E00368DB691B0B1B03F1
:10362000D46823430468E36107E003681B6A1B0B4B
:103630001B03D4682343046823621368102B02D051
:103640001368112B24D103681F4CA3421BD10368BC
:103650009B681B021CD403689B6853F40003046836
:10366000A3601268102A13D10D4A1268174BB2FBDF
:10367000F3F20A235A430092009A002A08D0009AD3
:10368000521E0092F8E7816A51F020018162012107
:10369000002280F824200800C0B272BC70470000ED
:1036A0000C000020FEDFFFFF002801400424014041
:1036B00024499224244992009224491292244900D8
:1036C00049922400FE8FFFFF0024014040420F007A
:1036D000F0B44FF0004591EA030F44BF6B4000F097
:1036E000C1B800BF841A71EB030604D26E40001B00
:1036F000B141121973414FF4001C1CEB410F34BF50
:103700007CEB430684E00C0DA4EB1356362E7DDCD7
:10371000012E43DC45EAC32343EA525312BFD202CF
:1037200092025B08240545EAC12141EA5051D2EBDF
:10373000C020994125D407D1B0FA80F610FA06F1DD
:1037400064D00020203608E0B1FA81F6B140C6F11D
:10375000200220FA02F21143B0404FEAF474B4EBB5
:10376000465434F001064FEA74040AD8D6F5001620
:10377000760D04F00044F04061FA06F25040F1404A
:103780004840C00A40EA415021F0004128BF5FEAAA
:10379000500550F1000044EBD12137E045EAC32346
:1037A000DB0A45EAC121C90AB6F120050EDD42EA6D
:1037B0000242120CC5F1200603FA06F6EB4042EA7B
:1037C00006056D42984161F100010DE062FA06F5CF
:1037D000F240554063FA06FC82EA0C02F3405A407C
:1037E0006D42904161EB030111F4801F05D1641E0D
:1037F000620502D06D004041494121F48011430827
:1038000075F1004350F1000041EB0451F0BC7047EA
:103810001CEB410F15D223F0004352EA43060BD0B4
:103820004FEA4C0CBCEB410F04D80C0D661E342E35
:10383000B7DDEBE7801A994150EA410608BF002145
:10384000E4E708BF1CEB430F28BF6FF00001DDE782
:10385000F0B44FF0004591EA030C44BF6B40FFF712
:1038600041BF00BF841A71EB030603D2001BB141B4
:10387000121973414FF4001C1CEB410F34BF7CEB59
:10388000430443E00C0DA4EB1356352E50DC45EAFF
:10389000C323DB0A45EAC121C912B6F120050DDDBB
:1038A00063FA05F6EB4086EA0305124218BF45F0BD
:1038B0000105C01851F100010CD213E062FA06F5BF
:1038C000F2405540F3415A40B340F3405A4080180B
:1038D000594107D349085FEA30005FEA350528BF40
:1038E00045F0010501F58011420875F1004250F1E3
:1038F000000041EB0451F0BC4FF4001C1CEB410FE5
:1039000038BF70470020090D090570471CEB410FB7
:1039100010D252EA43060BD0BCEB410F05D80C0D78
:10392000AB43661E342EB5DD02E0AB43801859412F
:10393000F0BC7047F0BC704780B50D48006850F08F
:1039400010000B490860032001F036FC002002F053
:1039500071FA02F083FA002002BD0649096801608D
:1039600005490968416005490968816070470000A0
:1039700000200240E8F7FF1FECF7FF1FF0F7FF1FE2
:1039800010B50400002C01D1012014E094F83D0092
:10399000002805D1002084F83C00200002F034FB10
:1039A000022084F83D00211D206800F05AF9012012
:1039B00084F83D00002010BD0168C96851F0010184
:1039C0000268D1600168096851F001010068016076
:1039D0000020704710B504002068006980071AD5E0
:1039E0002068C068800716D57FF002002168086152
:1039F000012020772068806910F0030F03D0200099
:103A000002F0D2FB05E0200002F0CFFB200002F024
:103A1000CDFB002020772068006940071AD5206878
:103A2000C068400716D57FF00400216808610220B5
:103A300020772068806910F4407F03D0200002F0D6
:103A4000B3FB05E0200002F0B0FB200002F0AEFB6B
:103A5000002020772068006900071AD52068C06818
:103A6000000716D57FF00800216808610420207740
:103A70002068C06910F0030F03D0200002F094FB0F
:103A800005E0200002F091FB200002F08FFB0020F7
:103A9000207720680069C0061AD52068C068C00673
:103AA00016D57FF010002168086108202077206873
:103AB000C06910F4407F03D0200002F075FB05E0E0
:103AC000200002F072FB200002F070FB0020207743
:103AD00020680069C0070AD52068C068C00706D5FD
:103AE0007FF0010021680861200002F060FB20687F
:103AF000006900060AD52068C068000606D57FF078
:103B0000800021680861200002F052FB20680069F3
:103B100040060AD52068C068400606D57FF0400000
:103B200021680861200002F044FB206800698006DB
:103B30000AD52068C068800606D57FF0200021687D
:103B40000861200002F036FB10BD10B50400002013
:103B500094F83C00012801D1022081E0012084F882
:103B60003C00022084F83D002068806830F0770037
:103B700030F47F40226890600868002855D01028F3
:103B800058D020285BD030285ED0402843D0502821
:103B90002DD0602835D070280DD0B0F5805F03D0CF
:103BA000B0F5005F16D054E020688068C008C000FF
:103BB000216888604DE0CB684A688968206800F019
:103BC000BCF82068806830F0770050F077002168FA
:103BD00088603EE0CB684A688968206800F0ADF8EC
:103BE0002068806850F480402168886031E0CA68AD
:103BF0004968206800F06EF85021206800F093F8C2
:103C000027E0CA684968206800F078F860212068D9
:103C100000F089F81DE0CA684968206800F05AF889
:103C20004021206800F07FF813E00021206800F0B8
:103C30007AF80EE01021206800F075F809E02021E4
:103C4000206800F070F804E03021206800F06BF884
:103C5000FFE7012084F83D00002084F83C000020AC
:103C600010BD00220268184B984208D0B0F1804F76
:103C700005D0164B984202D0154B984203D132F032
:103C800070024B681A43104B984208D0B0F1804F35
:103C900005D00E4B984202D00D4B984203D132F41E
:103CA0004072CB681A4332F080024B691A430260BB
:103CB0008A68C2620A688262034A904201D1096935
:103CC0000163012141617047002C01400004004064
:103CD0000008004010B400230024046A036A5B0853
:103CE0005B000362836933F0F00353EA021334F09C
:103CF0000A040C438361046210BC704710B40023B3
:103D00000024036A33F0100303628369046A33F406
:103D1000704353EA023334F0A00454EA011483617F
:103D2000046210BC70470022826832F0700289B2CF
:103D300051F007010A438260704710B40024846880
:103D400034F47F44114351EA03210C43846010BCD6
:103D50007047000080B500F0F1FA002801D000F0B3
:103D600041FC01BDDFF898080078DFF89818097861
:103D7000884208D3DFF888080078DFF888180978C7
:103D8000401AC0B208E0DFF87C0800784042DFF853
:103D9000701809780818C0B27047C0B2002809D15D
:103DA0003020DFF8641808700A20DFF85C184870CB
:103DB000022044E0C0B201280DD12D20DFF84818C0
:103DC00008703120DFF8401848700A20DFF83818F2
:103DD0008870032033E0C0B202280DD12D20DFF817
:103DE000281808703220DFF8201848700A20DFF801
:103DF00018188870032022E0C0B203280DD12D20AE
:103E0000DFF8041808703320DFF8FC1748700A2028
:103E1000DFF8F4178870032011E0C0B204280DD138
:103E20002D20DFF8E41708703420DFF8DC17487025
:103E30000A20DFF8D4178870032000E000207047C4
:103E40003EB5040000255B20ADB260556D1CDFF867
:103E5000BC070268E0A1280080B2204402F0ACF95F
:103E600045192C20ADB260556D1CDFF8A0074268E3
:103E7000D9A1280080B2204402F09EF945192C20D7
:103E8000ADB260556D1CDFF884078268D2A12800AE
:103E900080B2204402F090F945192C20ADB2605553
:103EA0006D1CDFF86807C268CBA1280080B22044EF
:103EB00002F082F945192C20ADB260556D1CDFF877
:103EC0004C070269C4A1280080B2204402F074F9B2
:103ED00045192C20ADB260556D1CDFF83407006821
:103EE00000F06EFC0200BCA1280080B2204402F069
:103EF00063F945192C20ADB260556D1CDFF814072D
:103F00000278B5A1280080B2204402F055F9451985
:103F10002C20ADB260556D1CDFF8FC060278AEA116
:103F2000280080B2204402F047F945192C20ADB298
:103F300060556D1CDFF8E4060268A7A1280080B276
:103F4000204402F039F945192C20ADB260556D1CA2
:103F5000DFF8C8064268A0A1280080B2204402F021
:103F60002BF945192C20ADB260556D1CDFF8AC065D
:103F7000806800F025FC020097A1280080B2204450
:103F800002F01AF945192C20ADB260556D1CDFF80E
:103F90009006027890A1280080B2204402F00CF92B
:103FA00045192C20ADB260556D1CDFF8740682787F
:103FB00089A1280080B2204402F0FEF845192C2087
:103FC000ADB260556D1CDFF85806826882A12800EA
:103FD00080B2204402F0F0F845192C20ADB26055B3
:103FE0006D1CDFF83C06C27D7BA1280080B2204416
:103FF00002F0E2F845192C20ADB260556D1CDFF8D7
:104000002006027E74A1280080B2204402F0D4F879
:1040100045192C20ADB260556D1CDFF80406427EB8
:104020006DA1280080B2204402F0C6F845192C206A
:10403000ADB260556D1CDFF8E805027D66A1280071
:1040400080B2204402F0B8F845192C20ADB260557A
:104050006D1CDFF8CC05427D5FA1280080B22044B2
:1040600002F0AAF845192C20ADB260556D1CDFF89E
:10407000B005827D58A1280080B2204402F09CF84F
:1040800045192C20ADB260556D1CDFF89405827E79
:1040900051A1280080B2204402F08EF845192C204E
:1040A000ADB260556D1CDFF87805C27E4AA12800CC
:1040B00080B2204402F080F845192C20ADB2605542
:1040C0006D1CDFF85C05427C43A1280080B22044CF
:1040D00002F072F845192C20ADB260556D1CDFF866
:1040E0004005027F3CA1280080B2204402F064F821
:1040F00045192C20ADB260556D1CDFF8240582896E
:1041000035A1280080B2204402F056F845192C2031
:10411000ADB260556D1CDFF80805027C2EA12800A9
:1041200080B2204402F048F845192C20ADB2605509
:104130006D1C0122D2B228A1280080B2204402F0D6
:104140003BF845192C20ADB260556D1C6846FFF751
:1041500004FC009ADFF8CC14280080B2204402F05E
:104160002BF84519019ADFF8C014280080B22044CA
:1041700002F022F84519029ADFF8AC14280080B248
:10418000204402F019F84519DFF89404C28912A1FD
:10419000280080B2204402F00FF845195D20ADB22E
:1041A00060556D1C0A20ADB260556D1C280080B2B0
:1041B0003EBD10B50400DFF864048068FEF7EEFF32
:1041C000020005A1200001F0F7FF0A2180B221546E
:1041D000401C80B210BD00002564000080B50A229A
:1041E000694602F003F8FEF769FDFEF785FD00223F
:1041F000DFF83834FEF77AFE00F09AFADFF8101490
:1042000008600098401C00900A226946009801F05E
:10421000EDFFDFF8001408700098401C00900A229F
:104220000021009801F0E2FFDFF8EC13087001BDF7
:1042300080B50A22694601F0D9FFDFF8F41348601F
:104240000098401C00900A226946009801F0CEFFB9
:10425000DFF8DC13C8600098401C00900A22694611
:10426000009801F0C3FFDFF8C81348610098401CB4
:1042700000900A226946009801F0B8FFDFF8B013F9
:10428000C8610098401C00900A226946009801F01D
:10429000ADFFDFF89C1348620098401C00900A2292
:1042A0006946009801F0A2FFDFF88413C862009805
:1042B000401C00900A226946009801F097FFDFF841
:1042C000701348630098401C00900A2269460098C9
:1042D00001F08CFFDFF85813C8630098401C009071
:1042E0000A220021009801F081FFDFF8441348649E
:1042F00001BD70B504000A220021200001F076FF04
:104300000500C6484068FEF7E3FC06002800FEF7FB
:10431000D5FC310001F06EFFFEF740FFBF49486059
:104320000A220021200001F061FFFEF7C7FCBB4913
:10433000896801F05FFFB949886070BDBD48808D14
:10434000BC49C98D401A401EBB49C0B2095C0A294C
:1043500009D1AB4909780200D2B2914203D0A849F1
:104360000870012000E00020704780B5B248B149D4
:104370008862A548AF4908624FF48072AE49AD48E3
:1043800001F098FA01BD38B50400002501F074FF72
:10439000A84801F0C4FA4FF48072A749A54801F07B
:1043A00089FAA648007867281FD1FFF7DBFC0328AD
:1043B00003DB0320FFF7F1FC4519FFF7D3FC0228CC
:1043C00003DA0220FFF7E9FC4519FFF7CBFC0228CE
:1043D00007D10020FFF7E1FC4519A01CFFF730FDD5
:1043E0004519EDB2280080B2FBE0944800786328BC
:1043F00040F0E38091484078732806D10020FFF711
:10440000CCFC45198E48FFF7E9FE8C4840786628B9
:1044100006D10020FFF7C1FC45198948FFF708FFC6
:1044200086484078772817D1FFF79CFC042803DBE7
:104430000320FFF7B2FC4519FFF794FC032803DAC9
:104440000220FFF7AAFC4519FFF78CFC032803D1D3
:104450000020FFF7A2FC451978484078722817D150
:10446000FFF780FC042803DB0320FFF796FC4519C7
:10447000FFF778FC032803DA0220FFF78EFC4519CA
:10448000FFF770FC032803D10020FFF786FC4519D5
:104490006A4840786E281AD1FFF764FC042803DBD1
:1044A0000320FFF77AFC4519FFF75CFC032803DAC9
:1044B0000220FFF772FC4519FFF754FC032806D1D0
:1044C0000020FFF76AFC45190220554908705B4837
:1044D000407869281BD152480078022813D1002067
:1044E000FFF75BFC451900224FF480715548FDF73A
:1044F00063FE00224FF400715248FDF75DFE00207C
:104500004749087403E00420FFF747FC45194B486E
:1045100040786A2812D10020FFF73FFC451901229C
:104520004FF480714748FDF747FE01224FF40071B8
:104530004448FDF741FE0120394908743F4840785E
:104540006D282ED1FFF70EFC042803DB0320FFF7B4
:1045500024FC4519FFF706FC032803DA0220FFF7C5
:104560001CFC4519FFF7FEFB03281AD12000FFF7BA
:1045700020FE451902202A490870FCF7FEF827485A
:104580000068264949680C1824488068FEF706FE32
:10459000201A2249086000202049486000201F4955
:1045A000886026484078742803D10020FFF7F5FB87
:1045B0004519EDB2280080B213E0204800786D283C
:1045C0000AD10020FFF7E9FB45191F48FFF791FECC
:1045D000EDB2280080B204E00120FFF7DEFB4519B0
:1045E000002032BD80B50848FFF7CDFE020092B230
:1045F0000549104801F035F901F05AFE01BD0000EF
:10460000C00D00201601002018070020600C0020BB
:10461000080000201201002013010020B00C00202F
:104620002C0C00206C86000874860008000059409D
:10463000700A00203C0B00201808002018090020F8
:104640001A090020001401401909002038B504009F
:10465000002C01D1012020E04CF6CC4021680860FC
:1046600045F2555021680860606821684860A0687C
:104670002168886001F0D8FB05002068C068002828
:1046800006D001F0D1FB401B3128F6D3032004E013
:104690004AF6AA2021680860002032BD4AF6AA2105
:1046A000006801600020704710B50400002C01D1A3
:1046B00001200FE0200001F03FFDE06850F0800095
:1046C00021680860206961680843A168084321687F
:1046D0004860002010BDC16800680160002070477C
:1046E00080B501684968890509D501688968C907E5
:1046F00005D57FF0010102689160FCF7C1F801BDAA
:10470000010040F10980F446404200F005F851F004
:1047100000416047010000BF09D0B0FA80F1884035
:10472000C91CC1F58461090501EBD0214005704722
:104730004FEAF17CBCF1E04C2CBFBCF5001F11E04E
:104740005FEA4C0C34BFBCF17F5F2EE05FEA9C0C4B
:104750004FEA0C1C4FEA3C0CC10071F100414CEBDC
:1047600050707047C90241EA5051C00218BF41F071
:10477000010141F000414FEA6C50C0F109002128CD
:1047800010D240EACC7CCCF1200C11FA0CF070F184
:104790000040CCF1200C21FA0CF00CF0004C40EB66
:1047A0000C0070474FEACC707047490011F5001FAC
:1047B00004D84FEACC10FF30C0057047C8177047C7
:1047C0004100090E7F3915D4D1F11F0114D44000E6
:1047D00007D2C00140F00040C84048BF6FF0004021
:1047E0007047C00140F00040C8404CBF4FF000404F
:1047F000404270470020704700424FF0004058BFD1
:10480000C043704770B582B0040000252078C0070F
:1048100040F18480DFF87C06006810F00C0004286A
:104820000BD0DFF87006006810F00C0008280ED1DD
:10483000DFF860060068C00309D5DFF85C06006891
:1048400080036BD56068002868D1012002E26068AF
:10485000B0F5803F08D1DFF84006006850F48030A2
:10486000DFF83416086038E06068002810D1DFF8FF
:104870002806006830F48030DFF81C160860DFF886
:104880001806006830F48020DFF80C16086024E079
:104890006068B0F5A02F10D1DFF8FC05006850F477
:1048A0008020DFF8F4150860DFF8EC05006850F4AC
:1048B0008030DFF8E41508600FE0DFF8DC05006801
:1048C00030F48030DFF8D0150860DFF8CC050068E0
:1048D00030F48020DFF8C0150860606800280ED032
:1048E00001F0A2FA0500DFF8B0050068800315D4D6
:1048F00001F09AFA401B6528F5D30320AAE101F0E4
:1049000093FA0500DFF890050068800306D501F0F2
:104910008BFA401B6528F5D303209BE120788007A4
:1049200026D5DFF87005006810F00C0F0BD0DFF80B
:104930006405006810F00C00082833D1DFF8540536
:104940000068C0032ED4DFF850050068800704D546
:104950002069012801D001207CE1DFF83C050068D6
:1049600030F0F800616950EAC100DFF82C150860EA
:10497000207800074ED5A069002800F08180012032
:10498000DFF82015086001F04FFA0500DFF8180580
:10499000006880073BD401F047FA401B0328F5D399
:1049A000032057E1206900281ED00120DFF8FC1405
:1049B000086001F039FA0500DFF8DC0400688007C0
:1049C00006D401F031FA401B0328F5D3032041E15E
:1049D000DFF8C404006830F0F800616950EAC100F3
:1049E000DFF8B4140860C3E70020DFF8C0140860E3
:1049F00001F01AFA0500DFF8A00400688007B7D5B7
:104A000001F012FA401B0328F5D3032022E1012014
:104A100000F02DFA2078400740F1B9800026DFF839
:104A200090040068C0000FD4DFF88404006850F0E0
:104A30008050DFF87C140860DFF87404006810F020
:104A40008050009000980126DFF868040068C005D7
:104A500029D4DFF86004006850F48070DFF8541443
:104A6000086001F0E1F90500DFF848040068C005BE
:104A700019D401F0D9F9401B6528F5D30320E9E0EA
:104A80000020DFF82014086001F0CEF90500DFF8FF
:104A9000180400688007BDD501F0C6F9401B032843
:104AA000F5D30320D6E0E068012808D1DFF8080438
:104AB000006850F00100DFF80014086037E0E0689B
:104AC000002810D1DFF8F003006840084000DFF84C
:104AD000E8130860DFF8E003006830F00400DFF856
:104AE000D813086023E0E068052810D1DFF8C80378
:104AF000006850F00400DFF8C0130860DFF8B80366
:104B0000006850F00100DFF8B01308600FE0DFF834
:104B1000A803006840084000DFF89C130860DFF835
:104B20009803006830F00400DFF88C130860E06838
:104B3000002810D001F078F90500DFF87C03006848
:104B4000800719D401F070F9401B41F28931884285
:104B5000F3D303207EE001F067F90500DFF8580386
:104B60000068800708D501F05FF9401B41F28931E8
:104B70008842F3D303206DE0F6B2012E07D1DFF8AF
:104B80003003006830F08050DFF824130860E069DB
:104B900000285ED0DFF8FC02006810F00C00082846
:104BA00055D0E06902283FD10020DFF810130860DB
:104BB00001F03AF90500DFF8E0020068800106D54F
:104BC00001F032F9401B0328F5D3032042E0206AAC
:104BD000B0F5803F09D1DFF8BC02006830F4003046
:104BE000A1680843DFF8AC120860DFF8A80200688B
:104BF00030F47410216A0843616A0843DFF89412A4
:104C000008600120DFF8B412086001F00DF905001A
:104C1000DFF88402006880011BD401F005F9401B15
:104C20000328F5D3032015E00020DFF89012086078
:104C300001F0FAF80500DFF860020068800108D58D
:104C400001F0F2F8401B0328F5D3032002E0012015
:104C500000E0002076BD70B504000D000026DFF8EE
:104C60006002006810F00700A84211D2DFF850027D
:104C70000068C008C0002843DFF844120860DFF86D
:104C80004002006810F00700A84201D00120A1E016
:104C90002078800709D5DFF8FC01006830F0F000CB
:104CA000A1680843DFF8EC1108602078C00756D5EA
:104CB0006068012806D1DFF8E0010068800311D4A4
:104CC000012087E06068022806D1DFF8CC01006887
:104CD000800107D401207DE06F480068800701D47F
:104CE000012077E06B480068800880006168084315
:104CF0006849086001F098F80600606801280ED144
:104D00006448006810F00C00042828D001F08CF8EA
:104D1000801B41F289318842F2D303205AE0606857
:104D200002280ED15B48006810F00C00082816D04D
:104D300001F07AF8801B41F289318842F2D30320D6
:104D400048E05448006810F00C0F08D001F06CF8EF
:104D5000801B41F289318842F3D303203AE058485E
:104D6000006810F0070085420ED255480068C00860
:104D7000C0002843524908605148006810F00700FD
:104D8000A84201D0012025E02078400707D54148FE
:104D9000006830F4E060E16808433E49086020782C
:104DA000000708D53B48006830F46050216950EA9C
:104DB000C1003849086000F00EF84249354A1268CF
:104DC000C2F30312895CC84035490860002001F035
:104DD00031F8002070BD00B585B001A83A49102215
:104DE00000F0F6FF39480088ADF8000000200020F0
:104DF0000020002100202748006810F00C01042941
:104E000002D0082902D016E0244815E001A9C0F319
:104E10008342895CC0030AD568461E4A1268C2F301
:104E20004042805C1D4AB2FBF0F0484302E0284853
:104E300000FB01F000E0194805B000BD184800680B
:104E4000704780B5FFF7FAFF2249124A1268C2F391
:104E50000222895CC84002BD80B5FFF7EFFF1D4903
:104E60000C4A1268C2F3C222895CC84002BD81B0FC
:104E70000B490968C9084FF47A72B1FBF2F1484353
:104E8000009000BF0098411E00910028F9D101B0A8
:104E900070470000041002400010024000127A0027
:104EA0000C000020800442422410024000004242D4
:104EB0001C1002400070004020100240600042427E
:104EC000002002402086000800860008462D0008C9
:104ED00000093D004C86000870B582B00400002631
:104EE00000202078C00763D5002576480068C00000
:104EF0000CD47448006850F08050724908607148C2
:104F0000006810F080500090009801256E480068FD
:104F1000C00513D46C48006850F480706A4908607A
:104F200000F082FF060068480068C00506D400F063
:104F30007BFF801B6528F6D3032050E063480068A0
:104F400010F44070002822D0616811F4407188424A
:104F50001DD05E48006830F4407001215C4A116049
:104F600000215B4A116059490860C0070FD500F065
:104F70005BFF060055480068800708D400F054FF26
:104F8000801B41F289318842F4D3032027E04F4847
:104F9000006830F44070616808434C490860EDB225
:104FA000012D05D14748006830F080504549086020
:104FB0002078800707D54748006830F44040A16852
:104FC0000843444908602078C00607D54148006876
:104FD00030F48000E16808433E490860002076BD57
:104FE00010B586B0040001A83B49102200F0F0FE85
:104FF0003A480088ADF8000000200021002300227C
:105000000020012C2BD0022C4ED0102C57D1314A2D
:105010001268334B1B68DB0120D501A8C2F3834320
:10502000C35CD0030DD568462A4C2468C4F34044C1
:10503000005DD20308D52B49B1FBF0F003FB00F172
:1050400002E0294800FB03F122480068400201D534
:10505000080003E048000321B0FBF1F02FE01B48FB
:10506000026840F202301040B0F5817F02D14FF467
:10507000004018E012F44070B0F5007F06D11B48E4
:105080000068800702D549F640400CE012F44070F9
:10509000B0F5407F06D112480068800302D54FF278
:1050A000244000E000200AE0FFF7D6FE0949096825
:1050B000C1F38131491C4900B0FBF1F0FFE706B0B4
:1050C00010BD00001C100240007000402010024083
:1050D000400442420410024010860008EA2E0008F4
:1050E0000010024000127A0000093D002410024026
:1050F00010F00701474800684FF6FF021040464A8B
:1051000052EA01210843434908607047414800685A
:10511000C0F302207047012110F01F0291403F4A66
:1051200040B2400942F82010704740B2002808D52C
:1051300009013B4A40B210F00F00104400F8041C73
:1051400003E00901374A40B21154704710B410F01F
:105150000700D0F10703052B01D3042301E0D0F1B0
:105160000703041D072C01D2002000E0C01E01240B
:1051700014FA03F35B1E19408140012313FA00F077
:10518000401E1040084310BC704780B5411EB1F16D
:10519000807F01D301200EE0401E234908600F21CB
:1051A0005FF0FF30FFF7C1FF0020204908600720B3
:1051B0001F490860002002BD80B5FFF799FF01BDBF
:1051C00070B504000D0016000020FFF79FFF3200AD
:1051D0002900FFF7BBFF0100200040B2FFF7A5FF49
:1051E00070BD80B540B2FFF796FF01BD80B5FFF7F7
:1051F000CCFF02BD042806D10D48006850F0040021
:105200000B49086005E00A48006830F004000849CE
:10521000086070470CED00E00000FA0500E100E0D6
:1052200018ED00E000E400E014E000E018E000E029
:1052300010E000E080B500F001F801BD704700000B
:10524000F8B504000020002700250026002C01D11D
:1052500001208FE0A068002801D060690028A06AC2
:10526000002807D10020E062002084F824002000FC
:1052700000F042FE200000F063F9A16AC90673D471
:10528000C0B2002870D1A16A31F4885151F00201F6
:10529000A1626168E2691143E26851EA42010D438B
:1052A000A168B1F5807F02D0A168012902D14FF435
:1052B000807100E000210F436169012911D1E1688B
:1052C000002906D1A169491E490351F400610F4329
:1052D00007E0A16A51F02001A162E16A51F00101E9
:1052E000E1622168496831F46941394322685160BB
:1052F00021688968DFF834221140294322689160CF
:10530000A168B1F5807F02D0A168012902D14FF4D4
:10531000807100E00021B1F5807F02D12169491E32
:105320000E052168C96A31F4700131432268D162E7
:1053300021688968DFF8F8211140A94208D10021CD
:10534000E162A16A31F0020151F00101A16210E0B5
:10535000A06A30F0020050F01000A062E06A50F045
:105360000100E062012004E0A06A50F01000A06299
:105370000120C0B2F2BD78B40A00002100230093DE
:1053800090F82430012B01D1022096E0012380F80F
:1053900024305368072B12D203685B6B1F245568B7
:1053A0006D1E05267543AC40A343146855686D1EF9
:1053B00005267543AC4023430468636327E05368C4
:1053C0000D2B12D203681B6B1F245568ED1F052699
:1053D0007543AC40A34314685568ED1F052675431B
:1053E000AC4023430468236311E00368DB6A1F2495
:1053F00055680D3D05267543AC40A34314685568B8
:105400000D3D05267543AC4023430468E3621368F1
:105410000A2B12D30368DB68072415680A3D0326AC
:105420007543AC40A343946815680A3D0326754351
:10543000AC4023430468E3600FE003681B69072462
:10544000156803267543AC40A3439468156803268A
:105450007543AC402343046823611368102B02D0CA
:105460001368112B24D10368324CA3421BD103686B
:105470009B681B021CD403689B6853F400030468F8
:10548000A3601268102A13D12B4A12682B4BB2FB6F
:10549000F3F20A235A430092009A002A08D0009A95
:1054A000521E0092F8E7816A51F0200181620121C9
:1054B000002280F824200800C0B272BC704738B5C2
:1054C000040000250020009020688068C0072BD4CD
:1054D0002068806850F001002168886016480068E4
:1054E0001649B0FBF1F0009002E00098401E0090D9
:1054F00000980028F9D100F097FC0500206880682A
:10550000C00711D400F090FC401B0328F6D3A06A1A
:1055100050F01000A062E06A50F00100E06200204C
:1055200084F82400012000E0002032BDFDF7E1FFF7
:10553000FE0E1FFF002401400C00002040420F001F
:1055400038B50400002520688068C0071BD5206896
:105550008068400840002168886000F065FC050014
:1055600020688068C0070ED500F05EFC401B032851
:10557000F6D3A06A50F01000A062E06A50F001007B
:10558000E062012000E0002032BD0000F8B5040018
:10559000002500270026002C01D101209FE094F86F
:1055A0003C00002805D1002084F83D00200000F0D8
:1055B000C4FC022084F83C002068006830F002003F
:1055C000216808602068006850F0010021680860C8
:1055D00000F02AFC070020684068C0070CD400F0E7
:1055E00023FCC01B0B28F6D3032084F83C000020CA
:1055F00084F83D00032072E020684068C00761D550
:10560000A069012802D156F0800601E036F080063C
:10561000E069012802D156F0400601E036F040066C
:10562000206A012802D156F0200601E036F020065B
:10563000606A012802D156F0100601E036F010062B
:10564000A06A012802D156F0080601E036F00806EB
:10565000E06A012802D156F0040601E036F00406A3
:105660002068006830F0FC00304321680860A068C2
:10567000E168084321690843616908436168491E7C
:1056800008432168C861206800684008400021681C
:10569000086000F0C9FB070020684068C0070CD50F
:1056A00000F0C2FBC01B0B28F6D3032084F83C009B
:1056B000002084F83D00032011E020684068C00706
:1056C00000D40125012D06D100202064012084F89A
:1056D0003C00002003E0042084F83C000120F2BDDF
:1056E00010B50400002C01D101200AE060790028E7
:1056F00004D100202071200000F049FC01206071DD
:10570000002010BD10B50400002C01D101203DE0A7
:105710000020A06294F85100002802D1200000F07F
:1057200049FC022084F851002068006830F04000F5
:10573000216808606068A1680843E168084321693E
:10574000084361690843A16911F400710843E169E4
:105750000843216A0843A16A084321680860A069D8
:10576000000C10F00400616A084321684860E06A98
:10577000216808612068C06930F400602168C86150
:1057800000206065012084F85100002010BD000059
:1057900090F83C20012A01D1022024E0012280F867
:1057A0003C20022280F83D200268526832F07002EC
:1057B00003685A60026852680B681A4303685A60AB
:1057C0000268926832F0800203689A600268926808
:1057D0004968114302689160012180F83D10002161
:1057E00080F83C10002070470000000010B5040055
:1057F000002C01D1012033E0A0690028FFD194F8EA
:105800003900002805D1002084F83800200000F07D
:1058100015FC242084F839002068C06830F400505A
:105820002168C860200000F0EEF92068006930F4BB
:105830009040216808612068406930F02A002168A2
:1058400048612068C06850F400502168C86000209A
:10585000E063202084F83900202084F83A000020FA
:1058600010BD90F83930202B22D1002902D092B2FD
:10587000002A01D101201CE090F83830012B01D121
:10588000022016E0012380F8383001628284C2844D
:105890000021C163212180F83910002180F83810DF
:1058A0000168C96851F080010068C160002000E013
:1058B0000220704790F83A30202B2ED1002902D0D8
:1058C00092B2002A01D1012028E090F83830012B53
:1058D00001D1022022E0012380F8383081628285E4
:1058E000C2850021C163222180F83A10002180F88E
:1058F00038100168C96851F480710268D16001688C
:10590000496951F00101026851610168C96851F0AB
:1059100020010068C160002000E00220704710B53F
:1059200004002068C06830F490702168C860206866
:10593000406940084000216848612068406940068D
:105940000ED52068406930F0400021684861606BE6
:10595000002805D00020616B4863606B00F0BEFC3E
:105960000020E085202084F83A00002010BD38B5E2
:105970000400206800682168C96822685269002311
:10598000002310F00F03002B07D1850605D58D06E7
:1059900003D5200000F0E3F882E0002B70D0D3079D
:1059A00002D411F4907F6BD010F00103DBB2002B16
:1059B00005D0CB0503D5E36B53F00103E363430745
:1059C00008D512F00103DBB2002B03D0E36B53F0D8
:1059D0000203E363830708D512F00103DBB2002B57
:1059E00003D0E36B53F00403E363030708D512F01D
:1059F0000102D2B2002A03D0E26B52F00802E26345
:105A0000E26B002A3BD0800604D5880602D5200030
:105A100000F0A5F820684069800910F00103E06BF0
:105A2000000701D4002B25D0200000F03AF82068B0
:105A3000406940061AD52068406930F0400021686E
:105A40004861606B00280DD00FF27900616B4863EC
:105A5000606B00F05EFC002811D0606B616B496BDD
:105A600088470CE0200000F0B9FC08E0200000F0BE
:105A7000B5FC04E0200000F0B1FC0020E0630FE082
:105A8000020605D50A0603D5200000F025F807E038
:105A9000400605D5480603D5200000F052F8FFE780
:105AA00031BD0168C96831F490710268D160016844
:105AB00049694908490002685161202180F83A107B
:105AC0007047000080B5406A0021C1850021C18473
:105AD00000F084FC01BD000090F8391021292ED17E
