:020000040800F2
:1000000018050020F5820008397C00083B7C0008B8
:100010003D7C00083F7C0008417C00080000000097
:10002000000000000000000000000000437C000809
:10003000457C000800000000477C0008497C00085F
:10004000398300083D830008418300084583000888
:10005000498300084D830008557C00085F7C000838
:10006000697C0008737C00087D7C000851830008CF
:1000700055830008598300085D83000861830008E8
:1000800065830008698300086D8300087183000898
:1000900075830008798300087D830008877C000849
:1000A0008183000885830008898300088D83000808
:1000B00091830008AD7C00089583000899830008AF
:1000C0009D830008A1830008A5830008A983000878
:1000D000AD830008D37E0008B1830008B583000813
:1000E000257F0008B9830008BD83000880B5DFF8CC
:1000F000700C0069DFF8681CC968401ADFF8601CE2
:100100008968401A0A21B0FBF1F0DFF8581C8860BA
:10011000DFF84C0C0069DFF8481CC968DFF8482C90
:100120001278521F4FF47A7303FB0211884203D2F4
:100130000120DFF8301C887001F0F4F8DFF8240C9F
:10014000407E00282BD1DFF81C0C8078002826D0B8
:10015000DFF8100C007E012821D0642001F04BFE56
:10016000DFF8000C407E002819D10020DFF8F41BD6
:10017000087501F0B9F801224FF40071DFF8080E9C
:1001800001F026FF0120DFF8DC1B087601F0ACF857
:1001900001224FF48071DFF8540C01F019FFDFF8F1
:1001A000C40B407E012804D0DFF8B80B807800280B
:1001B0001ED1DFF8B00B007E002819D00020DFF838
:1001C000A41B087601F090F800224FF48071DFF84C
:1001D0001C0C01F0FDFE0120DFF8881B087501F002
:1001E00083F800224FF40071DFF89C0D01F0F0FE5F
:1001F00001BD00B583B0684601F04FFFDFF8640B26
:100200000078002805D100220421DFF8C40D01F098
:10021000DFFEDFF8500B0078022805D1012204210F
:10022000DFF8AC0D01F0D4FEDFF8380B00780528BC
:1002300015D1BDF80600FA2190FBF1F201FB120086
:100240007E2806DB01220421DFF8840D01F0C0FEC8
:1002500005E000220421DFF8780D01F0B9FEDFF897
:10026000040B0078082805D100220421DFF8600D76
:1002700001F0AEFEDFF8EC0A0078012805D100227B
:100280000421DFF84C0D01F0A3FEDFF8D80A007856
:10029000062805D100220421DFF8340D01F098FE74
:1002A000DFF8C00A0078072805D100220421DFF812
:1002B000200D01F08DFE07BD80B5DFF8A80A00789B
:1002C000052804D0DFF89C0A007804286BD1DFF8F9
:1002D000940A407C002817D0DFF8880AC07D0128E6
:1002E00005D10020DFF87C1AC87500F0FDFFDFF8AB
:1002F000482CD2E9000101F0D6FEB0F5FA7F03D90F
:100300000020DFF8601A4874DFF8802CD2E9000181
:1003100001F0C9FEB0F5FA7F28D9DFF8480AC07DA0
:10032000012823D1DFF8640C01F0E6FEDFF8600C51
:1003300000680A30DFF8281AC968884204D2002011
:10034000DFF8501C08700BE0DFF8480C0078FF283D
:1003500006D0DFF8400C0078401CDFF8381C08702D
:10036000DFF8FC09C068DFF8281C0860DFF8640CBF
:100370000078DFF8201C0978884214D2DFF8E409FD
:10038000C07D012805D10020DFF8D819C87500F01C
:10039000ABFF0020DFF8FC1B0870DFF8CC09007809
:1003A00080B201F044F801BD70B5DFF82C2CD2E921
:1003B000000101F078FEFB28C0F0A880DFF8180CDF
:1003C00001F09AFEDFF89C090078002804D1DFF8DC
:1003D0009409806802F07BF8DFF888090078022829
:1003E00004D1DFF88009806802F0FFF8DFF87409B3
:1003F0000078032823D1DFF8E40B4668300002F0D0
:1004000073FB02F081FB0022DFF8D43B02F0A4FB77
:1004100004000D00DFF8CC0B006802F075FB020051
:100420000B002000290002F069FC02F093FD01009E
:1004300089B26420B6FBF0F080B202F059F9DFF81F
:100440002409007804283ED1DFF81809C07D00286F
:1004500001D1012600E00026DFF8800B806802F061
:1004600053FB0022DFF8783B02F076FB04000D001E
:10047000DFF8700B006802F047FB02000B00200061
:10048000290002F03BFC02F07BFDDFF8D818486041
:100490003300DBB21C00DFF8440B806802F086FDFD
:1004A0006421B0FBF1F22300DFF8B408C068DFF884
:1004B000381B0968401A6421B0FBF1F1DFF8A40889
:1004C000406802F0B1F9DFF89C080078052801D1F6
:1004D00001F0EBFFDFF88C080078082801D101F06B
:1004E0009DFEDFF880080078012801D101F096FE1A
:1004F000DFF870080078062801D101F08FFEDFF8E0
:1005000064080078072801D101F088FE70BD00B5AD
:1005100083B00A2001F006FB684601F0BEFDDFF85B
:1005200044080078042822D00A2001F0EDFA0020C7
:1005300001F0E3FA9DF80500022190FBF1F201FBC6
:10054000120000280AD0BDF80600642190FBF1F0EB
:10055000D0F10A00C0B201F0DEFA48E0BDF80600B2
:10056000642190FBF1F0C0B201F0D5FA3FE09DF8B4
:100570000500022190FBF1F201FB1200002818D0C7
:10058000BDF80600642190FBF1F0C0B201F0C3FA9F
:10059000BDF80600642190FBF1F0C0B201F0B4FA9E
:1005A000BDF80600642190FBF1F0C0B201F0A5FA9D
:1005B0001DE0BDF80600642190FBF1F0D0F10A00C7
:1005C000C0B201F0A8FABDF80600642190FBF1F07A
:1005D000D0F10A00C0B201F097FABDF8060064211C
:1005E00090FBF1F0D0F10A00C0B201F086FA07BD2D
:1005F0002DE970436421DFF80C0C02F083FD01212A
:10060000DFF8000C02F028FE04000221DFF8F40BF2
:1006100002F022FE0321DFF8EC0B02F01DFE0600C3
:100620000421DFF8E00B02F017FE0500ADB2280050
:1006300002F05AFA02F068FA02000B000020DFF81C
:10064000C81B02F05BFB80468946A4B2200002F082
:100650004BFA02F059FA42464B4602F07DFADFF8B7
:10066000AC2BDFF8AC3B02F077FA0022DFF8A43BBA
:1006700002F072FA02F06EFCDFF8E8168881ADB283
:10068000280002F031FA02F03FFA02000B000020CD
:10069000DFF8741B02F032FB04000D00B6B230002C
:1006A00002F022FA02F030FA22002B0002F054FA93
:1006B00002000B00DFF8600BDFF8601B02F010FF98
:1006C000DFF85C2BDFF85C3B02F018FB0022DFF860
:1006D000583B02F0C5FF02F03DFCDFF88816C881E8
:1006E000DFF8200B02F0E4FCDFF8180B02F070FCDE
:1006F000BDE8708380B500F0FDFD00F0F5FD01F070
:100700008DFDDFF860060078002812D100224FF43A
:100710008071DFF8180B01F05BFC00224FF40071D0
:10072000DFF8080B01F054FC0020DFF838160874DD
:1007300011E001224FF48071DFF8F00A01F048FC6B
:1007400001224FF40071DFF8E40A01F041FC0120BE
:10075000DFF810160874DFF80C06007802281BD1A9
:1007600001224FF48071DFF8C40A01F031FC01224C
:100770004FF40071DFF8B40A01F02AFC0120DFF821
:10078000E41508740020DFF8DC15C87500F0ACFD36
:100790000220DFF8D0150870DFF8C80500780428BB
:1007A00010D1DFF8C0054078032805D1DFF8B00587
:1007B000C068DFF8341808600120DFF8A815C87594
:1007C00000F092FDDFF89C05007805280ED1DFF8D7
:1007D000680701F091FCDFF88C05C07D012805D188
:1007E0000020DFF88015C87500F07EFDDFF8740585
:1007F0000078DFF87015487001BDF8B502F0A4FF6D
:1008000000F06DF900F0F2FB00F0C1F900F056FACB
:1008100000F093FA00F0AAFA00F0EAFA00F034FBD4
:1008200000F061FB00F08AFB00F0B6FBDFF8000A85
:1008300002F0BAFF03F081FC40F6B832022110202A
:1008400001F06CFC0220DFF81C1508700720DFF8AF
:1008500014154870FFF74EFF01222021DFF828070A
:1008600001F0B6FBDFF89C0902F0B2FB322000F089
:10087000B4FD54E00120DFF8EC14C87500F034FD3D
:1008800000F022FD002815D0DFF8D80400780528F4
:1008900010D1DFF8A426D2E9000101F004FCB0F584
:1008A0007A7F07D90420DFF8BC140870FFF722FF15
:1008B00000F0F6FCDFF8AC04007805280CD1DFF876
:1008C0007826D2E9000101F0EEFBB0F57A6F03D98A
:1008D0000420DFF89014087000F0F6FC002806D021
:1008E000DFF880040078022801D100F0D9FC00F084
:1008F000EFFC002803D000F0FDFC00F0D6FC00F077
:10090000EBFC002803D000F0F5FC00F0D3FC00F075
:10091000E7FC002803D000F0EDFC00F0D0FCFFF76E
:1009200067FEFFF7E3FB03F00DF9FFF73DFDFFF76F
:10093000C3FCFFF75EFCFFF7EAFDDFF82804007850
:1009400004286AD1DFF81C04407C002805D005206B
:10095000DFF810140870FFF7CDFEDFF8800640685E
:1009600003F062FD06000F00DFF8F403C06803F037
:100970005BFD04000D00DFF87006006803F054FD15
:1009800002000B002000290002F0AAFD0022DFF87F
:10099000843802F0B3F904000D00DFF8480600685F
:1009A00002F0B2F822002B0002F0D6F802000B0091
:1009B0003000390002F094FD03F044FDDFF81C160E
:1009C0008860DFF818068068002103F083FD24D8D2
:1009D000E348C068E249C96810F114029142F9D3B2
:1009E0000220E0490870FFF785FEDFF8F005006897
:1009F000DFF8E81549680C18DFF8E005806802F0B8
:100A0000D5FA201ADFF8D41508600020DFF8CC15DD
:100A100048600020DFF8C4158860DFF8C005406832
:100A200000280CD0CF480078022808D10320CD49F7
:100A30000870FFF75FFE00F05DFC00F031FCC94874
:100A40008068DFF8F017097864225143884208D2A1
:100A5000C4480078022804D10020C2490870FFF77A
:100A600049FEC0488068DFF8CC17097864225143FA
:100A7000884208D3BB480078002804D10220B94935
:100A80000870FFF737FE00F01FFC00280CD0B548B7
:100A90000078032808D10420B2490870FFF72AFE25
:100AA00000F028FC00F0FCFB00F00EFC00283FF4F6
:100AB000E7AEAC48007804287FF4E2AE00F01AFC00
:100AC00000F012FC00F0ECFBA648C07D01287FF48A
:100AD000D1AE0020A349C87500F006FCD0E600B5F1
:100AE00093B0012009905FF480300A9000200B90B1
:100AF00001200D90022010905FF4803011905FF47F
:100B00008010129009A803F0F7FC002805D040F2ED
:100B1000C311DFF8240700F0BDFB0F200490022072
:100B20000590002006904FF4806007900020089008
:100B3000012104A803F009FF002805D040F2D111DB
:100B4000DFF8F40600F0A6FB022000904FF480408E
:100B50000290684604F03AF8002805D04FF4EC7192
:100B6000DFF8D40600F096FB03F0E2FF4FF47A7151
:100B7000B0FBF1F004F0B4F9042004F0B5F9002260
:100B800000215FF0FF3004F095F913B000BD00B50F
:100B90008BB0DFF8A806DFF86C1608604FF48070A1
:100BA000DFF8601688600020DFF85816C860002063
:100BB000DFF8501648615FF46020DFF84816C8611E
:100BC0000020DFF8401648600120DFF83816086181
:100BD000DFF8300604F0AEF9002805D040F2F91134
:100BE000DFF8540600F056FB102008900120099011
:100BF00000200A9008A9DFF80C0604F036FA002855
:100C000005D040F20321DFF8300600F043FB04205A
:100C100000900120019004200490002002904FF4E5
:100C2000E0400790002006900020059000200390EF
:100C30006946DFF8D00502F024FB002805D040F219
:100C40001221DFF8F40500F025FB052000900220BA
:100C500001906946DFF8AC0502F013FB002805D0CF
:100C600040F21B21DFF8D00500F014FB10200090AB
:100C700003200190012002906946DFF8880502F008
:100C800000FB002805D040F22521DFF8AC0500F07C
:100C900001FB112000900420019000200290694681
:100CA000DFF8600502F0EDFA002805D040F22F21B0
:100CB000DFF8840500F0EEFA0BB000BD80B5DFF878
:100CC0008005DFF8801508601020DFF8781548608F
:100CD0000020DFF8701588600020DFF86815C86014
:100CE0000020DFF8601508610020DFF85815486122
:100CF0000020DFF8501588610020DFF84815C86132
:100D00000020DFF8401508620020DFF8381548623F
:100D10000020DFF8301588620020DFF82815C8624F
:100D2000DFF8200504F0ACFA002805D040F2462197
:100D3000DFF8040500F0AEFA01BD80B5DFF8080564
:100D4000DFF808150860DFF8040504F043FB00280D
:100D500005D040F25221DFF8E00400F09BFA01BD1B
:100D6000600C00202C0C00201201002080B5DFF860
:100D7000E004DFF8E01408600020DFF8D8144860D1
:100D80000020DFF8D01488600020DFF8C814C860A5
:100D90000020DFF8C01408610020DFF8B8144861B3
:100DA0004FF40070DFF8AC1488610020DFF8A41461
:100DB000C8610020DFF89C1408620020DFF894145A
:100DC00048620020DFF88C1488620A20DFF884145F
:100DD000C862DFF8800404F00FFB002805D040F261
:100DE0006921DFF8540400F055FA01BD0008014004
:100DF00000B587B0DFF86004DFF8341408602F20F6
:100E0000DFF82C1448600020DFF82414886040F2DA
:100E1000E730DFF81C14C8604FF40070DFF81014DE
:100E200008610020DFF808148861DFF8040402F08C
:100E30009FFC002805D040F27D21DFF8FC0300F084
:100E400029FA4FF48050029002A9DFF8E40302F07F
:100E500074FD002805D040F28321DFF8DC0300F0A8
:100E600019FA00200090002001906946DFF8C003C5
:100E700004F008FB002805D040F28A21DFF8B8030F
:100E800000F008FA07B000BD80B5DFF8D003DFF846
:100E9000D01308605FF4E130DFF8C413486000202D
:100EA000DFF8BC1388600020DFF8B413C8600020AE
:100EB000DFF8AC1308610C20DFF8A41348610020B0
:100EC000DFF89C1388610020DFF89413C861DFF815
:100ED000900304F005FB002804D040F29D21D64881
:100EE00000F0D8F901BD80B5DFF87803DFF878139A
:100EF00008605FF4E130DFF8701348600020DA49E1
:100F000088600020D849C8600020D74908610C20BB
:100F1000D54948610020D44988610020D249C86180
:100F2000D14804F0DDFA002804D04FF42C71C248F7
:100F300000F0B0F901BD0000D00C002080B5CB4816
:100F4000CB4908605FF4E130C94948600020C849D6
:100F500088600020C649C8600020C54908610C208F
:100F6000C34948610020C24988610020C049C86166
:100F7000BF4804F0B5FA002804D040F2C321AE48BF
:100F800000F088F901BD000000100140D80C0020DD
:100F90005C0D0020960D002080B5B648B64908606B
:100FA0004FF4C070B44948604020B3498860402085
:100FB000B149C8600020B0490861AF4804F06EFD37
:100FC000002804D040F2D3219B4800F063F901BD12
:100FD000000C014010010020E00C0020A40C0020B7
:100FE0000000244008000020580D002000B585B006
:100FF000A248006850F04000A04908609F4800687F
:1010000010F04000009000989C48006850F01000DC
:101010009A4908609948006810F010000090009804
:101020009648006850F004009449086093480068AE
:1010300010F00400009000989048006850F00800FC
:101040008E4908608D48006810F0080000900098F4
:101050008A48006850F02000884908608748006886
:1010600010F0200000900098002240F2FF318448E8
:1010700000F0AEFF002248F2C311824800F0A8FF42
:10108000002241F20701804800F0A2FF00224FF643
:1010900080717E4800F09CFF00224FF47F4163483E
:1010A00000F096FF3C2001907948029000200390C8
:1010B00001A9764800F0A8FE4320019074480290F0
:1010C0000120039001A9714800F09EFE4FF47C407E
:1010D00001906F4802900120039001A9684800F038
:1010E00093FE40F2FF300190012002900220049014
:1010F00001A9634800F088FE48F2C3100190012066
:1011000002900220049001A95E4800F07DFE41F2A9
:1011100007000190012002900220049001A95A4882
:1011200000F072FE4FF680700190012002900220C4
:10113000049001A9554800F067FE4FF47F400190EC
:10114000012002900220049001A9384800F05CFEC2
:10115000FF200190002002900120039001A9334854
:1011600000F052FE782001900020029001200390B0
:1011700001A9454800F048FE4FF4607001904448D2
:1011800002900120039001A93F4800F03DFE00229B
:101190000221062003F08EFE062003F09CFE0022B2
:1011A0000221072003F086FE072003F094FE0022B0
:1011B0000221082003F07EFE082003F08CFE0022AE
:1011C0000221092003F076FE092003F084FE0022AC
:1011D00002210A2003F06EFE0A2003F07CFE0022AA
:1011E0000221172003F066FE172003F074FE002290
:1011F0000221282003F05EFE282003F06CFE05B0DB
:1012000000BD0000FC0B00200000F83F0AD7A370CF
:101210003D0A094000408F40E17A14AE47E1F63FB5
:1012200022FDF675E09C713F00003940001401403A
:10123000FC0A002011010020C880000800240140A1
:1012400000640040B80A002000300240C80C0020B2
:1012500000380040180A0020000400400038014017
:101260003C0B0020004400407C0B00200048004064
:10127000BC0B0020002C00404C0C00201810024039
:101280000010014000080140000C0140001801401E
:1012900000001110FEE70268531C036011707047D4
:1012A0000020DFF8441A087070470020DFF8401A69
:1012B000087070470020DFF83C1A08707047002063
:1012C000DFF8341A08707047DFF81C0A007870479E
:1012D000DFF81C0A00787047DFF8180A00787047BA
:1012E000DFF8140A0078704780B5DFF8100A00F0C4
:1012F00003FF01BD80B5DFF8080A00F0FDFE01BD67
:1013000080B54021DFF8FC0900F059FE002804D028
:101310000020DFF8F419C87603E00120DFF8E819AF
:10132000C87601BD80B51021DFF8D80900F047FE6E
:10133000002804D00020DFF8D019487603E001200F
:10134000DFF8C419487601BD80B52021DFF8B40963
:1013500000F035FE002804D00120DFF8AC198876B3
:1013600003E00020DFF8A019887601BD80B50821D0
:10137000DFF8900900F023FE002804D00120DFF8F8
:101380008819087703E00020DFF87C19087701BD91
:1013900038B5DFF878090068401CDFF8701908607C
:1013A000DFF86809006803F03FF80022DFF86039D1
:1013B00001F0D2FB04000D00DFF85809006803F0CB
:1013C00033F802000B002000290001F097FC01F027
:1013D000D7FDDFF84419086131BD38B5DFF834199D
:1013E00009680A22B1FBF2F180B200FB01F0DFF8DC
:1013F0001C190860DFF81409006803F015F80022D2
:10140000DFF80C3901F0A8FB04000D00DFF8040937
:10141000006803F009F802000B002000290001F029
:101420006DFC01F0ADFDDFF8F018086131BD38B595
:10143000DFF8E01809680A22B1FBF2F180B200FB84
:1014400001F0DFF8C8180968884207D2DFF8BC1835
:101450000968081ADFF8B418086003E00020DFF814
:10146000AC180860DFF8A408006802F0DDFF002275
:10147000DFF89C3801F070FB04000D00DFF89408E1
:10148000006802F0D1FF02000B002000290001F0EB
:1014900035FC01F075FDDFF88018086131BD80B5BD
:1014A000DFF86808C068401CDFF86018C860DFF823
:1014B0006C28D2E9000100F0F6FDB0F5FA7F07D202
:1014C000DFF85C080078401CDFF85418087003E06F
:1014D0000020DFF84C180870DFF8440800781A285C
:1014E00003DB0120DFF820184874DFF8300800F033
:1014F00003FE01BD38B5DFF814088068401CDFF832
:101500000C188860DFF80408806802F08DFF002264
:10151000DFF8FC3701F020FB04000D00DFF8F407D2
:10152000006802F081FF02000B002000290001F09A
:10153000E5FB01F025FDDFF8E0178860DFF8E42720
:10154000D2E9000100F0AFFDB0F5FA7F07D2DFF875
:10155000D8070078401CDFF8D017087003E000209F
:10156000DFF8C4170870DFF8BC0700F0C5FDDFF82E
:10157000B80700781A2852DB0020DFF88C17887033
:10158000DFF894070169DFF89007C268DFF87C078D
:101590000068DFF880371B680A24B3FBF4F3DFF838
:1015A0008C472478891ADFF870279268891A4FF4DB
:1015B0007A72B1FBF2F1611A01FB0300DFF84C17FC
:1015C0000860DFF84807006802F02EFF0022DFF80D
:1015D000403701F0C1FA04000D00DFF83807006859
:1015E00002F022FF02000B002000290001F086FB20
:1015F00001F0C6FCDFF820170861DFF81C0700695E
:10160000DFF81417C968401ADFF80C178968401A08
:101610004FF47A71B0FBF1F0DFF8EC16886031BD61
:1016200038B5DFF8E8064068401CDFF8E01648608F
:10163000DFF8D806406802F0F7FE0022DFF8D03667
:1016400001F08AFA04000D00DFF8E406006802F0F9
:10165000EBFE02000B002000290001F04FFB01F01F
:101660008FFCDFF8B416C86031BD10B5DFF8C406D2
:101670000078411CDFF8BC261170C0B20528C0F20A
:1016800022810020DFF8AC160870DFF8AC06047881
:10169000601CDFF8A41608700221DFF8680600F06D
:1016A0008EFCDFF89816E4B20855DFF88C06007857
:1016B0000A2803DB0020DFF880160870DFF88006B8
:1016C0000078002804D1DFF87C060078012846D194
:1016D000DFF868060078DFF8641649780818DFF844
:1016E0005C1689780818DFF85416C9780818DFF8EE
:1016F0004C1609790818DFF8441649790818DFF8FC
:101700003C1689790818DFF83416C9790818DFF80B
:101710002C16097A0818DFF82416497A08180028C8
:101720001DD10020DFF81C160870DFF814060078C1
:10173000002810D1DFF8E0054068401CDFF8D8151C
:101740004860DFF8C8054068DFF8FC150860012034
:10175000DFF8F81508700020DFF8E4150870DFF8EE
:10176000E0050078002804D1DFF8D80500780028CB
:1017700046D1DFF8C8050078DFF8C01549780818A9
:10178000DFF8B81589780818DFF8B015C978081897
:10179000DFF8A81509790818DFF8A01549790818A5
:1017A000DFF8981589790818DFF89015C9790818B5
:1017B000DFF88815097A0818DFF88015497A0818C3
:1017C0000A281DD10120DFF87C150870DFF87005AC
:1017D0000078002810D1DFF840054068401CDFF891
:1017E00038154860DFF824054068DFF864150860A4
:1017F0000120DFF8581508700020DFF84415087044
:10180000DFF84805007800285DD00020DFF83C159F
:101810000870DFF834050068002854D0DFF8300580
:10182000006800284FD0DFF82C050078411CDFF855
:1018300024251170DFF818150968DFF80C251268E7
:10184000914207D2DFF800150968DFF80425126815
:10185000891A06E0DFF8F8140968DFF8EC2412684A
:10186000891ADFF8F424C0B242F82010DFF8E4044B
:101870000078042827DB0020DFF8D8140870DFF890
:10188000D8040068DFF8D0148968401A04F01DF904
:10189000642818DADFF8C0044068DFF8BC14C968AF
:1018A000401A04F012F964280DDA0020002106E045
:1018B000DFF8A424C9B252F821201018491CC9B27B
:1018C0000429F5DB400810BD10B5DFF8900400785E
:1018D000411CDFF888241170C0B20528C0F20C81C9
:1018E0000020DFF878140870DFF874040478601CB6
:1018F000DFF86C1408700421DFF8080400F05FFBC7
:10190000DFF86014E4B20855DFF8540400780A28C0
:1019100003DB0020DFF848140870DFF84C0400787F
:10192000002804D1DFF844040078012846D1DFF80C
:1019300034040078DFF82C1449780818DFF82414F0
:1019400089780818DFF81C14C9780818DFF814140F
:1019500009790818DFF80C1449790818DFF804141D
:1019600089790818DFF8FC13C9790818DFF8F4132F
:10197000097A0818DFF8EC13497A081800281DD1F5
:101980000020DFF8E8130870DFF8DC030078002897
:1019900010D1DFF884030068401CDFF87C13086076
:1019A000DFF868030068DFF8C81308600120DFF87B
:1019B000C41308700020DFF8B0130870DFF8A80324
:1019C0000078002804D1DFF8A4030078002843D170
:1019D000DFF890030078DFF88C1349780818DFF8F7
:1019E000841389780818DFF87C13C9780818DFF8A1
:1019F000741309790818DFF86C1349790818DFF8AF
:101A0000641389790818DFF85C13C9790818DFF8BE
:101A10005413097A0818DFF84C13497A08180A2871
:101A20001AD10120DFF844130870DFF83C03007876
:101A300000280DD1B8480068401CB7490860B34879
:101A40000068DFF8341308600120DFF828130870FD
:101A50000020DFF814130870DFF81803007800285E
:101A60004AD00020C3490870C1480068002843D00C
:101A7000C148006800283FD0C0480078411CBF4AD8
:101A80001170BD490968BA4A1268914205D2B84935
:101A90000968B94A1268891A04E0B7490968B44A62
:101AA0001268891AB64AC0B242F82010B3480078CA
:101AB000042821DB0020B1490870B1480068B04912
:101AC0008968401A04F001F8642815DAAC484068C7
:101AD000AB49C968401A03F0F8FF64280CDA00200B
:101AE000002105E0A64AC9B252F821201018491C6D
:101AF000C9B20429F6DB400810BDC0B20B2800DBD8
:101B00000A20A04908707047C0B20B2800DB0A20E9
:101B10009C4988707047C0B20B2800DB0A209949A5
:101B200048707047C0B20B2800DB0A209549C87086
:101B3000704710B50400714AD2E9000100F0B3FA11
:101B4000332864D3A4B2B4F5807F04D18E480088D2
:101B5000401C8D490880A4B2042C06D1FFF760FD1B
:101B60008A480088401C89490880A4B2082C06D104
:101B7000FFF7C0FC86480088401C85490880A4B255
:101B8000102C06D1FFF78BFC82480088401C81494D
:101B90000880A4B2202C06D1FFF7FAFB7E4800880B
:101BA000401C7D490880A4B2012C04D17B480088E8
:101BB000401C7A490880A4B2802C04D1784800885F
:101BC000401C77490880A4B2B4F5007F04D1754861
:101BD0000088401C73490880A4B2B4F5806F04D11A
:101BE00071480088401C70490880A4B2B4F5006FA9
:101BF00004D16E480088401C6C490880A4B2B4F53A
:101C0000805F04D16A480088401C694908803C4ACA
:101C1000D2E9000100F047FA332861D3A4B2022CC4
:101C20001BD1644AD2E9000100F03DFAB0F5FA7F19
:101C300013D9052000F0DFF802215F4800F0BFF95A
:101C400000284FD05B4800F057FA01202649087061
:101C50005A480078401C59490870A4B2B4F5005F96
:101C60000CD1574AD2E9000100F01DFAC92805D36A
:101C7000534800F041FA01201C490870A4B2B4F5A1
:101C8000804F0CD14F4AD2E9000100F00CFAC9286C
:101C900005D34C4800F030FA012017490870A4B26F
:101CA000B4F5004F0CD1484AD2E9000100F0FBF92D
:101CB000C92805D3444800F01FFA01200C490870D8
:101CC000A4B2402C0CD1414AD2E9000100F0EBF95A
:101CD000C92805D33D4800F00FFA012005490870D6
:101CE0003B48048010BD0000990D00209A0D002093
:101CF0009B0D00209C0D00209D0D0020000D00205C
:101D0000F80C0020001401402C0C0020740C002062
:101D10000088C34000000020600C0020080D002057
:101D20009E0D0020100D00209F0D002012010020AC
:101D300004000020A20D0020A00D0020B00C002007
:101D400013010020A10D0020600D0020A30D002034
:101D5000640D0020A40D0020840C0020A70D00209D
:101D6000A50D0020BC0C002014010020A60D0020B1
:101D7000680D0020A80D00206C0D0020A90D00208A
:101D8000940C0020700D00207E0D0020800D00209E
:101D9000820D0020840D0020860D0020880D00207B
:101DA0008A0D00208C0D00208E0D0020900D00204B
:101DB000920D0020180D002000180140AA0D0020EF
:101DC000200D0020280D0020300D0020380D0020AF
:101DD0007C0D002002B44FF00E0101FB00F04FF02B
:101DE000240190FBF1F10844C82880F2098000BF6B
:101DF00000BF033804E002B44FF4615101FB00F06E
:101E00000138FDD802BC7047F8B400250024002535
:101E100000220026002307E0DFF8E4512D6835EAB0
:101E20000404774D2C605B1C102B80F0C6800124CD
:101E300014FA03F50C682C40AC42F4D14E68002E25
:101E400027D0012E1AD0022E1DD0032E2FD0112EF6
:101E500016D0122E1AD06B4FBE421AD06A4FBE4215
:101E600017D06A4FBE4214D0694FBE4211D0694F9D
:101E7000BE420ED0684FBE420BD01AE0CA6818E0CE
:101E8000CA68121D15E0CA68083212E0CA680C322E
:101E90000FE08A68002A01D1042207E08A68012A3B
:101EA00002D10822056101E00822456101E000221B
:101EB000FFE7FF2C01D8050000E0051DFF2C01D82D
:101EC0009E0002E0B3F10806B6002F685FF00F0C29
:101ED0001CFA06FC37EA0C0712FA06F63E432E609F
:101EE0004D68ED009FD54D4D2D6855F001054B4EC9
:101EF00035604A4D2D6815F001050095009D484D4F
:101F00009E0855F826500F2613F00307FFB2BF00B6
:101F1000BE40B543434EB04201D100260FE0424ED1
:101F2000B04201D101260AE0404EB04201D1022662
:101F300005E03F4EB04201D1032600E0042613F035
:101F40000307FFB2BF00BE403543354E9F0846F839
:101F500027504D68ED0305D5364D2D682543354E88
:101F6000356004E0334D2D68A543324E35604D6831
:101F7000AD0305D5304D2D6825432F4E356004E067
:101F80002D4D2D68A5432C4E35604D68ED0205D5CD
:101F90002A4D2D682543294E356004E0274D2D68D4
:101FA000A543264E35604D68AD027FF535AF144D23
:101FB0002D682C43124D2C6035E7F1BC70478068CA
:101FC00089B2084201D0012000E00020C0B2704771
:101FD000D2B2002A02D089B2016102E089B20904BA
:101FE0000161704780B51649096880B2014205D089
:101FF00080B21349086080B2FFF79BFD01BD00006D
:102000000C0401400000111000001210000021100B
:1020100000002210000031100000321018100240A1
:102020000800014000080140000C01400010014080
:102030000014014000040140040401400804014070
:10204000140401403348C088401C3249C8803148DC
:10205000C088B0F57A7F07DB00202E49C8802D4864
:102060004079401C2B4948712A4840793C2807DBBD
:1020700000202849487127480079401C25490871EB
:10208000244800793C2807DB0020224908712148B8
:102090000068401C1F49086070471E49D1E90023B1
:1020A000C0E90023704703B41A4800681A49194A66
:1020B00012794EF660235A4301FB002015494979F5
:1020C0004FF47A7202FB01001249C988081800997E
:1020D000114A02FB11009DF804104EF6602202FB2B
:1020E00011009DF805104FF47A7202FB1100BDF843
:1020F0000610401A02B07047064909680160054998
:10210000097901710349497941710249C988C1803E
:1021100070470000400D002080EE360070B58AB098
:1021200006000C00150000F076F94AF6C870FFF7BB
:1021300051FEDFF85009C470DFF84809067100202D
:10214000DFF8401948710020DFF838198871002045
:10215000DFF830194870E4B2022C07DBDFF82409FD
:10216000407850F00800DFF81C194870032000F098
:10217000E2F841F28830FFF72DFE032000F0DBF893
:1021800041F28830FFF726FE032000F0D4F841F238
:102190008830FFF71FFE022000F0CDF8C820FFF7BF
:1021A00019FEDFF8E008407850F02000C0B200F0DF
:1021B0009EF80420DFF8CC18087000F086F800F0D4
:1021C0002DF80220DFF8BC188870DFF8B808807896
:1021D00050F00400C0B200F08AF841F28830FFF7F6
:1021E000F9FD05A8DFF8A018142203F083FC05AA66
:1021F0000021002000F01BF86846DFF89018142238
:1022000003F078FC6A460121002000F010F8280055
:10221000FFF7F1FD00F002F80AB070BD80B50120B3
:1022200000F065F840F6AC50FFF7D4FD01BD10B5E5
:102230001400C9B2C0B200F0CFF80AE0207800F074
:1022400068F8DFF840084079401CDFF8381848711A
:10225000641C2078002837D0DFF828084079DFF8A0
:1022600024180979884212D30020DFF81818487121
:10227000DFF810088079401CDFF808188871DFF853
:1022800004088179DFF8FC07407900F0A5F8207890
:102290000A280FD1DFF8EC078079401CDFF8E4173B
:1022A0008871DFF8E0078179DFF8D807407900F01E
:1022B00093F8CDE720780D28C0D1DFF8C8078179E1
:1022C000002000F089F8C3E710BD80B5DFF8B4073F
:1022D000007850F00400DFF8AC170870DFF8A407AE
:1022E000007850F00800C0B200F001F801BD10B550
:1022F000040000220221DFF89C07FFF769FE20009E
:10230000C0B2000900F017F814F00F0000F013F845
:1023100010BD10B5040001220221DFF87807FFF795
:1023200057FE2000C0B2000900F005F814F00F00BD
:1023300000F001F810BD10B50400200706D50122F9
:102340000121DFF84C07FFF743FE05E000220121E1
:10235000DFF83C07FFF73CFE600706D501220221AB
:10236000DFF82C07FFF734FE05E000220221DFF83A
:102370002007FFF72DFEA00706D501220421DFF874
:102380001007FFF725FE05E000220421DFF8000713
:10239000FFF71EFEE00706D501220821DFF8F00650
:1023A000FFF716FE05E000220821DFF8E406FFF73C
:1023B0000FFE01220121DFF8DC06FFF709FE3C20B9
:1023C000FFF708FD00220121DFF8C806FFF700FE35
:1023D0003C20FFF7FFFC10BD10B582B06A46DFF865
:1023E000B8361C6814600A00DFF89836DB78D2B281
:1023F0009A4200D30021DFF88C265071DFF8842642
:1024000091716A46C9B2515C081850F08000C0B2A0
:10241000FFF76DFF13BD80B501220821DFF87006BC
:10242000FFF7D6FD00220821DFF86406FFF7D0FD94
:1024300001220421DFF85806FFF7CAFD002204211B
:10244000DFF84C06FFF7C4FD01220221DFF8400649
:10245000FFF7BEFD00220221DFF83406FFF7B8FDCA
:1024600001220121DFF82806FFF7B2FD0022012139
:10247000DFF81C06FFF7ACFD01220121DFF814068E
:10248000FFF7A6FD00220121DFF80806FFF7A0FDF7
:1024900001220221DFF8FC05FFF79AFD002202214C
:1024A000DFF8F005FFF794FD01BD80B5DFF8EC25FE
:1024B00001210020FFF7BBFEDFF8EC050088ADF836
:1024C00000006A4601210920FFF7B1FE01BD10B5E9
:1024D00088B00400D3A200210020FFF7A8FE02A8C4
:1024E000DFF8BC150A68026002AA00210320FFF78A
:1024F0009EFEDFF8B02500210420FFF798FE42F28F
:102500001070844201D342F20F746420B4FBF0F0E7
:102510006421B0FBF1F130318DF800109DF800100E
:10252000302902D120218DF800106421B0FBF1F296
:1025300001FB12010A22B1FBF2F130318DF80110DA
:102540009DF80110302906D19DF80010202902D1F4
:1025500020218DF801100A21B0FBF1F201FB1200DD
:1025600030308DF8020000208DF803000DF10102DB
:1025700000210920FFF75BFE6420B4FBF0F100FBB3
:1025800011402C218DF800100A21B0FBF1F13031FF
:102590008DF801100A21B0FBF1F201FB120030307E
:1025A0008DF8020000208DF803006A4600210B2000
:1025B000FFF73DFEA7208DF808002E208DF80900BA
:1025C00000208DF80A0002AA00210E20FFF72FFE3E
:1025D00003A8DFF8D814142203F08CFA03AA01210F
:1025E0000020FFF724FE08B010BD10B58CB0040029
:1025F00002A8DFF8BC14142203F07CFA02AA00211E
:102600000020FFF714FEDFF8AC04844201D3DFF8AA
:10261000A8446420B4FBF0F06421B0FBF1F1303148
:102620008DF800109DF80010302902D120218DF87E
:1026300000106421B0FBF1F201FB12010A22B1FB90
:10264000F2F130318DF801109DF80110302906D1DA
:102650009DF80010202902D120218DF801100A21B7
:10266000B0FBF1F201FB120030308DF802000020C7
:102670008DF803006A4600210820FFF7D8FD64208A
:10268000B4FBF0F100FB11402C218DF800100A2161
:10269000B0FBF1F130318DF801100A21B0FBF1F2FD
:1026A00001FB120030308DF8020000208DF803008D
:1026B0006A4600210B20FFF7BAFDA7208DF808001D
:1026C0002E208DF8090000208DF80A0002AA0021B2
:1026D0000E20FFF7ACFD07A8DFF8E013142203F08B
:1026E00009FA07AA01210020FFF7A1FD0CB010BDD7
:1026F00010B58AB00C0080B2B0F57A7F01DB40F2F1
:10270000E73080B2642190FBF1F130318DF8001098
:102710009DF80010302902D120218DF8001080B2E0
:10272000642190FBF1F201FB12010A2291FBF2F10C
:1027300030318DF801109DF80110302906D19DF837
:102740000010202902D120218DF8011080B20A2129
:1027500090FBF1F201FB120030308DF802000020F6
:102760008DF803006A4600210020FFF760FD02A8F3
:10277000DFF84C13D1E90023C0E9002302AA0021AD
:102780000320FFF754FDA4B2B4F57A7F01DB40F2D9
:10279000E734A4B2642094FBF0F030308DF80000F0
:1027A0009DF80000302802D120208DF80000A4B24E
:1027B000642094FBF0F100FB11400A2190FBF1F042
:1027C00030308DF801002E208DF80200A4B20A20CE
:1027D00094FBF0F100FB114030308DF80300002035
:1027E0008DF804006A4600210920FFF720FDA7208C
:1027F0008DF800002E208DF8010000208DF80200D9
:102800006A4600210E20FFF712FD04A8DFF8B4127B
:10281000142203F06FF904AA01210020FFF707FD3D
:102820000AB010BD48452000F0B58FB004000E007E
:1028300015001F0009A8DFF89012142203F05AF9BE
:1028400004A8DFF88812142203F054F9FFB2002F15
:1028500005D004AA00210020FFF7E9FC04E009AA42
:1028600000210020FFF7E3FCB6F57A7F01D340F2A8
:10287000E736642E2ED36420B6FBF0F030308DF8AE
:1028800000009DF80000302802D120208DF80000C3
:102890006420B6FBF0F100FB11600A21B0FBF1F0FF
:1028A00030308DF801009DF80100302806D19DF8E8
:1028B0000000202802D120208DF801002C208DF866
:1028C00002000A20B6FBF0F100FB116030308DF8F9
:1028D000030013E020208DF800000A20B6FBF0F082
:1028E00030308DF801002C208DF802000A20B6FB54
:1028F000F0F100FB116030308DF8030000208DF8FE
:1029000004006A4600210920FFF791FCA7208DF8FA
:1029100000002E208DF8010000208DF802006A468C
:1029200000210D20FFF783FCB4F57A7F01D340F23C
:10293000E734642C2ED36420B4FBF0F030308DF8F3
:1029400000009DF80000302802D120208DF8000002
:102950006420B4FBF0F100FB11400A21B0FBF1F060
:1029600030308DF801009DF80100302806D19DF827
:102970000000202802D120208DF801002C208DF8A5
:1029800002000A20B4FBF0F100FB114030308DF85A
:10299000030013E020208DF800000A20B4FBF0F0C3
:1029A00030308DF801002C208DF802000A20B4FB95
:1029B000F0F100FB114030308DF8030000208DF85D
:1029C00004006A4601210020FFF731FC20208DF829
:1029D0000000A7208DF801002E208DF802002D2088
:1029E0008DF8030000208DF804006A4601210420C0
:1029F000FFF71DFC6420B5FBF0F030308DF80000CF
:102A00009DF80000302802D120208DF800009DF8AC
:102A10000000302802D120208DF800006420B5FB92
:102A2000F0F100FB11500A21B0FBF1F030308DF8CD
:102A300001009DF80100302806D19DF800002028F3
:102A400002D120208DF801000A20B5FBF0F100FB37
:102A5000115030308DF8020000208DF803006A46D6
:102A600001210820FFF7E3FB02A8DFF86410D1E999
:102A70000023C0E9002302AA01210B20FFF7D7FBA6
:102A80000FB0F0BD480D002010820008248200081D
:102A9000001001400008014030830008388200081F
:102AA0003483000818830008FA2C00084C820008C0
:102AB00060820008A08601009F86010074820008E1
:102AC00020830008888200089C820008B0820008E9
:102AD00028830008002840F10980F446404200F0B5
:102AE00005F850F000406047002800BF0AD0B0FA57
:102AF00080F18840D1F19D01C905020672F10042C2
:102B000041EB1020704701025FF0FF0C1CEAD0512E
:102B100014BF614506E0C110400721F0E04101F11A
:102B20006051704779B900F0004100020AD0B0FA54
:102B300080FC00FA0CF001F16051A1EB0C5101EBAB
:102B4000D0214005704741020CBF40F4E0016FF016
:102B50000001002070470102B0B581EA030C0CF0BF
:102B6000004C40F2FF7515EA11541DBF15EA1357CA
:102B7000AC42AF4239E0E41923EA455343F48013F1
:102B8000C90241F0004141EA505EC7021100A7FBB3
:102B9000020200284FF00000EEFB01204FF0000180
:102BA000E3FB072118BF42F0010240180021494110
:102BB000E3FB0E01A4F580640F0302D252004041F2
:102BC000494154F101046CDD470872F1004250F1B3
:102BD000000051EB0451A1F580115CBF41EA0C01EA
:102BE000B0BD4CEA05510020B0BD05EA1357AC4218
:102BF00014BFAF4241E050EA410E1CBF52EA430EFF
:102C000002E061460020B0BD24423C441BD15FEA93
:102C1000070EF6D0090302BF01460020AEF1140EE4
:102C2000B1FA81F7AEEB070401FA07FE0C37C7F1E2
:102C3000200100FA07F7C8404EEA000E23EA455388
:102C400043F48013A2E733F00043B3FA83F704BFE1
:102C5000B2FA82FE77440B3FE41BB7F1200E2FBF80
:102C600002FA0EF3BB40C7F1200E22FA0EFE38BF67
:102C700043EA0E03BA40641C82E750EA410E14BFD7
:102C800052EA430E6FF000014FF4001717EB430FA9
:102C90008ABF194617EB410FB5E74CEA05510020F2
:102CA000B0BDD4F10104B4F120070FDAC4F120075C
:102CB000520828BF42F0010210FA07F501FA07F79F
:102CC000E1BF2A43E0403843E1400FE0352C98DC77
:102CD000C7F1200452EA400220FA07F218BF42F07E
:102CE000010231FA07F0A1400A43002172F10042CB
:102CF00050F1000051EB0C01B0BDAE002DE9F041E8
:102D000040F2FF7581EA030C0CF0004C15EA1154F7
:102D10001DBF15EA1357AC42AF42E9E0BC41C1F315
:102D20001301C3F31303801A994143F4801304D2AF
:102D3000641E4000494180185941C90241EA50517E
:102D4000B1FBF3F603FB1611A2FB0675D7EBC0200F
:102D5000A94102D2761E80185941C90241EA505158
:102D6000B1FBF3FE03FB1E11A2FB0E75D7EBC020D7
:102D7000A94103D2AEF1010E80185941890241EAFE
:102D80009051760546EA8E2EB1FBF3F603FB161141
:102D9000A2FB0675D7EB8020A94102D2761E8018CF
:102DA0005941C90241EA50514EEA060EB1FBF3F611
:102DB00003FB1611A2FB0675D7EBC020A94102D276
:102DC000761E80185941C90241EA5051B1FBF3F710
:102DD00003FB1711A2FB0735D3EBC020A94167F114
:102DE00000070CBF004247F0010766F3D5274FEA02
:102DF0001E31B80814F5806414DDBD0775F100427A
:102E000050EB0E5051EB045111F5801F5CBF41EAAD
:102E10000C01BDE8F0814CF07F6141F0E041002001
:102E2000BDE8F081BD076D0840EA0E5041F4801105
:102E3000D4F10104B4F120060ADAC4F1200602003C
:102E4000E04001FA06F3E1401843B24015430EE0BA
:102E5000342C14DCC6F1200445EA40056D0820FA44
:102E600006F2154321FA06F0A1400D43002175F149
:102E7000004250F1000051EB0C01BDE8F081002050
:102E80005FEA0C01BDE8F081CFB992185B41B3FA5B
:102E900083F704BFB2FA82F6BF190B3FB7F12006E1
:102EA0002FBF02FA06F3BB40C7F1200622FA06F64E
:102EB00038BF3343BA401CB1E419641E2FE77F4288
:102EC00031F00041B1FA81F404BFB0FA80F6A419E0
:102ED0000B3CB4F120062FBF00FA06F1A140C4F16B
:102EE000200620FA06F638BF3143A0403C1B16E707
:102EF000AC421ABF05EA1357AF4214E050EA41064C
:102F00001CBF52EA4306BFE750EA4107304661461C
:102F10001CBF41EA0551BDE8F08152EA430C08BFED
:102F2000C143BDE8F08100204FF4001616EB410FBD
:102F300098BF16EB430F08BF16EB410F24BFC143E8
:102F400005E016EB430F0CBF61464CEA0551BDE8A6
:102F5000F0810000F446400D40EAC120490006D24D
:102F600000F014F8004248BF6FF00040604700F0E6
:102F70000DF84FF0004188428CBF08464042604740
:102F8000400D40EAC120490080F00D8040F0004033
:102F9000490DA1F58061491C05D4D1F11F0154BF31
:102FA000C840C01770474FF00000704740000DD276
:102FB000010E7F390AD4D1F11F0104D4C00140F0C1
:102FC0000040C84070477FF0000070470020704705
:102FD00010B50400002094F82400012801D102203B
:102FE00065E0012084F82400200002F0E2F8C0B27D
:102FF000002858D1A16ADFF8BC24114051F4805157
:10300000A1622168DFF8B024914209D1DFF8AC1445
:10301000096811F4702F01D1012102E0002100E0C4
:103020000121002904D0A16A31F48011A16203E0DA
:10303000A16A51F48011A162A16AC90501D40021DD
:10304000E162002184F824107FF0040122681160FD
:1030500021684968490529D42168896811F4E0414B
:10306000B1F5E04F18D12168DFF84C24914209D125
:10307000DFF84814096811F4702F01D1012102E032
:10308000002100E00121002906D02168896851F45F
:1030900002112268916009E02168896851F40041B9
:1030A0002268916002E0002184F82410C0B210BDB3
:1030B00010B50400002094F82400012801D102205A
:1030C0001FE0012084F82400A06AC00510D4206805
:1030D000406840050CD4200002F0ACF8C0B20028D3
:1030E0000BD1A16A31F4885151F00101A16204E0D1
:1030F000A06A50F02000A0620120002184F8241072
:10310000C0B210BDF8B504000D00002000900027EB
:1031100002F01CFD06002068806B10F4401F16D1E1
:103120002068006840076DD415F1010FF8D0002D1C
:1031300004D002F00BFD801B8542F1D2A06A50F052
:103140000400A062002084F82400032083E0022011
:1031500001F0C0FD21680969DFF86423114215D12F
:103160002168C968DFF85C2311420FD12168096921
:10317000DFF85423114207D12168C968DFF84C23D6
:10318000114201D114211CE029211AE021680969AA
:10319000DFF83423114205D12168C968DFF82C23F8
:1031A00011420BD021680969DFF82423114207D1AD
:1031B0002168C968DFF81823114201D1542100E0C9
:1031C000FC21DFF8EC221268B2FBF0F001FB00F703
:1031D00002E00098401C00900098B84212D215F10D
:1031E000010FF6D0002D04D002F0B0FC801B854208
:1031F000EFD2A06A50F00400A062002084F82400FE
:10320000032028E07FF00E0021680860A06A50F4D7
:103210000050A0622068806810F4E040B0F5E04FF4
:103220000DD020684068400514D42068806810F4F0
:103230006020B0F5602F0DD1E06800280AD1A06AA7
:1032400030F48050A062A06AC00503D4A06A50F098
:103250000100A0620020F2BD002202290AD00CD396
:10326000042901D003D308E00068826C07E00068FD
:10327000426C04E00068026C01E00068C26B100060
:10328000704778B40A000021002300938368002B64
:1032900090F82430012B01D1022006E1012380F8AF
:1032A00024308368002B12D15368012B09D10368A5
:1032B0009B6B9B0D9B05146853EAC4330468A3639E
:1032C00035E0816A51F02001816201212FE013690C
:1032D0005468A3421CD303689B6B1F24156956686E
:1032E000751BED1C05267543AC4054F44014A343F4
:1032F0001469641E53EA0453146815695668751BF3
:10330000ED1C05267543AC4023430468A3630EE01F
:1033100003689B6B1F2415695668751BED1C0526F9
:103320007543AC4054F44014A3430468A36303689A
:103330009B68DB0707D403689B68664C2340D4690D
:1033400023430468A3609369012B0FD1D369B3F5BC
:10335000E04F06D103685B6853F4806304686360E0
:1033600004E0816A51F02001816201215369012B3F
:103370000ED19369002B06D103685B6853F4805328
:103380000468636004E0816A51F0200181620121D8
:1033900013680A2B12D30368DB68072415680A3DFB
:1033A00003267543AC40A343946815680A3D032681
:1033B0007543AC4023430468E3600FE003681B6976
:1033C0000724156803267543AC40A3439468156829
:1033D00003267543AC402343046823611368102B14
:1033E00002D01368112B05D103689B6853F40003C6
:1033F0000468A3605368012B04D01ED3032B13D0A1
:1034000009D31AE003685B691B0B1B03D4682343D1
:103410000468636119E003689B691B0B1B03D46894
:1034200023430468A36110E00368DB691B0B1B03E3
:10343000D46823430468E36107E003681B6A1B0B3D
:103440001B03D4682343046823621368102B02D043
:103450001368112B24D103681F4CA3421BD10368AE
:103460009B681B021CD403689B6853F40003046828
:10347000A3601268102A13D10D4A1268174BB2FBD1
:10348000F3F20A235A430092009A002A08D0009AC5
:10349000521E0092F8E7816A51F0200181620121F9
:1034A000002280F824200800C0B272BC70470000DF
:1034B0000C000020FEDFFFFF002801400424014033
:1034C00024499224244992009224491292244900CA
:1034D00049922400FE8FFFFF0024014040420F006C
:1034E000F0B44FF0004591EA030F44BF6B4000F089
:1034F000C1B800BF841A71EB030604D26E40001BF2
:10350000B141121973414FF4001C1CEB410F34BF41
:103510007CEB430684E00C0DA4EB1356362E7DDCC9
:10352000012E43DC45EAC32343EA525312BFD202C1
:1035300092025B08240545EAC12141EA5051D2EBD1
:10354000C020994125D407D1B0FA80F610FA06F1CF
:1035500064D00020203608E0B1FA81F6B140C6F10F
:10356000200220FA02F21143B0404FEAF474B4EBA7
:10357000465434F001064FEA74040AD8D6F5001612
:10358000760D04F00044F04061FA06F25040F1403C
:103590004840C00A40EA415021F0004128BF5FEA9C
:1035A000500550F1000044EBD12137E045EAC32338
:1035B000DB0A45EAC121C90AB6F120050EDD42EA5F
:1035C0000242120CC5F1200603FA06F6EB4042EA6D
:1035D00006056D42984161F100010DE062FA06F5C1
:1035E000F240554063FA06FC82EA0C02F3405A406E
:1035F0006D42904161EB030111F4801F05D1641EFF
:10360000620502D06D004041494121F48011430818
:1036100075F1004350F1000041EB0451F0BC7047DC
:103620001CEB410F15D223F0004352EA43060BD0A6
:103630004FEA4C0CBCEB410F04D80C0D661E342E27
:10364000B7DDEBE7801A994150EA410608BF002137
:10365000E4E708BF1CEB430F28BF6FF00001DDE774
:10366000F0B44FF0004591EA030C44BF6B40FFF704
:1036700041BF00BF841A71EB030603D2001BB141A6
:10368000121973414FF4001C1CEB410F34BF7CEB4B
:10369000430443E00C0DA4EB1356352E50DC45EAF1
:1036A000C323DB0A45EAC121C912B6F120050DDDAD
:1036B00063FA05F6EB4086EA0305124218BF45F0AF
:1036C0000105C01851F100010CD213E062FA06F5B1
:1036D000F2405540F3415A40B340F3405A408018FD
:1036E000594107D349085FEA30005FEA350528BF32
:1036F00045F0010501F58011420875F1004250F1D5
:10370000000041EB0451F0BC4FF4001C1CEB410FD6
:1037100038BF70470020090D090570471CEB410FA9
:1037200010D252EA43060BD0BCEB410F05D80C0D6A
:10373000AB43661E342EB5DD02E0AB438018594121
:10374000F0BC7047F0BC704780B50848006850F086
:10375000100006490860032001F0A8FB002002F0D9
:10376000FBF902F00DFA002002BD0000002002402B
:1037700010B50400002C01D1012014E094F83D00A4
:10378000002805D1002084F83C00200002F0CEFA89
:10379000022084F83D00211D206800F05AF9012024
:1037A00084F83D00002010BD0168C96851F0010196
:1037B0000268D1600168096851F001010068016088
:1037C0000020704710B504002068006980071AD5F2
:1037D0002068C068800716D57FF002002168086164
:1037E000012020772068806910F0030F03D02000AB
:1037F00002F066FB05E0200002F063FB200002F00F
:1038000061FB002020772068006940071AD52068F6
:10381000C068400716D57FF00400216808610220C7
:1038200020772068806910F4407F03D0200002F0E8
:1038300047FB05E0200002F044FB200002F042FBC1
:10384000002020772068006900071AD52068C0682A
:10385000000716D57FF00800216808610420207752
:103860002068C06910F0030F03D0200002F028FB8D
:1038700005E0200002F025FB200002F023FB0020E1
:10388000207720680069C0061AD52068C068C00685
:1038900016D57FF010002168086108202077206885
:1038A000C06910F4407F03D0200002F009FB05E05E
:1038B000200002F006FB200002F004FB002020772D
:1038C00020680069C0070AD52068C068C00706D50F
:1038D0007FF0010021680861200002F0F4FA2068FE
:1038E000006900060AD52068C068000606D57FF08A
:1038F000800021680861200002F0E6FA2068006973
:1039000040060AD52068C068400606D57FF0400012
:1039100021680861200002F0D8FA2068006980065A
:103920000AD52068C068800606D57FF0200021688F
:103930000861200002F0CAFA10BD10B50400002092
:1039400094F83C00012801D1022081E0012084F894
:103950003C00022084F83D002068806830F0770049
:1039600030F47F40226890600868002855D0102805
:1039700058D020285BD030285ED0402843D0502833
:103980002DD0602835D070280DD0B0F5805F03D0E1
:10399000B0F5005F16D054E020688068C008C00011
:1039A000216888604DE0CB684A688968206800F02B
:1039B000BCF82068806830F0770050F0770021680C
:1039C00088603EE0CB684A688968206800F0ADF8FE
:1039D0002068806850F480402168886031E0CA68BF
:1039E0004968206800F06EF85021206800F093F8D4
:1039F00027E0CA684968206800F078F860212068EC
:103A000000F089F81DE0CA684968206800F05AF89B
:103A10004021206800F07FF813E00021206800F0CA
:103A20007AF80EE01021206800F075F809E02021F6
:103A3000206800F070F804E03021206800F06BF896
:103A4000FFE7012084F83D00002084F83C000020BE
:103A500010BD00220268184B984208D0B0F1804F88
:103A600005D0164B984202D0154B984203D132F044
:103A700070024B681A43104B984208D0B0F1804F47
:103A800005D00E4B984202D00D4B984203D132F430
:103A90004072CB681A4332F080024B691A430260CD
:103AA0008A68C2620A688262034A904201D1096947
:103AB0000163012141617047002C01400004004076
:103AC0000008004010B400230024046A036A5B0865
:103AD0005B000362836933F0F00353EA021334F0AE
:103AE0000A040C438361046210BC704710B40023C5
:103AF0000024036A33F0100303628369046A33F419
:103B0000704353EA023334F0A00454EA0114836191
:103B1000046210BC70470022826832F0700289B2E1
:103B200051F007010A438260704710B40024846892
:103B300034F47F44114351EA03210C43846010BCE8
:103B40007047000080B500F0E1FA002801D000F0D5
:103B500031FC01BDDFF878080078DFF878180978C3
:103B6000884208D3DFF868080078DFF86818097819
:103B7000401AC0B208E0DFF85C0800784042DFF885
:103B8000501809780818C0B27047C0B2002809D18F
:103B90003020DFF8441808700A20DFF83C1848701D
:103BA000022044E0C0B201280DD12D20DFF82818F2
:103BB00008703120DFF8201848700A20DFF8181844
:103BC0008870032033E0C0B202280DD12D20DFF829
:103BD000081808703220DFF8001848700A20DFF853
:103BE000F8178870032022E0C0B203280DD12D20E1
:103BF000DFF8E41708703320DFF8DC1748700A207C
:103C0000DFF8D4178870032011E0C0B204280DD16A
:103C10002D20DFF8C41708703420DFF8BC17487077
:103C20000A20DFF8B4178870032000E000207047F6
:103C300038B5040000255B20ADB260556D1CDFF87F
:103C40009C070268EDA1280080B2204402F040F9F0
:103C500045192C20ADB260556D1CDFF88007426815
:103C6000E6A1280080B2204402F032F945192C2048
:103C7000ADB260556D1CDFF864078268DFA12800D3
:103C800080B2204402F024F945192C20ADB26055D1
:103C90006D1CDFF84807C268D8A1280080B2204414
:103CA00002F016F945192C20ADB260556D1CDFF8F5
:103CB0002C070269D1A1280080B2204402F008F943
:103CC00045192C20ADB260556D1CDFF81407006853
:103CD000FEF71AFF0022DFF80C37FEF73DFFFFF773
:103CE00039F90200C5A1280080B2204402F0F0F8A2
:103CF00045192C20ADB260556D1CDFF8EC0602783A
:103D0000BEA1280080B2204402F0E2F845192C2020
:103D1000ADB260556D1CDFF8D4060278B7A128005B
:103D200080B2204402F0D4F845192C20ADB2605581
:103D30006D1CDFF8BC060268B0A1280080B22044E8
:103D400002F0C6F845192C20ADB260556D1CDFF8A5
:103D5000A0064268A9A1280080B2204402F0B8F869
:103D600045192C20ADB260556D1CDFF884068068C3
:103D7000FEF7CAFE0022DFF86C36FEF7EDFEFFF715
:103D8000E9F802009DA1280080B2204402F0A0F8CA
:103D900045192C20ADB260556D1CDFF8580602782D
:103DA00096A1280080B2204402F092F845192C20F8
:103DB000ADB260556D1CDFF83C0682788FA12800FB
:103DC00080B2204402F084F845192C20ADB2605531
:103DD0006D1CDFF82006826888A1280080B220448C
:103DE00002F076F845192C20ADB260556D1CDFF855
:103DF0000406C27D81A1280080B2204402F068F848
:103E000045192C20ADB260556D1CDFF8E805027E27
:103E10007AA1280080B2204402F05AF845192C20DB
:103E2000ADB260556D1CDFF8CC05427E73A1280051
:103E300080B2204402F04CF845192C20ADB26055F8
:103E40006D1CDFF8B005027D6CA1280080B2204413
:103E500002F03EF845192C20ADB260556D1CDFF81C
:103E60009405427D65A1280080B2204402F030F81C
:103E700045192C20ADB260556D1CDFF87805827DA8
:103E80005EA1280080B2204402F022F845192C20BF
:103E9000ADB260556D1CDFF85C05827E57A128002D
:103EA00080B2204402F014F845192C20ADB26055C0
:103EB0006D1CDFF84005C27E50A1280080B220446E
:103EC00002F006F845192C20ADB260556D1CDFF8E4
:103ED0002405427C49A1280080B2204401F0F8FF6B
:103EE00045192C20ADB260556D1CDFF80805027F26
:103EF00042A1280080B2204401F0EAFF45192C209D
:103F0000ADB260556D1CDFF8EC0482893BA128003E
:103F100080B2204401F0DCFF45192C20ADB2605581
:103F20006D1CDFF8D004027C34A1280080B220444C
:103F300001F0CEFF45192C20ADB260556D1C012259
:103F4000D2B22EA1280080B2204401F0C1FF451951
:103F50005D20ADB260556D1CDFF89804C28927A1C1
:103F6000280080B2204401F0B3FF45195D20ADB2B6
:103F700060556D1C0A20ADB260556D1C280080B2E2
:103F800032BD10B50400DFF868048068FFF70EF852
:103F900002001AA1200001F09BFF0A2180B22154E7
:103FA000401C80B210BD80B50A22694601F0AAFF0C
:103FB000FEF790FDFEF7A8FD0022DFF82834FEF79B
:103FC0009DFE00F03FFADFF8181408600098401CCE
:103FD00000900A226946009801F094FFDFF8081467
:103FE00008700098401C00900A220021009801F0FF
:103FF00089FFDFF8F813087001BD00002564000098
:1040000080B50A22694601F07DFFDFF8EC134860B5
:104010000098401C00900A226946009801F072FF47
:10402000DFF8D413C8600098401C00900A2269464B
:10403000009801F067FFDFF8C01348610098401C4A
:1040400000900A226946009801F05CFFDFF8A8138F
:10405000C8610098401C00900A226946009801F04F
:1040600051FFDFF8941348620098401C00900A2228
:104070006946009801F046FFDFF87C13C86200989B
:10408000401C00900A226946009801F03BFFDFF8CF
:10409000681348630098401C00900A226946009803
:1040A00001F030FFDFF85013C8630098401C009007
:1040B0000A220021009801F025FFDFF83C13486434
:1040C00001BD70B504000A220021200001F01AFF92
:1040D0000500C7484068FEF707FD06002800FEF708
:1040E000F9FC310001F012FFFEF760FFC0494860A3
:1040F0000A220021200001F005FFFEF7EBFCBC497D
:10410000896801F003FFBA49886070BDBB48808DA3
:10411000BA49C98D401A401EB949C0B2095C0A2982
:1041200009D1AB4909780200D2B2914203D0A84923
:104130000870012000E00020704780B5B048AF490A
:104140008862A548AD4908624FF48072AC49AB481B
:1041500001F02AFA01BD38B50400002501F018FF6E
:10416000A64801F056FA4FF48072A549A34801F021
:104170001BFAA448007867281FD1FFF7EBFC03283F
:1041800003DB0320FFF701FD4519FFF7E3FC0228DD
:1041900003DA0220FFF7F9FC4519FFF7DBFC0228E0
:1041A00007D10020FFF7F1FC4519A01CFFF740FDE7
:1041B0004519EDB2280080B2FBE0924800786328F0
:1041C00040F0E3808F484078732806D10020FFF745
:1041D000DCFC45198C48FFF7E6FE8A4840786628E3
:1041E00006D10020FFF7D1FC45198748FFF708FFEB
:1041F00084484078772817D1FFF7ACFC042803DB0C
:104200000320FFF7C2FC4519FFF7A4FC032803DADB
:104210000220FFF7BAFC4519FFF79CFC032803D1E5
:104220000020FFF7B2FC451976484078722817D174
:10423000FFF790FC042803DB0320FFF7A6FC4519D9
:10424000FFF788FC032803DA0220FFF79EFC4519DC
:10425000FFF780FC032803D10020FFF796FC4519E7
:10426000684840786E281AD1FFF774FC042803DBF5
:104270000320FFF78AFC4519FFF76CFC032803DADB
:104280000220FFF782FC4519FFF764FC032806D1E2
:104290000020FFF77AFC451902205649087059485A
:1042A000407869281BD153480078022813D1002098
:1042B000FFF76BFC451900224FF480715348FDF75E
:1042C00087FE00224FF400715048FDF781FE002068
:1042D0004849087403E00420FFF757FC4519494892
:1042E00040786A2812D10020FFF74FFC45190122BF
:1042F0004FF480714548FDF76BFE01224FF40071C9
:104300004248FDF765FE01203A4908743D4840786F
:104310006D282ED1FFF71EFC042803DB0320FFF7D6
:1043200034FC4519FFF716FC032803DA0220FFF7D7
:104330002CFC4519FFF70EFC03281AD12000FFF7CB
:1043400020FE451902202B490870FCF7D3F92848B4
:104350000068274949680C1825488068FEF726FE42
:10436000201A234908600020214948600020204984
:10437000886024484078742803D10020FFF705FCAA
:104380004519EDB2280080B213E01E4800786D2870
:104390000AD10020FFF7F9FB45191D48FFF791FEF0
:1043A000EDB2280080B204E00120FFF7EEFB4519D2
:1043B000002032BD80B50848FFF7CDFE020092B262
:1043C00005490E4801F0C7F801F0FEFD01BD0000EF
:1043D000AC0D00201501002018070020600C002003
:1043E00008000020000059401101002012010020A7
:1043F000A40C00202C0C0020700A00203C0B002094
:1044000018080020180900201A0900200014014093
:1044100019090020010040F10980F446404200F0F3
:1044200005F851F000416047010000BF09D0B0FA23
:1044300080F18840C91CC1F58461090501EBD021D8
:10444000400570474FEAF17CBCF1E04C2CBFBCF555
:10445000001F11E05FEA4C0C34BFBCF17F5F2EE01F
:104460005FEA9C0C4FEA0C1C4FEA3C0CC10071F156
:1044700000414CEB50707047C90241EA5051C002F4
:1044800018BF41F0010141F000414FEA6C50C0F10A
:104490000900212810D240EACC7CCCF1200C11FA82
:1044A0000CF070F10040CCF1200C21FA0CF00CF073
:1044B000004C40EB0C0070474FEACC70704749004D
:1044C00011F5001F04D84FEACC10FF30C00570472B
:1044D000C81770474FF0807C1CEB400F94BF1CEB5B
:1044E000410F05E040EA010C5FEA4C0C01D2884222
:1044F000704718BF8142704770B582B00400002534
:104500002078C00740F18480DFF87C06006810F056
:104510000C0004280BD0DFF87006006810F00C00C7
:1045200008280ED1DFF860060068C00309D5DFF85F
:104530005C06006880036BD56068002868D10120A4
:1045400002E26068B0F5803F08D1DFF840060068FD
:1045500050F48030DFF83416086038E060680028D6
:1045600010D1DFF82806006830F48030DFF81C1620
:104570000860DFF81806006830F48020DFF80C16B9
:10458000086024E06068B0F5A02F10D1DFF8FC05CA
:10459000006850F48020DFF8F4150860DFF8EC05BF
:1045A000006850F48030DFF8E41508600FE0DFF8B1
:1045B000DC05006830F48030DFF8D0150860DFF8E3
:1045C000CC05006830F48020DFF8C0150860606812
:1045D00000280ED001F0BAFA0500DFF8B005006837
:1045E000800315D401F0B2FA401B6528F5D30320EF
:1045F000AAE101F0ABFA0500DFF89005006880033E
:1046000006D501F0A3FA401B6528F5D303209BE1F2
:104610002078800726D5DFF87005006810F00C0FB1
:104620000BD0DFF86405006810F00C00082833D1C7
:10463000DFF854050068C0032ED4DFF85005006889
:10464000800704D52069012801D001207CE1DFF832
:104650003C05006830F0F800616950EAC100DFF8FD
:104660002C150860207800074ED5A069002800F0BE
:1046700081800120DFF82015086001F067FA05004D
:10468000DFF81805006880073BD401F05FFA401B93
:104690000328F5D3032057E1206900281ED001200C
:1046A000DFF8FC14086001F051FA0500DFF8DC04C3
:1046B0000068800706D401F049FA401B0328F5D3AF
:1046C000032041E1DFF8C404006830F0F8006169BC
:1046D00050EAC100DFF8B4140860C3E70020DFF837
:1046E000C014086001F032FA0500DFF8A004006889
:1046F0008007B7D501F02AFA401B0328F5D3032021
:1047000022E1012000F02DFA2078400740F1B98025
:104710000026DFF890040068C0000FD4DFF884049E
:10472000006850F08050DFF87C140860DFF87404F3
:10473000006810F08050009000980126DFF86804AF
:104740000068C00529D4DFF86004006850F4807068
:10475000DFF85414086001F0F9F90500DFF84804A7
:104760000068C00519D401F0F1F9401B6528F5D3A4
:104770000320E9E00020DFF82014086001F0E6F9EA
:104780000500DFF8180400688007BDD501F0DEF9E8
:10479000401B0328F5D30320D6E0E068012808D1A8
:1047A000DFF80804006850F00100DFF8001408602A
:1047B00037E0E068002810D1DFF8F0030068400817
:1047C0004000DFF8E8130860DFF8E003006830F02D
:1047D0000400DFF8D813086023E0E068052810D152
:1047E000DFF8C803006850F00400DFF8C013086069
:1047F000DFF8B803006850F00100DFF8B01308607C
:104800000FE0DFF8A803006840084000DFF89C13C1
:104810000860DFF89803006830F00400DFF88C13BC
:104820000860E068002810D001F090F90500DFF87A
:104830007C030068800719D401F088F9401B41F21D
:1048400089318842F3D303207EE001F07FF905002F
:10485000DFF858030068800708D501F077F9401B9E
:1048600041F289318842F3D303206DE0F6B2012E84
:1048700007D1DFF83003006830F08050DFF82413F0
:104880000860E06900285ED0DFF8FC02006810F0E4
:104890000C00082855D0E06902283FD10020DFF83D
:1048A0001013086001F052F90500DFF8E00200681B
:1048B000800106D501F04AF9401B0328F5D30320F7
:1048C00042E0206AB0F5803F09D1DFF8BC02006801
:1048D00030F40030A1680843DFF8AC120860DFF85C
:1048E000A802006830F47410216A0843616A084322
:1048F000DFF8941208600120DFF8B412086001F0BC
:1049000025F90500DFF88402006880011BD401F05E
:104910001DF9401B0328F5D3032015E00020DFF824
:104920009012086001F012F90500DFF860020068DB
:10493000800108D501F00AF9401B0328F5D30320B4
:1049400002E0012000E0002076BD70B504000D00FB
:104950000026DFF86002006810F00700A84211D2BC
:10496000DFF850020068C008C0002843DFF8441296
:104970000860DFF84002006810F00700A84201D08C
:104980000120A1E02078800709D5DFF8FC0100684C
:1049900030F0F000A1680843DFF8EC1108602078DF
:1049A000C00756D56068012806D1DFF8E00100682D
:1049B000800311D4012087E06068022806D1DFF867
:1049C000CC010068800107D401207DE06F480068B9
:1049D000800701D4012077E06B48006880088000E0
:1049E000616808436849086001F0B0F80600606833
:1049F00001280ED16448006810F00C00042828D06B
:104A000001F0A4F8801B41F289318842F2D30320DF
:104A10005AE0606802280ED15B48006810F00C0074
:104A2000082816D001F092F8801B41F289318842A3
:104A3000F2D3032048E05448006810F00C0F08D06F
:104A400001F084F8801B41F289318842F3D30320BE
:104A50003AE05848006810F0070085420ED25548E9
:104A60000068C008C00028435249086051480068E7
:104A700010F00700A84201D0012025E0207840076F
:104A800007D54148006830F4E060E16808433E49DA
:104A900008602078000708D53B48006830F4605073
:104AA000216950EAC1003849086000F00EF8424917
:104AB000354A1268C2F30312895CC8403549086060
:104AC000002001F049F8002070BD00B585B001A8B4
:104AD0003A49102201F00EF839480088ADF800007C
:104AE000002000200020002100202748006810F04E
:104AF0000C01042902D0082902D016E0244815E050
:104B000001A9C0F38342895CC0030AD568461E4AE6
:104B10001268C2F34042805C1D4AB2FBF0F0484389
:104B200002E0284800FB01F000E0194805B000BD94
:104B300018480068704780B5FFF7FAFF2249124A0B
:104B40001268C2F30222895CC84002BD80B5FFF73B
:104B5000EFFF1D490C4A1268C2F3C222895CC840AB
:104B600002BD81B00B490968C9084FF47A72B1FBE4
:104B7000F2F14843009000BF0098411E00910028C8
:104B8000F9D101B07047000004100240001002404B
:104B900000127A000C0000208004424224100240DF
:104BA000000042421C1002400070004020100240F1
:104BB0006000424200200240E4820008C4820008F3
:104BC000062B000800093D001083000870B582B074
:104BD0000400002600202078C00763D50025764811
:104BE0000068C0000CD47448006850F080507249CE
:104BF00008607148006810F080500090009801250E
:104C00006E480068C00513D46C48006850F480708A
:104C10006A49086000F09AFF060068480068C0050D
:104C200006D400F093FF801B6528F6D3032050E0E4
:104C30006348006810F44070002822D0616811F4C5
:104C4000407188421DD05E48006830F440700121F8
:104C50005C4A116000215B4A116059490860C00735
:104C60000FD500F073FF060055480068800708D490
:104C700000F06CFF801B41F289318842F4D303209D
:104C800027E04F48006830F44070616808434C49A1
:104C90000860EDB2012D05D14748006830F0805022
:104CA000454908602078800707D54748006830F4F8
:104CB0004040A1680843444908602078C00607D5F1
:104CC0004148006830F48000E16808433E490860CC
:104CD000002076BD10B586B0040001A83B49102223
:104CE00000F008FF3A480088ADF8000000200021DD
:104CF000002300220020012C2BD0022C4ED0102C9F
:104D000057D1314A1268334B1B68DB0120D501A80B
:104D1000C2F38343C35CD0030DD568462A4C246894
:104D2000C4F34044005DD20308D52B49B1FBF0F039
:104D300003FB00F102E0294800FB03F12248006870
:104D4000400201D5080003E048000321B0FBF1F068
:104D50002FE01B48026840F202301040B0F5817F1E
:104D600002D14FF4004018E012F44070B0F5007F1B
:104D700006D11B480068800702D549F640400CE088
:104D800012F44070B0F5407F06D1124800688003ED
:104D900002D54FF2244000E000200AE0FFF7D6FEE3
:104DA00009490968C1F38131491C4900B0FBF1F0A0
:104DB000FFE706B010BD00001C100240007000406C
:104DC000201002404004424204100240D4820008F5
:104DD000562B00080010024000127A0000093D0026
:104DE0002410024010F00701474800684FF6FF0208
:104DF0001040464A52EA012108434349086070477F
:104E000041480068C0F302207047012110F01F02E2
:104E100091403F4A40B2400942F82010704740B2EA
:104E2000002808D509013B4A40B210F00F00104499
:104E300000F8041C03E00901374A40B211547047DE
:104E400010B410F00700D0F10703052B01D30423A1
:104E500001E0D0F10703041D072C01D2002000E07F
:104E6000C01E012414FA03F35B1E19408140012384
:104E700013FA00F0401E1040084310BC704780B584
:104E8000411EB1F1807F01D301200EE0401E234975
:104E900008600F215FF0FF30FFF7C1FF00202049BD
:104EA000086007201F490860002002BD80B5FFF799
:104EB00099FF01BD70B504000D0016000020FFF73A
:104EC0009FFF32002900FFF7BBFF0100200040B226
:104ED000FFF7A5FF70BD80B540B2FFF796FF01BD9B
:104EE00080B5FFF7CCFF02BD042806D10D4800684D
:104EF00050F004000B49086005E00A48006830F0F3
:104F000004000849086070470CED00E00000FA0555
:104F100000E100E018ED00E000E400E014E000E053
:104F200018E000E010E000E080B500F001F801BDFD
:104F300070470000F8B50400002000270025002677
:104F4000002C01D101208FE0A068002801D0606909
:104F50000028A06A002807D10020E062002084F821
:104F60002400200000F05AFE200000F063F9A16A3E
:104F7000C90673D4C0B2002870D1A16A31F4885137
:104F800051F00201A1626168E2691143E26851EAED
:104F900042010D43A168B1F5807F02D0A1680129CB
:104FA00002D14FF4807100E000210F4361690129B3
:104FB00011D1E168002906D1A169491E490351F4C4
:104FC00000610F4307E0A16A51F02001A162E16A8C
:104FD00051F00101E1622168496831F469413943C6
:104FE0002268516021688968DFF834221140294322
:104FF00022689160A168B1F5807F02D0A168012983
:1050000002D14FF4807100E00021B1F5807F02D120
:105010002169491E0E052168C96A31F470013143C6
:105020002268D16221688968DFF8F8211140A9421D
:1050300008D10021E162A16A31F0020151F00101C1
:10504000A16210E0A06A30F0020050F01000A062EF
:10505000E06A50F00100E062012004E0A06A50F034
:105060001000A0620120C0B2F2BD78B40A00002195
:105070000023009390F82430012B01D1022096E008
:10508000012380F824305368072B12D203685B6B2E
:105090001F2455686D1E05267543AC40A343146854
:1050A00055686D1E05267543AC4023430468636351
:1050B00027E053680D2B12D203681B6B1F24556821
:1050C000ED1F05267543AC40A34314685568ED1FDA
:1050D00005267543AC4023430468236311E003684D
:1050E000DB6A1F2455680D3D05267543AC40A3437C
:1050F000146855680D3D05267543AC40234304688C
:10510000E36213680A2B12D30368DB68072415686F
:105110000A3D03267543AC40A343946815680A3DD5
:1051200003267543AC4023430468E3600FE0036843
:105130001B690724156803267543AC40A343946894
:10514000156803267543AC40234304682361136844
:10515000102B02D01368112B24D10368324CA342C8
:105160001BD103689B681B021CD403689B6853F423
:1051700000030468A3601268102A13D12B4A126836
:105180002B4BB2FBF3F20A235A430092009A002AF7
:1051900008D0009A521E0092F8E7816A51F020016F
:1051A00081620121002280F824200800C0B272BC74
:1051B000704738B504000025002000902068806802
:1051C000C0072BD42068806850F0010021688860F7
:1051D000164800681649B0FBF1F0009002E0009814
:1051E000401E009000980028F9D100F0AFFC0500A7
:1051F00020688068C00711D400F0A8FC401B032879
:10520000F6D3A06A50F01000A062E06A50F00100EE
:10521000E062002084F82400012000E0002032BD7C
:10522000FDF7E1FFFE0E1FFF002401400C000020EF
:1052300040420F0038B50400002520688068C00790
:105240001BD520688068400840002168886000F015
:105250007DFC050020688068C0070ED500F076FC54
:10526000401B0328F6D3A06A50F01000A062E06A49
:1052700050F00100E062012000E0002032BD00009B
:10528000F8B50400002500270026002C01D10120DC
:105290009FE094F83C00002805D1002084F83D00F0
:1052A000200000F0DCFC022084F83C00206800684C
:1052B00030F00200216808602068006850F00100AA
:1052C0002168086000F042FC070020684068C007C1
:1052D0000CD400F03BFCC01B0B28F6D3032084F851
:1052E0003C00002084F83D00032072E02068406804
:1052F000C00761D5A069012802D156F0800601E0FF
:1053000036F08006E069012802D156F0400601E03F
:1053100036F04006206A012802D156F0200601E04E
:1053200036F02006606A012802D156F0100601E02E
:1053300036F01006A06A012802D156F0080601E0F6
:1053400036F00806E06A012802D156F0040601E0B2
:1053500036F004062068006830F0FC003043216815
:105360000860A068E168084321690843616908434F
:105370006168491E08432168C861206800684008C8
:1053800040002168086000F0E1FB070020684068E9
:10539000C0070CD500F0DAFBC01B0B28F6D30320A6
:1053A00084F83C00002084F83D00032011E02068D0
:1053B0004068C00700D40125012D06D100202064DB
:1053C000012084F83C00002003E0042084F83C0025
:1053D0000120F2BD10B50400002C01D101200AE02B
:1053E0006079002804D100202071200000F061FCC9
:1053F00001206071002010BD10B50400002C01D107
:1054000001203DE00020A06294F85100002802D164
:10541000200000F061FC022084F851002068006840
:1054200030F04000216808606068A1680843E168C6
:1054300008432169084361690843A16911F40071B7
:105440000843E1690843216A0843A16A08432168C7
:105450000860A069000C10F00400616A084321682C
:105460004860E06A216808612068C06930F4006023
:105470002168C86100206065012084F85100002087
:1054800010BD000090F83C20012A01D1022024E048
:10549000012280F83C20022280F83D2002685268F8
:1054A00032F0700203685A60026852680B681A434F
:1054B00003685A600268926832F0800203689A605A
:1054C000026892684968114302689160012180F87E
:1054D0003D10002180F83C100020704700000000C3
:1054E00010B50400002C01D1012033E0A069002890
:1054F000FFD194F83900002805D1002084F8380045
:10550000200000F02DFC242084F839002068C068B9
:1055100030F400502168C860200000F0EEF92068E7
:10552000006930F49040216808612068406930F0DB
:105530002A00216848612068C06850F40050216842
:10554000C8600020E063202084F83900202084F81F
:105550003A00002010BD90F83930202B22D10029CC
:1055600002D092B2002A01D101201CE090F838301C
:10557000012B01D1022016E0012380F838300162AE
:105580008284C2840021C163212180F83910002166
:1055900080F838100168C96851F080010068C16066
:1055A000002000E00220704790F83A30202B2ED1E6
:1055B000002902D092B2002A01D1012028E090F8FF
:1055C0003830012B01D1022022E0012380F838304D
:1055D00081628285C2850021C163222180F83A1050
:1055E000002180F838100168C96851F480710268A0
:1055F000D1600168496951F0010102685161016897
:10560000C96851F020010068C160002000E002205C
:10561000704710B504002068C06830F490702168AD
:10562000C8602068406940084000216848612068DF
:10563000406940060ED52068406930F0400021687E
:105640004861606B002805D00020616B4863606B87
:1056500000F0D0FC0020E085202084F83A000020F3
:1056600010BD38B50400206800682168C968226848
:1056700052690023002310F00F03002B07D1850689
:1056800005D58D0603D5200000F0E3F882E0002B5D
:1056900070D0D30702D411F4907F6BD010F00103C7
:1056A000DBB2002B05D0CB0503D5E36B53F0010330
:1056B000E363430708D512F00103DBB2002B03D0EC
:1056C000E36B53F00203E363830708D512F0010391
:1056D000DBB2002B03D0E36B53F00403E363030757
:1056E00008D512F00102D2B2002A03D0E26B52F0C8
:1056F0000802E263E26B002A3BD0800604D58806EC
:1057000002D5200000F0A5F820684069800910F05B
:105710000103E06B000701D4002B25D0200000F02E
:105720003AF82068406940061AD52068406930F090
:10573000400021684861606B00280DD00FF27900AD
:10574000616B4863606B00F070FC002811D0606BE7
:10575000616B496B88470CE0200000F0CBFC08E04F
:10576000200000F0C7FC04E0200000F0C3FC002093
:10577000E0630FE0020605D50A0603D5200000F01D
:1057800025F807E0400605D5480603D5200000F0BF
:1057900052F8FFE731BD0168C96831F490710268C1
:1057A000D1600168496949084900026851612021B6
:1057B00080F83A107047000080B5406A0021C1852A
:1057C0000021C18400F096FC01BD000090F8391062
:1057D00021292ED18168B1F5805F10D1016A098835
:1057E000C905C90D026851600169002903D1016A28
:1057F000891C016209E0016A491C016205E0016A35
:105800004A1C0262097802685160C18C491EC18439
:1058100089B200290BD10168C96831F080010268A2
:10582000D1600168C96851F040010068C160002082
:1058300000E00220704780B50168C96831F040017E
:105840000268D160202180F8391000F054FC00205B
:1058500002BD80B590F83A1022294CD18168B1F58B
:10586000805F15D1816A0269002A08D102685268F6
:10587000D205D20D0A80816A891C81621AE0026811
:10588000526802F0FF020A80816A491C816211E0BD
:105890000169002906D1816A4A1C82620268526845
:1058A0000A7007E0816A4A1C82620268526812F03C
:1058B0007F020A70C18D491EC18589B2002918D1A5
:1058C0000168C96831F020010268D1600168C968C7
:1058D00031F480710268D160016849694908490062
:1058E00002685161202180F83A1000F005FC002088
:1058F00002E0002000E0022002BD2DE9F04104009A
:1059000000202168096931F44051E268114322689E
:105910001161A1682269114362691143084321683A
:10592000C9685C4A114008432168C8602068406922
:1059300030F44070A16908432168486120685649E5
:10594000884252D1FFF702F98046FFF7FFF80600C0
:10595000FFF7FCF80700FFF7F9F80500FFF7F6F886
:10596000192101FB08F162689200B1FBF2F1642297
:10597000B1FBF2F1192202FB06F263689B00B2FB55
:10598000F3F2192303FB07F36668B600B3FBF6F3E3
:105990006426B3FBF6F3642606FB132212013232AF
:1059A0006423B2FBF3F212F0F00212EB01111922A0
:1059B00002FB05F263689B00B2FBF3F21923584324
:1059C00063689B00B0FBF3F06423B0FBF3F0642347
:1059D00003FB1020000132306422B0FBF2F010F023
:1059E0000F0040182168886051E0FFF7A4F8804656
:1059F000FFF7A1F80600FFF79EF80700FFF79BF8F6
:105A00000500FFF798F8192101FB08F16268920080
:105A1000B1FBF2F16422B1FBF2F1192202FB06F2B2
:105A200063689B00B2FBF3F2192303FB07F366687C
:105A3000B600B3FBF6F36426B3FBF6F3642606FB6D
:105A40001322120132326423B2FBF3F212F0F0029D
:105A500012EB0111192202FB05F263689B00B2FBF5
:105A6000F3F21923584363689B00B0FBF3F06423FF
:105A7000B0FBF3F0642303FB1020000132306422FA
:105A8000B0FBF2F010F00F00401821688860BDE80C
:105A9000F0810000F3E9FFFF0038014010B5040079
:105AA000002C01D101200FE0200000F0D7F9E068C0
:105AB00050F0800021680860206961680843A1688F
:105AC000084321684860002010BD002848BF4042BC
:105AD0007047000062B38B0708D0521E11F8013BDB
