:020000040800F2
:10000000180500207D7700083D7100083F71000849
:1000100041710008437100084571000800000000AC
:100020000000000000000000000000004771000810
:1000300049710008000000004B7100084D71000874
:10004000C5770008C9770008CD770008D177000888
:10005000D5770008D9770008597100086371000846
:100060006D7100087771000881710008DD77000864
:10007000E1770008E5770008E9770008ED770008E8
:10008000F1770008F5770008F9770008FD77000898
:100090000178000805780008097800088B710008CD
:1000A0000D78000811780008157800081978000804
:1000B0001D780008B1710008217800082578000833
:1000C000297800082D780008317800083578000874
:1000D000397800087B7300083D78000841780008F3
:1000E000BD73000845780008497800082DE9F04FF5
:1000F00082460FF25860A5B015461E46D0E900238F
:10010000CDE9122303AF00207960B8620DF15009E8
:1001100000E045440020ADF8020012AB4FF0FF3282
:1001200029460DF1020001F0AEF88046B8F1010F4A
:1001300008DA2878B0F1010868EB08086FEA0800CF
:100140004FEAD078BDF8020025280CBFA8F1010BBA
:10015000C346BBF1010F0EDB2C4614F8011B786877
:10016000D0470028786000F0F880B86A401CBBF1E6
:10017000010BB862F1D1BDF80200252807D100209B
:1001800038617861B861F8613862786205E000280A
:10019000BFD1B86AE2E240F0010015F8011F202942
:1001A000F9D023290DD02B2904D02D2906D03029B0
:1001B0000AD00CE040F0020080B2EEE740F004000C
:1001C000FAE740F00800F7E740F01000F4E72A29CA
:1001D0000ED13168316051F8042B3160002A3A6346
:1001E00004D5514240F00400396380B26D1C13E025
:1001F000002139630BE0396B6FF00043994205D061
:1002000001EB810302EB4301303939636D1C2A781D
:10021000A2F130010A29EED329782E2903D04FF01C
:10022000FF31F9621FE015F8011F2A2907D1316853
:1002300031606D1C51F8042B3160FA6213E000212B
:10024000F9620BE0F96A6FF00043994205D001EBC7
:10025000810302EB43013039F9626D1C2A78A2F167
:1002600030010A29EED3B8860FF2E840297801F070
:100270001FF808B115F8010B8DF842009DF84200F7
:10028000682802BF29786829622005D06C2804BF3D
:1002900028786C2803D171208DF842006D1C14A8B9
:1002A000F86015F8014BB4F125002AD01C3800F095
:1002B000DB80001F022840F2D780133800F0FB805B
:1002C000093800F0D180801E00F06581401E00F0EA
:1002D0003C81401E022840F2C780001F00F035819B
:1002E000401F00F09280401E00F0E580401E37D095
:1002F000C01E0BD0801E00F0DE80C01E00F0DB8030
:100300006CE125208DF85000012070E19DF842003D
:100310006C283068306016D050F8048B3060C7F815
:100320000880FC6A002C04D5404600F0CDFF04464E
:1003300007E022460021404600F0E2FF08B1A0EBB2
:1003400008047C6154E150F8042B306002A9504647
:1003500000F03EFA002840F14B814FF0FF30FDE104
:1003600031683160002251F8040B31604FF03C0ECF
:100370000021CDE9020114A8B860DDE90201914233
:10038000FC6808BF904201D1FA6AC2B100F00F03C5
:100390003033DBB23A2BA8BF2733AEF1010200099C
:1003A000A354964640EA017009090022914208BF11
:1003B000904204D0BA6804EB0E039A42E6D304EBF1
:1003C0000E01B960CEF13C00F96A7861884207DA23
:1003D000081AF8614FF6EF71B88E0840B88607E149
:1003E000002940F1058197F8341001F0140110291B
:1003F00040F0FE80396B3A69891AFA69891A081A3D
:100400000128C0F2F580F861F2E09DF84200622810
:100410001AD0682806D06A280CD06C281CD0712805
:1004200008D019E03068306050F8041B3060B86ABA
:100430000880DDE03068306050F8042B3060B86A26
:10044000C117C2E90001D3E03068306050F8041BE6
:100450003060B86A0870CBE03068306050F8041B38
:100460003060B86A0860C3E03068C01D20F0070241
:100470003260D2E9000108323260CDE90201002980
:1004800002D538692D2109E0B88E810702D5386977
:100490002B2103E0C00705D53869202109F8001099
:1004A000401C386114A839690844B860214602A884
:1004B00000F09AFB9CE09DF842006C280DD071285A
:1004C00018BF6A2809D13068C01D20F007023260C9
:1004D000D2E900010832326005E03168316051F83C
:1004E000040B31600021CDE902019DF8420068282B
:1004F00003D1DDE9020180B20BE0622803D1DDE91E
:100500000201C0B205E0742818BF7A2804D1DDE9E1
:1005100002010021CDE9020197F83400000731D52E
:10052000DDE902230020834208BF82422AD044F042
:100530002000782826D13869302109F80010401CA5
:10054000411C396109F800401CE09DF84200314629
:1005500000F007F9CDE90201DDE9022300218B4219
:1005600002DA38692D2109E0B88E810702D5386991
:100570002B2103E0C00705D53869202109F80010B8
:10058000401C386114A839690844B860214602A8A3
:1005900000F0A4FA2CE09DF842006C2809D001205C
:1005A00038613068306050F8041B30608DF85010AE
:1005B0001EE03068306001AA50F8041B3060ADF8CE
:1005C00004100020ADF8060002A94FF0FF30F862D9
:1005D000504600F0FDF800280AD5BEE625208DF82B
:1005E0005000012038611CB189F8014002203861B7
:1005F000386B3969401AF969401A7969401A396AC1
:10060000401AB969401A796AA0EB010897F83400DA
:10061000400711D42020B8F1010F8DF800000BDB4A
:10062000444601236A4602A9504600F007FE00280E
:100630007FF493AE641EF4D1D7F810B0BBF1000F75
:1006400014AC0DD014F8011B7868D04700287860EE
:100650003FF483AEB86A401CBBF1010BB862F1D124
:1006600030208DF80000FC69012C0ADB01236A466A
:1006700002A9504600F0E2FD00287FF46EAE641E31
:10068000F4D1D7F814B0BC68BBF1000F0DD014F84A
:10069000011B7868D047002878603FF45EAEB86AE6
:1006A000401CBBF1010BB862F1D130208DF8000085
:1006B0003C6A012C0ADB01236A4602A9504600F07D
:1006C000BDFD00287FF449AE641EF4D1B868796995
:1006D000D7F818B04418BBF1000F0DD014F8011B67
:1006E0007868D047002878603FF437AEB86A401C7D
:1006F000BBF1010BB862F1D130208DF800007C6AAB
:10070000012C0ADB01236A4602A9504600F096FD3F
:1007100000287FF422AE641EF4D197F8340040071D
:100720007FF5F8AC2020B8F1010F8DF80000FFF63E
:10073000F1AC01236A4602A9504600F07FFD002873
:100740007FF40BAEB8F10108F3D1E3E40000000040
:1007500000000000686A6C747A4C000025B0BDE8A7
:10076000F08F622826D068281DD06A2808D06C280F
:1007700027D0712804D0742823D07A280CD020E008
:100780000868C01D20F007000860D0E90023083089
:1007900008601946104670470A680A6052F8040B50
:1007A0000A60002170470A680A6052F8040B0A6068
:1007B00000B20BE00A680A6052F8040B0A6040B20B
:1007C00004E00A680A6052F8040B0A60C117704717
:1007D0002DE9F44F0D4694B0D5F830A0BAF1000FD2
:1007E000804648BF6FF0004A00F0B6FD696B4018C4
:1007F00001900FF67820D0E90023CDE9022395F887
:100800003800400702D40198412805D240200DF15C
:1008100010090190002609E000F0A4FD5FEA00093C
:10082000F8D14FF0FF3056E1AAEB040ABAF1010FFC
:10083000C0F2CE801498018802AA0DF1010000F0E8
:10084000E9FD0028044600F1DE801498008810B904
:10085000641E00F1D880A245C0F2BA80686901998F
:100860002218914280F0A2806E634042296A401AA9
:10087000A969401A696A401AE969401AA96A461AC0
:1008800095F83800400710D42020012E8DF8000084
:100890000BDB374601236A462946404600F0CEFC72
:1008A000002840F0B0807F1EF4D1D5F814B0BBF121
:1008B000000F4F460DD017F8011BA868C04700284D
:1008C000A86000F0A080E86A401CBBF1010BE86260
:1008D000F1D130208DF800002F6A012F0ADB0123AF
:1008E0006A462946404600F0A9FC002840F08B806B
:1008F0007F1EF4D1D5F818B0EF68BBF1000F0CD013
:1009000017F8011BA868C0470028A8607BD0E86AD8
:10091000401CBBF1010BE862F2D130208DF80000E1
:100920006F6A012F09DB01236A462946404600F021
:1009300085FC002867D17F1EF5D1E868A969D5F844
:100940001CB04718BBF1000F0CD017F8011BA868AA
:10095000C0470028A86056D0E86A401CBBF1010BD4
:10096000E862F2D130208DF80000AF6A012F09DB78
:1009700001236A462946404600F060FC002842D127
:100980007F1EF5D195F8380040070DD52020012EA7
:100990008DF8000008DB01236A462946404600F036
:1009A0004DFC80BB761EF6D100266E61224668693A
:1009B0000DF10101484400F03BFD686920186861B1
:1009C0001498801C1490801E008800287FF42CAF9F
:1009D000686B6969401A296A401AA969401A696AEC
:1009E000401AE969401AA96AA0EB010A95F8380093
:1009F000400710D4BAF1010F0DDB5446A86820213E
:100A0000C047A86010B94FF0FF365DE0E86A401CAF
:100A1000641EE862F2D16B694A462946404600F0FE
:100A20000DFC0028EFD12C6A012C0ADBA8683021CC
:100A3000C0470028A860E6D0E86A401C641EE8624F
:100A4000F4D1AB69EA682946404600F0F7FB00287C
:100A5000D9D16C6A012C0ADBA8683021C047002874
:100A6000A860D0D0E86A401C641EE862F4D1E8684F
:100A7000A969EB6942182946404600F0DFFB0028CF
:100A8000C1D1AC6A012C0ADBA8683021C04700281C
:100A9000A860B8D0E86A401C641EE862F4D195F8FA
:100AA000380040070ED5BAF1010F0BDBA8682021F2
:100AB000C0470028A860A6D0E86A401CBAF1010A25
:100AC000E862F3D16E616E6304A881451CBF48469D
:100AD00000F0EAFC304615B0BDE8F08F2DE9F34395
:100AE000054608462F696F2808BF082405D041F045
:100AF0002001782914BF0A2410243C26D5E90023BC
:100B0000642818BF69289046994606D100218B4277
:100B100003DAD8F1000869EB49090020814508BFD4
:100B200080450CD1286B50B9082C38D195F8380085
:100B3000000734D530203B2687F83B002FE0701E9D
:100B400000900646404649462246E31700F0ECFC7A
:100B500002F13000C0B23A2803DB9DF8041051398D
:100B60000818B855494640462246E31700F0DCFC19
:100B7000804689460020814508BF804503D0E8684B
:100B8000B9198842DBD3082C09D195F83800000741
:100B900005D5B85D302802D0761E3020B855B91979
:100BA000E960C6F13C00296BA861884208DA081A9E
:100BB00028624FF6EF71288F08402887BDE8F3833D
:100BC00000290ED595F8381001F01401102908D12C
:100BD000696B6A69891A2A6A891A0E1A012EA8BFD6
:100BE0002E62BDE8F38300002DE9F24F04468EB07B
:100BF000D4E90001CDE9020104AF9DF8380040F0CE
:100C0000200BBBF1610F0AD0206B002848BF0620E3
:100C100004D408BFBBF1670F01D1012020636168D4
:100C2000C1F30A5040F2FF7290421CD1080304BF86
:100C30002068002809D10320A0619DF838006138A0
:100C40001A2835D30FF2386108E00320A0619DF81F
:100C5000380061381A2828D30FF21C61E06803229B
:100C600000F0E6FBBDE1012815DA204600F0D3FCD8
:100C7000012810DB00250020BBF1610F1FD1E168C6
:100C800030220A708A1CE2609DF83820612A0CBF6D
:100C9000782258220FE0626840F2FE3161F31E5262
:100CA000451A62604FF0FF30E6E70FF2C851D5E712
:100CB0000FF2C851D2E74A706169891C616110B9AD
:100CC0000026002584E1BBF1610F40F09880206B85
:100CD000D4E900AB00284CBF2126461CDDE9020107
:100CE0000022002300F0BAFC36B23ABF8BF000407D
:100CF000CDE902A0CDE902AB06F101082D1FB8F144
:100D0000010F8DF810200DF1110736DBDDE902012E
:100D10000022002300F0BAFC2FD21C2102A800F010
:100D2000CDFCDDE9020100F04FFDA8F10708B8F1A4
:100D3000010F814609DB00F073FD02460B46DDE939
:100D4000020100F085FDCDE90201F81D072105E053
:100D500009F00F0200F8012D4FEA2919B9F1010F2E
:100D600001DB491EF4D5491E5CBF002200F8012DAD
:100D7000F9D5C71DB8F1010FC8DA0DF11100391A04
:100D8000B142B8BF0E4636B230000DF111072FD474
:100D9000884206DA04A9014449780829A8BF0F212E
:100DA00000DA002104AA024400E0761E12F801399C
:100DB000401E8B42F9D00F2904D104A901444A787E
:100DC000521C4A70002802D504AF761C2D1D36B285
:100DD000701E0DD439180A783032D2B23A2A03DBA9
:100DE0009DF838303A3B9A18401E01F80129F2D597
:100DF000206B002840F1EC80701E2063E8E0DDE904
:100E000002010022002300F029FC3CBF81F00041D8
:100E1000CDE902012DB247F2975068434B49DFF804
:100E2000309190FBF1F52DB2C5F1070ABAF1010F2F
:100E300090461CDBDDE902675FEACA7007D54246CF
:100E40004B463046394600F0C3FD06460F46404645
:100E5000494642464B464FEA6A0A00F0B9FDBAF1EC
:100E6000000F80468946E7D1CDE9026724E0CAF148
:100E7000000A0026374F14E05FEACA7007D54246E1
:100E80004B463046394600F0A3FD06460F46404625
:100E9000494642464B4600F09BFD4FEA6A0A8046AF
:100EA0008946BAF1000FE7D1DDE9020132463B463F
:100EB00000F060FECDE90201BBF1660F216BDFF8A7
:100EC00098900CBF05F10A0006204618142EA8BF02
:100ED000132630208DF810000DF11107012E3DDB97
:100EE000DDE9020100F086FC07F1080104220A2373
:100EF000B0FBF3F303EB8307A0EB4700303001F8BE
:100F0000010C0A20B3FBF0F000EB8007A3EB4703D2
:100F10003033521E01F8023DE9D1083E012E01F1A5
:100F20000807DBDBDDE9020100F064FC00F082FC75
:100F300002460B46DDE9020100F08AFC00224B4626
:100F400000F046FDCDE90201CAE700BFA08601001E
:100F5000000024400000F03F84D797410DF11100BC
:100F6000381A0DF1110702E0401E6D1E7F1C397802
:100F70003029F9D0BBF1660F08BF691C04D0BBF162
:100F8000650F0CBF01210021226B8E1836B2B042D2
:100F9000B8BF064636B231001AD4814204DA785C12
:100FA0003528A8BF392000DA30207A18521E00E018
:100FB000761E12F80139491E8342F9D0392802D130
:100FC000785C401C7854002902D57F1E761C6D1C6D
:100FD0002DB29DF83810009533B23A46204600F005
:100FE00003F80FB0BDE8F08F2DE9F04786B0064654
:100FF0008A4690461D4600F006FF012D406A376B79
:1010000090F8009002DA01250FF278284AF02000CB
:10101000BDF93840662808BF641C12D0672878D113
:1010200014F1040F7BDBBC4279DA96F83800641CBB
:10103000000702D4BD42B8BF2F4624B23F1B48BFB1
:10104000002724B2F068B169012C23DA4A1C30234E
:101050004354012F03DA96F83800000703D5F068EF
:1010600000F80290521CE742B8BF7C4224B26042B2
:101070007062E719AF42B261B8BF3D46F068B3692C
:101080002DB2F5612A464146184400F0D1F9781B8B
:10109000B062BCE022469542084416DA2A46414630
:1010A00000F0C6F9B1696918601B012FB161706267
:1010B00003DA96F83800000705D5F06800F80190CB
:1010C000F069401CF061B762A1E0414600F0B0F960
:1010D000B06920182D1B012F03DA96F83810090784
:1010E00003D5F16801F80090401CB0612DB2AF4209
:1010F000B8BF3D46F068B3692DB22A4608EB04013B
:10110000184400F095F9B0692818B061781B706236
:101110007DE0BAF1610F14D14FF0700A16E0BD42C4
:1011200004DA96F83810090758BF2F467F1E48BFCB
:101130000027BAF1670F14BF4FF0450A4FF0650A58
:1011400004E0BAF1410F08BF4FF0500AB169F368EB
:10115000481CB061012F18F8012B5A5403DA96F895
:101160003810090717D5F168431CB36101F80090E6
:10117000012F10DB6D1E2DB2AF42B8BF3D46F068A7
:101180002DB22A464146184400F052F9B069281899
:10119000B061781B7062F068B1690144200081F889
:1011A00000A004D42B20487001F1020804E02D2295
:1011B0004A7001F102086442002502AF08E00A22E9
:1011C000684600F039FE019807F8010B6D1C009C81
:1011D00021B20129F3DA022D06DA4AF0200065284F
:1011E00004BF302008F8010B4DB9302008F8010B7E
:1011F00007E06D1E02A8405D303008F8010B012D9C
:10120000F7DAF068B1690844A8EB0000F06196F8DD
:10121000380000F0140010280DD17069B169081869
:10122000716A0818F1690818B16A0818716B884268
:10123000BCBF081A306206B0BDE8F087F8B50446B6
:101240000D4616461F46002077B116F8011BA86808
:10125000A047A86030B1E86A401CE86200207F1E09
:10126000F3D1F2BD4FF0FF30F2BD000000000000EE
:10127000000000006E616E004E414E00696E660017
:10128000494E46003000F8B504460D4616461F4646
:1012900000F0E3FD3B4632462946204601B0BDE85A
:1012A000F04000F0F0BD0268531C036011707047FD
:1012B0000278C9B28A421AB11CBF10F8012FF9E7AF
:1012C00018BF00207047010200F10103810704D01C
:1012D00010F8011B89B18107FAD10268B2F101311E
:1012E000914311F0803F04BF50F8042FF6E710F847
:1012F000011B11B110F8011BFBE7C01A7047AE00CB
:10130000C9B2830706D0521E22D310F8013B99427E
:10131000F7D11FE0083A13D302F1040241EA012198
:1013200041EA014150F8043B121F21BF4B40A3F199
:10133000013C2CEA030C1CF0803FF3D0C9B2001F23
:10134000083210F8013B521E28BF91EA030FF8D86B
:1013500018BF0120401E704780B500F07EFD0120BF
:1013600002BDA10070B5054605F10F00C408AFF33A
:101370000080E400A54232D2082C04D2082402E006
:10138000083000F091F82248026811000CD1011DCC
:101390000A6802B31368A34238BF111DF8D310E0E6
:1013A0001D68A5420DD2191D0B68002BF8D11268DB
:1013B000011D00E0191D0B6893420CD01D68A54269
:1013C000F8D361B10D682A68A2F10803A3420AD2DA
:1013D0006A680A600FE000F079FD0028D0D1AFF311
:1013E0000080002070BD2B190B60121B6E685E60C0
:1013F0000B681A602C60096800291DBF4A68002A22
:10140000091D00210160AFF3008005F1080070BDE7
:10141000380D002070B504460D46164600F01DFD3F
:10142000324629462046BDE8704000F01FBD00004E
:1014300062B38B0708D0521E11F8013B00F8013B44
:1014400000F024808B07F6D1830740F0208000BF96
:10145000103A07D330B4B1E83810103AA0E8381089
:10146000F9D230BC530724BFB1E80810A0E8081037
:1014700044BF51F8043B40F8043BD20724BF31F885
:10148000022B20F8022B44BF0B7803707047083AF8
:1014900007D3B1E80810083A40F8043B40F804CB01
:1014A000F7D25307E4E7000000B9704738B5A0F160
:1014B00008042068082833D310F0070F30D1AFF3A9
:1014C00000801848416809B18C4203D261604460D1
:1014D00017E019464B680BB1A342FAD30B68CD183D
:1014E000AC421BD3A54204D12268D2180A600C4634
:1014F00007E04A681AB1236823449A420ED3626017
:101500004C60616851B12268A3188B4206D1002358
:10151000036008688018206048686060AFF300804E
:1015200031BD0000380D00201B4213D1094236D1D5
:101530002AB18446B0FBF2F002FB10C2704700F003
:10154000DBBCFCD30022002370470B00020000210B
:1015500000207047904271EB030CF6D370B5B1FADE
:1015600081F4B3FA83F52C1BA340C4F1200532FAB1
:1015700005F63343A2405FF00046E64002E05B0818
:101580005FEA3202841A71EB030524BF2046294624
:101590007641F4D302000B003000002170BD012A17
:1015A000CFD970B5140C20D0B1FA81F4B2FA82F51B
:1015B000C4F120046419B4F12006D6D3B2405FF020
:1015C0000044F440002502E052085FEA3303C61AE3
:1015D00071EB020E24BF3046714664416D41F3D376
:1015E00002000B002000290070BD0C46B1FBF2F197
:1015F00002FB11452D0445EA1045B5FBF2F402FB50
:10160000145580B240EA0545B5FBF2F002FB1052DA
:1016100040EA044070BD30B4436803F00042012149
:10162000C3F313034360002B04BF0368002B08D1EE
:101630000DE00368DD0F45EA440444605B0003608D
:10164000491E4468E302F4D5C4F3130343604368BE
:101650001A434260084630BC704700004FF4001C3B
:101660001CEB410F94BF1CEB430F09E041EA030C54
:1016700050EA4C0C52EA0C0C03D2994208BF90423B
:10168000704714BF8B428242704700004FF4001C29
:101690001CEB410F94BF1CEB430F09E041EA030C24
:1016A00050EA4C0C52EA0C0C03D28B4208BF824227
:1016B000704714BF994290427047000070B50446CD
:1016C0000D466068C0F30A5040F2FF71884207D1AE
:1016D0006068000304BF2068002817D0022070BD96
:1016E00020B92046FFF797FF012866DA012D0FDBAE
:1016F00040F2FF71091A8D420AD36068002847BF83
:1017000000202F4900202F49C4E90001012070BDAD
:101710004142A942616806DA6FF31E51401941EA5D
:101720000050606040E0401E63684519012205F1E9
:10173000350062F31F53352801F00041636003D385
:1017400061600020206070BD002015F11F0F04DAD9
:10175000206823600022203562606A4212D0401E59
:1017600025688041C2F12003C0439D4045EAD07006
:1017700025686668D54006FA03F32B432360636847
:10178000D340636062680A43B0F1004F626003D8DF
:101790000DD12078C0070AD52068401C2060206841
:1017A00028B96068401C60604FF0FF3070BD606811
:1017B000884204BF20680028F6D1002070BD00BF19
:1017C0000000F0FF0000F07FF446400D40EAC12029
:1017D000490006D200F014F8004248BF6FF0004004
:1017E000604700F00DF84FF0004188428CBF08467A
:1017F00040426047400D40EAC120490080F00D8022
:1018000040F00040490DA1F58061491C05D4D1F19B
:101810001F0154BFC840C01770474FF00000704709
:10182000010040F10980F446404200F005F851F013
:1018300000416047010000BF09D0B0FA80F1884044
:10184000C91CC1F58461090501EBD0214005704731
:10185000F0B44FF0004591EA030F44BF6B4000F035
:1018600057BB00BF841A71EB030604D26E40001B05
:10187000B141121973414FF4001C1CEB410F34BFEE
:101880007CEB430684E00C0DA4EB1356362E7DDC76
:10189000012E43DC45EAC32343EA525312BFD2026E
:1018A00092025B08240545EAC12141EA5051D2EB7E
:1018B000C020994125D407D1B0FA80F610FA06F17C
:1018C00064D00020203608E0B1FA81F6B140C6F1BC
:1018D000200220FA02F21143B0404FEAF474B4EB54
:1018E000465434F001064FEA74040AD8D6F50016BF
:1018F000760D04F00044F04061FA06F25040F140E9
:101900004840C00A40EA415021F0004128BF5FEA48
:10191000500550F1000044EBD12137E045EAC323E4
:10192000DB0A45EAC121C90AB6F120050EDD42EA0B
:101930000242120CC5F1200603FA06F6EB4042EA19
:1019400006056D42984161F100010DE062FA06F56D
:10195000F240554063FA06FC82EA0C02F3405A401A
:101960006D42904161EB030111F4801F05D1641EAB
:10197000620502D06D004041494121F480114308C5
:1019800075F1004350F1000041EB0451F0BC704789
:101990001CEB410F15D223F0004352EA43060BD053
:1019A0004FEA4C0CBCEB410F04D80C0D661E342ED4
:1019B000B7DDEBE7801A994150EA410608BF0021E4
:1019C000E4E708BF1CEB430F28BF6FF00001DDE721
:1019D000B0B581EA030C0CF0004C40F2FF7515EA3B
:1019E00011541DBF15EA1357AC42AF4239E0E41958
:1019F00023EA455343F48013C90241F0004141EA10
:101A0000505EC7021100A7FB020200284FF0000041
:101A1000EEFB01204FF00001E3FB072118BF42F06D
:101A20000102401800214941E3FB0E01A4F5806446
:101A30000F0302D252004041494154F101046CDDD0
:101A4000470872F1004250F1000051EB0451A1F53A
:101A500080115CBF41EA0C01B0BD4CEA0551002089
:101A6000B0BD05EA1357AC4214BFAF4241E050EAA3
:101A7000410E1CBF52EA430E02E061460020B0BD99
:101A800024423C441BD15FEA070EF6D0090302BF93
:101A900001460020AEF1140EB1FA81F7AEEB070457
:101AA00001FA07FE0C37C7F1200100FA07F7C8401A
:101AB0004EEA000E23EA455343F48013A2E733F0C5
:101AC0000043B3FA83F704BFB2FA82FE77440B3FB8
:101AD000E41BB7F1200E2FBF02FA0EF3BB40C7F193
:101AE000200E22FA0EFE38BF43EA0E03BA40641CF1
:101AF00082E750EA410E14BF52EA430E6FF0000134
:101B00004FF4001717EB430F8ABF194617EB410F2D
:101B1000B5E74CEA05510020B0BDD4F10104B4F1A1
:101B200020070FDAC4F12007520828BF42F0010253
:101B300010FA07F501FA07F7E1BF2A43E0403843FE
:101B4000E1400FE0352C98DCC7F1200452EA400256
:101B500020FA07F218BF42F0010231FA07F0A14063
:101B60000A43002172F1004250F1000051EB0C01D8
:101B7000B0BD00002DE9F04140F2FF7581EA030C91
:101B80000CF0004C15EA11541DBF15EA1357AC4276
:101B9000AF42E9E0BC41C1F31301C3F31303801A60
:101BA000994143F4801304D2641E400049418018D7
:101BB0005941C90241EA5051B1FBF3F603FB16113A
:101BC000A2FB0675D7EBC020A94102D2761E801871
:101BD0005941C90241EA5051B1FBF3FE03FB1E110A
:101BE000A2FB0E75D7EBC020A94103D2AEF1010EC6
:101BF00080185941890241EA9051760546EA8E2EB5
:101C0000B1FBF3F603FB1611A2FB0675D7EB8020A0
:101C1000A94102D2761E80185941C90241EA5051A9
:101C20004EEA060EB1FBF3F603FB1611A2FB067596
:101C3000D7EBC020A94102D2761E80185941C902B3
:101C400041EA5051B1FBF3F703FB1711A2FB073533
:101C5000D3EBC020A94167F100070CBF004247F059
:101C6000010766F3D5274FEA1E31B80814F58064E2
:101C700014DDBD0775F1004250EB0E5051EB0451DD
:101C800011F5801F5CBF41EA0C01BDE8F0814CF00A
:101C90007F6141F0E0410020BDE8F081BD076D08A3
:101CA00040EA0E5041F48011D4F10104B4F1200651
:101CB0000ADAC4F120060200E04001FA06F3E1402E
:101CC0001843B24015430EE0342C14DCC6F1200456
:101CD00045EA40056D0820FA06F2154321FA06F0A0
:101CE000A1400D43002175F1004250F1000051EB7D
:101CF0000C01BDE8F08100205FEA0C01BDE8F08135
:101D0000CFB992185B41B3FA83F704BFB2FA82F6F7
:101D1000BF190B3FB7F120062FBF02FA06F3BB40F5
:101D2000C7F1200622FA06F638BF3343BA401CB189
:101D3000E419641E2FE77F4231F00041B1FA81F4CB
:101D400004BFB0FA80F6A4190B3CB4F120062FBFF3
:101D500000FA06F1A140C4F1200620FA06F638BFC9
:101D60003143A0403C1B16E7AC421ABF05EA1357AB
:101D7000AF4214E050EA41061CBF52EA4306BFE7F7
:101D800050EA4107304661461CBF41EA0551BDE8B3
:101D9000F08152EA430C08BFC143BDE8F081002046
:101DA0004FF4001616EB410F98BF16EB430F08BF18
:101DB00016EB410F24BFC14305E016EB430F0CBFE8
:101DC00061464CEA0551BDE8F081000080B513483A
:101DD00000F008F90FF24C020FF244010160426278
:101DE00041600FF24402826381600FF24402C160DD
:101DF0000161416181618162C16201634163C263CA
:101E00000164416401BD10B5044800F0EBF80446DC
:101E1000206808B9FFF7DAFF204610BD1000002047
:101E2000000000002E00000066616C736500000079
:101E3000747275650000000091FBF2F303FB121150
:101E4000C0E900317047000010B50446DFF8180003
:101E500000F0C8F850F8240010BD80B5DFF8080085
:101E600000F0C0F8806902BDA400002030B430B991
:101E70000FF24800D0E90045C2E900451BE00170BF
:101E8000012030BC704730B431B90FF23800D0E9CE
:101E90000045C3E900450EE01AB930BC6FF00100FF
:101EA000704708B10A7802800978481E804130BC2A
:101EB000C043C00F7047002030BC704700000000D6
:101EC0000000000000000000000000000749086852
:101ED00008B1002070470648C008C00008600549E6
:101EE000C908C900091A0160704700BF5C0D0020D5
:101EF0001F0500201807002070470000F0B44FF0C5
:101F0000004591EA030C44BF6B40FFF7ABBC00BF38
:101F1000841A71EB030603D2001BB14112197341FD
:101F20004FF4001C1CEB410F34BF7CEB430443E037
:101F30000C0DA4EB1356352E50DC45EAC323DB0A07
:101F400045EAC121C912B6F120050DDD63FA05F697
:101F5000EB4086EA0305124218BF45F00105C018A0
:101F600051F100010CD213E062FA06F5F24055403F
:101F7000F3415A40B340F3405A408018594107D3C7
:101F800049085FEA30005FEA350528BF45F00105E2
:101F900001F58011420875F1004250F1000041EB5B
:101FA0000451F0BC4FF4001C1CEB410F38BF7047CC
:101FB0000020090D090570471CEB410F10D252EAB1
:101FC00043060BD0BCEB410F05D80C0DAB43661E8E
:101FD000342EB5DD02E0AB4380185941F0BC7047A8
:101FE000F0BC70477047000080B5DFF8D40B006983
:101FF000DFF8CC1BC968401ADFF8C41B8968401A97
:102000000A21B0FBF1F0DFF8BC1B8860DFF8B00BF1
:102010000069DFF8AC1BC968DFF8AC2B1278521FDF
:102020004FF47A7303FB0211884203D20120DFF8D8
:10203000941B887000F064FFDFF8880BC07D0028D7
:102040002BD1DFF8800B8078002826D0DFF8740BC6
:10205000807D012821D0642001F087FCDFF8640B2B
:10206000C07D002819D10020DFF8581B887400F0CB
:1020700029FF01224FF40071DFF86C0D01F062FDC1
:102080000120DFF8401B887500F01CFF01224FF48F
:102090008071DFF8380B01F055FDDFF8280BC07DAB
:1020A000012804D0DFF81C0B807800281ED1DFF84F
:1020B000140B807D002819D00020DFF8081B8875DC
:1020C00000F000FF00224FF48071DFF8000B01F0F8
:1020D00039FD0120DFF8EC1A887400F0F3FE0022CD
:1020E0004FF40071DFF8000D01F02CFD01BD00B5CB
:1020F00083B0684601F08BFDDFF8C80A007800283D
:1021000005D100220421DFF8E40C01F01BFDDFF80B
:10211000B40A0078022805D101220421DFF8CC0C92
:1021200001F010FDDFF89C0A0078052815D1BDF8F4
:102130000600FA2190FBF1F201FB12007E2806DB7B
:1021400001220421DFF8A40C01F0FCFC05E00022D0
:102150000421DFF8980C01F0F5FCDFF8680A00783C
:10216000082805D100220421DFF8800C01F0EAFCE8
:10217000DFF8500A0078012805D100220421DFF899
:102180006C0C01F0DFFCDFF83C0A0078062805D172
:1021900000220421DFF8540C01F0D4FCDFF8240AFB
:1021A0000078072805D100220421DFF8400C01F057
:1021B000C9FC07BD80B5DFF80C0A0078052804D0FB
:1021C000DFF8000A0078042868D1DFF8F809C07B3E
:1021D000002817D0DFF8EC09407D012805D1002048
:1021E000DFF8E019487500F06DFEDFF8042CD2E945
:1021F000000101F012FDB0F5FA7F03D90020DFF8ED
:10220000C419C873DFF8EC2BD2E9000101F005FD19
:10221000B0F5FA7F28D9DFF8AC09407D012823D139
:10222000DFF8D00B01F022FDDFF8CC0B00680A309C
:10223000DFF88C19C968884204D20020DFF8BC1B83
:1022400008700BE0DFF8B40B0078FF2806D0DFF849
:10225000AC0B0078401CDFF8A41B0870DFF86009A5
:10226000C068DFF8941B0860DFF8900B0078152831
:1022700014DBDFF85009407D012805D10020DFF88C
:102280004419487500F01EFE0020DFF8701B08702E
:10229000DFF83409007880B200F0B7FE01BD70B5F8
:1022A000DFF85C2BD2E9000101F0B7FCFB28C0F09D
:1022B000A880DFF84C0B01F0D9FCDFF808090078A2
:1022C000002804D1DFF8FC08806801F0BAFEDFF8CE
:1022D000F4080078022804D1DFF8E808806801F0EB
:1022E0003EFFDFF8E0080078032823D1DFF8140B65
:1022F0004668300002F0B2F902F0C0F90022DFF8BF
:10230000083BFFF765FB04000D00DFF8000B0068D9
:1023100002F0B4F902000B0020002900FFF72AFCAC
:10232000FFF752FA010089B26420B6FBF0F080B2E8
:1023300001F098FFDFF88C08007804283ED1DFF820
:102340008408407D002801D1012600E00026DFF846
:10235000B40A806802F092F90022DFF8AC3AFFF785
:1023600037FB04000D00DFF8A40A006802F086F9CC
:1023700002000B0020002900FFF7FCFBFFF73AFAF0
:10238000DFF8401848603300DBB21C00DFF8740A45
:10239000806802F09BF96421B0FBF1F22300DFF8C2
:1023A0002008C068DFF8681A0968401A6421B0FB89
:1023B000F1F1DFF81008406801F0F0FFDFF80408E1
:1023C0000078052801D101F02AFEDFF8F80700782F
:1023D000082801D101F0DCFCDFF8E80700780128CB
:1023E00001D101F0D5FCDFF8DC070078062801D127
:1023F00001F0CEFCDFF8CC070078072801D101F00E
:10240000C7FC70BD80B500F063FD00F05BFD01F01E
:10241000BFFCDFF8B0070078002812D100224FF48B
:102420008071DFF8F00901F08DFB00224FF400719C
:10243000DFF8E00901F086FB0020DFF888178873D9
:1024400011E001224FF48071DFF8C80901F07AFB36
:1024500001224FF40071DFF8BC0901F073FB012089
:10246000DFF860178873DFF85C07007802281BD15B
:1024700001224FF48071DFF89C0901F063FB012217
:102480004FF40071DFF88C0901F05CFB0120DFF8EC
:10249000341788730020DFF82C17487500F012FD00
:1024A0000220DFF820170870DFF8180700780428EA
:1024B00010D1DFF810074078032805D1DFF80007B6
:1024C000C068DFF84C1908600120DFF8F81648757D
:1024D00000F0F8FCDFF8EC06007805280ED1DFF8F4
:1024E000100901F0C3FBDFF8DC06407D012805D1AF
:1024F0000020DFF8D016487500F0E4FCDFF8C406D1
:102500000078DFF8C016487001BDF8B502F0F0F8A9
:1025100000F072F900F05CFB00F0C6F900F003FA7D
:1025200000F040FA00F051FA00F08FFA00F0D8FA0B
:1025300000F0FCFA00F01FFBDFF8DC0802F008F9FD
:1025400002F0D2FD40F6B8320221102001F0A0FBCB
:102550000220DFF8701608700720DFF86816487050
:10256000FFF750FF322000F026FD42E00120DFF8A7
:102570005416487500F0A6FC00F094FC002815D015
:10258000DFF840060078052810D1DFF86428D2E98A
:10259000000101F042FBB0F57A7F07D90420DFF893
:1025A00024160870FFF72EFF00F068FC00F07AFC9C
:1025B000002806D0DFF80C060078022801D100F0D0
:1025C0005DFC00F073FC002803D000F081FC00F0FB
:1025D0005AFC00F06FFC002803D000F079FC00F0FA
:1025E00057FC00F06BFC002803D000F071FC00F0F9
:1025F00054FCFFF7F9FC02F079FAFFF750FEFFF701
:10260000D9FDFFF774FD4CF250330622DFF80C18A9
:10261000DFF80C0802F007FF4CF250330622DFF817
:10262000FC17DFF8000802F0FEFE4CF250330622E1
:10263000DFF8E817DFF8F00702F0F5FEDFF88405B1
:10264000007804286DD1DFF87C05C07B002805D018
:102650000520DFF870150870FFF7D4FEDFF8A40737
:102660004068FFF7E7F806000F00DFF85405C06880
:10267000FFF7E0F804000D00DFF894070068FFF7AB
:10268000D9F802000B0020002900FFF7E1F8002232
:10269000DFF89837FFF76EFA04000D00DFF86C07DB
:1026A000006801F0EBFF22002B00FFF791F9020018
:1026B0000B0030003900FFF7CBF803F0D5F9DFF855
:1026C00044178860DFF83C078068002103F014FAA3
:1026D00027D8DFF8EC04C068DFF8E414C96810F10B
:1026E00014029142F8D30220DFF8D8140870FFF7E3
:1026F00089FEDFF810070068DFF8081749680C1832
:10270000DFF80007806801F0E1FF201ADFF8F41617
:1027100008600020DFF8EC1648600020DFF8E416BF
:102720008860DFF8E006406800280AD0DFF89404EB
:102730000078022805D10320DFF888140870FFF71D
:1027400061FEDFF880048068DFF8E416097864220F
:10275000514388420AD2DFF86C040078022805D180
:102760000020DFF860140870FFF74CFEDFF8540417
:102770008068DFF8BC1609786422514388420AD386
:10278000DFF840040078002805D10220DFF8341477
:102790000870FFF737FE00F085FB00280ED0DFF849
:1027A00024040078032809D100F092FB0420DFF80C
:1027B00014140870FFF726FE00F060FB00F072FBB7
:1027C00000283FF4D9AEDFF8FC03007804287FF43A
:1027D000D3AE00F07DFB00F075FB00F04FFBDFF89F
:1027E000E403407D01287FF4C1AE0020DFF8D4135C
:1027F000487500F067FBBFE600B593B00120099073
:102800005FF480300A9000200B9001200D90022090
:1028100010905FF4803011905FF48010129009A83E
:1028200003F07CF9002805D04FF4C571DFF80406E9
:1028300000F022FB0F20049002200590002006905B
:102840004FF48060079000200890012104A803F055
:102850008EFB002805D04FF4CC71DFF8D80500F0CE
:102860000BFB022000904FF480400290684603F07A
:10287000BFFC002805D040F29F11DFF8B80500F03A
:10288000FBFA03F067FC4FF47A71B0FBF1F003F050
:10289000BBFD042003F0BCFD002200215FF0FF30EF
:1028A00003F09CFD13B000BDE0B5DFF88C05DFF848
:1028B0008C1508600020DFF8841588600020DFF8A0
:1028C0007C15C8600020DFF8741548615FF4602053
:1028D000DFF86815C8610020DFF860154860012046
:1028E000DFF858150861DFF8540503F0B7FD00283C
:1028F00005D040F2BF11DFF83C0500F0BDFA102012
:10290000009001200190002002906946DFF82C051C
:1029100003F03FFE002805D040F2C911DFF814058E
:1029200000F0AAFA07BD80B5DFF81405DFF814152A
:1029300008601020DFF80C1548600020DFF804154F
:1029400088600020DFF8FC14C8600020DFF8F41471
:1029500008610020DFF8EC1448610020DFF8E4147F
:1029600088610020DFF8DC14C8610020DFF8D4148F
:1029700008620020DFF8CC1448620020DFF8C4149D
:1029800088620020DFF8BC14C862DFF8B80403F0E6
:10299000D5FE002805D04FF4F071DFF8980400F060
:1029A0006BFA01BD80B5DFF8A004DFF8A014086061
:1029B000DFF8980403F06CFF002805D04FF4F6719F
:1029C000DFF8700400F058FA01BD80B5DFF880042C
:1029D000DFF8801408600020DFF8781448600020D9
:1029E000DFF8701488600020DFF86814C8600020E9
:1029F000DFF8601408610020DFF8581448614FF4D4
:102A00000070DFF8501488610020DFF84814C861B6
:102A10000020DFF8401408620020DFF83814486214
:102A20000020DFF8301488620A20DFF82814C8621A
:102A3000DFF8200403F03EFF002805D040F2032118
:102A4000DFF8F00300F018FA01BD00B587B0DFF839
:102A50000804DFF8C41308602F20DFF8BC134860B7
:102A60000020DFF8B413886040F2E730DFF8A813E5
:102A7000C8604FF40070DFF8A01308610020DFF891
:102A800098138861DFF8900301F046FE002805D016
:102A900040F21721DFF89C0300F0EEF94FF480506C
:102AA000029002A9DFF8700301F01BFF002805D097
:102AB00040F21D21DFF87C0300F0DEF900200090D9
:102AC000002001906946D44803F03AFF002805D061
:102AD0004FF40971DFF85C0300F0CEF907B000BDD8
:102AE00080B5DFF87803CE4908605FF4E130CC4967
:102AF00048600020CA4988600020C949C860002099
:102B0000C74908610C20C64948610020C449886152
:102B10000020C349C861C24802F04AFC002804D022
:102B200040F23721C34800F0A7F901BD80B5CC4879
:102B3000BC4908605FF4E130BA4948600020B949F7
:102B400088600020B749C8600020B64908610C20A1
:102B5000B44948610020B34988610020B149C86187
:102B6000B04802F025FC002804D040F24A21B148C8
:102B700000F082F901BD80B5BA48AB4908605FF446
:102B8000E130A94948600020A74988600020A64993
:102B9000C8600020A44908610C20A34948610020B6
:102BA000A14988610020A049C8619F4802F000FC4B
:102BB000002804D040F25D219E4800F05DF901BD7F
:102BC000480C00202C0C00201101002000080140BE
:102BD00000B585B0A448006850F04000A2490860E4
:102BE000A148006810F04000009000989E480068DE
:102BF00050F010009C4908609B48006810F01000DD
:102C0000009000989848006850F0040096490860C9
:102C10009548006810F00400009000989248006801
:102C200050F00800904908608F48006810F00800D4
:102C3000009000988C48006850F020008A49086095
:102C40008948006810F0200000900098002240F2AF
:102C5000FF31654800F076FF002248F2C311834837
:102C600000F070FF002241F20701604800F06AFFA7
:102C700000224FF680717E4800F064FF00224FF47E
:102C80007F41644800F05EFF3C200190794802904B
:102C90000020039001A9764800F070FE43200190C7
:102CA000744802900120039001A9714800F066FE6B
:102CB0004FF47C4001906F4802900120039001A9DD
:102CC000494800F05BFE40F2FF3001900120029085
:102CD0000220049001A9444800F050FE48F2C310BD
:102CE0000190012002900220049001A95F4800F0A9
:102CF00045FE41F20700019001200290022004905D
:102D000001A93A4800F03AFE4FF680700190012088
:102D100002900220049001A9554800F02FFE4FF4C4
:102D20007F400190012002900220049001A93948BF
:102D300000F024FEFF20019000200290012003906B
:102D400001A9344800F01AFE78200190002002907A
:102D50000120039001A9254800F010FE4FF4607097
:102D60000190444802900120039001A91F4800F0FF
:102D700005FE00220221062003F030FB062003F0AE
:102D80003EFB00220221072003F028FB072003F06E
:102D900036FB00220221082003F020FB082003F06C
:102DA0002EFB00220221092003F018FB092003F06A
:102DB00026FB002202210A2003F010FB0A2003F068
:102DC0001EFB00220221172003F008FB172003F04E
:102DD00016FB00220221282003F000FB282003F02C
:102DE0000EFB05B000BD000000100140000C0140CA
:102DF000B80C0020C00C0020440D00207A0D0020EB
:102E0000C80C00208C0C002000002440080000208A
:102E1000400D002000140140FC0A002098770008B3
:102E20003C0B00207C0B0020BC0B002000408F409E
:102E3000100100206075000800240140FC0B0020F8
:102E400000640040B80A002000300240B00C0020AE
:102E500000380040180A00200004004000380140FB
:102E600000440040004800401810024000080140A3
:102E70000018014000001110FEE700000020DFF8FC
:102E8000E419087070470020DFF8E01908707047F7
:102E90000020DFF8DC19087070470020DFF8D41933
:102EA00008707047DFF8BC0900787047DFF8BC098C
:102EB00000787047DFF8B80900787047DFF8B40988
:102EC0000078704780B5DFF8B00900F0CFFE01BD93
:102ED00080B5DFF8A80900F0C9FE01BD80B540212A
:102EE000DFF89C0900F025FE002804D00020DFF860
:102EF0009419487603E00120DFF88819487601BD6F
:102F000080B51021DFF8780900F013FE002804D006
:102F10000020DFF87019C87503E00120DFF864199C
:102F2000C87501BD80B52021DFF8540900F001FE0D
:102F3000002804D00120DFF84C19087603E00020B7
:102F4000DFF84019087601BD80B50821DFF83009A7
:102F500000F0EFFD002804D00120DFF82819887662
:102F600003E00020DFF81C19887601BD38B5DFF8D2
:102F700018090068401CDFF810190860DFF808091C
:102F80000068FEF757FC0022DFF80039FEF720FD4D
:102F900004000D00DFF8F8080068FEF74BFC0200A3
:102FA0000B0020002900FEF7E5FDFEF723FCDFF80B
:102FB000E418086131BD38B5DFF8D41809680A2271
:102FC000B1FBF2F180B200FB01F0DFF8BC18086041
:102FD000DFF8B4080068FEF72DFC0022DFF8AC38FB
:102FE000FEF7F6FC04000D00DFF8A4080068FEF709
:102FF00021FC02000B0020002900FEF7BBFDFEF7BC
:10300000F9FBDFF89018086131BD38B5DFF880189A
:1030100009680A22B1FBF2F180B200FB01F0DFF88F
:1030200068180968884207D2DFF85C180968081A2E
:10303000DFF85418086003E00020DFF84C1808603F
:10304000DFF844080068FEF7F5FB0022DFF83C38A3
:10305000FEF7BEFC04000D00DFF834080068FEF740
:10306000E9FB02000B0020002900FEF783FDFEF7BC
:10307000C1FBDFF82018086131BD80B5DFF8080812
:10308000C068401CDFF80018C860DFF80C28D2E9DF
:10309000000100F0C2FDB0F5FA7F07D2DFF8FC07AF
:1030A0000078401CDFF8F417087003E00020DFF818
:1030B000EC170870DFF8E4070078042803DB012030
:1030C000DFF8C017C873DFF8D00700F0CFFD01BDEF
:1030D00038B5DFF8B4078068401CDFF8AC178860AB
:1030E000DFF8A4078068FEF7A5FB0022DFF89C3715
:1030F000FEF76EFC04000D00DFF894070068FEF791
:1031000099FB02000B0020002900FEF733FDFEF7BB
:1031100071FBDFF880178860DFF88427D2E90001AF
:1031200000F07BFDB0F5FA7F07D2DFF87807007872
:10313000401CDFF87017087003E00020DFF8641708
:103140000870DFF85C0700F091FDDFF858070078A1
:10315000042852DB0020DFF82C178870DFF83407D2
:103160000169DFF83007C268DFF81C070068DFF884
:1031700020371B680A24B3FBF4F3DFF82C472478CC
:10318000891ADFF810279268891A4FF47A72B1FB16
:10319000F2F1611A01FB0300DFF8EC160860DFF8BA
:1031A000E8060068FEF746FB0022DFF8E036FEF78F
:1031B0000FFC04000D00DFF8D8060068FEF73AFBAC
:1031C00002000B0020002900FEF7D4FCFEF712FBE2
:1031D000DFF8C0160861DFF8BC060069DFF8B41636
:1031E000C968401ADFF8AC168968401A4FF47A7142
:1031F000B0FBF1F0DFF88C16886031BD38B5DFF830
:1032000088064068401CDFF880164860DFF87806C2
:103210004068FEF70FFB0022DFF87036FEF7D8FBA0
:1032200004000D00DFF884060068FEF703FB0200CF
:103230000B0020002900FEF79DFCFEF7DBFADFF80B
:103240005416C86031BD10B5DFF864060078411C23
:10325000DFF85C261170C0B20528C0F22281002080
:10326000DFF84C160870DFF84C060478601CDFF8B5
:10327000441608700221DFF8080600F05AFCDFF857
:103280003816E4B20855DFF82C0600780A2803DB6C
:103290000020DFF820160870DFF8200600780028EC
:1032A00004D1DFF81C060078012846D1DFF80806B3
:1032B0000078DFF8041649780818DFF8FC158978DB
:1032C0000818DFF8F415C9780818DFF8EC15097943
:1032D0000818DFF8E41549790818DFF8DC15897952
:1032E0000818DFF8D415C9790818DFF8CC15097A61
:1032F0000818DFF8C415497A081800281DD10020E5
:10330000DFF8BC150870DFF8B4050078002810D18C
:10331000DFF880054068401CDFF878154860DFF86A
:1033200068054068DFF89C1508600120DFF89815F3
:1033300008700020DFF884150870DFF88005007839
:10334000002804D1DFF878050078002846D1DFF89E
:1033500068050078DFF8601549780818DFF8581517
:1033600089780818DFF85015C9780818DFF848156B
:1033700009790818DFF8401549790818DFF8381579
:1033800089790818DFF83015C9790818DFF8281589
:10339000097A0818DFF82015497A08180A281DD17B
:1033A0000120DFF81C150870DFF8100500780028F0
:1033B00010D1DFF8E0044068401CDFF8D814486002
:1033C000DFF8C4044068DFF8041508600120DFF866
:1033D000F81408700020DFF8E4140870DFF8E8043F
:1033E000007800285DD00020DFF8DC140870DFF8DA
:1033F000D4040068002854D0DFF8D0040068002806
:103400004FD0DFF8CC040078411CDFF8C4241170E1
:10341000DFF8B8140968DFF8AC241268914207D2CB
:10342000DFF8A0140968DFF8A4241268891A06E0FE
:10343000DFF898140968DFF88C241268891ADFF81D
:103440009424C0B242F82010DFF8840400780428E5
:1034500027DB0020DFF878140870DFF878040068B4
:10346000DFF870148968401A03F097FA642818DAB4
:10347000DFF860044068DFF85C14C968401A03F0A4
:103480008CFA64280DDA0020002106E0DFF84424DD
:10349000C9B252F821201018491CC9B20429F5DB21
:1034A000400810BD10B5DFF830040078411CDFF88B
:1034B00028241170C0B20528C0F200810020DFF876
:1034C00018140870DFF814040478601CDFF80C147A
:1034D00008700421DFF8A80300F02BFBDFF80014CC
:1034E000E4B20855DFF8F40300780A2803DB002073
:1034F000DFF8E8130870DFF8EC030078002804D147
:10350000DFF8E4030078012845D1DFF8D403007820
:10351000DFF8CC1349780818DFF8C4138978081845
:10352000DFF8BC13C9780818DFF8B4130979081854
:10353000DFF8AC1349790818DFF8A4138979081863
:10354000DFF89C13C9790818DFF89413097A081872
:10355000DFF88C13497A081800281CD10020DFF806
:1035600088130870DFF87C03007800280FD1DFF89B
:1035700024030068401CDFF81C130860C248006880
:10358000DFF8681308600120DFF86413087000207A
:10359000DFF850130870DFF84C030078002804D1DE
:1035A000DFF844030078002839D1DFF834030078CD
:1035B000DFF82C1349780818DFF8241389780818E5
:1035C000DFF81C13C9780818DFF8141309790818F4
:1035D000C34949790818C24989790818C049C97985
:1035E0000818BF49097A0818BD49497A08180A28F5
:1035F00015D10120BC490870BA48007800280BD1C9
:10360000A4480068401CA34908609F480068B94965
:1036100008600120B64908700020B2490870B4481B
:10362000007800284AD00020B1490870AF480068EF
:10363000002843D0AF48006800283FD0AE4800784B
:10364000411CAD4A1170AB490968A84A1268914201
:1036500005D2A6490968A74A1268891A04E0A54953
:103660000968A24A1268891AA44AC0B242F8201016
:10367000A1480078042821DB00209F4908709F485A
:1036800000689E498968401A03F087F9642815DAB2
:103690009A4840689949C968401A03F07EF964283D
:1036A0000CDA0020002105E0944AC9B252F821202A
:1036B0001018491CC9B20429F6DB400810BD10B52A
:1036C00004006D4AD2E9000100F0A7FA332864D360
:1036D000A4B2B4F5807F04D189480088401C884991
:1036E0000880A4B2042C06D1FFF788FD8548008825
:1036F000401C84490880A4B2082C06D1FFF7E8FCDE
:1037000081480088401C80490880A4B2102C06D152
:10371000FFF7B3FC7D480088401C7C490880A4B2B8
:10372000202C06D1FFF722FC79480088401C7849FC
:103730000880A4B2012C04D176480088401C754949
:103740000880A4B2802C04D173480088401C7249C0
:103750000880A4B2B4F5007F04D170480088401CF2
:103760006E490880A4B2B4F5806F04D16C4800881B
:10377000401C6B490880A4B2B4F5006F04D16948BD
:103780000088401C67490880A4B2B4F5805F04D16A
:1037900065480088401C64490880384AD2E9000125
:1037A00000F03BFA332858D3A4B2022C12D15F4A5E
:1037B000D2E9000100F031FAB0F5FA7F0AD95B488E
:1037C00000F054FA01202749087059480078401C3D
:1037D00057490870A4B2B4F5005F0CD1554AD2E93C
:1037E000000100F01AFAC92805D3524800F03EFA49
:1037F00001201D490870A4B2B4F5804F0CD14E4A87
:10380000D2E9000100F009FAC92805D34A4800F0BE
:103810002DFA012017490870A4B2B4F5004F0CD15D
:10382000464AD2E9000100F0F8F9C92805D3434817
:1038300000F01CFA01200D490870A4B2402C0CD1F4
:103840003F4AD2E9000100F0E8F9C92805D33C4815
:1038500000F00CFA0120064908703A48048010BDB7
:10386000000000007D0D00207E0D00207F0D002057
:10387000800D0020810D0020E80C0020E00C0020CD
:10388000001401402C0C00205C0C00200088C34078
:1038900000000020480C0020F00C0020820D0020C9
:1038A000F80C0020830D00201101002004000020EE
:1038B000860D0020840D0020980C002012010020AD
:1038C000850D0020480D0020870D00204C0D0020A4
:1038D000880D00206C0C00208B0D0020890D00202D
:1038E000A40C0020130100208A0D0020500D0020A0
:1038F0008C0D0020540D00208D0D00207C0C00202C
:10390000620D0020640D0020660D0020680D00206F
:103910006A0D00206C0D00206E0D0020700D00203F
:10392000720D0020740D0020760D0020000D002087
:103930008E0D0020080D0020100D0020180D002015
:10394000200D0020600D002002B44FF00E0101FB9D
:1039500000F04FF0240190FBF1F10844C82880F2F8
:10396000098000BF00BF033804E002B44FF4615186
:1039700001FB00F00138FDD802BC7047F8B4002507
:103980000024002500220026002307E0DFF8E45190
:103990002D6835EA0404774D2C605B1C102B80F0F9
:1039A000C680012414FA03F50C682C40AC42F4D113
:1039B0004E68002E27D0012E1AD0022E1DD0032EC5
:1039C0002FD0112E16D0122E1AD06B4FBE421AD005
:1039D0006A4FBE4217D06A4FBE4214D0694FBE42F2
:1039E00011D0694FBE420ED0684FBE420BD01AE0D4
:1039F000CA6818E0CA68121D15E0CA68083212E0E9
:103A0000CA680C320FE08A68002A01D1042207E05C
:103A10008A68012A02D10822056101E00822456175
:103A200001E00022FFE7FF2C01D8050000E0051DA2
:103A3000FF2C01D89E0002E0B3F10806B6002F6803
:103A40005FF00F0C1CFA06FC37EA0C0712FA06F6B8
:103A50003E432E604D68ED009FD54D4D2D6855F0CD
:103A600001054B4E35604A4D2D6815F00105009556
:103A7000009D484D9E0855F826500F2613F0030769
:103A8000FFB2BF00BE40B543434EB04201D1002655
:103A90000FE0424EB04201D101260AE0404EB04252
:103AA00001D1022605E03F4EB04201D1032600E0DD
:103AB000042613F00307FFB2BF00BE403543354E66
:103AC0009F0846F827504D68ED0305D5364D2D6803
:103AD0002543354E356004E0334D2D68A543324E05
:103AE00035604D68AD0305D5304D2D6825432F4E0B
:103AF000356004E02D4D2D68A5432C4E35604D6892
:103B0000ED0205D52A4D2D682543294E356004E088
:103B1000274D2D68A543264E35604D68AD027FF5D3
:103B200035AF144D2D682C43124D2C6035E7F1BC98
:103B30007047806889B2084201D0012000E000206F
:103B4000C0B27047D2B2002A02D089B2016102E04D
:103B500089B209040161704780B51649096880B2CD
:103B6000014205D080B21349086080B2FFF7A7FD7B
:103B700001BD00000C0401400000111000001210F3
:103B8000000021100000221000003110000032104F
:103B9000181002400800014000080140000C0140DC
:103BA00000100140001401400004014004040140E1
:103BB00008040140140401403348C088401C3249C5
:103BC000C8803148C088B0F57A7F07DB00202E49D5
:103BD000C8802D484079401C2B4948712A484079BB
:103BE0003C2807DB00202849487127480079401C01
:103BF00025490871244800793C2807DB0020224928
:103C0000087121480068401C1F49086070471E4920
:103C1000D1E90023C0E90023704703B41A480068C3
:103C20001A49194A12794EF660235A4301FB0020C3
:103C3000154949794FF47A7202FB01001249C9888B
:103C400008180099114A02FB11009DF804104EF665
:103C5000602202FB11009DF805104FF47A7202FBFE
:103C60001100BDF80610401A02B0704706490968F5
:103C70000160054909790171034949794171024996
:103C8000C988C18070470000280D002080EE3600F2
:103C900070B58AB006000C00150000F076F94AF6FF
:103CA000C870FFF751FEDFF85009C470DFF848090B
:103CB00006710020DFF8401948710020DFF838193C
:103CC00088710020DFF830194870E4B2022C07DB5D
:103CD000DFF82409407850F00800DFF81C1948701C
:103CE000032000F0E2F841F28830FFF72DFE0320B8
:103CF00000F0DBF841F28830FFF726FE032000F0E9
:103D0000D4F841F28830FFF71FFE022000F0CDF812
:103D1000C820FFF719FEDFF8E008407850F02000D7
:103D2000C0B200F09EF80420DFF8CC18087000F054
:103D300086F800F02DF80220DFF8BC188870DFF854
:103D4000B808807850F00400C0B200F08AF841F260
:103D50008830FFF7F9FD05A8DFF8A0181422FDF759
:103D600077FB05AA0021002000F01BF86846DFF869
:103D700090181422FDF76CFB6A460121002000F028
:103D800010F82800FFF7F1FD00F002F80AB070BD4E
:103D900080B5012000F065F840F6AC50FFF7D4FD87
:103DA00001BD10B51400C9B2C0B200F0CFF80AE0EE
:103DB000207800F068F8DFF840084079401CDFF810
:103DC00038184871641C2078002837D0DFF828089C
:103DD0004079DFF824180979884212D30020DFF8EF
:103DE00018184871DFF810088079401CDFF80818AF
:103DF0008871DFF804088179DFF8FC07407900F06A
:103E0000A5F820780A280FD1DFF8EC078079401C4C
:103E1000DFF8E4178871DFF8E0078179DFF8D80769
:103E2000407900F093F8CDE720780D28C0D1DFF875
:103E3000C8078179002000F089F8C3E710BD80B57C
:103E4000DFF8B407007850F00400DFF8AC17087012
:103E5000DFF8A407007850F00800C0B200F001F8C5
:103E600001BD10B5040000220221DFF89C07FFF716
:103E700069FE2000C0B2000900F017F814F00F002E
:103E800000F013F810BD10B5040001220221DFF884
:103E90007807FFF757FE2000C0B2000900F005F8D0
:103EA00014F00F0000F001F810BD10B50400200759
:103EB00006D501220121DFF84C07FFF743FE05E09C
:103EC00000220121DFF83C07FFF73CFE600706D522
:103ED00001220221DFF82C07FFF734FE05E0002263
:103EE0000221DFF82007FFF72DFEA00706D50122EB
:103EF0000421DFF81007FFF725FE05E0002204216A
:103F0000DFF80007FFF71EFEE00706D501220821B3
:103F1000DFF8F006FFF716FE05E000220821DFF8C3
:103F2000E406FFF70FFE01220121DFF8DC06FFF7B0
:103F300009FE3C20FFF708FD00220121DFF8C8063A
:103F4000FFF700FE3C20FFF7FFFC10BD10B582B06C
:103F50006A46DFF8B8361C6814600A00DFF8983645
:103F6000DB78D2B29A4200D30021DFF88C26507160
:103F7000DFF8842691716A46C9B2515C081850F086
:103F80008000C0B2FFF76DFF13BD80B5012208218C
:103F9000DFF87006FFF7D6FD00220821DFF864067F
:103FA000FFF7D0FD01220421DFF85806FFF7CAFD14
:103FB00000220421DFF84C06FFF7C4FD0122022194
:103FC000DFF84006FFF7BEFD00220221DFF83406CD
:103FD000FFF7B8FD01220121DFF82806FFF7B2FD47
:103FE00000220121DFF81C06FFF7ACFD01220121B0
:103FF000DFF81406FFF7A6FD00220121DFF808060E
:10400000FFF7A0FD01220221DFF8FC05FFF79AFD72
:1040100000220221DFF8F005FFF794FD01BD80B515
:10402000DFF8EC2501210020FFF7BBFEDFF8EC05EF
:104030000088ADF800006A4601210920FFF7B1FEB3
:1040400001BD10B588B00400D3A200210020FFF705
:10405000A8FEDFF8C0050088ADF8080002AA00211C
:104060000320FFF79EFEDFF8B02500210420FFF7B4
:1040700098FE42F21070844201D342F20F74642021
:10408000B4FBF0F06421B0FBF1F130318DF8001099
:104090009DF80010302902D120218DF800106421F4
:1040A000B0FBF1F201FB12010A22B1FBF2F1303157
:1040B0008DF801109DF80110302906D19DF80010EF
:1040C000202902D120218DF801100A21B0FBF1F244
:1040D00001FB120030308DF8020000208DF8030043
:1040E0000DF1010200210920FFF75BFE6420B4FB03
:1040F000F0F100FB11402C218DF800100A21B0FBDB
:10410000F1F130318DF801100A21B0FBF1F201FB21
:10411000120030308DF8020000208DF803006A464E
:1041200000210B20FFF73DFEA7208DF808002E2070
:104130008DF8090000208DF80A0002AA00210E2047
:10414000FFF72FFE03A8DFF8D8141422FDF780F93B
:1041500003AA01210020FFF724FE08B010BD10B50E
:104160008CB0040002A8DFF8BC141422FDF770F92B
:1041700002AA00210020FFF714FEDFF8AC048442FD
:1041800001D3DFF8A8446420B4FBF0F06421B0FB55
:10419000F1F130318DF800109DF80010302902D176
:1041A00020218DF800106421B0FBF1F201FB120117
:1041B0000A22B1FBF2F130318DF801109DF80110A7
:1041C000302906D19DF80010202902D120218DF838
:1041D00001100A21B0FBF1F201FB120030308DF822
:1041E000020000208DF803006A4600210820FFF736
:1041F000D8FD6420B4FBF0F100FB11402C218DF8B8
:1042000000100A21B0FBF1F130318DF801100A21C4
:10421000B0FBF1F201FB120030308DF802000020FB
:104220008DF803006A4600210B20FFF7BAFDA72096
:104230008DF808002E208DF8090000208DF80A0066
:1042400002AA00210E20FFF7ACFD07A8DFF8E0135B
:104250001422FDF7FDF807AA01210020FFF7A1FDB8
:104260000CB010BD10B58AB00C0080B2B0F57A7FEA
:1042700001DB40F2E73080B2642190FBF1F1303194
:104280008DF800109DF80010302902D120218DF802
:10429000001080B2642190FBF1F201FB12010A22AE
:1042A00091FBF2F130318DF801109DF801103029A9
:1042B00006D19DF80010202902D120218DF801108F
:1042C00080B20A2190FBF1F201FB120030308DF830
:1042D000020000208DF803006A4600210020FFF74D
:1042E00060FD02A8DFF84C13D1E90023C0E90023E8
:1042F00002AA00210320FFF754FDA4B2B4F57A7F8F
:1043000001DB40F2E734A4B2642094FBF0F03030DB
:104310008DF800009DF80000302802D120208DF893
:104320000000A4B2642094FBF0F100FB11400A21CC
:1043300090FBF1F030308DF801002E208DF8020056
:10434000A4B20A2094FBF0F100FB114030308DF84C
:10435000030000208DF804006A4600210920FFF7C1
:1043600020FDA7208DF800002E208DF801000020F0
:104370008DF802006A4600210E20FFF712FD04A806
:10438000DFF8B4121422FDF763F804AA012100201B
:10439000FFF707FD0AB010BD48452000F0B58FB00B
:1043A00004000E0015001F0009A8DFF89012142267
:1043B000FDF74EF804A8DFF888121422FDF748F83C
:1043C000FFB2002F05D004AA00210020FFF7E9FC6E
:1043D00004E009AA00210020FFF7E3FCB6F57A7F8C
:1043E00001D340F2E736642E2ED36420B6FBF0F002
:1043F00030308DF800009DF80000302802D12020D8
:104400008DF800006420B6FBF0F100FB11600A217A
:10441000B0FBF1F030308DF801009DF8010030283C
:1044200006D19DF80000202802D120208DF801003F
:104430002C208DF802000A20B6FBF0F100FB116081
:1044400030308DF8030013E020208DF800000A20A2
:10445000B6FBF0F030308DF801002C208DF8020012
:104460000A20B6FBF0F100FB116030308DF803003C
:1044700000208DF804006A4600210920FFF791FC16
:10448000A7208DF800002E208DF8010000208DF867
:1044900002006A4600210D20FFF783FCB4F57A7F05
:1044A00001D340F2E734642C2ED36420B4FBF0F047
:1044B00030308DF800009DF80000302802D1202017
:1044C0008DF800006420B4FBF0F100FB11400A21DC
:1044D000B0FBF1F030308DF801009DF8010030287C
:1044E00006D19DF80000202802D120208DF801007F
:1044F0002C208DF802000A20B4FBF0F100FB1140E3
:1045000030308DF8030013E020208DF800000A20E1
:10451000B4FBF0F030308DF801002C208DF8020053
:104520000A20B4FBF0F100FB114030308DF803009D
:1045300000208DF804006A4601210020FFF731FCBD
:1045400020208DF80000A7208DF801002E208DF886
:1045500002002D208DF8030000208DF804006A462B
:1045600001210420FFF71DFC6420B5FBF0F0303082
:104570008DF800009DF80000302802D120208DF831
:1045800000009DF80000302802D120208DF80000A6
:104590006420B5FBF0F100FB11500A21B0FBF1F0F3
:1045A00030308DF801009DF80100302806D19DF8CB
:1045B0000000202802D120208DF801000A20B5FB40
:1045C000F0F100FB115030308DF8020000208DF822
:1045D00003006A4601210820FFF7E3FB02A8DFF889
:1045E0006410D1E90023C0E9002302AA01210B20B5
:1045F000FFF7D7FB0FB0F0BD300D0020A876000804
:10460000BC7600080010014000080140C077000897
:10461000D076000862130008A8770008FE12000890
:10462000E4760008F8760008A08601009F86010065
:104630000C770008B077000820770008347700086E
:1046400048770008B8770008002840F10980F44650
:10465000404200F005F850F000406047002800BFDD
:104660000AD0B0FA80F18840D1F19D01C905020657
:1046700072F1004241EB1020704700005FF0FF0C28
:104680001CEAD05114BF614506E0C110400721F07B
:10469000E04101F16051704779B900F0004100023A
:1046A0000AD0B0FA80FC00FA0CF001F16051A1EBE5
:1046B0000C5101EBD0214005704741020CBF40F482
:1046C000E0016FF0000100207047000040000DD2B3
:1046D000010E7F390AD4D1F11F0104D4C00140F08A
:1046E0000040C84070477FF00000704700207047CE
:1046F00080B50848006850F01000064908600320A3
:1047000001F068FE002002F04DF902F05FF9002090
:1047100002BD00000020024010B50400002C01D1B1
:10472000012014E094F83D00002805D1002084F811
:104730003C00200002F01CFA022084F83D00211DFC
:10474000206800F05AF9012084F83D00002010BDD7
:104750000168C96851F001010268D1600168096807
:1047600051F00101006801600020704710B504009D
:104770002068006980071AD52068C068800716D5B0
:104780007FF002002168086101202077206880699D
:1047900010F0030F03D0200002F09EFA05E0200085
:1047A00002F09BFA200002F099FA0020207720689E
:1047B000006940071AD52068C068400716D57FF009
:1047C000040021680861022020772068806910F4C5
:1047D000407F03D0200002F07FFA05E0200002F0C5
:1047E0007CFA200002F07AFA002020772068006925
:1047F00000071AD52068C068000716D57FF00800AA
:1048000021680861042020772068C06910F0030F38
:1048100003D0200002F060FA05E0200002F05DFA0B
:10482000200002F05BFA0020207720680069C006B3
:104830001AD52068C068C00616D57FF01000216820
:104840000861082020772068C06910F4407F03D0F9
:10485000200002F041FA05E0200002F03EFA2000BC
:1048600002F03CFA0020207720680069C0070AD5D2
:104870002068C068C00706D57FF001002168086184
:10488000200002F02CFA2068006900060AD5206892
:10489000C068000606D57FF080002168086120000E
:1048A00002F01EFA2068006940060AD52068C06838
:1048B000400606D57FF0400021680861200002F024
:1048C00010FA2068006980060AD52068C068800652
:1048D00006D57FF0200021680861200002F002FA6E
:1048E00010BD10B50400002094F83C00012801D14F
:1048F000022081E0012084F83C00022084F83D0081
:104900002068806830F0770030F47F402268906043
:104910000868002855D0102858D020285BD03028AF
:104920005ED0402843D050282DD0602835D0702844
:104930000DD0B0F5805F03D0B0F5005F16D054E025
:1049400020688068C008C000216888604DE0CB689E
:104950004A688968206800F0BCF82068806830F0F8
:10496000770050F07700216888603EE0CB684A68A5
:104970008968206800F0ADF82068806850F48040B5
:104980002168886031E0CA684968206800F06EF8E4
:104990005021206800F093F827E0CA684968206831
:1049A00000F078F86021206800F089F81DE0CA68FE
:1049B0004968206800F05AF84021206800F07FF82C
:1049C00013E00021206800F07AF80EE01021206842
:1049D00000F075F809E02021206800F070F804E08C
:1049E0003021206800F06BF8FFE7012084F83D00DB
:1049F000002084F83C00002010BD00220268184B03
:104A0000984208D0B0F1804F05D0164B984202D0A2
:104A1000154B984203D132F070024B681A43104B89
:104A2000984208D0B0F1804F05D00E4B984202D08A
:104A30000D4B984203D132F44072CB681A4332F0E6
:104A400080024B691A4302608A68C2620A68826205
:104A5000034A904201D10969016301214161704714
:104A6000002C0140000400400008004010B4002366
:104A70000024046A036A5B085B000362836933F005
:104A8000F00353EA021334F00A040C438361046216
:104A900010BC704710B400230024036A33F01003E5
:104AA00003628369046A33F4704353EA023334F0D7
:104AB000A00454EA01148361046210BC7047002210
:104AC000826832F0700289B251F007010A438260B5
:104AD000704710B40024846834F47F44114351EAD1
:104AE00003210C43846010BC7047000080B500F0C7
:104AF000E4FA002801D000F02BFC01BDDFF86C08BF
:104B00000078DFF86C180978884208D3DFF85C0871
:104B10000078DFF85C180978401AC0B208E0DFF8C6
:104B2000500800784042DFF8441809780818C0B2ED
:104B30007047C0B2002809D13020DFF8381808705B
:104B40000A20DFF830184870022044E0C0B2012883
:104B50000DD12D20DFF81C1808703120DFF8141853
:104B600048700A20DFF80C188870032033E0C0B2C8
:104B700002280DD12D20DFF8FC1708703220DFF855
:104B8000F41748700A20DFF8EC178870032022E041
:104B9000C0B203280DD12D20DFF8D81708703320BC
:104BA000DFF8D01748700A20DFF8C8178870032094
:104BB00011E0C0B204280DD12D20DFF8B81708701D
:104BC0003420DFF8B01748700A20DFF8A817887083
:104BD000032000E00020704738B5040000255B206A
:104BE000ADB260556D1CDFF890070268E3A12800A4
:104BF00080B2204402F078F845192C20ADB26055FF
:104C00006D1CDFF874074268DCA1280080B22044E4
:104C100002F06AF845192C20ADB260556D1CDFF822
:104C200058078268D5A1280080B2204402F05CF8C1
:104C300045192C20ADB260556D1CDFF83C07C268E9
:104C4000CEA1280080B2204402F04EF845192C2055
:104C5000ADB260556D1CDFF820070269C7A12800BE
:104C600080B2204402F040F845192C20ADB26055C6
:104C70006D1CDFF808070068FFF700FD0022DFF871
:104C80000037FCF7A5FEFCF79FFD0200BBA1280042
:104C900080B2204402F028F845192C20ADB26055AE
:104CA0006D1CDFF8E0060278B4A1280080B2204431
:104CB00002F01AF845192C20ADB260556D1CDFF8D2
:104CC000C8060278ADA1280080B2204402F00CF89A
:104CD00045192C20ADB260556D1CDFF8B006026896
:104CE000A6A1280080B2204401F0FEFF45192C2027
:104CF000ADB260556D1CDFF8940642689FA1280094
:104D000080B2204401F0F0FF45192C20ADB260556F
:104D10006D1CDFF878068068FFF7B0FC0022DFF832
:104D20006036FCF755FEFCF74FFD020093A128000A
:104D300080B2204401F0D8FF45192C20ADB2605557
:104D40006D1CDFF84C0602788CA1280080B220444C
:104D500001F0CAFF45192C20ADB260556D1CDFF87B
:104D60003006827885A1280080B2204401F0BCFF83
:104D700045192C20ADB260556D1CDFF81406826811
:104D80007EA1280080B2204401F0AEFF45192C20FE
:104D9000ADB260556D1CDFF8F805427D77A12800A3
:104DA00080B2204401F0A0FF45192C20ADB260551F
:104DB0006D1CDFF8DC05827D70A1280080B22044E4
:104DC00001F092FF45192C20ADB260556D1CDFF843
:104DD000C005C27D69A1280080B2204401F084FF93
:104DE00045192C20ADB260556D1CDFF8A405827CFE
:104DF00062A1280080B2204401F076FF45192C20E2
:104E0000ADB260556D1CDFF88805C27C5BA128003F
:104E100080B2204401F068FF45192C20ADB26055E6
:104E20006D1CDFF86C05027D54A1280080B220447F
:104E300001F05AFF45192C20ADB260556D1CDFF80A
:104E40005005027E4DA1280080B2204401F04CFFA5
:104E500045192C20ADB260556D1CDFF83405427E3B
:104E600046A1280080B2204401F03EFF45192C20C5
:104E7000ADB260556D1CDFF81805C27B3FA128005C
:104E800080B2204401F030FF45192C20ADB26055AE
:104E90006D1CDFF8FC04827E38A1280080B220441B
:104EA00001F022FF45192C20ADB260556D1CDFF8D2
:104EB000E004828931A1280080B2204401F014FF6F
:104EC00045192C20ADB260556D1CDFF8C404827BFF
:104ED0002AA1280080B2204401F006FF45195D2078
:104EE000ADB260556D1C0A20ADB260556D1C280036
:104EF00080B232BD10B50400DFF890048068FFF77F
:104F0000BDFB0022DFF87834FCF762FDFCF772FC91
:104F100002001AA1200001F0E7FE0A2180B221540C
:104F2000401C80B210BD80B50A22694601F0F6FE31
:104F3000FFF78AFBFFF7A2FB0022DFF84434FCF7FF
:104F400019FE00F091FDDFF8341408600098401C51
:104F500000900A226946009801F0E0FEDFF8241470
:104F600008700098401C00900A220021009801F06F
:104F7000D5FEDFF81414087001BD000025640000A0
:104F800080B50A22694601F0C9FEDFF808144860BE
:104F90000098401C00900A226946009801F0BEFE6D
:104FA000DFF8F013C8600098401C00900A226946A0
:104FB000009801F0B3FEDFF8DC1348610098401C54
:104FC00000900A226946009801F0A8FEDFF8C41399
:104FD000C8610098401C00900A226946009801F0C0
:104FE0009DFEDFF8B01348620098401C00900A2232
:104FF0006946009801F092FEDFF89813C8620098A5
:10500000401C00900A226946009801F087FEDFF8F4
:10501000841348630098401C00900A226946009857
:1050200001F07CFEDFF86C13C8630098401C009010
:105030000A220021009801F071FEDFF8581348643D
:1050400001BDF8B506000A220021300001F066FE1D
:105050000700DFF838034068FCF7ECFB04000D00A4
:105060003800FFF7F1FAFFF709FB0022C44BFCF709
:1050700081FD22002B00FCF741FFFCF7BBFBC3497D
:1050800048600A220021300001F048FE0600BF48B7
:105090008068FFF7F3FA04000D003000FCF7C0FB56
:1050A0000022B74BFCF766FD22002B00FCF726FF21
:1050B00000F0DAFCB5498860F1BDB748808DB6498B
:1050C000C98D401A401EB549C0B2095C0A2909D1F0
:1050D000A64909780200D2B2914203D0A3490870D0
:1050E000012000E00020704780B5AC48AA498862E2
:1050F000A048A94908624FF48072A849A64800F068
:1051000029FA01BD38B50400002501F00BFEA448C2
:10511000007867281FD1FFF7F1FC032803DB032089
:10512000FFF707FD4519FFF7E9FC022803DA022023
:10513000FFF7FFFC4519FFF7E1FC022807D100202B
:10514000FFF7F7FC4519A01CFFF746FD4519EDB226
:10515000280080B2FBE092480078632840F0E380AA
:105160008F484078732806D10020FFF7E2FC4519EC
:105170008C48FFF7D8FE8A484078662806D1002080
:10518000FFF7D7FC45198748FFF7FAFE84484078B7
:10519000772817D1FFF7B2FC042803DB0320FFF7C1
:1051A000C8FC4519FFF7AAFC032803DA0220FFF721
:1051B000C0FC4519FFF7A2FC032803D10020FFF72C
:1051C000B8FC451976484078722817D1FFF796FC4D
:1051D000042803DB0320FFF7ACFC4519FFF78EFC26
:1051E000032803DA0220FFF7A4FC4519FFF786FC29
:1051F000032803D10020FFF79CFC4519684840783C
:105200006E281AD1FFF77AFC042803DB0320FFF78E
:1052100090FC4519FFF772FC032803DA0220FFF720
:1052200088FC4519FFF76AFC032806D10020FFF728
:1052300080FC451902205649087059484078692871
:105240001BD153480078022813D10020FFF771FCCE
:10525000451900224FF480715348FEF773FC002279
:105260004FF400715048FEF76DFC002048498873E8
:1052700003E00420FFF75DFC4519494840786A289F
:1052800012D10020FFF755FC451901224FF480711F
:105290004548FEF757FC01224FF400714248FEF7E3
:1052A00051FC01203A4988733D4840786D282ED141
:1052B000FFF724FC042803DB0320FFF73AFC451921
:1052C000FFF71CFC032803DA0220FFF732FC451924
:1052D000FFF714FC03281AD12000FFF70BFE451935
:1052E00002202B490870FDF78DF8284800682749EF
:1052F00049680C1825488068FFF7E8F9201A234907
:105300000860002021494860002020498860244826
:105310004078742803D10020FFF70BFC4519EDB24B
:10532000280080B213E01E4800786D280AD10020C2
:10533000FFF7FFFB45191D48FFF783FEEDB228007C
:1053400080B204E00120FFF7F4FB4519002032BDD4
:1053500080B50848FFF7D6FE020092B205490E4814
:1053600000F0CFF801F0FAFC01BD0000900D002024
:105370001401002018070020480C0020080000201D
:105380000000594010010020110100208C0C002069
:105390002C0C0020700A00203C0B00201808002074
:1053A000180900201A0900200014014019090020E2
:1053B00010B50400002C01D1012033E0A0690028C1
:1053C000FFD194F83900002805D1002084F8380076
:1053D000200001F0E7FB242084F839002068C06831
:1053E00030F400502168C860200000F06CFA20689A
:1053F000006930F49040216808612068406930F00D
:105400002A00216848612068C06850F40050216873
:10541000C8600020E063202084F83900202084F850
:105420003A00002010BD2DE9F04182B004000D00CB
:1054300016001F005FF0000894F8390020285DD1A5
:10544000002D02D0B6B2002E01D1012057E094F811
:105450003800012801D1022051E0012084F83800F1
:105460000020E063212084F8390001F08BFC8046A5
:10547000A684E68403E02878216848606D1CE08CEF
:10548000002828D0E08C401EE084A068B0F5805F42
:1054900016D10097434600228021200000F029F910
:1054A000002801D003202AE02888C005C00D21680B
:1054B00048602069002801D1AD1CE0E76D1CDEE7E3
:1054C0000097434600228021200000F012F90028B6
:1054D000D1D0032013E00097434600224021200052
:1054E00000F007F9002801D0032008E0202084F80C
:1054F0003900002084F83800002000E00220BDE8D8
:10550000F68190F83930202B22D1002902D092B2B6
:10551000002A01D101201CE090F83830012B01D184
:10552000022016E0012380F8383001628284C284B0
:105530000021C163212180F83910002180F8381042
:105540000168C96851F080010068C160002000E076
:105550000220704790F83A30202B2ED1002902D03B
:1055600092B2002A01D1012028E090F83830012BB6
:1055700001D1022022E0012380F838308162828547
:10558000C2850021C163222180F83A10002180F8F1
:1055900038100168C96851F480710268D1600168EF
:1055A000496951F00101026851610168C96851F00F
:1055B00020010068C160002000E00220704738B57B
:1055C0000400206800682168C968226852690023C5
:1055D000002310F00F03002B07D1850605D58D069B
:1055E00003D5200000F01BF982E0002B70D0D30718
:1055F00002D411F4907F6BD010F00103DBB2002BCA
:1056000005D0CB0503D5E36B53F00103E3634307F8
:1056100008D512F00103DBB2002B03D0E36B53F08B
:105620000203E363830708D512F00103DBB2002B0A
:1056300003D0E36B53F00403E363030708D512F0D0
:105640000102D2B2002A03D0E26B52F00802E263F8
:10565000E26B002A3BD0800604D5880602D52000E4
:1056600000F0DDF820684069800910F00103E06B6C
:10567000000701D4002B25D0200000F072F820682C
:10568000406940061AD52068406930F04000216822
:105690004861606B00280DD00FF2E900616B486330
:1056A000606B01F075FB002811D0606B616B496B7A
:1056B00088470CE0200001F0D1FB08E0200001F059
:1056C000CDFB04E0200001F0C9FB0020E0630FE007
:1056D000020605D50A0603D5200000F05DF807E0B4
:1056E000400605D5480603D5200000F08AF8FFE7FC
:1056F00031BD2DE9F04104000D0016001F00DDF85A
:105700001880206800682840A84201D1012000E0EC
:105710000020F6B2B04221D118F1010FF1D0B8F15A
:10572000000F04D001F02EFBC01B8045E9D2206899
:10573000C06830F4D0702168C860206840694008B3
:10574000400021684861202084F83900202084F836
:105750003A00002084F83800032000E00020BDE873
:10576000F0810168C96831F490710268D160016804
:1057700049694908490002685161202180F83A10BE
:105780007047000080B5406A0021C1850021C184B6
:1057900001F064FB01BD000090F8391021292ED1E1
:1057A0008168B1F5805F10D1016A0988C905C90D0A
:1057B000026851600169002903D1016A891C0162F4
:1057C00009E0016A491C016205E0016A4A1C0262A3
:1057D000097802685160C18C491EC18489B20029D0
:1057E0000BD10168C96831F080010268D16001689D
:1057F000C96851F040010068C160002000E002204B
:10580000704780B50168C96831F040010268D16015
:10581000202180F8391001F022FB002002BD80B564
:1058200090F83A1022294CD18168B1F5805F15D1EA
:10583000816A0269002A08D102685268D205D20D35
:105840000A80816A891C81621AE00268526802F04B
:10585000FF020A80816A491C816211E00169002906
:1058600006D1816A4A1C8262026852680A7007E0A7
:10587000816A4A1C82620268526812F07F020A70D2
:10588000C18D491EC18589B2002918D10168C96836
:1058900031F020010268D1600168C96831F480717B
:1058A0000268D1600168496949084900026851618C
:1058B000202180F83A1001F0D3FA002002E0002005
:1058C00000E0022002BD2DE9F04104000020216823
:1058D000096931F44051E268114322681161A168FD
:1058E000226911436269114308432168C9685C4A0F
:1058F000114008432168C8602068406930F4407056
:10590000A16908432168486120685649884252D1FC
:1059100000F02EFC804600F02BFC060000F028FC76
:10592000070000F025FC050000F022FC192101FB16
:1059300008F162689200B1FBF2F16422B1FBF2F16E
:10594000192202FB06F263689B00B2FBF3F21923F3
:1059500003FB07F36668B600B3FBF6F36426B3FBFC
:10596000F6F3642606FB1322120132326423B2FBE3
:10597000F3F212F0F00212EB0111192202FB05F210
:1059800063689B00B2FBF3F21923584363689B00E2
:10599000B0FBF3F06423B0FBF3F0642303FB1020AF
:1059A000000132306422B0FBF2F010F00F0040181A
:1059B0002168886051E000F0D0FB804600F0CDFB0C
:1059C000060000F0CAFB070000F0C7FB050000F06E
:1059D000C4FB192101FB08F162689200B1FBF2F1EE
:1059E0006422B1FBF2F1192202FB06F263689B000C
:1059F000B2FBF3F2192303FB07F36668B600B3FBAF
:105A0000F6F36426B3FBF6F3642606FB13221201B9
:105A100032326423B2FBF3F212F0F00212EB011106
:105A2000192202FB05F263689B00B2FBF3F2192313
:105A3000584363689B00B0FBF3F06423B0FBF3F0C2
:105A4000642303FB1020000132306422B0FBF2F02B
:105A500010F00F00401821688860BDE8F081000058
:105A6000F3E9FFFF003801404FEAF17CBCF1E04C64
:105A70002CBFBCF5001F11E05FEA4C0C34BFBCF139
:105A80007F5F2EE05FEA9C0C4FEA0C1C4FEA3C0C57
:105A9000C10071F100414CEB50707047C90241EAFE
:105AA0005051C00218BF41F0010141F000414FEADE
:105AB0006C50C0F10900212810D240EACC7CCCF116
:105AC000200C11FA0CF070F10040CCF1200C21FAFE
:105AD0000CF00CF0004C40EB0C0070474FEACC701F
