:020000040800F2
:1000000018050020F9850008157F0008177F0008F3
:100010001F7F0008277F00082F7F000800000000D6
:10002000000000000000000000000000377F000812
:10003000397F0008000000003B7F00083D7F00087A
:100040004D8600085186000855860008598600082C
:100050005D86000861860008497F0008537F00081C
:100060005D7F0008677F0008717F000865860008D3
:10007000698600086D86000871860008758600088C
:10008000798600087D86000881860008858600083C
:10009000898600088D860008918600087B7F00080D
:1000A00095860008998600089D860008A1860008AC
:1000B000A5860008A17F0008A9860008AD86000873
:1000C000B1860008B5860008B9860008BD8600081C
:1000D000C1860008CF810008C5860008C9860008CF
:1000E00029820008CD860008D186000880B5DFF897
:1000F000540C0069DFF84C1CC968401ADFF8441C36
:100100008968401A0A21B0FBF1F0DFF8BC1C886056
:10011000DFF8300C0069DFF82C1CC968DFF8AC2C64
:100120001278521F4FF47A7303FB0211884203D2F4
:100130000120DFF8941C887001F05EF9DFF8880C6C
:10014000407E00282BD1DFF8800C8078002826D054
:10015000DFF8740C007E012821D0642001F0C1FE7C
:10016000DFF8640C407E002819D10020DFF8581C0D
:10017000087501F023F901224FF40071DFF8340E05
:1001800002F012F80120DFF8401C087601F016F9A1
:1001900001224FF48071DFF8600C02F005F8DFF8FF
:1001A000280C407E012804D0DFF81C0C8078002841
:1001B0001ED1DFF8140C007E002819D00020DFF8D3
:1001C000081C087601F0FAF800224FF48071DFF87D
:1001D000280C01F0E9FF0120DFF8EC1B087501F0A5
:1001E000EDF800224FF40071DFF8C80D01F0DCFFDC
:1001F00001BD00B583B0684602F03BF8DFF8C80BDC
:100200000078002805D100220421DFF8040E01F057
:10021000CBFFDFF8B40B0078022805D101220421BE
:10022000DFF8EC0D01F0C0FFDFF89C0B007805282B
:1002300015D1BDF80600FA2190FBF1F201FB120086
:100240007E2806DB01220421DFF8C40D01F0ACFF9B
:1002500005E000220421DFF8B80D01F0A5FFDFF86A
:10026000680B0078082805D100220421DFF8A00DD2
:1002700001F09AFFDFF8500B0078012805D1002229
:100280000421DFF88C0D01F08FFFDFF83C0B0078C4
:10029000062805D100220421DFF8740D01F084FF47
:1002A000DFF8240B0078072805D100220421DFF8AD
:1002B000600D01F079FF07BD80B5DFF80C0B007809
:1002C000052804D0DFF8000B007804286BD1DFF894
:1002D000F80A407C002817D0DFF8EC0AC07D01281E
:1002E00005D10020DFF8E01AC87501F067F8DFF8E3
:1002F0005C2CD2E9000101F0C2FFB0F5FA7F03D90E
:100300000020DFF8C41A4874DFF8442CD2E9000159
:1003100001F0B5FFB0F5FA7F28D9DFF8AC0AC07D4F
:10032000012823D1DFF8280C01F0D2FFDFF8880C78
:1003300000680A30DFF80C1AC968884204D200202D
:10034000DFF8781C08700BE0DFF8700C0078FF28ED
:1003500006D0DFF8680C0078401CDFF8601C0870DD
:10036000DFF8E009C068DFF8501C0860DFF8A40C73
:100370000078DFF8481C0978884214D2DFF8480A70
:10038000C07D012805D10020DFF83C1AC87501F0B6
:1003900015F80020DFF8241C0870DFF8300A007818
:1003A00080B201F0AEF801BD70B5DFF86C2CD2E977
:1003B000000101F064FFFB28C0F0A880DFF8580CB2
:1003C00001F086FFDFF8000A0078002804D1DFF88A
:1003D000F809806802F067F9DFF8EC090078022874
:1003E00004D1DFF8E409806802F0EBF9DFF8D809FE
:1003F0000078032823D1DFF8700C4668300002F043
:100400005FFC02F06DFC0022DFF8603C02F090FC23
:1004100004000D00DFF8940C006802F061FC02009B
:100420000B002000290002F055FD02F07FFE0100C4
:1004300089B26420B6FBF0F080B202F045FADFF832
:100440008809007804283ED1DFF87C09C07D0028A7
:1004500001D1012600E00026DFF80C0C806802F0D4
:100460003FFC0022DFF8043C02F062FC04000D00B7
:10047000DFF8380C006802F033FC02000B002000AB
:10048000290002F027FD02F067FEDFF83C19486002
:100490003300DBB21C00DFF8D00B806802F072FE84
:1004A0006421B0FBF1F22300DFF89808C068DFF8A0
:1004B000001C0968401A6421B0FBF1F1DFF808095B
:1004C000406802F09DFADFF800090078052801D1A4
:1004D00002F0D7F8DFF8F0080078082801D101F021
:1004E00089FFDFF8E4080078012801D101F082FFDC
:1004F000DFF8D4080078062801D101F07BFFDFF88F
:10050000C8080078072801D101F074FF70BD00B55C
:1005100083B00A2001F077FB684601F0AAFEDFF8FD
:10052000A8080078042822D00A2001F05EFB0020F1
:1005300001F054FB9DF80500022190FBF1F201FB54
:10054000120000280AD0BDF80600642190FBF1F0EB
:10055000D0F10A00C0B201F04FFB48E0BDF8060040
:10056000642190FBF1F0C0B201F046FB3FE09DF842
:100570000500022190FBF1F201FB1200002818D0C7
:10058000BDF80600642190FBF1F0C0B201F034FB2D
:10059000BDF80600642190FBF1F0C0B201F025FB2C
:1005A000BDF80600642190FBF1F0C0B201F016FB2B
:1005B0001DE0BDF80600642190FBF1F0D0F10A00C7
:1005C000C0B201F019FBBDF80600642190FBF1F008
:1005D000D0F10A00C0B201F008FBBDF806006421AA
:1005E00090FBF1F0D0F10A00C0B201F0F7FA07BDBC
:1005F0002DE970436421DFF8E00C02F06FFE012169
:10060000DFF8D40C02F014FF04000221DFF8C80C5C
:1006100002F00EFF0321DFF8C00C02F009FF060014
:100620000421DFF8B40C02F003FF0500ADB228008E
:1006300002F046FB02F054FB02000B000020DFF842
:10064000741A02F047FC80468946A4B2200002F0EA
:1006500037FB02F045FB42464B4602F069FBDFF8F0
:10066000582ADFF8583A02F063FB0022DFF86C3CAE
:1006700002F05EFB02F05AFDDFF84C178881ADB244
:10068000280002F01DFB02F02BFB02000B000020F3
:10069000DFF8201A02F01EFC04000D00B6B2300094
:1006A00002F00EFB02F01CFB22002B0002F040FBCC
:1006B00002000B00DFF8280CDFF8281C02F0FCFF1A
:1006C000DFF8242CDFF8243C02F004FC0022DFF8E1
:1006D000203C03F0B1F802F029FDDFF8EC16C881E8
:1006E000DFF8F40B02F0D0FDDFF8EC0B02F05CFD5C
:1006F000BDE8708380B500F067FE00F05FFE01F09A
:1007000079FEDFF8C4060078002812D100224FF4E9
:100710008071DFF8E00B01F047FD00224FF400711B
:10072000DFF8D00B01F040FD0020DFF89C160874C4
:1007300011E001224FF48071DFF8B80B01F034FDB5
:1007400001224FF40071DFF8AC0B01F02DFD012008
:10075000DFF874160874DFF87006007802281BD1E1
:1007600001224FF48071DFF88C0B01F01DFD012296
:100770004FF40071DFF87C0B01F016FD0120DFF86B
:10078000481608740020DFF84016C87500F016FE01
:100790000220DFF834160870DFF82C0600780428F1
:1007A00010D1DFF824064078032805D1DFF894053E
:1007B000C068DFF8FC1808600120DFF80C16C87567
:1007C00000F0FCFDDFF80006007805280ED1DFF808
:1007D0007C0701F07DFDDFF8F005C07D012805D123
:1007E0000020DFF8E415C87500F0E8FDDFF8D80553
:1007F0000078DFF8D415487001BDF0B589B003F07A
:100800008FF800F05DFC40F6B8320221102001F0B4
:1008100071FD00F0A5F900F053FC00F0FBF900F0C9
:1008200093FA00F0D5FA00F005FB00F043FB00F06E
:1008300091FB00F0C5FB00F0F1FB00F0DFFA00F0E7
:1008400017FCDFF8B40A03F0ABF803F090FD0220C8
:10085000DFF8741508700720DFF86C154870FFF793
:1008600049FF1021DFF8940A01F01FFC10200590C9
:10087000012007900020069005A9DFF8800A01F00A
:1008800039FB0821DFF8740A01F00FFC0820019001
:10089000012003900020029001A9DFF8600A01F016
:1008A00029FB01222021DFF80C0701F07DFCDFF895
:1008B000280A02F079FC322000F0F9FDDFF8400A46
:1008C000006850F40060DFF8381A0860DFF8300A7A
:1008D000006810F40060009000984CF6CC40DFF8FF
:1008E000241A0968086054E00120DFF8DC14C87598
:1008F00000F064FD00F052FD002815D0DFF8C804B8
:100900000078052810D1DFF84426D2E9000101F073
:10091000B6FCB0F57A7F07D90420DFF8AC14087074
:10092000FFF7E8FE00F026FDDFF89C0400780528BC
:100930000CD1DFF81826D2E9000101F0A0FCB0F5D7
:100940007A6F03D90420DFF88014087000F026FDC8
:10095000002806D0DFF870040078022801D100F0EA
:1009600009FD00F01FFD002803D000F02DFD00F070
:1009700006FD00F01BFD002803D000F025FD00F06F
:1009800003FD00F017FD002803D000F01DFD00F06E
:1009900000FDFFF72DFEFFF7A9FB03F0CFF9FFF7EE
:1009A00003FDFFF789FCFFF724FCFFF7B0FDDFF83C
:1009B000540903F075FEDFF8500903F08EFEDFF8EE
:1009C00008040078042869D1DFF8FC03407C002883
:1009D00005D00520DFF8F0130870FFF78BFEDFF875
:1009E0008806406803F088FE06000F00D548C068FE
:1009F00003F082FE04000D00DFF8B406006803F087
:100A00007BFE02000B002000290002F055FE0022B0
:100A1000DFF8C83802F05EFA04000D00DFF88C063B
:100A2000006802F05DF922002B0002F081F902005B
:100A30000B003000390002F03FFE03F06BFEDFF8E0
:100A400028168860DFF82006806803F0ABFE0128D6
:100A500024DABC48C068BB49C96810F1140291424D
:100A6000F9D30220D8490870FFF744FEDFF8F805F3
:100A70000068DFF8F41549680C18DFF8EC058068A9
:100A800002F080FB201ADFF8E01508600020DFF894
:100A9000D81548600020DFF8D0158860DFF8C80559
:100AA000406800280CD0C8480078022808D10320EC
:100AB000C5490870FFF71EFE00F086FC00F05AFCE6
:100AC000C1488068DFF8441809786422514388429D
:100AD00008D2BD480078022804D10020BA49087025
:100AE000FFF708FEB8488068DFF82018097864220C
:100AF0005143884208D3B4480078002804D102202A
:100B0000B1490870FFF7F6FD00F048FC00280CD052
:100B1000AD480078032808D10420AB490870FFF7DE
:100B2000E9FD00F051FC00F025FC00F037FC002846
:100B30003FF4E0AEA448007804287FF4DBAE00F078
:100B400043FC00F03BFC00F015FC9F48C07D0128F1
:100B50007FF4CAAE00209C49C87500F02FFCC9E69E
:100B600000B593B0092009905FF480300A9000200E
:100B70000B9001200D9001200F90022010905FF447
:100B8000803011905FF48010129009A803F02CFEC1
:100B9000002805D040F2DD11DFF8740700F0E4FB17
:100BA0000F20049002200590002006904FF48060F2
:100BB000079000200890012104A804F03EF80028C6
:100BC00005D040F2EB11DFF8480700F0CDFB022022
:100BD00000904FF480400290684604F06FF90028BE
:100BE00005D04FF4F971DFF8280700F0BDFB04F0E1
:100BF00017F94FF47A71B0FBF1F004F0E9FA042030
:100C000004F0EAFA002200215FF0FF3004F0CAFA93
:100C100013B000BD00B58BB0DFF8F806DFF8B816EA
:100C200008604FF48070DFF8B01688600020DFF8AD
:100C3000A816C8600020DFF8A01648615FF46020A5
:100C4000DFF89416C8610020DFF88C164860012098
:100C5000DFF884160861DFF8800604F0E3FA002864
:100C600005D040F21321DFF8A80600F07DFB10202C
:100C700008900120099000200A9008A9DFF8580682
:100C800004F06BFB002805D040F21D21DFF8800640
:100C900000F06AFB042000900120019004200490E1
:100CA000002002904FF4E0400790002006900020C2
:100CB0000590002003906946DFF81C0602F0CDFB8A
:100CC000002805D04FF40B71DFF8440600F04CFB10
:100CD00005200090022001906946DFF8FC0502F033
:100CE000BCFB002805D040F23521DFF8240600F0D7
:100CF0003BFB1020009003200190012002906946E8
:100D0000DFF8D40502F0A9FB002805D040F23F210E
:100D1000DFF8FC0500F028FB112000900420019072
:100D2000002002906946DFF8B00502F096FB00282B
:100D300005D040F24921DFF8D80500F015FB0BB0D3
:100D400000BD0000600C002080B5DFF8CC05DFF8A6
:100D5000CC1508601020DFF8C41548600020DFF8CB
:100D6000BC1588600020DFF8B415C8600020DFF8EB
:100D7000AC1508610020DFF8A41548610020DFF8F9
:100D80009C1588610020DFF89415C8610020DFF809
:100D90008C1508620020DFF8841548620020DFF817
:100DA0007C1588620020DFF87415C862DFF86C05D6
:100DB00004F0DEFB002805D04FF41871DFF8500571
:100DC00000F0D2FA01BD00002C0C0020120100201E
:100DD00080B5DFF84C05DFF84C150860DFF84405F6
:100DE00004F070FC002805D04FF41B71DFF82005DB
:100DF00000F0BAFA01BD00000008014080B5DFF83C
:100E00002805DFF8001508600520DFF8F8144860B1
:100E100040F2DC50DFF8EC148860DFF8E80403F0FF
:100E200017FC002805D040F27A21DFF8E40400F036
:100E30009BFA01BD80B5DFF8F404DFF8F414086014
:100E40000020DFF8EC1448600020DFF8E41488602C
:100E50000020DFF8DC14C8600020DFF8D41408613B
:100E60000020DFF8CC1448614FF40070DFF8C014A4
:100E700088610020DFF8B814C8610020DFF8B014E2
:100E800008620020DFF8A81448620020DFF8A014F0
:100E900088620A20DFF89814C862DFF8940404F02E
:100EA00023FC002805D040F29221DFF8640400F012
:100EB0005BFA01BD00B587B0DFF87804DFF83814BD
:100EC00008602F20DFF8301448600020DFF8281475
:100ED000886040F2E730DFF82014C8604FF40070FB
:100EE000DFF8141408610020DFF80C148861DFF8C3
:100EF000080402F039FD002805D040F2A621DFF8F1
:100F0000100400F031FA4FF48050029002A9DFF88B
:100F1000E80302F00EFE002805D04FF42B71DFF835
:100F2000F00300F021FA00200090002001906946B3
:100F3000DFF8C40304F01EFC002805D040F2B32102
:100F4000DFF8CC0300F010FA07B000BDDC0C002085
:100F5000E40C002080B5DFF8E003DFF8E013086060
:100F60005FF4E130DFF8D41348600020DFF8CC13E1
:100F700088600020DFF8C413C8600020DFF8BC13CD
:100F800008610C20DFF8B41348610020DFF8AC13CF
:100F900088610020DFF8A413C861DFF8A00304F023
:100FA00017FC002804D040F2C621D94800F0DCF933
:100FB00001BD000000100140780D0020B20D00209E
:100FC00080B5DFF87C03DFF87C1308605FF4E13064
:100FD000DFF8701348600020DA4988600020D949A2
:100FE000C8600020D74908610C20D649486100201C
:100FF000D44988610020D349C861D24804F0E8FB95
:10100000002804D040F2D921C14800F0ADF901BD5B
:10101000000C014010010020EC0C002080B5CA48F3
:10102000CA4908605FF4E130C84948600020C749F8
:1010300088600020C549C8600020C44908610C20B0
:10104000C24948610020C14988610020BF49C86188
:10105000BE4804F0BDFB002804D04FF43B71AC48FF
:1010600000F082F901BD0000B00C00200000244017
:1010700080B5B748A44908604FF4C070A2494860E1
:101080007F20A14988607F209F49C8604FF400708D
:101090009D4908619C4803F009FB002804D04FF4E7
:1010A0003F719B4800F060F901BD0000080000207E
:1010B000740D00200000F83F0AD7A3703D0A0940D4
:1010C00000B585B0A348006850F04000A149086011
:1010D000A048006810F04000009000989D4800680B
:1010E00050F010009B4908609A48006810F010000A
:1010F000009000989748006850F0040095490860F7
:101100009448006810F0040000900098914800682E
:1011100050F008008F4908608E48006810F0080001
:10112000009000988B48006850F0200089490860C2
:101130008848006810F0200000900098002240F2DB
:10114000FF31854801F030F8002248F2C31183488E
:1011500001F02AF8002241F20701814801F024F849
:1011600000224FF68071654801F01EF800224FF40E
:101170007F41604801F018F83C20019079480290C6
:101180000020039001A95D4800F0B4FE43200190C7
:10119000744802900120039001A9584800F0AAFE6B
:1011A0004FF47C4001906F4802900120039001A908
:1011B000694800F09FFE40F2FF300190012002904C
:1011C0000220049001A9644800F094FE48F2C31084
:1011D0000190012002900220049001A95F4800F0D4
:1011E00089FE41F207000190012002900220049044
:1011F00001A95B4800F07EFE4FF68070019001204F
:1012000002900220049001A93C4800F073FE4FF4C4
:101210007F400190012002900220049001A93548EE
:1012200000F068FEFF200190002002900120039052
:1012300001A9304800F05EFE782001900020029065
:101240000120039001A9464800F054FE4FF460705D
:101250000190444802900120039001A9404800F009
:1012600049FE00220221062003F09CFF062003F025
:10127000AAFF00220221072003F094FF072003F0B9
:10128000A2FF00220221082003F08CFF082003F0B7
:101290009AFF00220221092003F084FF092003F0B5
:1012A00092FF002202210A2003F07CFF0A2003F0B3
:1012B0008AFF00220221172003F074FF172003F099
:1012C00082FF00220221282003F06CFF282003F077
:1012D0007AFF05B000BD0000FC0B002000408F40ED
:1012E000E17A14AE47E1F63F22FDF675E09C713FCE
:1012F0000000394000140140FC0A002000180140A1
:101300001C100240A40C00204C0C002011010020F5
:10131000CC8300080024014000640040B80A00208B
:1013200000300240D40C0020003000400038004063
:10133000180A002000040040003801403C0B002047
:10134000004400407C0B002000480040BC0B002003
:10135000002C00401810024000100140000801401D
:10136000000C014000001110FEE70268531C0360EE
:10137000117070470020DFF8541A08707047002081
:10138000DFF8501A087070470020DFF84C1A087018
:1013900070470020DFF8441A08707047DFF82C0A05
:1013A00000787047DFF82C0A00787047DFF8280AC9
:1013B00000787047DFF8240A0078704780B5DFF8BE
:1013C000200A00F085FF01BD80B5DFF8180A00F0A3
:1013D0007FFF01BD80B54021DFF80C0A00F0DBFE85
:1013E000002804D00020DFF8041AC87603E00120AA
:1013F000DFF8F819C87601BD80B51021DFF8E809DB
:1014000000F0C9FE002804D00020DFF8E01948767B
:1014100003E00120DFF8D419487601BD80B5202112
:10142000DFF8C40900F0B7FE002804D00120DFF87F
:10143000BC19887603E00020DFF8B019887601BD7A
:1014400080B50821DFF8A00900F0A5FE002804D02F
:101450000120DFF89819087703E00020DFF88C19E5
:10146000087701BD38B5DFF888090068401CDFF84F
:1014700080190860DFF87809006803F03DF9002260
:10148000DFF8703901F054FC04000D00DFF8680942
:10149000006803F031F902000B002000290001F080
:1014A00019FD01F059FEDFF85419086131BD38B556
:1014B000DFF8441909680A22B1FBF2F180B200FB9F
:1014C00001F0DFF82C190860DFF82409006803F048
:1014D00013F90022DFF81C3901F02AFC04000D008A
:1014E000DFF81409006803F007F902000B00200080
:1014F000290001F0EFFC01F02FFEDFF80019086170
:1015000031BD38B5DFF8F01809680A22B1FBF2F1F5
:1015100080B200FB01F0DFF8D8180968884207D2D2
:10152000DFF8CC180968081ADFF8C418086003E06F
:101530000020DFF8BC180860DFF8B408006803F08A
:10154000DBF80022DFF8AC3801F0F2FB04000D00FC
:10155000DFF8A408006803F0CFF802000B002000B9
:10156000290001F0B7FC01F0F7FDDFF890180861E1
:1015700031BD10B51021DFF8880800F00CFE0028FE
:1015800001D0012400E00024DFF87828D2E900012E
:1015900000F075FE40F6B831884224D3E4B2002C46
:1015A00009D1DFF86408007800280CD10120DFF8A9
:1015B0005818087007E0DFF8540800F089FE002092
:1015C000DFF844180870DFF84428D2E9000100F081
:1015D00056FEC92807D30120DFF810184874DFF839
:1015E000240800F075FE10BD704738B50821DFF8FB
:1015F000100800F0D0FD002801D0012400E00024F4
:10160000DFF80C28D2E9000100F039FE40F6B831CD
:10161000884273D3E4B2002C09D1DFF8F8070078D0
:1016200000280CD10120DFF8EC17087007E0DFF884
:10163000E80700F04DFE0020DFF8D8170870DFF84B
:10164000D827D2E9000100F01AFEC92856D3DFF8E6
:10165000C00700F03DFE0020DFF890178870DFF82B
:101660009C070169DFF89407C268DFF88407006807
:10167000DFF884371B680A24B3FBF4F3DFF89C47D8
:101680002478891ADFF874279268891A4FF47A72DD
:10169000B1FBF2F1611A01FB0300DFF85417086097
:1016A000DFF84C07006803F027F80022DFF8443722
:1016B00001F03EFB04000D00DFF83C07006803F07A
:1016C0001BF802000B002000290001F003FC01F0D0
:1016D00043FDDFF828170861DFF820070069DFF80D
:1016E0001C17C968401ADFF814178968401A4FF4AC
:1016F0007A71B0FBF1F0DFF8F416886031BD704705
:1017000038B5DFF8EC064068401CDFF8E4164860A6
:10171000DFF8DC06406802F0EFFF0022DFF8D43685
:1017200001F006FB04000D00DFF8F406006802F08B
:10173000E3FF02000B002000290001F0CBFB01F0C9
:101740000BFDDFF8B816C86031BD10B5DFF8D40660
:101750000078411CDFF8CC261170C0B20528C0F219
:1017600022810020DFF8BC160870DFF8BC06047880
:10177000601CDFF8B41608700221DFF86C0600F078
:101780000AFDDFF8A816E4B20855DFF89C060078D9
:101790000A2803DB0020DFF890160870DFF89006B7
:1017A0000078002804D1DFF88C060078012846D1A3
:1017B000DFF878060078DFF8741649780818DFF843
:1017C0006C1689780818DFF86416C9780818DFF8ED
:1017D0005C1609790818DFF8541649790818DFF8FB
:1017E0004C1689790818DFF84416C9790818DFF80B
:1017F0003C16097A0818DFF83416497A08180028C8
:101800001DD10020DFF82C160870DFF824060078C0
:10181000002810D1DFF8E4054068401CDFF8DC1533
:101820004860DFF8CC054068DFF80C16086001203E
:10183000DFF8081608700020DFF8F4150870DFF8EC
:10184000F0050078002804D1DFF8E80500780028CA
:1018500046D1DFF8D8050078DFF8D01549780818A8
:10186000DFF8C81589780818DFF8C015C978081896
:10187000DFF8B81509790818DFF8B01549790818A4
:10188000DFF8A81589790818DFF8A015C9790818B4
:10189000DFF89815097A0818DFF89015497A0818C2
:1018A0000A281DD10120DFF88C150870DFF88005AB
:1018B0000078002810D1DFF844054068401CDFF8AC
:1018C0003C154860DFF828054068DFF874150860AB
:1018D0000120DFF8681508700020DFF85415087043
:1018E000DFF85805007800285DD00020DFF84C159F
:1018F0000870DFF844050068002854D0DFF8400580
:10190000006800284FD0DFF83C050078411CDFF864
:1019100034251170DFF828150968DFF81C251268D6
:10192000914207D2DFF810150968DFF81425126814
:10193000891A06E0DFF808150968DFF8FC24126848
:10194000891ADFF80425C0B242F82010DFF8F40449
:101950000078042827DB0020DFF8E8140870DFF89F
:10196000E8040068DFF8E0148968401A04F00EFA11
:10197000642818DADFF8D0044068DFF8CC14C968AE
:10198000401A04F003FA64280DDA0020002106E072
:10199000DFF8B424C9B252F821201018491CC9B28A
:1019A0000429F5DB400810BD10B5DFF8A00400786D
:1019B000411CDFF898241170C0B20528C0F20D81D7
:1019C0000020DFF888140870DFF884040478601CB5
:1019D000DFF87C1408700421DFF80C0400F0DBFB56
:1019E000DFF87014E4B20855DFF8640400780A28C0
:1019F00003DB0020DFF858140870DFF85C0400787F
:101A0000002804D1DFF854040078012846D1DFF81B
:101A100044040078DFF83C1449780818DFF83414DF
:101A200089780818DFF82C14C9780818DFF824140E
:101A300009790818DFF81C1449790818DFF814141C
:101A400089790818DFF80C14C9790818DFF804142C
:101A5000097A0818DFF8FC13497A081800281DD104
:101A60000020DFF8F8130870DFF8EC030078002896
:101A700010D1DFF888030068401CDFF8801308608D
:101A8000DFF86C030068DFF8D81308600120DFF886
:101A9000D41308700020DFF8C0130870DFF8B80313
:101AA0000078002804D1DFF8B4030078002843D17F
:101AB000DFF8A0030078DFF89C1349780818DFF8F6
:101AC000941389780818DFF88C13C9780818DFF8A0
:101AD000841309790818DFF87C1349790818DFF8AE
:101AE000741389790818DFF86C13C9790818DFF8BE
:101AF0006413097A0818DFF85C13497A08180A2871
:101B00001AD10120DFF854130870DFF84C03007875
:101B100000280DD1B9480068401CB8490860B44895
:101B20000068DFF8441308600120DFF838130870FC
:101B30000020DFF824130870DFF82803007800285D
:101B40004BD00020DFF81C130870C548006800283F
:101B500043D0C548006800283FD0C4480078411CE5
:101B6000C24A1170C0490968BD4A1268914205D243
:101B7000BB490968BC4A1268891A04E0BA49096875
:101B8000B74A1268891ABA4AC0B242F82010B74858
:101B90000078042821DB0020B4490870B4480068AC
:101BA000B3498968401A04F0F1F8642815DAB0489E
:101BB0004068AF49C968401A04F0E8F864280CDAB4
:101BC0000020002105E0AA4AC9B252F821201018CD
:101BD000491CC9B20429F6DB400810BDC0B20B286D
:101BE00000DB0A20A34908707047C0B20B2800DB55
:101BF0000A20A04988707047C0B20B2800DB0A2079
:101C00009C4948707047C0B20B2800DB0A209949F4
:101C1000C870704710B50400714AD2E9000100F0A5
:101C20002EFB332864D3A4B2B4F5807F04D192484C
:101C30000088401C90490880A4B2042C06D1FFF70C
:101C40005FFD8E480088401C8C490880A4B2082C97
:101C500006D1FFF754FD8A480088401C8849088057
:101C6000A4B2102C06D1FFF7BFFC86480088401CA8
:101C700084490880A4B2202C06D1FFF7F3FB8248E8
:101C80000088401C80490880A4B2012C04D17F4800
:101C90000088401C7D490880A4B2802C04D17C4877
:101CA0000088401C7A490880A4B2B4F5007F04D1B2
:101CB00078480088401C77490880A4B2B4F5806F4A
:101CC00004D175480088401C73490880A4B2B4F55B
:101CD000006F04D171480088401C70490880A4B28C
:101CE000B4F5805F04D16E480088401C6C490880C0
:101CF0003C4AD2E9000100F0C2FA332861D3A4B211
:101D0000022C1BD1674AD2E9000100F0B8FAB0F505
:101D1000FA7F13D9052000F0E4F80221384800F0DA
:101D20003AFA00284FD05F4800F0D2FA0120274944
:101D300008705D480078401C5B490870A4B2B4F597
:101D4000005F0CD1594AD2E9000100F098FAC92885
:101D500005D3564800F0BCFA01201D490870A4B212
:101D6000B4F5804F0CD1524AD2E9000100F087FA55
:101D7000C92805D34E4800F0ABFA01201749087076
:101D8000A4B2B4F5004F0CD14A4AD2E9000100F0E8
:101D900076FAC92805D3474800F09AFA01200D4980
:101DA0000870A4B2402C0CD1434AD2E9000100F0E3
:101DB00066FAC92805D3404800F08AFA012006498E
:101DC00008703E48048010BD00000000B50D0020E2
:101DD000B60D0020B70D0020B80D0020B90D002071
:101DE0000C0D0020040D0020001401402C0C0020DC
:101DF000740C00200088C34000000020600C00200C
:101E0000001801401C0D0020BA0D0020140D002008
:101E10002C0D0020BB0D0020240D002012010020FD
:101E200004000020BE0D0020BC0D0020BC0C0020D2
:101E300013010020BD0D00207C0D0020BF0D0020EF
:101E4000800D0020C00D0020840C0020C30D002058
:101E5000C10D0020C80C002014010020C20D00207C
:101E6000840D0020C40D0020880D0020C50D002029
:101E7000940C00208C0D00209A0D00209C0D002059
:101E80009E0D0020A00D0020A20D0020A40D00201A
:101E9000A60D0020A80D0020AA0D0020AC0D0020EA
:101EA000AE0D0020340D0020C60D00203C0D00209A
:101EB000440D00204C0D0020540D0020980D0020F2
:101EC00002B44FF00E0101FB00F04FF0240190FB33
:101ED000F1F10844C82880F2098000BF00BF033830
:101EE00004E002B44FF4615101FB00F00138FDD869
:101EF00002BC7047F8B4002500240025002200260B
:101F0000002307E0DFF8D0522D6835EA0404B24D13
:101F10002C605B1C102B80F0C680012414FA03F5A2
:101F20000C682C40AC42F4D14E68002E27D0012E14
:101F30001AD0022E1DD0032E2FD0112E16D0122E05
:101F40001AD0A64FBE421AD0A54FBE4217D0A54FF9
:101F5000BE4214D0A44FBE4211D0A44FBE420ED0F8
:101F6000A34FBE420BD01AE0CA6818E0CA68121D1F
:101F700015E0CA68083212E0CA680C320FE08A68BD
:101F8000002A01D1042207E08A68012A02D108222E
:101F9000056101E00822456101E00022FFE7FF2C16
:101FA00001D8050000E0051DFF2C01D89E0002E0CD
:101FB000B3F10806B6002F685FF00F0C1CFA06FCA0
:101FC00037EA0C0712FA06F63E432E604D68ED0024
:101FD0009FD5884D2D6855F00105864E3560854D9D
:101FE0002D6815F001050095009D834D9E0855F85C
:101FF00026500F2613F00307FFB2BF00BE40B543C3
:102000007E4EB04201D100260FE07D4EB04201D19C
:1020100001260AE07B4EB04201D1022605E07A4E4D
:10202000B04201D1032600E0042613F00307FFB2FB
:10203000BF00BE403543704E9F0846F827504D689C
:10204000ED0305D5714D2D682543704E356004E0D4
:102050006E4D2D68A5436D4E35604D68AD0305D5B9
:102060006B4D2D6825436A4E356004E0684D2D6840
:10207000A543674E35604D68ED0205D5654D2D6869
:102080002543644E356004E0624D2D68A543614EE2
:1020900035604D68AD027FF535AF4F4D2D682C434F
:1020A0004D4D2C6035E7F1BC7047F0B400220023A1
:1020B000002400252DE0042512F00306F6B2B60038
:1020C000B540AC4224D10F2412F00305EDB2AD00AF
:1020D000AC40494D960855F8265035EA0404464D63
:1020E000960845F82640494C24689C43474D2C608F
:1020F000474C24689C43464D2C60464C24689C43C6
:10210000444D2C60344C246834EA0303324C236081
:10211000521C0B00D340002B3BD0012393400B40BB
:10212000002BF5D0FF2B01D8040000E0041DFF2B8D
:1021300001D8950002E0B2F10805AD0026680F272E
:10214000AF40BE43042717FA05F535432560C46840
:102150009C43C460284C950854F825400F2512F084
:102160000306F6B2B600B5402C40244DA84201D17A
:102170000025A1E7224DA84201D101259CE7214D70
:10218000A84201D1022597E71F4DA84293D103250C
:1021900092E7F0BC7047806889B2084201D0012004
:1021A00000E00020C0B27047D2B2002A02D089B24B
:1021B000016102E089B209040161704780B51649E6
:1021C000096880B2014205D080B21349086080B22C
:1021D000FFF720FD01BD00000C04014000001110BC
:1021E0000000121000002110000022100000311029
:1021F00000003210181002400800014000080140A1
:10220000000C014000100140001401400004014096
:102210000404014008040140140401403348C0880C
:10222000401C3249C8803148C088B0F57A7F07DB4E
:1022300000202E49C8802D484079401C2B49487108
:102240002A4840793C2807DB002028494871274864
:102250000079401C25490871244800793C2807DB97
:1022600000202249087121480068401C1F4908606D
:1022700070471E49D1E90023C0E90023704703B429
:102280001A4800681A49194A12794EF660235A43CF
:1022900001FB0020154949794FF47A7202FB0100D5
:1022A0001249C98808180099114A02FB11009DF8CB
:1022B00004104EF6602202FB11009DF805104FF449
:1022C0007A7202FB1100BDF80610401A02B0704786
:1022D000064909680160054909790171034949798D
:1022E00041710249C988C180704700005C0D00201F
:1022F00080EE360070B58AB006000C00150000F0C4
:1023000076F94AF6C870FFF7DBFDDFF85009C470B4
:10231000DFF8480906710020DFF8401948710020F5
:10232000DFF8381988710020DFF830194870E4B2FE
:10233000022C07DBDFF82409407850F00800DFF8B2
:102340001C194870032000F0E2F841F28830FFF7D2
:10235000B7FD032000F0DBF841F28830FFF7B0FD55
:10236000032000F0D4F841F28830FFF7A9FD0220E5
:1023700000F0CDF8C820FFF7A3FDDFF8E0084078B3
:1023800050F02000C0B200F09EF80420DFF8CC1816
:10239000087000F086F800F02DF80220DFF8BC1875
:1023A0008870DFF8B808807850F00400C0B200F000
:1023B0008AF841F28830FFF783FD05A8DFF8A018FE
:1023C000142203F0F7FC05AA0021002000F01BF8FE
:1023D0006846DFF89018142203F0ECFC6A460121ED
:1023E000002000F010F82800FFF77BFD00F002F855
:1023F0000AB070BD80B5012000F065F840F6AC5021
:10240000FFF75EFD01BD10B51400C9B2C0B200F007
:10241000CFF80AE0207800F068F8DFF8400840794B
:10242000401CDFF838184871641C2078002837D029
:10243000DFF828084079DFF824180979884212D398
:102440000020DFF818184871DFF810088079401C68
:10245000DFF808188871DFF804088179DFF8FC07D5
:10246000407900F0A5F820780A280FD1DFF8EC07B2
:102470008079401CDFF8E4178871DFF8E007817984
:10248000DFF8D807407900F093F8CDE720780D28E1
:10249000C0D1DFF8C8078179002000F089F8C3E7D0
:1024A00010BD80B5DFF8B407007850F00400DFF805
:1024B000AC170870DFF8A407007850F00800C0B22D
:1024C00000F001F801BD10B5040000220221DFF880
:1024D0009C07FFF769FE2000C0B2000900F017F862
:1024E00014F00F0000F013F810BD10B50400012225
:1024F0000221DFF87807FFF757FE2000C0B200097D
:1025000000F005F814F00F0000F001F810BD10B550
:102510000400200706D501220121DFF84C07FFF750
:1025200043FE05E000220121DFF83C07FFF73CFEF7
:10253000600706D501220221DFF82C07FFF734FEE1
:1025400005E000220221DFF82007FFF72DFEA0079B
:1025500006D501220421DFF81007FFF725FE05E06C
:1025600000220421DFF80007FFF71EFEE00706D572
:1025700001220821DFF8F006FFF716FE05E0002231
:102580000821DFF8E406FFF70FFE01220121DFF842
:10259000DC06FFF709FE3C20FFF792FC0022012138
:1025A000DFF8C806FFF700FE3C20FFF789FC10BDEE
:1025B00010B582B06A46DFF8B8361C6814600A00AD
:1025C000DFF89836DB78D2B29A4200D30021DFF8E8
:1025D0008C265071DFF8842691716A46C9B2515C2D
:1025E000081850F08000C0B2FFF76DFF13BD80B532
:1025F00001220821DFF87006FFF7D6FD002208212E
:10260000DFF86406FFF7D0FD01220421DFF8580649
:10261000FFF7CAFD00220421DFF84C06FFF7C4FDD6
:1026200001220221DFF84006FFF7BEFD0022022151
:10263000DFF83406FFF7B8FD01220121DFF8280694
:10264000FFF7B2FD00220121DFF81C06FFF7ACFD09
:1026500001220121DFF81406FFF7A6FD0022012167
:10266000DFF80806FFF7A0FD01220221DFF8FC05D4
:10267000FFF79AFD00220221DFF8F005FFF794FD35
:1026800001BD80B5DFF8EC2501210020FFF7BBFE7E
:10269000DFF8EC050088ADF800006A46012109204A
:1026A000FFF7B1FE01BD10B588B00400D3A2002130
:1026B0000020FFF7A8FE02A8DFF8BC150A68026038
:1026C00002AA00210320FFF79EFEDFF8B0250021BB
:1026D0000420FFF798FE42F21070844201D342F2C8
:1026E0000F746420B4FBF0F06421B0FBF1F13031E1
:1026F0008DF800109DF80010302902D120218DF8AE
:1027000000106421B0FBF1F201FB12010A22B1FBBF
:10271000F2F130318DF801109DF80110302906D109
:102720009DF80010202902D120218DF801100A21E6
:10273000B0FBF1F201FB120030308DF802000020F6
:102740008DF803000DF1010200210920FFF75BFE67
:102750006420B4FBF0F100FB11402C218DF8001037
:102760000A21B0FBF1F130318DF801100A21B0FBE4
:10277000F1F201FB120030308DF8020000208DF8DC
:1027800003006A4600210B20FFF73DFEA7208DF8CD
:1027900008002E208DF8090000208DF80A0002AAFA
:1027A00000210E20FFF72FFE03A8DFF8D814142213
:1027B00003F000FB03AA01210020FFF724FE08B06C
:1027C00010BD10B58CB0040002A8DFF8BC141422B0
:1027D00003F0F0FA02AA00210020FFF714FEDFF850
:1027E000AC04844201D3DFF8A8446420B4FBF0F0C9
:1027F0006421B0FBF1F130318DF800109DF800102C
:10280000302902D120218DF800106421B0FBF1F2B3
:1028100001FB12010A22B1FBF2F130318DF80110F7
:102820009DF80110302906D19DF80010202902D111
:1028300020218DF801100A21B0FBF1F201FB1200FA
:1028400030308DF8020000208DF803006A46002128
:102850000820FFF7D8FD6420B4FBF0F100FB114025
:102860002C218DF800100A21B0FBF1F130318DF8E8
:1028700001100A21B0FBF1F201FB120030308DF89B
:10288000020000208DF803006A4600210B20FFF7AC
:10289000BAFDA7208DF808002E208DF80900002031
:1028A0008DF80A0002AA00210E20FFF7ACFD07A850
:1028B000DFF8E013142203F07DFA07AA01210020BB
:1028C000FFF7A1FD0CB010BD10B58AB00C0080B2AE
:1028D000B0F57A7F01DB40F2E73080B2642190FBF3
:1028E000F1F130318DF800109DF80010302902D13F
:1028F00020218DF8001080B2642190FBF1F201FBE1
:1029000012010A2291FBF2F130318DF801109DF88D
:102910000110302906D19DF80010202902D1202174
:102920008DF8011080B20A2190FBF1F201FB120038
:1029300030308DF8020000208DF803006A46002137
:102940000020FFF760FD02A8DFF84C13D1E9002357
:10295000C0E9002302AA00210320FFF754FDA4B21E
:10296000B4F57A7F01DB40F2E734A4B2642094FB33
:10297000F0F030308DF800009DF80000302802D1D2
:1029800020208DF80000A4B2642094FBF0F100FB3D
:1029900011400A2190FBF1F030308DF801002E201B
:1029A0008DF80200A4B20A2094FBF0F100FB114064
:1029B00030308DF8030000208DF804006A460021B5
:1029C0000920FFF720FDA7208DF800002E208DF8AC
:1029D000010000208DF802006A4600210E20FFF75A
:1029E00012FD04A8DFF8B412142203F0E3F904AADC
:1029F00001210020FFF707FD0AB010BD4845200067
:102A0000F0B58FB004000E0015001F0009A8DFF814
:102A10009012142203F0CEF904A8DFF888121422D1
:102A200003F0C8F9FFB2002F05D004AA002100204E
:102A3000FFF7E9FC04E009AA00210020FFF7E3FC0E
:102A4000B6F57A7F01D340F2E736642E2ED36420A8
:102A5000B6FBF0F030308DF800009DF80000302813
:102A600002D120208DF800006420B6FBF0F100FBBD
:102A700011600A21B0FBF1F030308DF801009DF8B3
:102A80000100302806D19DF80000202802D1202026
:102A90008DF801002C208DF802000A20B6FBF0F121
:102AA00000FB116030308DF8030013E020208DF81A
:102AB00000000A20B6FBF0F030308DF801002C2029
:102AC0008DF802000A20B6FBF0F100FB11603030F7
:102AD0008DF8030000208DF804006A4600210920CB
:102AE000FFF791FCA7208DF800002E208DF8010043
:102AF00000208DF802006A4600210D20FFF783FCBC
:102B0000B4F57A7F01D340F2E734642C2ED36420ED
:102B1000B4FBF0F030308DF800009DF80000302854
:102B200002D120208DF800006420B4FBF0F100FBFE
:102B300011400A21B0FBF1F030308DF801009DF812
:102B40000100302806D19DF80000202802D1202065
:102B50008DF801002C208DF802000A20B4FBF0F162
:102B600000FB114030308DF8030013E020208DF879
:102B700000000A20B4FBF0F030308DF801002C206A
:102B80008DF802000A20B4FBF0F100FB1140303058
:102B90008DF8030000208DF804006A460121002012
:102BA000FFF731FC20208DF80000A7208DF80100F0
:102BB0002E208DF802002D208DF8030000208DF8C6
:102BC00004006A4601210420FFF71DFC6420B5FBC8
:102BD000F0F030308DF800009DF80000302802D170
:102BE00020208DF800009DF80000302802D1202020
:102BF0008DF800006420B5FBF0F100FB11500A21B4
:102C0000B0FBF1F030308DF801009DF80100302864
:102C100006D19DF80000202802D120208DF8010067
:102C20000A20B5FBF0F100FB115030308DF80200A6
:102C300000208DF803006A4601210820FFF7E3FB1E
:102C400002A8DFF86410D1E90023C0E9002302AA3A
:102C500001210B20FFF7D7FB0FB0F0BD640D002062
:102C60001485000828850008001001400008014074
:102C7000448600083C850008488600081C86000839
:102C8000D22E00085085000864850008A086010047
:102C90009F86010078850008248600088C8500083E
:102CA000A0850008B48500082C860008002840F1A3
:102CB0000980F446404200F005F850F000406047BB
:102CC000002800BF0AD0B0FA80F18840D1F19D0100
:102CD000C905020672F1004241EB10207047010263
:102CE0005FF0FF0C1CEAD05114BF614506E0C11033
:102CF000400721F0E04101F16051704779B900F0DF
:102D0000004100020AD0B0FA80FC00FA0CF001F198
:102D10006051A1EB0C5101EBD021400570474102FD
:102D20000CBF40F4E0016FF0000100207047010289
:102D3000B0B581EA030C0CF0004C40F2FF7515EAC7
:102D400011541DBF15EA1357AC42AF4239E0E419E4
:102D500023EA455343F48013C90241F0004141EA9C
:102D6000505EC7021100A7FB020200284FF00000CE
:102D7000EEFB01204FF00001E3FB072118BF42F0FA
:102D80000102401800214941E3FB0E01A4F58064D3
:102D90000F0302D252004041494154F101046CDD5D
:102DA000470872F1004250F1000051EB0451A1F5C7
:102DB00080115CBF41EA0C01B0BD4CEA0551002016
:102DC000B0BD05EA1357AC4214BFAF4241E050EA30
:102DD000410E1CBF52EA430E02E061460020B0BD26
:102DE00024423C441BD15FEA070EF6D0090302BF20
:102DF00001460020AEF1140EB1FA81F7AEEB0704E4
:102E000001FA07FE0C37C7F1200100FA07F7C840A6
:102E10004EEA000E23EA455343F48013A2E733F051
:102E20000043B3FA83F704BFB2FA82FE77440B3F44
:102E3000E41BB7F1200E2FBF02FA0EF3BB40C7F11F
:102E4000200E22FA0EFE38BF43EA0E03BA40641C7D
:102E500082E750EA410E14BF52EA430E6FF00001C0
:102E60004FF4001717EB430F8ABF194617EB410FBA
:102E7000B5E74CEA05510020B0BDD4F10104B4F12E
:102E800020070FDAC4F12007520828BF42F00102E0
:102E900010FA07F501FA07F7E1BF2A43E04038438B
:102EA000E1400FE0352C98DCC7F1200452EA4002E3
:102EB00020FA07F218BF42F0010231FA07F0A140F0
:102EC0000A43002172F1004250F1000051EB0C0165
:102ED000B0BDAE002DE9F04140F2FF7581EA030C70
:102EE0000CF0004C15EA11541DBF15EA1357AC4203
:102EF000AF42E9E0BC41C1F31301C3F31303801AED
:102F0000994143F4801304D2641E40004941801863
:102F10005941C90241EA5051B1FBF3F603FB1611C6
:102F2000A2FB0675D7EBC020A94102D2761E8018FD
:102F30005941C90241EA5051B1FBF3FE03FB1E1196
:102F4000A2FB0E75D7EBC020A94103D2AEF1010E52
:102F500080185941890241EA9051760546EA8E2E41
:102F6000B1FBF3F603FB1611A2FB0675D7EB80202D
:102F7000A94102D2761E80185941C90241EA505136
:102F80004EEA060EB1FBF3F603FB1611A2FB067523
:102F9000D7EBC020A94102D2761E80185941C90240
:102FA00041EA5051B1FBF3F703FB1711A2FB0735C0
:102FB000D3EBC020A94167F100070CBF004247F0E6
:102FC000010766F3D5274FEA1E31B80814F580646F
:102FD00014DDBD0775F1004250EB0E5051EB04516A
:102FE00011F5801F5CBF41EA0C01BDE8F0814CF097
:102FF0007F6141F0E0410020BDE8F081BD076D0830
:1030000040EA0E5041F48011D4F10104B4F12006DD
:103010000ADAC4F120060200E04001FA06F3E140BA
:103020001843B24015430EE0342C14DCC6F12004E2
:1030300045EA40056D0820FA06F2154321FA06F02C
:10304000A1400D43002175F1004250F1000051EB09
:103050000C01BDE8F08100205FEA0C01BDE8F081C1
:10306000CFB992185B41B3FA83F704BFB2FA82F684
:10307000BF190B3FB7F120062FBF02FA06F3BB4082
:10308000C7F1200622FA06F638BF3343BA401CB116
:10309000E419641E2FE77F4231F00041B1FA81F458
:1030A00004BFB0FA80F6A4190B3CB4F120062FBF80
:1030B00000FA06F1A140C4F1200620FA06F638BF56
:1030C0003143A0403C1B16E7AC421ABF05EA135738
:1030D000AF4214E050EA41061CBF52EA4306BFE784
:1030E00050EA4107304661461CBF41EA0551BDE840
:1030F000F08152EA430C08BFC143BDE8F0810020D3
:103100004FF4001616EB410F98BF16EB430F08BFA4
:1031100016EB410F24BFC14305E016EB430F0CBF74
:1031200061464CEA0551BDE8F0810000F446400DCF
:1031300040EAC120490006D200F014F8004248BF1E
:103140006FF00040604700F00DF84FF000418842FA
:103150008CBF084640426047400D40EAC12049000C
:1031600080F00D8040F00040490DA1F58061491CC0
:1031700005D4D1F11F0154BFC840C01770474FF0AC
:103180000000704740000DD2010E7F390AD4D1F102
:103190001F0104D4C00140F00040C84070477FF0D8
:1031A000000070470020704710B50400002094F81C
:1031B0002400012801D1022065E0012084F82400C8
:1031C000200002F06EF9C0B2002858D1A16ADFF8E1
:1031D000BC24114051F48051A1622168DFF8B02471
:1031E000914209D1DFF8AC14096811F4702F01D1B4
:1031F000012102E0002100E00121002904D0A16AA0
:1032000031F48011A16203E0A16A51F48011A1623E
:10321000A16AC90501D40021E162002184F82410CB
:103220007FF004012268116021684968490529D4AA
:103230002168896811F4E041B1F5E04F18D12168A7
:10324000DFF84C24914209D1DFF84814096811F4E1
:10325000702F01D1012102E0002100E001210029AD
:1032600006D02168896851F402112268916009E052
:103270002168896851F400412268916002E00021D0
:1032800084F82410C0B210BD10B50400002094F8DA
:103290002400012801D102201FE0012084F824002D
:1032A000A06AC00510D42068406840050CD42000F6
:1032B00002F038F9C0B200280BD1A16A31F488516C
:1032C00051F00101A16204E0A06A50F02000A06268
:1032D0000120002184F82410C0B210BDF8B504000C
:1032E0000D0000200090002702F090FD06002068ED
:1032F000806B10F4401F16D12068006840076DD421
:1033000015F1010FF8D0002D04D002F07FFD801BD5
:103310008542F1D2A06A50F00400A062002084F837
:103320002400032083E0022001F04CFE216809699B
:10333000DFF86423114215D12168C968DFF85C23E6
:1033400011420FD121680969DFF85423114207D1D6
:103350002168C968DFF84C23114201D114211CE017
:1033600029211AE021680969DFF83423114205D1C7
:103370002168C968DFF82C2311420BD02168096944
:10338000DFF82423114207D12168C968DFF8182328
:10339000114201D1542100E0FC21DFF8EC22126837
:1033A000B2FBF0F001FB00F702E00098401C009037
:1033B0000098B84212D215F1010FF6D0002D04D0BA
:1033C00002F024FD801B8542EFD2A06A50F0040079
:1033D000A062002084F82400032028E07FF00E0083
:1033E00021680860A06A50F40050A06220688068DC
:1033F00010F4E040B0F5E04F0DD020684068400583
:1034000014D42068806810F46020B0F5602F0DD1CE
:10341000E06800280AD1A06A30F48050A062A06A57
:10342000C00503D4A06A50F00100A0620020F2BDE4
:10343000002202290AD00CD3042901D003D308E0CA
:103440000068826C07E00068426C04E00068026C6F
:1034500001E00068C26B1000704778B40A000021D8
:10346000002300938368002B90F82430012B01D1B6
:10347000022006E1012380F824308368002B12D15A
:103480005368012B09D103689B6B9B0D9B05146846
:1034900053EAC4330468A36335E0816A51F0200124
:1034A000816201212FE013695468A3421CD3036891
:1034B0009B6B1F2415695668751BED1C052675430B
:1034C000AC4054F44014A3431469641E53EA0453FB
:1034D000146815695668751BED1C05267543AC40CC
:1034E00023430468A3630EE003689B6B1F241569E4
:1034F0005668751BED1C05267543AC4054F440140A
:10350000A3430468A36303689B68DB0707D40368CD
:103510009B68664C2340D46923430468A360936985
:10352000012B0FD1D369B3F5E04F06D103685B6877
:1035300053F480630468636004E0816A51F0200101
:10354000816201215369012B0ED19369002B06D1B1
:1035500003685B6853F480530468636004E0816A25
:1035600051F020018162012113680A2B12D30368F4
:10357000DB68072415680A3D03267543AC40A34366
:10358000946815680A3D03267543AC4023430468DC
:10359000E3600FE003681B69072415680326754381
:1035A000AC40A3439468156803267543AC4023439D
:1035B000046823611368102B02D01368112B05D106
:1035C00003689B6853F400030468A3605368012BED
:1035D00004D01ED3032B13D009D31AE003685B6910
:1035E0001B0B1B03D46823430468636119E0036861
:1035F0009B691B0B1B03D46823430468A36110E081
:103600000368DB691B0B1B03D46823430468E36175
:1036100007E003681B6A1B0B1B03D4682343046881
:1036200023621368102B02D01368112B24D1036876
:103630001F4CA3421BD103689B681B021CD4036868
:103640009B6853F400030468A3601268102A13D126
:103650000D4A1268174BB2FBF3F20A235A43009249
:10366000009A002A08D0009A521E0092F8E7816A58
:1036700051F0200181620121002280F824200800FD
:10368000C0B272BC704700000C000020FEDFFFFFDC
:103690000028014004240140244992242449920036
:1036A000922449129224490049922400FE8FFFFF80
:1036B0000024014040420F00F0B44FF0004591EA71
:1036C000030F44BF6B4000F0C1B800BF841A71EB18
:1036D000030604D26E40001BB141121973414FF42E
:1036E000001C1CEB410F34BF7CEB430684E00C0D47
:1036F000A4EB1356362E7DDC012E43DC45EAC323B2
:1037000043EA525312BFD20292025B08240545EAF3
:10371000C12141EA5051D2EBC020994125D407D1B3
:10372000B0FA80F610FA06F164D00020203608E0E6
:10373000B1FA81F6B140C6F1200220FA02F211433B
:10374000B0404FEAF474B4EB465434F001064FEA4B
:1037500074040AD8D6F50016760D04F00044F04043
:1037600061FA06F25040F1404840C00A40EA415038
:1037700021F0004128BF5FEA500550F1000044EB02
:10378000D12137E045EAC323DB0A45EAC121C90A52
:10379000B6F120050EDD42EA0242120CC5F1200608
:1037A00003FA06F6EB4042EA06056D42984161F1E4
:1037B00000010DE062FA06F5F240554063FA06FC9E
:1037C00082EA0C02F3405A406D42904161EB0301E2
:1037D00011F4801F05D1641E620502D06D004041C6
:1037E000494121F48011430875F1004350F1000074
:1037F00041EB0451F0BC70471CEB410F15D223F094
:10380000004352EA43060BD04FEA4C0CBCEB410F8D
:1038100004D80C0D661E342EB7DDEBE7801A9941F3
:1038200050EA410608BF0021E4E708BF1CEB430F44
:1038300028BF6FF00001DDE7F0B44FF0004591EADA
:10384000030C44BF6B40FFF741BF00BF841A71EB0C
:10385000030603D2001BB141121973414FF4001C3F
:103860001CEB410F34BF7CEB430443E00C0DA4EB95
:103870001356352E50DC45EAC323DB0A45EAC12145
:10388000C912B6F120050DDD63FA05F6EB4086EAB4
:103890000305124218BF45F00105C01851F100019F
:1038A0000CD213E062FA06F5F2405540F3415A405B
:1038B000B340F3405A408018594107D349085FEAA2
:1038C00030005FEA350528BF45F0010501F580119C
:1038D000420875F1004250F1000041EB0451F0BC88
:1038E0004FF4001C1CEB410F38BF70470020090D3E
:1038F000090570471CEB410F10D252EA43060BD06A
:10390000BCEB410F05D80C0DAB43661E342EB5DD64
:1039100002E0AB4380185941F0BC7047F0BC7047DF
:1039200080B50D48006850F010000B490860032076
:1039300001F034FC002002F06FFA02F081FA00205E
:1039400002BD0649096801600549096841600549E9
:10395000096881607047000000200240E8F7FF1FFF
:10396000ECF7FF1FF0F7FF1F10B50400002C01D18A
:10397000012014E094F83D00002805D1002084F8CF
:103980003C00200002F032FB022084F83D00211DA3
:10399000206800F05AF9012084F83D00002010BD95
:1039A0000168C96851F001010268D16001680968C5
:1039B00051F00101006801600020704710B504005B
:1039C0002068006980071AD52068C068800716D56E
:1039D0007FF002002168086101202077206880695B
:1039E00010F0030F03D0200002F0CAFB05E0200016
:1039F00002F0C7FB200002F0C5FB00202077206802
:103A0000006940071AD52068C068400716D57FF0C6
:103A1000040021680861022020772068806910F482
:103A2000407F03D0200002F0ABFB05E0200002F055
:103A3000A8FB200002F0A6FB002020772068006988
:103A400000071AD52068C068000716D57FF0080067
:103A500021680861042020772068C06910F0030FF6
:103A600003D0200002F08CFB05E0200002F089FB6F
:103A7000200002F087FB0020207720680069C00644
:103A80001AD52068C068C00616D57FF010002168DE
:103A90000861082020772068C06910F4407F03D0B7
:103AA000200002F06DFB05E0200002F06AFB200020
:103AB00002F068FB0020207720680069C0070AD563
:103AC0002068C068C00706D57FF001002168086142
:103AD000200002F058FB2068006900060AD5206823
:103AE000C068000606D57FF08000216808612000CC
:103AF00002F04AFB2068006940060AD52068C068C9
:103B0000400606D57FF0400021680861200002F0E1
:103B10003CFB2068006980060AD52068C0688006E2
:103B200006D57FF0200021680861200002F02EFBFE
:103B300010BD10B50400002094F83C00012801D10C
:103B4000022081E0012084F83C00022084F83D003E
:103B50002068806830F0770030F47F402268906001
:103B60000868002855D0102858D020285BD030286D
:103B70005ED0402843D050282DD0602835D0702802
:103B80000DD0B0F5805F03D0B0F5005F16D054E0E3
:103B900020688068C008C000216888604DE0CB685C
:103BA0004A688968206800F0BCF82068806830F0B6
:103BB000770050F07700216888603EE0CB684A6863
:103BC0008968206800F0ADF82068806850F4804073
:103BD0002168886031E0CA684968206800F06EF8A2
:103BE0005021206800F093F827E0CA6849682068EF
:103BF00000F078F86021206800F089F81DE0CA68BC
:103C00004968206800F05AF84021206800F07FF8E9
:103C100013E00021206800F07AF80EE010212068FF
:103C200000F075F809E02021206800F070F804E049
:103C30003021206800F06BF8FFE7012084F83D0098
:103C4000002084F83C00002010BD00220268184BC0
:103C5000984208D0B0F1804F05D0164B984202D060
:103C6000154B984203D132F070024B681A43104B47
:103C7000984208D0B0F1804F05D00E4B984202D048
:103C80000D4B984203D132F44072CB681A4332F0A4
:103C900080024B691A4302608A68C2620A688262C3
:103CA000034A904201D109690163012141617047D2
:103CB000002C0140000400400008004010B4002324
:103CC0000024046A036A5B085B000362836933F0C3
:103CD000F00353EA021334F00A040C4383610462D4
:103CE00010BC704710B400230024036A33F01003A3
:103CF00003628369046A33F4704353EA023334F095
:103D0000A00454EA01148361046210BC70470022CD
:103D1000826832F0700289B251F007010A43826072
:103D2000704710B40024846834F47F44114351EA8E
:103D300003210C43846010BC7047000080B500F084
:103D4000FFFA002801D000F04FFC01BDDFF8B408F5
:103D50000078DFF8B4180978884208D3DFF8A4089F
:103D60000078DFF8A4180978401AC0B208E0DFF83C
:103D7000980800784042DFF88C1809780818C0B21B
:103D80007047C0B2002809D13020DFF880180870D1
:103D90000A20DFF878184870022044E0C0B20128F9
:103DA0000DD12D20DFF8641808703120DFF85C1881
:103DB00048700A20DFF854188870032033E0C0B23E
:103DC00002280DD12D20DFF8441808703220DFF8CA
:103DD0003C1848700A20DFF834188870032022E06D
:103DE000C0B203280DD12D20DFF820180870332031
:103DF000DFF8181848700A20DFF8101888700320C0
:103E000011E0C0B204280DD12D20DFF80018087091
:103E10003420DFF8F81748700A20DFF8F0178870B0
:103E2000032000E0002070473EB5040000255B2021
:103E3000ADB260556D1CDFF8D8070268E7A1280015
:103E400080B2204402F0A4F945192C20ADB260558F
:103E50006D1CDFF8BC074268E0A1280080B2204456
:103E600002F096F945192C20ADB260556D1CDFF8B3
:103E7000A0078268D9A1280080B2204402F088F906
:103E800045192C20ADB260556D1CDFF88407C2685F
:103E9000D2A1280080B2204402F07AF945192C20E2
:103EA000ADB260556D1CDFF868070269CBA1280030
:103EB00080B2204402F06CF945192C20ADB2605557
:103EC0006D1CDFF850070068FEF70AFF0022DFF8DC
:103ED0004837FEF72DFFFFF729F90200BFA12800A0
:103EE00080B2204402F054F945192C20ADB260553F
:103EF0006D1CDFF828070278B8A1280080B22044A2
:103F000002F046F945192C20ADB260556D1CDFF862
:103F100010070278B1A1280080B2204402F038F9DD
:103F200045192C20ADB260556D1CDFF8F80602680B
:103F3000AAA1280080B2204402F02AF945192C20B9
:103F4000ADB260556D1CDFF8DC064268A3A1280005
:103F500080B2204402F01CF945192C20ADB2605506
:103F60006D1CDFF8C0068068FEF7BAFE0022DFF89D
:103F7000A836FEF7DDFEFFF7D9F8020097A128006A
:103F800080B2204402F004F945192C20ADB26055EE
:103F90006D1CDFF89406027890A1280080B22044BE
:103FA00002F0F6F845192C20ADB260556D1CDFF813
:103FB0007806827889A1280080B2204402F0E8F8CF
:103FC00045192C20ADB260556D1CDFF85C06826887
:103FD00082A1280080B2204402F0DAF845192C2092
:103FE000ADB260556D1CDFF84006C27D7BA1280094
:103FF00080B2204402F0CCF845192C20ADB26055B7
:104000006D1CDFF82406027E74A1280080B22044D3
:1040100002F0BEF845192C20ADB260556D1CDFF8DA
:104020000806427E6DA1280080B2204402F0B0F85C
:1040300045192C20ADB260556D1CDFF8EC05027DF2
:1040400066A1280080B2204402F0A2F845192C2075
:10405000ADB260556D1CDFF8D005427D5FA1280030
:1040600080B2204402F094F845192C20ADB260557E
:104070006D1CDFF8B405827D58A1280080B2204471
:1040800002F086F845192C20ADB260556D1CDFF8A2
:104090009805827E51A1280080B2204402F078F871
:1040A00045192C20ADB260556D1CDFF87C05C27E31
:1040B0004AA1280080B2204402F06AF845192C2059
:1040C000ADB260556D1CDFF86005427C43A128004D
:1040D00080B2204402F05CF845192C20ADB2605546
:1040E0006D1CDFF84405027F3CA1280080B220440B
:1040F00002F04EF845192C20ADB260556D1CDFF86A
:104100002805828935A1280080B2204402F040F8B9
:1041100045192C20ADB260556D1CDFF80C05027CF2
:104120002EA1280080B2204402F032F845192C203C
:10413000ADB260556D1C0122D2B228A1280080B218
:10414000204402F025F845192C20ADB260556D1CB5
:104150006846FFF7F6FB009ADFF8D014280080B21B
:10416000204402F015F84519019ADFF8C41428001C
:1041700080B2204402F00CF84519029ADFF8B0141E
:10418000280080B2204402F003F84519DFF89804B3
:10419000C28912A1280080B2204401F0F9FF45191C
:1041A0005D20ADB260556D1C0A20ADB260556D1C2E
:1041B000280080B23EBD10B50400DFF868048068B6
:1041C000FEF7E0FF020005A1200001F0E1FF0A2157
:1041D00080B22154401C80B210BD00002564000054
:1041E00080B50A22694601F0EDFFFEF75FFDFEF79C
:1041F00077FD0022DFF82034FEF76CFE00F08AFA2B
:10420000DFF8101408600098401C00900A226946EC
:10421000009801F0D7FFDFF8041408700098401CE4
:1042200000900A220021009801F0CCFFDFF8F01383
:10423000087001BD80B50A22694601F0C3FFDFF8AE
:10424000F41348600098401C00900A2269460098C8
:1042500001F0B8FFDFF8DC13C8600098401C009044
:104260000A226946009801F0ADFFDFF8C8134861E3
:104270000098401C00900A226946009801F0A2FFB5
:10428000DFF8B013C8610098401C00900A2269460C
:10429000009801F097FFDFF89C1348620098401CDB
:1042A00000900A226946009801F08CFFDFF8841321
:1042B000C8620098401C00900A226946009801F0EC
:1042C00081FFDFF8701348630098401C00900A22B9
:1042D0006946009801F076FFDFF85813C86300982C
:1042E000401C00900A220021009801F06BFFDFF8CB
:1042F0004413486401BD70B504000A220021200067
:1043000001F060FF0500C7484068FEF7D9FC0600D1
:104310002800FEF7CBFC310001F058FFFEF732FF1A
:10432000C04948600A220021200001F04BFFFEF73F
:10433000BDFCBC49896801F049FFBA49886070BD7D
:10434000BD48808DBC49C98D401A401EBB49C0B2D2
:10435000095C0A2909D1AB4909780200D2B291421D
:1043600003D0A8490870012000E00020704780B504
:10437000B248B1498862A548AF4908624FF48072DB
:10438000AE49AD4801F088FA01BD38B504000025FA
:1043900001F05EFFA84801F0B4FA4FF48072A7491B
:1043A000A54801F079FAA648007867281FD1FFF7E1
:1043B000CDFC032803DB0320FFF7E3FC4519FFF7DF
:1043C000C5FC022803DA0220FFF7DBFC4519FFF7E2
:1043D000BDFC022807D10020FFF7D3FC4519A01C23
:1043E000FFF722FD4519EDB2280080B2FBE09448AA
:1043F0000078632840F0E38091484078732806D124
:104400000020FFF7BEFC45198E48FFF7E9FE8C48F7
:104410004078662806D10020FFF7B3FC451989488B
:10442000FFF708FF86484078772817D1FFF78EFC02
:10443000042803DB0320FFF7A4FC4519FFF786FCE3
:10444000032803DA0220FFF79CFC4519FFF77EFCE6
:10445000032803D10020FFF794FC451978484078E1
:10446000722817D1FFF772FC042803DB0320FFF743
:1044700088FC4519FFF76AFC032803DA0220FFF7DE
:1044800080FC4519FFF762FC032803D10020FFF7E9
:1044900078FC45196A4840786E281AD1FFF756FC17
:1044A000042803DB0320FFF76CFC4519FFF74EFCE3
:1044B000032803DA0220FFF764FC4519FFF746FCE6
:1044C000032806D10020FFF75CFC4519022056495D
:1044D00008705B48407869281BD15348007802284F
:1044E00013D10020FFF74DFC451900224FF48071D5
:1044F0005548FDF759FE00224FF400715248FDF770
:1045000053FE00204849087403E00420FFF739FCFB
:1045100045194B4840786A2812D10020FFF731FC3A
:10452000451901224FF480714748FDF73DFE0122F5
:104530004FF400714448FDF737FE01203A490874F2
:104540003F4840786D282ED1FFF700FC042803DB9C
:104550000320FFF716FC4519FFF7F8FB032803DAE1
:104560000220FFF70EFC4519FFF7F0FB03281AD1D4
:104570002000FFF720FE451902202B490870FCF7A8
:10458000B9F828480068274949680C182548806808
:10459000FEF7F8FD201A23490860002021494860F1
:1045A00000202049886026484078742803D10020E4
:1045B000FFF7E7FB4519EDB2280080B213E0204871
:1045C00000786D280AD10020FFF7DBFB45191F4852
:1045D000FFF791FEEDB2280080B204E00120FFF762
:1045E000D0FB4519002032BD80B50848FFF7CDFE4D
:1045F000020092B20549104801F025F901F044FE8D
:1046000001BD0000C80D0020150100201807002082
:10461000600C00200800002000005940110100201B
:1046200012010020B00C00202C0C00203486000861
:104630003C860008700A00203C0B0020180800206F
:10464000180900201A09002000140140190900204F
:1046500038B50400002C01D1012020E04CF6CC40FC
:104660002168086045F2555021680860606821683B
:104670004860A0682168886001F0C8FB05002068D8
:10468000C068002806D001F0C1FB401B3128F6D3DA
:10469000032004E04AF6AA2021680860002032BD09
:1046A0004AF6AA21006801600020704710B5040096
:1046B000002C01D101200FE0200001F02FFDE06867
:1046C00050F0800021680860206961680843A16893
:1046D000084321684860002010BDC168006801607F
:1046E00000207047010040F10980F446404200F08C
:1046F00005F851F000416047010000BF09D0B0FA51
:1047000080F18840C91CC1F58461090501EBD02105
:10471000400570474FEAF17CBCF1E04C2CBFBCF582
:10472000001F11E05FEA4C0C34BFBCF17F5F2EE04C
:104730005FEA9C0C4FEA0C1C4FEA3C0CC10071F183
:1047400000414CEB50707047C90241EA5051C00221
:1047500018BF41F0010141F000414FEA6C50C0F137
:104760000900212810D240EACC7CCCF1200C11FAAF
:104770000CF070F10040CCF1200C21FA0CF00CF0A0
:10478000004C40EB0C0070474FEACC70704749007A
:1047900011F5001F04D84FEACC10FF30C005704758
:1047A000C81770474100090E7F3915D4D1F11F0198
:1047B00014D4400007D2C00140F00040C84048BFB8
:1047C0006FF000407047C00140F00040C8404CBF4F
:1047D0004FF00040404270470020704700424FF0C9
:1047E000004058BFC043704770B582B00400002538
:1047F0002078C00740F18480DFF87C06006810F064
:104800000C0004280BD0DFF87006006810F00C00D4
:1048100008280ED1DFF860060068C00309D5DFF86C
:104820005C06006880036BD56068002868D10120B1
:1048300002E26068B0F5803F08D1DFF8400600680A
:1048400050F48030DFF83416086038E060680028E3
:1048500010D1DFF82806006830F48030DFF81C162D
:104860000860DFF81806006830F48020DFF80C16C6
:10487000086024E06068B0F5A02F10D1DFF8FC05D7
:10488000006850F48020DFF8F4150860DFF8EC05CC
:10489000006850F48030DFF8E41508600FE0DFF8BE
:1048A000DC05006830F48030DFF8D0150860DFF8F0
:1048B000CC05006830F48020DFF8C015086060681F
:1048C00000280ED001F0A2FA0500DFF8B00500685C
:1048D000800315D401F09AFA401B6528F5D3032014
:1048E000AAE101F093FA0500DFF890050068800363
:1048F00006D501F08BFA401B6528F5D303209BE118
:104900002078800726D5DFF87005006810F00C0FBE
:104910000BD0DFF86405006810F00C00082833D1D4
:10492000DFF854050068C0032ED4DFF85005006896
:10493000800704D52069012801D001207CE1DFF83F
:104940003C05006830F0F800616950EAC100DFF80A
:104950002C150860207800074ED5A069002800F0CB
:1049600081800120DFF82015086001F04FFA050072
:10497000DFF81805006880073BD401F047FA401BB8
:104980000328F5D3032057E1206900281ED0012019
:10499000DFF8FC14086001F039FA0500DFF8DC04E8
:1049A0000068800706D401F031FA401B0328F5D3D4
:1049B000032041E1DFF8C404006830F0F8006169C9
:1049C00050EAC100DFF8B4140860C3E70020DFF844
:1049D000C014086001F01AFA0500DFF8A0040068AE
:1049E0008007B7D501F012FA401B0328F5D3032046
:1049F00022E1012000F02DFA2078400740F1B98033
:104A00000026DFF890040068C0000FD4DFF88404AB
:104A1000006850F08050DFF87C140860DFF8740400
:104A2000006810F08050009000980126DFF86804BC
:104A30000068C00529D4DFF86004006850F4807075
:104A4000DFF85414086001F0E1F90500DFF84804CC
:104A50000068C00519D401F0D9F9401B6528F5D3C9
:104A60000320E9E00020DFF82014086001F0CEF90F
:104A70000500DFF8180400688007BDD501F0C6F90D
:104A8000401B0328F5D30320D6E0E068012808D1B5
:104A9000DFF80804006850F00100DFF80014086037
:104AA00037E0E068002810D1DFF8F0030068400824
:104AB0004000DFF8E8130860DFF8E003006830F03A
:104AC0000400DFF8D813086023E0E068052810D15F
:104AD000DFF8C803006850F00400DFF8C013086076
:104AE000DFF8B803006850F00100DFF8B013086089
:104AF0000FE0DFF8A803006840084000DFF89C13CF
:104B00000860DFF89803006830F00400DFF88C13C9
:104B10000860E068002810D001F078F90500DFF89F
:104B20007C030068800719D401F070F9401B41F242
:104B300089318842F3D303207EE001F067F9050054
:104B4000DFF858030068800708D501F05FF9401BC3
:104B500041F289318842F3D303206DE0F6B2012E91
:104B600007D1DFF83003006830F08050DFF82413FD
:104B70000860E06900285ED0DFF8FC02006810F0F1
:104B80000C00082855D0E06902283FD10020DFF84A
:104B90001013086001F03AF90500DFF8E002006840
:104BA000800106D501F032F9401B0328F5D303201C
:104BB00042E0206AB0F5803F09D1DFF8BC0200680E
:104BC00030F40030A1680843DFF8AC120860DFF869
:104BD000A802006830F47410216A0843616A08432F
:104BE000DFF8941208600120DFF8B412086001F0C9
:104BF0000DF90500DFF88402006880011BD401F084
:104C000005F9401B0328F5D3032015E00020DFF849
:104C10009012086001F0FAF80500DFF86002006801
:104C2000800108D501F0F2F8401B0328F5D30320DA
:104C300002E0012000E0002076BD70B504000D0008
:104C40000026DFF86002006810F00700A84211D2C9
:104C5000DFF850020068C008C0002843DFF84412A3
:104C60000860DFF84002006810F00700A84201D099
:104C70000120A1E02078800709D5DFF8FC01006859
:104C800030F0F000A1680843DFF8EC1108602078EC
:104C9000C00756D56068012806D1DFF8E00100683A
:104CA000800311D4012087E06068022806D1DFF874
:104CB000CC010068800107D401207DE06F480068C6
:104CC000800701D4012077E06B48006880088000ED
:104CD000616808436849086001F098F80600606858
:104CE00001280ED16448006810F00C00042828D078
:104CF00001F08CF8801B41F289318842F2D3032005
:104D00005AE0606802280ED15B48006810F00C0081
:104D1000082816D001F07AF8801B41F289318842C8
:104D2000F2D3032048E05448006810F00C0F08D07C
:104D300001F06CF8801B41F289318842F3D30320E3
:104D40003AE05848006810F0070085420ED25548F6
:104D50000068C008C00028435249086051480068F4
:104D600010F00700A84201D0012025E0207840077C
:104D700007D54148006830F4E060E16808433E49E7
:104D800008602078000708D53B48006830F4605080
:104D9000216950EAC1003849086000F00EF8424924
:104DA000354A1268C2F30312895CC840354908606D
:104DB000002001F031F8002070BD00B585B001A8D9
:104DC0003A49102200F0F6FF39480088ADF800009B
:104DD000002000200020002100202748006810F05B
:104DE0000C01042902D0082902D016E0244815E05D
:104DF00001A9C0F38342895CC0030AD568461E4AF4
:104E00001268C2F34042805C1D4AB2FBF0F0484396
:104E100002E0284800FB01F000E0194805B000BDA1
:104E200018480068704780B5FFF7FAFF2249124A18
:104E30001268C2F30222895CC84002BD80B5FFF748
:104E4000EFFF1D490C4A1268C2F3C222895CC840B8
:104E500002BD81B00B490968C9084FF47A72B1FBF1
:104E6000F2F14843009000BF0098411E00910028D5
:104E7000F9D101B070470000041002400010024058
:104E800000127A000C0000208004424224100240EC
:104E9000000042421C1002400070004020100240FE
:104EA0006000424200200240E8850008C8850008F2
:104EB000DE2C000800093D001486000870B582B0A1
:104EC0000400002600202078C00763D5002576481E
:104ED0000068C0000CD47448006850F080507249DB
:104EE00008607148006810F080500090009801251B
:104EF0006E480068C00513D46C48006850F4807098
:104F00006A49086000F082FF060068480068C00532
:104F100006D400F07BFF801B6528F6D3032050E009
:104F20006348006810F44070002822D0616811F4D2
:104F3000407188421DD05E48006830F44070012105
:104F40005C4A116000215B4A116059490860C00742
:104F50000FD500F05BFF060055480068800708D4B5
:104F600000F054FF801B41F289318842F4D30320C2
:104F700027E04F48006830F44070616808434C49AE
:104F80000860EDB2012D05D14748006830F080502F
:104F9000454908602078800707D54748006830F405
:104FA0004040A1680843444908602078C00607D5FE
:104FB0004148006830F48000E16808433E490860D9
:104FC000002076BD10B586B0040001A83B49102230
:104FD00000F0F0FE3A480088ADF800000020002103
:104FE000002300220020012C2BD0022C4ED0102CAC
:104FF00057D1314A1268334B1B68DB0120D501A819
:10500000C2F38343C35CD0030DD568462A4C2468A1
:10501000C4F34044005DD20308D52B49B1FBF0F046
:1050200003FB00F102E0294800FB03F1224800687D
:10503000400201D5080003E048000321B0FBF1F075
:105040002FE01B48026840F202301040B0F5817F2B
:1050500002D14FF4004018E012F44070B0F5007F28
:1050600006D11B480068800702D549F640400CE095
:1050700012F44070B0F5407F06D1124800688003FA
:1050800002D54FF2244000E000200AE0FFF7D6FEF0
:1050900009490968C1F38131491C4900B0FBF1F0AD
:1050A000FFE706B010BD00001C1002400070004079
:1050B000201002404004424204100240D8850008FB
:1050C0002E2D00080010024000127A0000093D0059
:1050D0002410024010F00701474800684FF6FF0215
:1050E0001040464A52EA012108434349086070478C
:1050F00041480068C0F302207047012110F01F02F0
:1051000091403F4A40B2400942F82010704740B2F7
:10511000002808D509013B4A40B210F00F001044A6
:1051200000F8041C03E00901374A40B211547047EB
:1051300010B410F00700D0F10703052B01D30423AE
:1051400001E0D0F10703041D072C01D2002000E08C
:10515000C01E012414FA03F35B1E19408140012391
:1051600013FA00F0401E1040084310BC704780B591
:10517000411EB1F1807F01D301200EE0401E234982
:1051800008600F215FF0FF30FFF7C1FF00202049CA
:10519000086007201F490860002002BD80B5FFF7A6
:1051A00099FF01BD70B504000D0016000020FFF747
:1051B0009FFF32002900FFF7BBFF0100200040B233
:1051C000FFF7A5FF70BD80B540B2FFF796FF01BDA8
:1051D00080B5FFF7CCFF02BD042806D10D4800685A
:1051E00050F004000B49086005E00A48006830F000
:1051F00004000849086070470CED00E00000FA0563
:1052000000E100E018ED00E000E400E014E000E060
:1052100018E000E010E000E080B500F001F801BD0A
:1052200070470000F8B50400002000270025002684
:10523000002C01D101208FE0A068002801D0606916
:105240000028A06A002807D10020E062002084F82E
:105250002400200000F042FE200000F063F9A16A63
:10526000C90673D4C0B2002870D1A16A31F4885144
:1052700051F00201A1626168E2691143E26851EAFA
:1052800042010D43A168B1F5807F02D0A1680129D8
:1052900002D14FF4807100E000210F4361690129C0
:1052A00011D1E168002906D1A169491E490351F4D1
:1052B00000610F4307E0A16A51F02001A162E16A99
:1052C00051F00101E1622168496831F469413943D3
:1052D0002268516021688968DFF83422114029432F
:1052E00022689160A168B1F5807F02D0A168012990
:1052F00002D14FF4807100E00021B1F5807F02D12E
:105300002169491E0E052168C96A31F470013143D3
:105310002268D16221688968DFF8F8211140A9422A
:1053200008D10021E162A16A31F0020151F00101CE
:10533000A16210E0A06A30F0020050F01000A062FC
:10534000E06A50F00100E062012004E0A06A50F041
:105350001000A0620120C0B2F2BD78B40A000021A2
:105360000023009390F82430012B01D1022096E015
:10537000012380F824305368072B12D203685B6B3B
:105380001F2455686D1E05267543AC40A343146861
:1053900055686D1E05267543AC402343046863635E
:1053A00027E053680D2B12D203681B6B1F2455682E
:1053B000ED1F05267543AC40A34314685568ED1FE7
:1053C00005267543AC4023430468236311E003685A
:1053D000DB6A1F2455680D3D05267543AC40A34389
:1053E000146855680D3D05267543AC402343046899
:1053F000E36213680A2B12D30368DB68072415687D
:105400000A3D03267543AC40A343946815680A3DE2
:1054100003267543AC4023430468E3600FE0036850
:105420001B690724156803267543AC40A3439468A1
:10543000156803267543AC40234304682361136851
:10544000102B02D01368112B24D10368324CA342D5
:105450001BD103689B681B021CD403689B6853F430
:1054600000030468A3601268102A13D12B4A126843
:105470002B4BB2FBF3F20A235A430092009A002A04
:1054800008D0009A521E0092F8E7816A51F020017C
:1054900081620121002280F824200800C0B272BC81
:1054A000704738B50400002500200090206880680F
:1054B000C0072BD42068806850F001002168886004
:1054C000164800681649B0FBF1F0009002E0009821
:1054D000401E009000980028F9D100F097FC0500CC
:1054E00020688068C00711D400F090FC401B03289E
:1054F000F6D3A06A50F01000A062E06A50F00100FC
:10550000E062002084F82400012000E0002032BD89
:10551000FDF7E1FFFE0E1FFF002401400C000020FC
:1055200040420F0038B50400002520688068C0079D
:105530001BD520688068400840002168886000F022
:1055400065FC050020688068C0070ED500F05EFC91
:10555000401B0328F6D3A06A50F01000A062E06A56
:1055600050F00100E062012000E0002032BD0000A8
:10557000F8B50400002500270026002C01D10120E9
:105580009FE094F83C00002805D1002084F83D00FD
:10559000200000F0C4FC022084F83C002068006871
:1055A00030F00200216808602068006850F00100B7
:1055B0002168086000F02AFC070020684068C007E6
:1055C0000CD400F023FCC01B0B28F6D3032084F876
:1055D0003C00002084F83D00032072E02068406811
:1055E000C00761D5A069012802D156F0800601E00C
:1055F00036F08006E069012802D156F0400601E04D
:1056000036F04006206A012802D156F0200601E05B
:1056100036F02006606A012802D156F0100601E03B
:1056200036F01006A06A012802D156F0080601E003
:1056300036F00806E06A012802D156F0040601E0BF
:1056400036F004062068006830F0FC003043216822
:105650000860A068E168084321690843616908435C
:105660006168491E08432168C861206800684008D5
:1056700040002168086000F0C9FB0700206840680E
:10568000C0070CD500F0C2FBC01B0B28F6D30320CB
:1056900084F83C00002084F83D00032011E02068DD
:1056A0004068C00700D40125012D06D100202064E8
:1056B000012084F83C00002003E0042084F83C0032
:1056C0000120F2BD10B50400002C01D101200AE038
:1056D0006079002804D100202071200000F049FCEE
:1056E00001206071002010BD10B50400002C01D114
:1056F00001203DE00020A06294F85100002802D172
:10570000200000F049FC022084F851002068006865
:1057100030F04000216808606068A1680843E168D3
:1057200008432169084361690843A16911F40071C4
:105730000843E1690843216A0843A16A08432168D4
:105740000860A069000C10F00400616A0843216839
:105750004860E06A216808612068C06930F4006030
:105760002168C86100206065012084F85100002094
:1057700010BD000090F83C20012A01D1022024E055
:10578000012280F83C20022280F83D200268526805
:1057900032F0700203685A60026852680B681A435C
:1057A00003685A600268926832F0800203689A6067
:1057B000026892684968114302689160012180F88B
:1057C0003D10002180F83C100020704700000000D0
:1057D00010B50400002C01D1012033E0A06900289D
:1057E000FFD194F83900002805D1002084F8380052
:1057F000200000F015FC242084F839002068C068DF
:1058000030F400502168C860200000F0EEF92068F4
:10581000006930F49040216808612068406930F0E8
:105820002A00216848612068C06850F4005021684F
:10583000C8600020E063202084F83900202084F82C
:105840003A00002010BD90F83930202B22D10029D9
:1058500002D092B2002A01D101201CE090F8383029
:10586000012B01D1022016E0012380F838300162BB
:105870008284C2840021C163212180F83910002173
:1058800080F838100168C96851F080010068C16073
:10589000002000E00220704790F83A30202B2ED1F3
:1058A000002902D092B2002A01D1012028E090F80C
:1058B0003830012B01D1022022E0012380F838305A
:1058C00081628285C2850021C163222180F83A105D
:1058D000002180F838100168C96851F480710268AD
:1058E000D1600168496951F00101026851610168A4
:1058F000C96851F020010068C160002000E002206A
:10590000704710B504002068C06830F490702168BA
:10591000C8602068406940084000216848612068EC
:10592000406940060ED52068406930F0400021688B
:105930004861606B002805D00020616B4863606B94
:1059400000F0B8FC0020E085202084F83A00002018
:1059500010BD38B50400206800682168C968226855
:1059600052690023002310F00F03002B07D1850696
:1059700005D58D0603D5200000F0E3F882E0002B6A
:1059800070D0D30702D411F4907F6BD010F00103D4
:10599000DBB2002B05D0CB0503D5E36B53F001033D
:1059A000E363430708D512F00103DBB2002B03D0F9
:1059B000E36B53F00203E363830708D512F001039E
:1059C000DBB2002B03D0E36B53F00403E363030764
:1059D00008D512F00102D2B2002A03D0E26B52F0D5
:1059E0000802E263E26B002A3BD0800604D58806F9
:1059F00002D5200000F0A5F820684069800910F069
:105A00000103E06B000701D4002B25D0200000F03B
:105A10003AF82068406940061AD52068406930F09D
:105A2000400021684861606B00280DD00FF27900BA
:105A3000616B4863606B00F058FC002811D0606B0C
:105A4000616B496B88470CE0200000F0B3FC08E074
:105A5000200000F0AFFC04E0200000F0ABFC0020D0
:105A6000E0630FE0020605D50A0603D5200000F02A
:105A700025F807E0400605D5480603D5200000F0CC
:105A800052F8FFE731BD0168C96831F490710268CE
:105A9000D1600168496949084900026851612021C3
:105AA00080F83A107047000080B5406A0021C18537
:105AB0000021C18400F07EFC01BD000090F8391087
:105AC00021292ED18168B1F5805F10D1016A098842
:105AD000C905C90D026851600169002903D1016A35
