:020000040800F2
:1000000018050020F978000855720008577200089A
:10001000597200085B7200085D7200080000000061
:100020000000000000000000000000005F720008F7
:100030006172000800000000637200086572000829
:100040003D790008417900084579000849790008A0
:100050004D79000851790008717200087B72000820
:10006000857200088F72000899720008557900089F
:10007000597900085D790008617900086579000800
:10008000697900086D7900087179000875790008B0
:10009000797900087D79000881790008A372000849
:1000A00085790008897900088D7900089179000820
:1000B00095790008C9720008997900089D790008AF
:1000C000A1790008A5790008A9790008AD79000890
:1000D000B1790008EF740008B5790008B979000813
:1000E00039750008BD790008C17900082DE9F04F85
:1000F00082460FF25860A5B015461E46D0E900238F
:10010000CDE9122303AF00207960B8620DF15009E8
:1001100000E045440020ADF8020012AB4FF0FF3282
:1001200029460DF1020001F0AEF88046B8F1010F4A
:1001300008DA2878B0F1010868EB08086FEA0800CF
:100140004FEAD078BDF8020025280CBFA8F1010BBA
:10015000C346BBF1010F0EDB2C4614F8011B786877
:10016000D0470028786000F0F880B86A401CBBF1E6
:10017000010BB862F1D1BDF80200252807D100209B
:1001800038617861B861F8613862786205E000280A
:10019000BFD1B86AE2E240F0010015F8011F202942
:1001A000F9D023290DD02B2904D02D2906D03029B0
:1001B0000AD00CE040F0020080B2EEE740F004000C
:1001C000FAE740F00800F7E740F01000F4E72A29CA
:1001D0000ED13168316051F8042B3160002A3A6346
:1001E00004D5514240F00400396380B26D1C13E025
:1001F000002139630BE0396B6FF00043994205D061
:1002000001EB810302EB4301303939636D1C2A781D
:10021000A2F130010A29EED329782E2903D04FF01C
:10022000FF31F9621FE015F8011F2A2907D1316853
:1002300031606D1C51F8042B3160FA6213E000212B
:10024000F9620BE0F96A6FF00043994205D001EBC7
:10025000810302EB43013039F9626D1C2A78A2F167
:1002600030010A29EED3B8860FF2E840297801F070
:100270001FF808B115F8010B8DF842009DF84200F7
:10028000682802BF29786829622005D06C2804BF3D
:1002900028786C2803D171208DF842006D1C14A8B9
:1002A000F86015F8014BB4F125002AD01C3800F095
:1002B000DB80001F022840F2D780133800F0FB805B
:1002C000093800F0D180801E00F06581401E00F0EA
:1002D0003C81401E022840F2C780001F00F035819B
:1002E000401F00F09280401E00F0E580401E37D095
:1002F000C01E0BD0801E00F0DE80C01E00F0DB8030
:100300006CE125208DF85000012070E19DF842003D
:100310006C283068306016D050F8048B3060C7F815
:100320000880FC6A002C04D5404600F0CDFF04464E
:1003300007E022460021404600F0E2FF08B1A0EBB2
:1003400008047C6154E150F8042B306002A9504647
:1003500000F03EFA002840F14B814FF0FF30FDE104
:1003600031683160002251F8040B31604FF03C0ECF
:100370000021CDE9020114A8B860DDE90201914233
:10038000FC6808BF904201D1FA6AC2B100F00F03C5
:100390003033DBB23A2BA8BF2733AEF1010200099C
:1003A000A354964640EA017009090022914208BF11
:1003B000904204D0BA6804EB0E039A42E6D304EBF1
:1003C0000E01B960CEF13C00F96A7861884207DA23
:1003D000081AF8614FF6EF71B88E0840B88607E149
:1003E000002940F1058197F8341001F0140110291B
:1003F00040F0FE80396B3A69891AFA69891A081A3D
:100400000128C0F2F580F861F2E09DF84200622810
:100410001AD0682806D06A280CD06C281CD0712805
:1004200008D019E03068306050F8041B3060B86ABA
:100430000880DDE03068306050F8042B3060B86A26
:10044000C117C2E90001D3E03068306050F8041BE6
:100450003060B86A0870CBE03068306050F8041B38
:100460003060B86A0860C3E03068C01D20F0070241
:100470003260D2E9000108323260CDE90201002980
:1004800002D538692D2109E0B88E810702D5386977
:100490002B2103E0C00705D53869202109F8001099
:1004A000401C386114A839690844B860214602A884
:1004B00000F09AFB9CE09DF842006C280DD071285A
:1004C00018BF6A2809D13068C01D20F007023260C9
:1004D000D2E900010832326005E03168316051F83C
:1004E000040B31600021CDE902019DF8420068282B
:1004F00003D1DDE9020180B20BE0622803D1DDE91E
:100500000201C0B205E0742818BF7A2804D1DDE9E1
:1005100002010021CDE9020197F83400000731D52E
:10052000DDE902230020834208BF82422AD044F042
:100530002000782826D13869302109F80010401CA5
:10054000411C396109F800401CE09DF84200314629
:1005500000F007F9CDE90201DDE9022300218B4219
:1005600002DA38692D2109E0B88E810702D5386991
:100570002B2103E0C00705D53869202109F80010B8
:10058000401C386114A839690844B860214602A8A3
:1005900000F0A4FA2CE09DF842006C2809D001205C
:1005A00038613068306050F8041B30608DF85010AE
:1005B0001EE03068306001AA50F8041B3060ADF8CE
:1005C00004100020ADF8060002A94FF0FF30F862D9
:1005D000504600F0FDF800280AD5BEE625208DF82B
:1005E0005000012038611CB189F8014002203861B7
:1005F000386B3969401AF969401A7969401A396AC1
:10060000401AB969401A796AA0EB010897F83400DA
:10061000400711D42020B8F1010F8DF800000BDB4A
:10062000444601236A4602A9504600F007FE00280E
:100630007FF493AE641EF4D1D7F810B0BBF1000F75
:1006400014AC0DD014F8011B7868D04700287860EE
:100650003FF483AEB86A401CBBF1010BB862F1D124
:1006600030208DF80000FC69012C0ADB01236A466A
:1006700002A9504600F0E2FD00287FF46EAE641E31
:10068000F4D1D7F814B0BC68BBF1000F0DD014F84A
:10069000011B7868D047002878603FF45EAEB86AE6
:1006A000401CBBF1010BB862F1D130208DF8000085
:1006B0003C6A012C0ADB01236A4602A9504600F07D
:1006C000BDFD00287FF449AE641EF4D1B868796995
:1006D000D7F818B04418BBF1000F0DD014F8011B67
:1006E0007868D047002878603FF437AEB86A401C7D
:1006F000BBF1010BB862F1D130208DF800007C6AAB
:10070000012C0ADB01236A4602A9504600F096FD3F
:1007100000287FF422AE641EF4D197F8340040071D
:100720007FF5F8AC2020B8F1010F8DF80000FFF63E
:10073000F1AC01236A4602A9504600F07FFD002873
:100740007FF40BAEB8F10108F3D1E3E40000000040
:1007500000000000686A6C747A4C000025B0BDE8A7
:10076000F08F622826D068281DD06A2808D06C280F
:1007700027D0712804D0742823D07A280CD020E008
:100780000868C01D20F007000860D0E90023083089
:1007900008601946104670470A680A6052F8040B50
:1007A0000A60002170470A680A6052F8040B0A6068
:1007B00000B20BE00A680A6052F8040B0A6040B20B
:1007C00004E00A680A6052F8040B0A60C117704717
:1007D0002DE9F44F0D4694B0D5F830A0BAF1000FD2
:1007E000804648BF6FF0004A00F0B6FD696B4018C4
:1007F00001900FF67820D0E90023CDE9022395F887
:100800003800400702D40198412805D240200DF15C
:1008100010090190002609E000F0A4FD5FEA00093C
:10082000F8D14FF0FF3056E1AAEB040ABAF1010FFC
:10083000C0F2CE801498018802AA0DF1010000F0E8
:10084000E9FD0028044600F1DE801498008810B904
:10085000641E00F1D880A245C0F2BA80686901998F
:100860002218914280F0A2806E634042296A401AA9
:10087000A969401A696A401AE969401AA96A461AC0
:1008800095F83800400710D42020012E8DF8000084
:100890000BDB374601236A462946404600F0CEFC72
:1008A000002840F0B0807F1EF4D1D5F814B0BBF121
:1008B000000F4F460DD017F8011BA868C04700284D
:1008C000A86000F0A080E86A401CBBF1010BE86260
:1008D000F1D130208DF800002F6A012F0ADB0123AF
:1008E0006A462946404600F0A9FC002840F08B806B
:1008F0007F1EF4D1D5F818B0EF68BBF1000F0CD013
:1009000017F8011BA868C0470028A8607BD0E86AD8
:10091000401CBBF1010BE862F2D130208DF80000E1
:100920006F6A012F09DB01236A462946404600F021
:1009300085FC002867D17F1EF5D1E868A969D5F844
:100940001CB04718BBF1000F0CD017F8011BA868AA
:10095000C0470028A86056D0E86A401CBBF1010BD4
:10096000E862F2D130208DF80000AF6A012F09DB78
:1009700001236A462946404600F060FC002842D127
:100980007F1EF5D195F8380040070DD52020012EA7
:100990008DF8000008DB01236A462946404600F036
:1009A0004DFC80BB761EF6D100266E61224668693A
:1009B0000DF10101484400F03BFD686920186861B1
:1009C0001498801C1490801E008800287FF42CAF9F
:1009D000686B6969401A296A401AA969401A696AEC
:1009E000401AE969401AA96AA0EB010A95F8380093
:1009F000400710D4BAF1010F0DDB5446A86820213E
:100A0000C047A86010B94FF0FF365DE0E86A401CAF
:100A1000641EE862F2D16B694A462946404600F0FE
:100A20000DFC0028EFD12C6A012C0ADBA8683021CC
:100A3000C0470028A860E6D0E86A401C641EE8624F
:100A4000F4D1AB69EA682946404600F0F7FB00287C
:100A5000D9D16C6A012C0ADBA8683021C047002874
:100A6000A860D0D0E86A401C641EE862F4D1E8684F
:100A7000A969EB6942182946404600F0DFFB0028CF
:100A8000C1D1AC6A012C0ADBA8683021C04700281C
:100A9000A860B8D0E86A401C641EE862F4D195F8FA
:100AA000380040070ED5BAF1010F0BDBA8682021F2
:100AB000C0470028A860A6D0E86A401CBAF1010A25
:100AC000E862F3D16E616E6304A881451CBF48469D
:100AD00000F0EAFC304615B0BDE8F08F2DE9F34395
:100AE000054608462F696F2808BF082405D041F045
:100AF0002001782914BF0A2410243C26D5E90023BC
:100B0000642818BF69289046994606D100218B4277
:100B100003DAD8F1000869EB49090020814508BFD4
:100B200080450CD1286B50B9082C38D195F8380085
:100B3000000734D530203B2687F83B002FE0701E9D
:100B400000900646404649462246E31700F0ECFC7A
:100B500002F13000C0B23A2803DB9DF8041051398D
:100B60000818B855494640462246E31700F0DCFC19
:100B7000804689460020814508BF804503D0E8684B
:100B8000B9198842DBD3082C09D195F83800000741
:100B900005D5B85D302802D0761E3020B855B91979
:100BA000E960C6F13C00296BA861884208DA081A9E
:100BB00028624FF6EF71288F08402887BDE8F3833D
:100BC00000290ED595F8381001F01401102908D12C
:100BD000696B6A69891A2A6A891A0E1A012EA8BFD6
:100BE0002E62BDE8F38300002DE9F24F04468EB07B
:100BF000D4E90001CDE9020104AF9DF8380040F0CE
:100C0000200BBBF1610F0AD0206B002848BF0620E3
:100C100004D408BFBBF1670F01D1012020636168D4
:100C2000C1F30A5040F2FF7290421CD1080304BF86
:100C30002068002809D10320A0619DF838006138A0
:100C40001A2835D30FF2386108E00320A0619DF81F
:100C5000380061381A2828D30FF21C61E06803229B
:100C600000F0E6FBBDE1012815DA204600F0D3FCD8
:100C7000012810DB00250020BBF1610F1FD1E168C6
:100C800030220A708A1CE2609DF83820612A0CBF6D
:100C9000782258220FE0626840F2FE3161F31E5262
:100CA000451A62604FF0FF30E6E70FF2C851D5E712
:100CB0000FF2C851D2E74A706169891C616110B9AD
:100CC0000026002584E1BBF1610F40F09880206B85
:100CD000D4E900AB00284CBF2126461CDDE9020107
:100CE0000022002300F0BAFC36B23ABF8BF000407D
:100CF000CDE902A0CDE902AB06F101082D1FB8F144
:100D0000010F8DF810200DF1110736DBDDE902012E
:100D10000022002300F0BAFC2FD21C2102A800F010
:100D2000CDFCDDE9020100F04FFDA8F10708B8F1A4
:100D3000010F814609DB00F073FD02460B46DDE939
:100D4000020100F085FDCDE90201F81D072105E053
:100D500009F00F0200F8012D4FEA2919B9F1010F2E
:100D600001DB491EF4D5491E5CBF002200F8012DAD
:100D7000F9D5C71DB8F1010FC8DA0DF11100391A04
:100D8000B142B8BF0E4636B230000DF111072FD474
:100D9000884206DA04A9014449780829A8BF0F212E
:100DA00000DA002104AA024400E0761E12F801399C
:100DB000401E8B42F9D00F2904D104A901444A787E
:100DC000521C4A70002802D504AF761C2D1D36B285
:100DD000701E0DD439180A783032D2B23A2A03DBA9
:100DE0009DF838303A3B9A18401E01F80129F2D597
:100DF000206B002840F1EC80701E2063E8E0DDE904
:100E000002010022002300F029FC3CBF81F00041D8
:100E1000CDE902012DB247F2975068434B49DFF804
:100E2000309190FBF1F52DB2C5F1070ABAF1010F2F
:100E300090461CDBDDE902675FEACA7007D54246CF
:100E40004B463046394600F0C3FD06460F46404645
:100E5000494642464B464FEA6A0A00F0B9FDBAF1EC
:100E6000000F80468946E7D1CDE9026724E0CAF148
:100E7000000A0026374F14E05FEACA7007D54246E1
:100E80004B463046394600F0A3FD06460F46404625
:100E9000494642464B4600F09BFD4FEA6A0A8046AF
:100EA0008946BAF1000FE7D1DDE9020132463B463F
:100EB00000F060FECDE90201BBF1660F216BDFF8A7
:100EC00098900CBF05F10A0006204618142EA8BF02
:100ED000132630208DF810000DF11107012E3DDB97
:100EE000DDE9020100F086FC07F1080104220A2373
:100EF000B0FBF3F303EB8307A0EB4700303001F8BE
:100F0000010C0A20B3FBF0F000EB8007A3EB4703D2
:100F10003033521E01F8023DE9D1083E012E01F1A5
:100F20000807DBDBDDE9020100F064FC00F082FC75
:100F300002460B46DDE9020100F08AFC00224B4626
:100F400000F046FDCDE90201CAE700BFA08601001E
:100F5000000024400000F03F84D797410DF11100BC
:100F6000381A0DF1110702E0401E6D1E7F1C397802
:100F70003029F9D0BBF1660F08BF691C04D0BBF162
:100F8000650F0CBF01210021226B8E1836B2B042D2
:100F9000B8BF064636B231001AD4814204DA785C12
:100FA0003528A8BF392000DA30207A18521E00E018
:100FB000761E12F80139491E8342F9D0392802D130
:100FC000785C401C7854002902D57F1E761C6D1C6D
:100FD0002DB29DF83810009533B23A46204600F005
:100FE00003F80FB0BDE8F08F2DE9F04786B0064654
:100FF0008A4690461D4600F006FF012D406A376B79
:1010000090F8009002DA01250FF278284AF02000CB
:10101000BDF93840662808BF641C12D0672878D113
:1010200014F1040F7BDBBC4279DA96F83800641CBB
:10103000000702D4BD42B8BF2F4624B23F1B48BFB1
:10104000002724B2F068B169012C23DA4A1C30234E
:101050004354012F03DA96F83800000703D5F068EF
:1010600000F80290521CE742B8BF7C4224B26042B2
:101070007062E719AF42B261B8BF3D46F068B3692C
:101080002DB2F5612A464146184400F0D1F9781B8B
:10109000B062BCE022469542084416DA2A46414630
:1010A00000F0C6F9B1696918601B012FB161706267
:1010B00003DA96F83800000705D5F06800F80190CB
:1010C000F069401CF061B762A1E0414600F0B0F960
:1010D000B06920182D1B012F03DA96F83810090784
:1010E00003D5F16801F80090401CB0612DB2AF4209
:1010F000B8BF3D46F068B3692DB22A4608EB04013B
:10110000184400F095F9B0692818B061781B706236
:101110007DE0BAF1610F14D14FF0700A16E0BD42C4
:1011200004DA96F83810090758BF2F467F1E48BFCB
:101130000027BAF1670F14BF4FF0450A4FF0650A58
:1011400004E0BAF1410F08BF4FF0500AB169F368EB
:10115000481CB061012F18F8012B5A5403DA96F895
:101160003810090717D5F168431CB36101F80090E6
:10117000012F10DB6D1E2DB2AF42B8BF3D46F068A7
:101180002DB22A464146184400F052F9B069281899
:10119000B061781B7062F068B1690144200081F889
:1011A00000A004D42B20487001F1020804E02D2295
:1011B0004A7001F102086442002502AF08E00A22E9
:1011C000684600F039FE019807F8010B6D1C009C81
:1011D00021B20129F3DA022D06DA4AF0200065284F
:1011E00004BF302008F8010B4DB9302008F8010B7E
:1011F00007E06D1E02A8405D303008F8010B012D9C
:10120000F7DAF068B1690844A8EB0000F06196F8DD
:10121000380000F0140010280DD17069B169081869
:10122000716A0818F1690818B16A0818716B884268
:10123000BCBF081A306206B0BDE8F087F8B50446B6
:101240000D4616461F46002077B116F8011BA86808
:10125000A047A86030B1E86A401CE86200207F1E09
:10126000F3D1F2BD4FF0FF30F2BD000000000000EE
:10127000000000006E616E004E414E00696E660017
:10128000494E46003000F8B504460D4616461F4646
:1012900000F0E3FD3B4632462946204601B0BDE85A
:1012A000F04000F0F0BD0268531C036011707047FD
:1012B0000278C9B28A421AB11CBF10F8012FF9E7AF
:1012C00018BF00207047010200F10103810704D01C
:1012D00010F8011B89B18107FAD10268B2F101311E
:1012E000914311F0803F04BF50F8042FF6E710F847
:1012F000011B11B110F8011BFBE7C01A7047AE00CB
:10130000C9B2830706D0521E22D310F8013B99427E
:10131000F7D11FE0083A13D302F1040241EA012198
:1013200041EA014150F8043B121F21BF4B40A3F199
:10133000013C2CEA030C1CF0803FF3D0C9B2001F23
:10134000083210F8013B521E28BF91EA030FF8D86B
:1013500018BF0120401E704780B500F07EFD0120BF
:1013600002BD000070B5054605F10F00C408AFF3DB
:101370000080E400A54232D2082C04D2082402E006
:10138000083000F091F82248026811000CD1011DCC
:101390000A6802B31368A34238BF111DF8D310E0E6
:1013A0001D68A5420DD2191D0B68002BF8D11268DB
:1013B000011D00E0191D0B6893420CD01D68A54269
:1013C000F8D361B10D682A68A2F10803A3420AD2DA
:1013D0006A680A600FE000F079FD0028D0D1AFF311
:1013E0000080002070BD2B190B60121B6E685E60C0
:1013F0000B681A602C60096800291DBF4A68002A22
:10140000091D00210160AFF3008005F1080070BDE7
:10141000380D002070B504460D46164600F01DFD3F
:10142000324629462046BDE8704000F01FBD00004E
:1014300062B38B0708D0521E11F8013B00F8013B44
:1014400000F024808B07F6D1830740F0208000BF96
:10145000103A07D330B4B1E83810103AA0E8381089
:10146000F9D230BC530724BFB1E80810A0E8081037
:1014700044BF51F8043B40F8043BD20724BF31F885
:10148000022B20F8022B44BF0B7803707047083AF8
:1014900007D3B1E80810083A40F8043B40F804CB01
:1014A000F7D25307E4E7000000B9704738B5A0F160
:1014B00008042068082833D310F0070F30D1AFF3A9
:1014C00000801848416809B18C4203D261604460D1
:1014D00017E019464B680BB1A342FAD30B68CD183D
:1014E000AC421BD3A54204D12268D2180A600C4634
:1014F00007E04A681AB1236823449A420ED3626017
:101500004C60616851B12268A3188B4206D1002358
:10151000036008688018206048686060AFF300804E
:1015200031BD0000380D00201B4213D1094236D1D5
:101530002AB18446B0FBF2F002FB10C2704700F003
:10154000DBBCFCD30022002370470B00020000210B
:1015500000207047904271EB030CF6D370B5B1FADE
:1015600081F4B3FA83F52C1BA340C4F1200532FAB1
:1015700005F63343A2405FF00046E64002E05B0818
:101580005FEA3202841A71EB030524BF2046294624
:101590007641F4D302000B003000002170BD012A17
:1015A000CFD970B5140C20D0B1FA81F4B2FA82F51B
:1015B000C4F120046419B4F12006D6D3B2405FF020
:1015C0000044F440002502E052085FEA3303C61AE3
:1015D00071EB020E24BF3046714664416D41F3D376
:1015E00002000B002000290070BD0C46B1FBF2F197
:1015F00002FB11452D0445EA1045B5FBF2F402FB50
:10160000145580B240EA0545B5FBF2F002FB1052DA
:1016100040EA044070BD30B4436803F00042012149
:10162000C3F313034360002B04BF0368002B08D1EE
:101630000DE00368DD0F45EA440444605B0003608D
:10164000491E4468E302F4D5C4F3130343604368BE
:101650001A434260084630BC704700004FF4001C3B
:101660001CEB410F94BF1CEB430F09E041EA030C54
:1016700050EA4C0C52EA0C0C03D2994208BF90423B
:10168000704714BF8B428242704700004FF4001C29
:101690001CEB410F94BF1CEB430F09E041EA030C24
:1016A00050EA4C0C52EA0C0C03D28B4208BF824227
:1016B000704714BF994290427047000070B50446CD
:1016C0000D466068C0F30A5040F2FF71884207D1AE
:1016D0006068000304BF2068002817D0022070BD96
:1016E00020B92046FFF797FF012866DA012D0FDBAE
:1016F00040F2FF71091A8D420AD36068002847BF83
:1017000000202F4900202F49C4E90001012070BDAD
:101710004142A942616806DA6FF31E51401941EA5D
:101720000050606040E0401E63684519012205F1E9
:10173000350062F31F53352801F00041636003D385
:1017400061600020206070BD002015F11F0F04DAD9
:10175000206823600022203562606A4212D0401E59
:1017600025688041C2F12003C0439D4045EAD07006
:1017700025686668D54006FA03F32B432360636847
:10178000D340636062680A43B0F1004F626003D8DF
:101790000DD12078C0070AD52068401C2060206841
:1017A00028B96068401C60604FF0FF3070BD606811
:1017B000884204BF20680028F6D1002070BD00BF19
:1017C0000000F0FF0000F07FF446400D40EAC12029
:1017D000490006D200F014F8004248BF6FF0004004
:1017E000604700F00DF84FF0004188428CBF08467A
:1017F00040426047400D40EAC120490080F00D8022
:1018000040F00040490DA1F58061491C05D4D1F19B
:101810001F0154BFC840C01770474FF00000704709
:10182000010040F10980F446404200F005F851F013
:1018300000416047010000BF09D0B0FA80F1884044
:10184000C91CC1F58461090501EBD0214005704731
:10185000F0B44FF0004591EA030F44BF6B4000F035
:1018600057BB00BF841A71EB030604D26E40001B05
:10187000B141121973414FF4001C1CEB410F34BFEE
:101880007CEB430684E00C0DA4EB1356362E7DDC76
:10189000012E43DC45EAC32343EA525312BFD2026E
:1018A00092025B08240545EAC12141EA5051D2EB7E
:1018B000C020994125D407D1B0FA80F610FA06F17C
:1018C00064D00020203608E0B1FA81F6B140C6F1BC
:1018D000200220FA02F21143B0404FEAF474B4EB54
:1018E000465434F001064FEA74040AD8D6F50016BF
:1018F000760D04F00044F04061FA06F25040F140E9
:101900004840C00A40EA415021F0004128BF5FEA48
:10191000500550F1000044EBD12137E045EAC323E4
:10192000DB0A45EAC121C90AB6F120050EDD42EA0B
:101930000242120CC5F1200603FA06F6EB4042EA19
:1019400006056D42984161F100010DE062FA06F56D
:10195000F240554063FA06FC82EA0C02F3405A401A
:101960006D42904161EB030111F4801F05D1641EAB
:10197000620502D06D004041494121F480114308C5
:1019800075F1004350F1000041EB0451F0BC704789
:101990001CEB410F15D223F0004352EA43060BD053
:1019A0004FEA4C0CBCEB410F04D80C0D661E342ED4
:1019B000B7DDEBE7801A994150EA410608BF0021E4
:1019C000E4E708BF1CEB430F28BF6FF00001DDE721
:1019D000B0B581EA030C0CF0004C40F2FF7515EA3B
:1019E00011541DBF15EA1357AC42AF4239E0E41958
:1019F00023EA455343F48013C90241F0004141EA10
:101A0000505EC7021100A7FB020200284FF0000041
:101A1000EEFB01204FF00001E3FB072118BF42F06D
:101A20000102401800214941E3FB0E01A4F5806446
:101A30000F0302D252004041494154F101046CDDD0
:101A4000470872F1004250F1000051EB0451A1F53A
:101A500080115CBF41EA0C01B0BD4CEA0551002089
:101A6000B0BD05EA1357AC4214BFAF4241E050EAA3
:101A7000410E1CBF52EA430E02E061460020B0BD99
:101A800024423C441BD15FEA070EF6D0090302BF93
:101A900001460020AEF1140EB1FA81F7AEEB070457
:101AA00001FA07FE0C37C7F1200100FA07F7C8401A
:101AB0004EEA000E23EA455343F48013A2E733F0C5
:101AC0000043B3FA83F704BFB2FA82FE77440B3FB8
:101AD000E41BB7F1200E2FBF02FA0EF3BB40C7F193
:101AE000200E22FA0EFE38BF43EA0E03BA40641CF1
:101AF00082E750EA410E14BF52EA430E6FF0000134
:101B00004FF4001717EB430F8ABF194617EB410F2D
:101B1000B5E74CEA05510020B0BDD4F10104B4F1A1
:101B200020070FDAC4F12007520828BF42F0010253
:101B300010FA07F501FA07F7E1BF2A43E0403843FE
:101B4000E1400FE0352C98DCC7F1200452EA400256
:101B500020FA07F218BF42F0010231FA07F0A14063
:101B60000A43002172F1004250F1000051EB0C01D8
:101B7000B0BD00002DE9F04140F2FF7581EA030C91
:101B80000CF0004C15EA11541DBF15EA1357AC4276
:101B9000AF42E9E0BC41C1F31301C3F31303801A60
:101BA000994143F4801304D2641E400049418018D7
:101BB0005941C90241EA5051B1FBF3F603FB16113A
:101BC000A2FB0675D7EBC020A94102D2761E801871
:101BD0005941C90241EA5051B1FBF3FE03FB1E110A
:101BE000A2FB0E75D7EBC020A94103D2AEF1010EC6
:101BF00080185941890241EA9051760546EA8E2EB5
:101C0000B1FBF3F603FB1611A2FB0675D7EB8020A0
:101C1000A94102D2761E80185941C90241EA5051A9
:101C20004EEA060EB1FBF3F603FB1611A2FB067596
:101C3000D7EBC020A94102D2761E80185941C902B3
:101C400041EA5051B1FBF3F703FB1711A2FB073533
:101C5000D3EBC020A94167F100070CBF004247F059
:101C6000010766F3D5274FEA1E31B80814F58064E2
:101C700014DDBD0775F1004250EB0E5051EB0451DD
:101C800011F5801F5CBF41EA0C01BDE8F0814CF00A
:101C90007F6141F0E0410020BDE8F081BD076D08A3
:101CA00040EA0E5041F48011D4F10104B4F1200651
:101CB0000ADAC4F120060200E04001FA06F3E1402E
:101CC0001843B24015430EE0342C14DCC6F1200456
:101CD00045EA40056D0820FA06F2154321FA06F0A0
:101CE000A1400D43002175F1004250F1000051EB7D
:101CF0000C01BDE8F08100205FEA0C01BDE8F08135
:101D0000CFB992185B41B3FA83F704BFB2FA82F6F7
:101D1000BF190B3FB7F120062FBF02FA06F3BB40F5
:101D2000C7F1200622FA06F638BF3343BA401CB189
:101D3000E419641E2FE77F4231F00041B1FA81F4CB
:101D400004BFB0FA80F6A4190B3CB4F120062FBFF3
:101D500000FA06F1A140C4F1200620FA06F638BFC9
:101D60003143A0403C1B16E7AC421ABF05EA1357AB
:101D7000AF4214E050EA41061CBF52EA4306BFE7F7
:101D800050EA4107304661461CBF41EA0551BDE8B3
:101D9000F08152EA430C08BFC143BDE8F081002046
:101DA0004FF4001616EB410F98BF16EB430F08BF18
:101DB00016EB410F24BFC14305E016EB430F0CBFE8
:101DC00061464CEA0551BDE8F081000080B513483A
:101DD00000F008F90FF24C020FF244010160426278
:101DE00041600FF24402826381600FF24402C160DD
:101DF0000161416181618162C16201634163C263CA
:101E00000164416401BD10B5044800F0EBF80446DC
:101E1000206808B9FFF7DAFF204610BD1000002047
:101E2000000000002E00000066616C736500000079
:101E3000747275650000000091FBF2F303FB121150
:101E4000C0E900317047000010B50446DFF8180003
:101E500000F0C8F850F8240010BD80B5DFF8080085
:101E600000F0C0F8806902BDA400002030B430B991
:101E70000FF24800D0E90045C2E900451BE00170BF
:101E8000012030BC704730B431B90FF23800D0E9CE
:101E90000045C3E900450EE01AB930BC6FF00100FF
:101EA000704708B10A7802800978481E804130BC2A
:101EB000C043C00F7047002030BC704700000000D6
:101EC0000000000000000000000000000749086852
:101ED00008B1002070470648C008C00008600549E6
:101EE000C908C900091A0160704700BF600D0020D1
:101EF0001F0500201807002070470000F0B44FF0C5
:101F0000004591EA030C44BF6B40FFF7ABBC00BF38
:101F1000841A71EB030603D2001BB14112197341FD
:101F20004FF4001C1CEB410F34BF7CEB430443E037
:101F30000C0DA4EB1356352E50DC45EAC323DB0A07
:101F400045EAC121C912B6F120050DDD63FA05F697
:101F5000EB4086EA0305124218BF45F00105C018A0
:101F600051F100010CD213E062FA06F5F24055403F
:101F7000F3415A40B340F3405A408018594107D3C7
:101F800049085FEA30005FEA350528BF45F00105E2
:101F900001F58011420875F1004250F1000041EB5B
:101FA0000451F0BC4FF4001C1CEB410F38BF7047CC
:101FB0000020090D090570471CEB410F10D252EAB1
:101FC00043060BD0BCEB410F05D80C0DAB43661E8E
:101FD000342EB5DD02E0AB4380185941F0BC7047A8
:101FE000F0BC70477047000080B5DFF8500C006906
:101FF000DFF8481CC968401ADFF8401C8968401A9D
:102000000A21B0FBF1F0DFF8841C8860DFF82C0CAB
:102010000069DFF8281CC968DFF8742C1278521F99
:102020004FF47A7303FB0211884203D20120DFF8D8
:102030005C1C887000F0CCFFDFF8500CC07D0028DD
:102040002BD1DFF8480C8078002826D0DFF83C0C34
:10205000807D012821D0642001F023FDDFF82C0CC5
:10206000C07D002819D10020DFF8201C887400F002
:1020700091FF01224FF40071DFF8180C01F0FEFD12
:102080000120DFF8081C887500F084FF01224FF45E
:102090008071DFF8040C01F0F1FDDFF8F00BC07D7A
:1020A000012804D0DFF8E40B807800281ED1DFF887
:1020B000DC0B807D002819D00020DFF8D01B88754C
:1020C00000F068FF00224FF48071DFF8CC0B01F0C4
:1020D000D5FD0120DFF8B41B887400F05BFF0022FF
:1020E0004FF40071DFF8AC0B01F0C8FD01BD00B585
:1020F00083B0684601F027FEDFF8900B00780028D7
:1021000005D100220421DFF8940B01F0B7FDDFF8C0
:102110007C0B0078022805D101220421DFF87C0B1A
:1021200001F0ACFDDFF8640B0078052815D1BDF88F
:102130000600FA2190FBF1F201FB12007E2806DB7B
:1021400001220421DFF8540B01F098FD05E0002284
:102150000421DFF8480B01F091FDDFF8300B007827
:10216000082805D100220421DFF8300B01F086FD9C
:10217000DFF8180B0078012805D100220421DFF8D0
:102180001C0B01F07BFDDFF8040B0078062805D15D
:1021900000220421DFF8040B01F070FDDFF8EC0AE7
:1021A0000078072805D100220421DFF8F00A01F0A9
:1021B00065FD07BD80B5DFF8D40A0078052804D096
:1021C000DFF8C80A007804286BD1DFF8C00AC07BAA
:1021D000002817D0DFF8B40A407D012805D100207F
:1021E000DFF8A81A487500F0D5FEDFF8B42AD2E966
:1021F000000101F0AEFDB0F5FA7F03D90020DFF851
:102200008C1AC873DFF89C2AD2E9000101F0A1FD05
:10221000B0F5FA7F28D9DFF8740A407D012823D170
:10222000DFF8800A01F0BEFDDFF8940C00680A3088
:10223000DFF8081AC968884204D20020DFF8841C3D
:1022400008700BE0DFF87C0C0078FF2806D0DFF880
:10225000740C0078401CDFF86C1C0870DFF8DC0997
:10226000C068DFF85C1C0860DFF85C0C0078DFF801
:10227000541C0978884214D2DFF8100A407D0128E6
:1022800005D10020DFF8041A487500F083FE002015
:10229000DFF8301C0870DFF8F809007880B200F031
:1022A0001CFF01BD70B5DFF8242CD2E9000101F05C
:1022B00050FDFB28C0F0A880DFF8100C01F072FD83
:1022C000DFF8C8090078002804D1DFF8C009806869
:1022D00001F053FFDFF8B4090078022804D1DFF8D9
:1022E000AC09806801F0D7FFDFF8A0090078032867
:1022F00023D1DFF8DC0B4668300002F04BFA02F025
:1023000059FA0022DFF8CC3BFFF762FB04000D0016
:10231000DFF8C40B006802F04DFA02000B00200049
:102320002900FFF727FCFFF74FFA010089B264206C
:10233000B6FBF0F080B202F031F8DFF85009007817
:1023400004283ED1DFF84409407D002801D1012650
:1023500000E00026DFF8780B806802F02BFA0022FC
:10236000DFF8703BFFF734FB04000D00DFF8680B6B
:10237000006802F01FFA02000B0020002900FFF79E
:10238000F9FBFFF737FADFF8041948603300DBB2D6
:102390001C00DFF83C0B806802F034FA6421B0FBCB
:1023A000F1F22300DFF89408C068DFF8301B0968F9
:1023B000401A6421B0FBF1F1DFF8D008406802F068
:1023C00089F8DFF8C8080078052801D101F0C3FEBC
:1023D000DFF8B8080078082801D101F075FDDFF8B2
:1023E000AC080078012801D101F06EFDDFF89C08EF
:1023F0000078062801D101F067FDDFF89008007829
:10240000072801D101F060FD70BD00B583B00A203E
:1024100001F0DEF9684601F096FCDFF870080078FC
:10242000042822D00A2001F0C5F9002001F0BBF9F0
:102430009DF80500022190FBF1F201FB120000283B
:102440000AD0BDF80600642190FBF1F0D0F10A003B
:10245000C0B201F0B6F948E0BDF80600642190FB77
:10246000F1F0C0B201F0ADF93FE09DF805000221A6
:1024700090FBF1F201FB1200002818D0BDF8060015
:10248000642190FBF1F0C0B201F09BF9BDF80600A9
:10249000642190FBF1F0C0B201F08CF9BDF80600A8
:1024A000642190FBF1F0C0B201F07DF91DE0BDF8B0
:1024B0000600642190FBF1F0D0F10A00C0B201F0F7
:1024C00080F9BDF80600642190FBF1F0D0F10A001C
:1024D000C0B201F06FF9BDF80600642190FBF1F085
:1024E000D0F10A00C0B201F05EF907BD80B500F07E
:1024F00057FD00F04FFD01F0E7FCDFF89007007892
:10250000002812D100224FF48071DFF8D40901F0C5
:10251000B5FB00224FF40071DFF8C40901F0AEFBF7
:102520000020DFF86817887311E001224FF48071F2
:10253000DFF8AC0901F0A2FB01224FF40071DFF8D3
:10254000A00901F09BFB0120DFF840178873DFF83A
:102550003C07007802281BD101224FF48071DFF87C
:10256000800901F08BFB01224FF40071DFF8700944
:1025700001F084FB0120DFF8141788730020DFF8D6
:102580000C17487500F006FD0220DFF800170870F0
:10259000DFF8F8060078042810D1DFF8F00640785C
:1025A000032805D1DFF89406C068DFF83019086009
:1025B0000120DFF8D816487500F0ECFCDFF8CC06F7
:1025C000007805280ED1DFF8D80601F0EBFBDFF824
:1025D000BC06407D012805D10020DFF8B016487503
:1025E00000F0D8FCDFF8A4060078DFF8A0164870E9
:1025F00001BDF8B502F018F900F05FF900F054FBE6
:1026000000F0B3F900F0F0F900F02DFA00F03EFA16
:1026100000F07CFA00F0C4FA00F0EAFA00F010FBD7
:10262000DFF8C00802F030F902F0E3FD40F6B832FE
:102630000221102001F0C8FB0220DFF850160870BC
:102640000720DFF848164870FFF750FF322000F0EF
:102650001AFD01222021DFF83C0601F00FFB42E0C9
:102660000120DFF82816487500F094FC00F082FC89
:10267000002815D0DFF814060078052810D1DFF8FF
:102680002026D2E9000101F064FBB0F57A7F07D97A
:102690000420DFF8F8150870FFF728FF00F056FC5B
:1026A00000F068FC002806D0DFF8E005007802287A
:1026B00001D100F04BFC00F061FC002803D000F0D9
:1026C0006FFC00F048FC00F05DFC002803D000F037
:1026D00067FC00F045FC00F059FC002803D000F036
:1026E0005FFC00F042FCFFF77FFC02F09BFAFFF773
:1026F000D9FDFFF75FFDFFF7FAFCFFF786FEDFF875
:102700008C05007804286DD1DFF88005C07B002897
:1027100005D00520DFF874150870FFF7E7FEDFF835
:10272000B0074068FFF786F806000F00DFF80C05D9
:10273000C068FFF77FF804000D00DFF8A00700680D
:10274000FFF778F802000B0020002900FFF780F85F
:102750000022DFF89437FFF70DFA04000D00DFF8D0
:102760007807006802F026F822002B00FFF730F906
:1027700002000B0030003900FFF76AF802F09CFEFF
:10278000DFF84C178860DFF848078068002102F006
:10279000DBFE27D8DFF8A404C068DFF8A014C968FE
:1027A00010F114029142F8D30220DFF8E01408700F
:1027B000FFF79CFEDFF818070068DFF81417496878
:1027C0000C18DFF80C07806802F01CF8201ADFF8FC
:1027D000001708600020DFF8F81648600020DFF8D6
:1027E000F0168860DFF8E806406800280AD0DFF8B5
:1027F0009C040078022805D10320DFF890140870AB
:10280000FFF774FEDFF884048068DFF8E0160978CB
:102810006422514388420AD2DFF87004007802280B
:1028200005D10020DFF864140870FFF75FFEDFF8C1
:102830005C048068DFF8B41609786422514388424A
:102840000AD3DFF848040078002805D10220DFF819
:102850003C140870FFF74AFE00F08CFB00280ED0F5
:10286000DFF828040078032809D100F099FB042040
:10287000DFF818140870FFF739FE00F067FB00F06E
:1028800079FB00283FF4F2AEDFF80004007804285A
:102890007FF4ECAE00F084FB00F07CFB00F056FB14
:1028A000DFF8E803407D01287FF4DAAE0020DFF88E
:1028B000DC13487500F06EFBD8E600B593B001203C
:1028C00009905FF480300A9000200B9001200D9059
:1028D000022010905FF4803011905FF4801012900D
:1028E00009A802F043FE002805D04FF4D271DFF8AA
:1028F000000600F029FB0F20049002200590002024
:1029000006904FF48060079000200890012104A8F1
:1029100003F055F8002805D04FF4D971DFF8D00541
:1029200000F012FB022000904FF4804002906846B5
:1029300003F086F9002805D040F2B911DFF8B005A0
:1029400000F002FB03F02EF94FF47A71B0FBF1F0C6
:1029500003F082FA042003F083FA002200215FF0E2
:10296000FF3003F063FA13B000BDE0B5DFF8840573
:10297000DFF8841508600020DFF87C1588600020EF
:10298000DFF87415C8600020DFF86C1548615FF44B
:102990006020DFF86415C8610020DFF85C1548602E
:1029A0000120DFF854150861DFF84C0503F07EFACA
:1029B000002805D040F2D911DFF8340500F0C4FA40
:1029C0001020009001200190002002906946DFF85D
:1029D000280503F006FB002805D040F2E311DFF8DC
:1029E000100500F0B1FA07BD80B5DFF81005DFF87B
:1029F000101508601020DFF8081548600020DFF887
:102A0000001588600020DFF8F814C8600020DFF8A7
:102A1000F01408610020DFF8E81448610020DFF8B6
:102A2000E01488610020DFF8D814C8610020DFF8C6
:102A3000D01408620020DFF8C81448620020DFF8D4
:102A4000C01488620020DFF8B814C862DFF8B00450
:102A500003F09CFB002805D04FF4FD71DFF89004D3
:102A600000F072FA01BD80B5DFF89804DFF8981421
:102A70000860DFF8940403F033FC002805D040F22E
:102A80000621DFF86C0400F05FFA01BD80B5DFF8C5
:102A90007C04DFF87C1408600020DFF874144860C0
:102AA0000020DFF86C1488600020DFF86414C86030
:102AB0000020DFF85C1408610020DFF8541448613E
:102AC0004FF40070DFF8481488610020DFF84014EC
:102AD000C8610020DFF8381408620020DFF83014E5
:102AE00048620020DFF8281488620A20DFF82014EA
:102AF000C862DFF81C0403F005FC002805D040F292
:102B00001D21DFF8EC0300F01FFA01BD00B587B00E
:102B1000DFF80004DFF8CC1308602F20DFF8C413BF
:102B200048600020DFF8BC13886040F2E730DFF82F
:102B3000B413C8604FF40070DFF8A81308610020D8
:102B4000DFF8A0138861DFF89C0301F081FE002804
:102B500005D040F23121DFF8980300F0F5F94FF489
:102B60008050029002A9DFF87C0301F056FF002894
:102B700005D040F23721DFF8780300F0E5F90020B6
:102B80000090002001906946D64803F001FC00281F
:102B900004D040F23E21D64800F0D6F907B000BD7F
:102BA00080B5DFF87403DFF8741308604FF4165033
:102BB000DFF8681348600020D84988600020D749B2
:102BC000C8600020D54908610C20D4494861002024
:102BD000D24988610020D149C861D04803F006FC81
:102BE000002804D040F25121C14800F0ADF901BDE8
:102BF00080B5CB48CB4908604FF41650C9494860AE
:102C00000020C84988600020C649C8600020C54926
:102C100008610C20C34948610020C2498861002036
:102C2000C049C861BF4803F0E1FB002804D04FF45D
:102C30001971AF4800F088F901BD0000480C002070
:102C400080B5B948B94908604FF41650B749486093
:102C50000020B64988600020B449C8600020B3490C
:102C600008610C20B14948610020B049886100200A
:102C7000AE49C861AD4803F0B9FB002804D040F26A
:102C800077219B4800F060F901BD00002C0C00206A
:102C9000120100200010014000080140000C01401A
:102CA000B80C0020C00C002000B585B0A04800681A
:102CB00050F040009E4908609D48006810F04000B8
:102CC000009000989A48006850F0100098490860F9
:102CD0009748006810F01000009000989448006831
:102CE00050F00400924908609148006810F0040018
:102CF000009000988E48006850F008008C490860E9
:102D00008B48006810F00800009000988848006820
:102D100050F02000864908608548006810F02000C7
:102D200000900098002240F2FF31824800F0A6FF98
:102D3000002248F2C311804800F0A0FF002241F2B7
:102D400007017E4800F09AFF00224FF680717C4810
:102D500000F094FF00224FF47F41614800F08EFFA5
:102D60003C200190774802900020039001A974480C
:102D700000F0A0FE432001907248029001200390D1
:102D800001A96F4800F096FE4FF47C4001906D4819
:102D900002900120039001A9664800F08BFE40F2EA
:102DA000FF300190012002900220049001A96148A7
:102DB00000F080FE48F2C310019001200290022032
:102DC000049001A95C4800F075FE41F207000190F3
:102DD000012002900220049001A9584800F06AFEE8
:102DE0004FF680700190012002900220049001A90A
:102DF000534800F05FFE4FF47F40019001200290A5
:102E00000220049001A9364800F054FEFF200190F2
:102E1000002002900120039001A9314800F04AFEF1
:102E200078200190002002900120039001A94348DE
:102E300000F040FE4FF46070019042480290012083
:102E4000039001A93D4800F035FE00220221062032
:102E500002F0ECFF062002F0FAFF00220221072018
:102E600002F0E4FF072002F0F2FF00220221082016
:102E700002F0DCFF082002F0EAFF00220221092014
:102E800002F0D4FF092002F0E2FF002202210A2012
:102E900002F0CCFF0A2002F0DAFF00220221172004
:102EA00002F0C4FF172002F0D2FF002202212820E6
:102EB00002F0BCFF282002F0CAFF05B000BD0000F0
:102EC000440D00207E0D002010010020C80C0020C1
:102ED0008C0C00200000244008000020400D002041
:102EE00000140140FC0A002000408F401101002026
:102EF000DC76000800240140FC0B00200064004048
:102F0000B80A002000300240B00C00200038004019
:102F1000180A002000040040003801403C0B00204B
:102F2000004400407C0B002000480040BC0B002007
:102F3000181002400010014000080140000C014040
:102F40000018014000001110FEE700000020DFF82B
:102F5000441A087070470020DFF8401A0870704764
:102F60000020DFF83C1A087070470020DFF8341AA0
:102F700008707047DFF81C0A00787047DFF81C0AF9
:102F800000787047DFF8180A00787047DFF8140AF5
:102F90000078704780B5DFF8100A00F003FF01BD2C
:102FA00080B5DFF8080A00F0FDFE01BD80B54021C4
:102FB000DFF8FC0900F059FE002804D00020DFF8FB
:102FC000F419487603E00120DFF8E819487601BDDE
:102FD00080B51021DFF8D80900F047FE002804D0A2
:102FE0000020DFF8D019C87503E00120DFF8C4190C
:102FF000C87501BD80B52021DFF8B40900F035FEA9
:10300000002804D00120DFF8AC19087603E0002086
:10301000DFF8A019087601BD80B50821DFF8900916
:1030200000F023FE002804D00120DFF888198876FC
:1030300003E00020DFF87C19887601BD38B5DFF8A1
:1030400078090068401CDFF870190860DFF868092B
:103050000068FEF7EFFB0022DFF86039FEF7B8FCEE
:1030600004000D00DFF858090068FEF7E3FB0200DA
:103070000B0020002900FEF77DFDFEF7BBFBDFF80B
:103080004419086131BD38B5DFF8341909680A22DE
:10309000B1FBF2F180B200FB01F0DFF81C1908600F
:1030A000DFF814090068FEF7C5FB0022DFF80C39D1
:1030B000FEF78EFC04000D00DFF804090068FEF73F
:1030C000B9FB02000B0020002900FEF753FDFEF7BC
:1030D00091FBDFF8F018086131BD38B5DFF8E01872
:1030E00009680A22B1FBF2F180B200FB01F0DFF8BF
:1030F000C8180968884207D2DFF8BC180968081A9E
:10310000DFF8B418086003E00020DFF8AC180860AE
:10311000DFF8A4080068FEF78DFB0022DFF89C387A
:10312000FEF756FC04000D00DFF894080068FEF777
:1031300081FB02000B0020002900FEF71BFDFEF7BB
:1031400059FBDFF88018086131BD80B5DFF86808E9
:10315000C068401CDFF86018C860DFF86C28D2E94E
:10316000000100F0F6FDB0F5FA7F07D2DFF85C0849
:103170000078401CDFF85418087003E00020DFF8E6
:103180004C180870DFF8440800781A2803DB012087
:10319000DFF82018C873DFF8300800F003FE01BD27
:1031A00038B5DFF814088068401CDFF80C18886018
:1031B000DFF804088068FEF73DFB0022DFF8FC37EB
:1031C000FEF706FC04000D00DFF8F4070068FEF7C8
:1031D00031FB02000B0020002900FEF7CBFCFEF7BC
:1031E00009FBDFF8E0178860DFF8E427D2E9000187
:1031F00000F0AFFDB0F5FA7F07D2DFF8D80700780E
:10320000401CDFF8D017087003E00020DFF8C41777
:103210000870DFF8BC0700F0C5FDDFF8B8070078DC
:103220001A2852DB0020DFF88C178870DFF894072B
:103230000169DFF89007C268DFF87C070068DFF8F3
:1032400080371B680A24B3FBF4F3DFF88C4724783B
:10325000891ADFF870279268891A4FF47A72B1FBE5
:10326000F2F1611A01FB0300DFF84C170860DFF888
:1032700048070068FEF7DEFA0022DFF84037FEF765
:10328000A7FB04000D00DFF838070068FEF7D2FA4C
:1032900002000B0020002900FEF76CFCFEF7AAFAE2
:1032A000DFF820170861DFF81C070069DFF8141742
:1032B000C968401ADFF80C178968401A4FF47A7110
:1032C000B0FBF1F0DFF8EC16886031BD38B5DFF8FF
:1032D000E8064068401CDFF8E0164860DFF8D806D2
:1032E0004068FEF7A7FA0022DFF8D036FEF770FB41
:1032F00004000D00DFF8E4060068FEF79BFA020008
:103300000B0020002900FEF735FCFEF773FADFF80A
:10331000B416C86031BD10B5DFF8C4060078411C92
:10332000DFF8BC261170C0B20528C0F2228100204F
:10333000DFF8AC160870DFF8AC060478601CDFF824
:10334000A41608700221DFF8680600F08EFCDFF892
:103350009816E4B20855DFF88C0600780A2803DBDB
:103360000020DFF880160870DFF88006007800285B
:1033700004D1DFF87C060078012846D1DFF8680622
:103380000078DFF8641649780818DFF85C16897849
:103390000818DFF85416C9780818DFF84C160979B0
:1033A0000818DFF8441649790818DFF83C168979BF
:1033B0000818DFF83416C9790818DFF82C16097ACE
:1033C0000818DFF82416497A081800281DD10020B3
:1033D000DFF81C160870DFF814060078002810D1FA
:1033E000DFF8E0054068401CDFF8D8154860DFF8DA
:1033F000C8054068DFF8FC1508600120DFF8F81503
:1034000008700020DFF8E4150870DFF8E0050078A8
:10341000002804D1DFF8D8050078002846D1DFF86D
:10342000C8050078DFF8C01549780818DFF8B81526
:1034300089780818DFF8B015C9780818DFF8A815DA
:1034400009790818DFF8A01549790818DFF89815E8
:1034500089790818DFF89015C9790818DFF88815F8
:10346000097A0818DFF88015497A08180A281DD14A
:103470000120DFF87C150870DFF87005007800285F
:1034800010D1DFF840054068401CDFF8381548606F
:10349000DFF824054068DFF8641508600120DFF8D4
:1034A000581508700020DFF844150870DFF848054B
:1034B000007800285DD00020DFF83C150870DFF8A8
:1034C00034050068002854D0DFF830050068002873
:1034D0004FD0DFF82C050078411CDFF8242511704F
:1034E000DFF818150968DFF80C251268914207D239
:1034F000DFF800150968DFF804251268891A06E06C
:10350000DFF8F8140968DFF8EC241268891ADFF88C
:10351000F424C0B242F82010DFF8E4040078042854
:1035200027DB0020DFF8D8140870DFF8D804006823
:10353000DFF8D0148968401A03F00EFA642818DA0C
:10354000DFF8C0044068DFF8BC14C968401A03F013
:1035500003FA64280DDA0020002106E0DFF8A42435
:10356000C9B252F821201018491CC9B20429F5DB50
:10357000400810BD10B5DFF890040078411CDFF85A
:1035800088241170C0B20528C0F20C810020DFF839
:1035900078140870DFF874040478601CDFF86C1489
:1035A00008700421DFF8080400F05FFBDFF8601406
:1035B000E4B20855DFF8540400780A2803DB002041
:1035C000DFF848140870DFF84C040078002804D1B4
:1035D000DFF844040078012846D1DFF8340400788D
:1035E000DFF82C1449780818DFF8241489780818B3
:1035F000DFF81C14C9780818DFF8141409790818C2
:10360000DFF80C1449790818DFF8041489790818D0
:10361000DFF8FC13C9790818DFF8F413097A0818E1
:10362000DFF8EC13497A081800281DD10020DFF8D4
:10363000E8130870DFF8DC030078002810D1DFF809
:1036400084030068401CDFF87C130860DFF868031F
:103650000068DFF8C81308600120DFF8C4130870A1
:103660000020DFF8B0130870DFF8A8030078002806
:1036700004D1DFF8A4030078002843D1DFF89003D9
:103680000078DFF88C1349780818DFF884138978FC
:103690000818DFF87C13C9780818DFF87413097963
:1036A0000818DFF86C1349790818DFF86413897972
:1036B0000818DFF85C13C9790818DFF85413097A81
:1036C0000818DFF84C13497A08180A281AD1012083
:1036D000DFF844130870DFF83C03007800280DD1B0
:1036E000B8480068401CB7490860B3480068DFF874
:1036F000341308600120DFF8281308700020DFF879
:1037000014130870DFF81803007800284AD000204E
:10371000C3490870C1480068002843D0C148006808
:1037200000283FD0C0480078411CBF4A1170BD49F5
:103730000968BA4A1268914205D2B8490968B94A7B
:103740001268891A04E0B7490968B44A1268891AEC
:10375000B64AC0B242F82010B3480078042821DBF2
:103760000020B1490870B1480068B0498968401A22
:1037700003F0F2F8642815DAAC484068AB49C96830
:10378000401A03F0E9F864280CDA0020002105E073
:10379000A64AC9B252F821201018491CC9B20429FE
:1037A000F6DB400810BDC0B20B2800DB0A20A049A0
:1037B00008707047C0B20B2800DB0A209C49887053
:1037C0007047C0B20B2800DB0A2099494870704747
:1037D000C0B20B2800DB0A209549C870704710B5AD
:1037E0000400714AD2E9000100F0B3FA332864D32F
:1037F000A4B2B4F5807F04D18E480088401C8D4966
:103800000880A4B2042C06D1FFF760FD8A48008826
:10381000401C89490880A4B2082C06D1FFF7C0FCDF
:1038200086480088401C85490880A4B2102C06D127
:10383000FFF78BFC82480088401C81490880A4B2B5
:10384000202C06D1FFF7FAFB7E480088401C7D49FA
:103850000880A4B2012C04D17B480088401C7A491E
:103860000880A4B2802C04D178480088401C774995
:103870000880A4B2B4F5007F04D175480088401CCC
:1038800073490880A4B2B4F5806F04D171480088F0
:10389000401C70490880A4B2B4F5006F04D16E4892
:1038A0000088401C6C490880A4B2B4F5805F04D144
:1038B0006A480088401C694908803C4AD2E90001F6
:1038C00000F047FA332861D3A4B2022C1BD1644A1A
:1038D000D2E9000100F03DFAB0F5FA7F13D90520D6
:1038E00000F0DFF802215F4800F0BFF900284FD058
:1038F0005B4800F057FA0120264908705A480078C2
:10390000401C59490870A4B2B4F5005F0CD1574A65
:10391000D2E9000100F01DFAC92805D3534800F090
:1039200041FA01201C490870A4B2B4F5804F0CD1B3
:103930004F4AD2E9000100F00CFAC92805D34C48DF
:1039400000F030FA012017490870A4B2B4F5004F16
:103950000CD1484AD2E9000100F0FBF9C92805D38F
:10396000444800F01FFA01200C490870A4B2402C12
:103970000CD1414AD2E9000100F0EBF9C92805D386
:103980003D4800F00FFA0120054908703B480480CB
:1039900010BD0000810D0020820D0020830D00204D
:1039A000840D0020850D0020E80C0020E00C002094
:1039B000001401402C0C00205C0C00200088C34047
:1039C00000000020480C0020F00C0020860D002094
:1039D000F80C0020870D00201201002004000020B8
:1039E0008A0D0020880D0020980C00201301002073
:1039F000890D0020480D00208B0D00204C0D00206B
:103A00008C0D00206C0C00208F0D00208D0D0020EF
:103A1000A40C0020140100208E0D0020500D002069
:103A2000900D0020540D0020910D00207C0C0020F2
:103A3000580D0020660D0020680D00206A0D002042
:103A40006C0D00206E0D0020700D0020720D002006
:103A5000740D0020760D0020780D00207A0D0020D6
:103A6000000D002000180140920D0020080D0020DC
:103A7000100D0020180D0020200D0020640D0020E6
:103A800002B44FF00E0101FB00F04FF0240190FB57
:103A9000F1F10844C82880F2098000BF00BF033854
:103AA00004E002B44FF4615101FB00F00138FDD88D
:103AB00002BC7047F8B4002500240025002200262F
:103AC000002307E0DFF8E4512D6835EA0404774D60
:103AD0002C605B1C102B80F0C680012414FA03F5C7
:103AE0000C682C40AC42F4D14E68002E27D0012E39
:103AF0001AD0022E1DD0032E2FD0112E16D0122E2A
:103B00001AD06B4FBE421AD06A4FBE4217D06A4FCE
:103B1000BE4214D0694FBE4211D0694FBE420ED092
:103B2000684FBE420BD01AE0CA6818E0CA68121D7E
:103B300015E0CA68083212E0CA680C320FE08A68E1
:103B4000002A01D1042207E08A68012A02D1082252
:103B5000056101E00822456101E00022FFE7FF2C3A
:103B600001D8050000E0051DFF2C01D89E0002E0F1
:103B7000B3F10806B6002F685FF00F0C1CFA06FCC4
:103B800037EA0C0712FA06F63E432E604D68ED0048
:103B90009FD54D4D2D6855F001054B4E35604A4D72
:103BA0002D6815F001050095009D484D9E0855F8BB
:103BB00026500F2613F00307FFB2BF00BE40B543E7
:103BC000434EB04201D100260FE0424EB04201D137
:103BD00001260AE0404EB04201D1022605E03F4EE8
:103BE000B04201D1032600E0042613F00307FFB220
:103BF000BF00BE403543354E9F0846F827504D68FC
:103C0000ED0305D5364D2D682543354E356004E06E
:103C1000334D2D68A543324E35604D68AD0305D553
:103C2000304D2D6825432F4E356004E02D4D2D6815
:103C3000A5432C4E35604D68ED0205D52A4D2D6803
:103C40002543294E356004E0274D2D68A543264EB7
:103C500035604D68AD027FF535AF144D2D682C43AE
:103C6000124D2C6035E7F1BC7047806889B208427C
:103C700001D0012000E00020C0B27047D2B2002A7B
:103C800002D089B2016102E089B209040161704782
:103C900080B51649096880B2014205D080B2134947
:103CA000086080B2FFF79BFD01BD00000C040140DD
:103CB000000011100000121000002110000022105E
:103CC00000003110000032101810024008000140BE
:103CD00000080140000C01400010014000140140A8
:103CE00000040140040401400804014014040140A0
:103CF0003348C088401C3249C8803148C088B0F57C
:103D00007A7F07DB00202E49C8802D484079401C6F
:103D10002B4948712A4840793C2807DB0020284974
:103D2000487127480079401C2549087124480079CA
:103D30003C2807DB00202249087121480068401C0C
:103D40001F49086070471E49D1E90023C0E90023DC
:103D5000704703B41A4800681A49194A12794EF696
:103D600060235A4301FB0020154949794FF47A72C8
:103D700002FB01001249C98808180099114A02FB88
:103D800011009DF804104EF6602202FB11009DF810
:103D900005104FF47A7202FB1100BDF80610401AAC
:103DA00002B0704706490968016005490979017147
:103DB0000349497941710249C988C18070470000AF
:103DC000280D002080EE360070B58AB006000C0089
:103DD000150000F076F94AF6C870FFF751FEDFF8DB
:103DE0005009C470DFF8480906710020DFF8401957
:103DF00048710020DFF8381988710020DFF8301989
:103E00004870E4B2022C07DBDFF82409407850F058
:103E10000800DFF81C194870032000F0E2F841F2B6
:103E20008830FFF72DFE032000F0DBF841F28830E8
:103E3000FFF726FE032000F0D4F841F28830FFF7A8
:103E40001FFE022000F0CDF8C820FFF719FEDFF8B2
:103E5000E008407850F02000C0B200F09EF8042046
:103E6000DFF8CC18087000F086F800F02DF802207A
:103E7000DFF8BC188870DFF8B808807850F00400CC
:103E8000C0B200F08AF841F28830FFF7F9FD05A8CA
:103E9000DFF8A0181422FDF7DBFA05AA00210020A4
:103EA00000F01BF86846DFF890181422FDF7D0FAEE
:103EB0006A460121002000F010F82800FFF7F1FD0C
:103EC00000F002F80AB070BD80B5012000F065F87E
:103ED00040F6AC50FFF7D4FD01BD10B51400C9B2D7
:103EE000C0B200F0CFF80AE0207800F068F8DFF800
:103EF00040084079401CDFF838184871641C20786D
:103F0000002837D0DFF828084079DFF8241809792D
:103F1000884212D30020DFF818184871DFF8100823
:103F20008079401CDFF808188871DFF8040881796F
:103F3000DFF8FC07407900F0A5F820780A280FD1B7
:103F4000DFF8EC078079401CDFF8E4178871DFF8B0
:103F5000E0078179DFF8D807407900F093F8CDE7E2
:103F600020780D28C0D1DFF8C8078179002000F043
:103F700089F8C3E710BD80B5DFF8B407007850F0CA
:103F80000400DFF8AC170870DFF8A407007850F0E1
:103F90000800C0B200F001F801BD10B50400002215
:103FA0000221DFF89C07FFF769FE2000C0B200097C
:103FB00000F017F814F00F0000F013F810BD10B562
:103FC000040001220221DFF87807FFF757FE2000E6
:103FD000C0B2000900F005F814F00F0000F001F87D
:103FE00010BD10B50400200706D501220121DFF81D
:103FF0004C07FFF743FE05E000220121DFF83C07F4
:10400000FFF73CFE600706D501220221DFF82C07EE
:10401000FFF734FE05E000220221DFF82007FFF75A
:104020002DFEA00706D501220421DFF81007FFF7B7
:1040300025FE05E000220421DFF80007FFF71EFE41
:10404000E00706D501220821DFF8F006FFF716FE8B
:1040500005E000220821DFF8E406FFF70FFE012249
:104060000121DFF8DC06FFF709FE3C20FFF708FD21
:1040700000220121DFF8C806FFF700FE3C20FFF711
:10408000FFFC10BD10B582B06A46DFF8B8361C6878
:1040900014600A00DFF89836DB78D2B29A4200D377
:1040A0000021DFF88C265071DFF8842691716A4672
:1040B000C9B2515C081850F08000C0B2FFF76DFF24
:1040C00013BD80B501220821DFF87006FFF7D6FD89
:1040D00000220821DFF86406FFF7D0FD0122042149
:1040E000DFF85806FFF7CAFD00220421DFF84C066E
:1040F000FFF7C4FD01220221DFF84006FFF7BEFDF5
:1041000000220221DFF83406FFF7B8FD0122012169
:10411000DFF82806FFF7B2FD00220121DFF81C06B8
:10412000FFF7ACFD01220121DFF81406FFF7A6FD21
:1041300000220121DFF80806FFF7A0FD012202217D
:10414000DFF8FC05FFF79AFD00220221DFF8F005F9
:10415000FFF794FD01BD80B5DFF8EC2501210020BB
:10416000FFF7BBFEDFF8EC050088ADF800006A46FB
:1041700001210920FFF7B1FE01BD10B588B0040090
:10418000D3A200210020FFF7A8FE02A8DFF8BC158B
:104190000A68026002AA00210320FFF79EFEDFF8F2
:1041A000B02500210420FFF798FE42F210708442EF
:1041B00001D342F20F746420B4FBF0F06421B0FB31
:1041C000F1F130318DF800109DF80010302902D146
:1041D00020218DF800106421B0FBF1F201FB1201E7
:1041E0000A22B1FBF2F130318DF801109DF8011077
:1041F000302906D19DF80010202902D120218DF808
:1042000001100A21B0FBF1F201FB120030308DF8F1
:10421000020000208DF803000DF1010200210920A9
:10422000FFF75BFE6420B4FBF0F100FB11402C2192
:104230008DF800100A21B0FBF1F130318DF801103A
:104240000A21B0FBF1F201FB120030308DF80200C0
:1042500000208DF803006A4600210B20FFF73DFE89
:10426000A7208DF808002E208DF8090000208DF879
:104270000A0002AA00210E20FFF72FFE03A8DFF894
:10428000D8141422FDF7E4F803AA01210020FFF757
:1042900024FE08B010BD10B58CB0040002A8DFF8F1
:1042A000BC141422FDF7D4F802AA00210020FFF765
:1042B00014FEDFF8AC04844201D3DFF8A844642084
:1042C000B4FBF0F06421B0FBF1F130318DF8001057
:1042D0009DF80010302902D120218DF800106421B2
:1042E000B0FBF1F201FB12010A22B1FBF2F1303115
:1042F0008DF801109DF80110302906D19DF80010AD
:10430000202902D120218DF801100A21B0FBF1F201
:1043100001FB120030308DF8020000208DF8030000
:104320006A4600210820FFF7D8FD6420B4FBF0F1B5
:1043300000FB11402C218DF800100A21B0FBF1F197
:1043400030318DF801100A21B0FBF1F201FB1200AF
:1043500030308DF8020000208DF803006A460021FD
:104360000B20FFF7BAFDA7208DF808002E208DF84E
:10437000090000208DF80A0002AA00210E20FFF794
:10438000ACFD07A8DFF8E0131422FDF761F807AAD7
:1043900001210020FFF7A1FD0CB010BD10B58AB0BF
:1043A0000C0080B2B0F57A7F01DB40F2E73080B2DA
:1043B000642190FBF1F130318DF800109DF8001070
:1043C000302902D120218DF8001080B2642190FBA9
:1043D000F1F201FB12010A2291FBF2F130318DF86A
:1043E00001109DF80110302906D19DF800102029F8
:1043F00002D120218DF8011080B20A2190FBF1F248
:1044000001FB120030308DF8020000208DF803000F
:104410006A4600210020FFF760FD02A8DFF84C1378
:10442000D1E90023C0E9002302AA00210320FFF7FD
:1044300054FDA4B2B4F57A7F01DB40F2E734A4B2B4
:10444000642094FBF0F030308DF800009DF80000FF
:10445000302802D120208DF80000A4B2642094FB03
:10446000F0F100FB11400A2190FBF1F030308DF8A3
:1044700001002E208DF80200A4B20A2094FBF0F176
:1044800000FB114030308DF8030000208DF804004F
:104490006A4600210920FFF720FDA7208DF80000C3
:1044A0002E208DF8010000208DF802006A460021C0
:1044B0000E20FFF712FD04A8DFF8B4121422FCF757
:1044C000C7FF04AA01210020FFF707FD0AB010BDB5
:1044D00048452000F0B58FB004000E0015001F0005
:1044E00009A8DFF890121422FCF7B2FF04A8DFF845
:1044F00088121422FCF7ACFFFFB2002F05D004AAEB
:1045000000210020FFF7E9FC04E009AA00210020B7
:10451000FFF7E3FCB6F57A7F01D340F2E736642E6D
:104520002ED36420B6FBF0F030308DF800009DF8FB
:104530000000302802D120208DF800006420B6FB56
:10454000F0F100FB11600A21B0FBF1F030308DF882
:1045500001009DF80100302806D19DF800002028B8
:1045600002D120208DF801002C208DF802000A20B5
:10457000B6FBF0F100FB116030308DF8030013E062
:1045800020208DF800000A20B6FBF0F030308DF8C6
:1045900001002C208DF802000A20B6FBF0F100FB90
:1045A000116030308DF8030000208DF804006A4659
:1045B00000210920FFF791FCA7208DF800002E2094
:1045C0008DF8010000208DF802006A4600210D20C0
:1045D000FFF783FCB4F57A7F01D340F2E734642C13
:1045E0002ED36420B4FBF0F030308DF800009DF83D
:1045F0000000302802D120208DF800006420B4FB98
:10460000F0F100FB11400A21B0FBF1F030308DF8E1
:1046100001009DF80100302806D19DF800002028F7
:1046200002D120208DF801002C208DF802000A20F4
:10463000B4FBF0F100FB114030308DF8030013E0C3
:1046400020208DF800000A20B4FBF0F030308DF807
:1046500001002C208DF802000A20B4FBF0F100FBD1
:10466000114030308DF8030000208DF804006A46B8
:1046700001210020FFF731FC20208DF80000A72049
:104680008DF801002E208DF802002D208DF80300FA
:1046900000208DF804006A4601210420FFF71DFC6C
:1046A0006420B5FBF0F030308DF800009DF800007C
:1046B000302802D120208DF800009DF8000030281D
:1046C00002D120208DF800006420B5FBF0F100FB42
:1046D00011500A21B0FBF1F030308DF801009DF847
:1046E0000100302806D19DF80000202802D12020AA
:1046F0008DF801000A20B5FBF0F100FB11503030BD
:104700008DF8020000208DF803006A460121082080
:10471000FFF7E3FB02A8DFF86410D1E90023C0E94A
:10472000002302AA01210B20FFF7D7FB0FB0F0BD39
:10473000300D00202478000838780008001001406F
:1047400000080140347900084C78000838790008E6
:104750001C790008FE1200086078000874780008D0
:10476000A08601009F86010088780008247900084F
:104770009C780008B0780008C47800082C790008FC
:10478000002840F10980F446404200F005F850F05E
:1047900000406047002800BF0AD0B0FA80F188408E
:1047A000D1F19D01C905020672F1004241EB1020D2
:1047B000704700005FF0FF0C1CEAD05114BF614548
:1047C00006E0C110400721F0E04101F1605170475F
:1047D00079B900F0004100020AD0B0FA80FC00FA7A
:1047E0000CF001F16051A1EB0C5101EBD02140051F
:1047F000704741020CBF40F4E0016FF0000100205F
:104800007047000040000DD2010E7F390AD4D1F16B
:104810001F0104D4C00140F00040C84070477FF041
:10482000000070470020704780B50848006850F0CD
:10483000100006490860032001F0F4FA002002F09D
:104840008FF802F0A1F8002002BD00000020024015
:1048500010B50400002C01D1012014E094F83D00B3
:10486000002805D1002084F83C00200002F05EF909
:10487000022084F83D00211D206800F05AF9012033
:1048800084F83D00002010BD0168C96851F00101A5
:104890000268D1600168096851F001010068016097
:1048A0000020704710B504002068006980071AD501
:1048B0002068C068800716D57FF002002168086173
:1048C000012020772068806910F0030F03D02000BA
:1048D00002F0E0F905E0200002F0DDF9200002F02E
:1048E000DBF9002020772068006940071AD520688E
:1048F000C068400716D57FF00400216808610220D7
:1049000020772068806910F4407F03D0200002F0F7
:10491000C1F905E0200002F0BEF9200002F0BCF968
:10492000002020772068006900071AD52068C06839
:10493000000716D57FF00800216808610420207761
:104940002068C06910F0030F03D0200002F0A2F924
:1049500005E0200002F09FF9200002F09DF9002000
:10496000207720680069C0061AD52068C068C00694
:1049700016D57FF010002168086108202077206894
:10498000C06910F4407F03D0200002F083F905E0F5
:10499000200002F080F9200002F07EF9002020774C
:1049A00020680069C0070AD52068C068C00706D51E
:1049B0007FF0010021680861200002F06EF9206894
:1049C000006900060AD52068C068000606D57FF099
:1049D000800021680861200002F060F92068006909
:1049E00040060AD52068C068400606D57FF0400022
:1049F00021680861200002F052F9206800698006F1
:104A00000AD52068C068800606D57FF0200021689E
:104A10000861200002F044F910BD10B50400002028
:104A200094F83C00012801D1022081E0012084F8A3
:104A30003C00022084F83D002068806830F0770058
:104A400030F47F40226890600868002855D0102814
:104A500058D020285BD030285ED0402843D0502842
:104A60002DD0602835D070280DD0B0F5805F03D0F0
:104A7000B0F5005F16D054E020688068C008C00020
:104A8000216888604DE0CB684A688968206800F03A
:104A9000BCF82068806830F0770050F0770021681B
:104AA00088603EE0CB684A688968206800F0ADF80D
:104AB0002068806850F480402168886031E0CA68CE
:104AC0004968206800F06EF85021206800F093F8E3
:104AD00027E0CA684968206800F078F860212068FB
:104AE00000F089F81DE0CA684968206800F05AF8AB
:104AF0004021206800F07FF813E00021206800F0DA
:104B00007AF80EE01021206800F075F809E0202105
:104B1000206800F070F804E03021206800F06BF8A5
:104B2000FFE7012084F83D00002084F83C000020CD
:104B300010BD00220268184B984208D0B0F1804F97
:104B400005D0164B984202D0154B984203D132F053
:104B500070024B681A43104B984208D0B0F1804F56
:104B600005D00E4B984202D00D4B984203D132F43F
:104B70004072CB681A4332F080024B691A430260DC
:104B80008A68C2620A688262034A904201D1096956
:104B90000163012141617047002C01400004004085
:104BA0000008004010B400230024046A036A5B0874
:104BB0005B000362836933F0F00353EA021334F0BD
:104BC0000A040C438361046210BC704710B40023D4
:104BD0000024036A33F0100303628369046A33F428
:104BE000704353EA023334F0A00454EA01148361A1
:104BF000046210BC70470022826832F0700289B2F1
:104C000051F007010A438260704710B400248468A1
:104C100034F47F44114351EA03210C43846010BCF7
:104C20007047000080B500F0CDFA002801D000F0F8
:104C300014FC01BDDFF83C080078DFF83C18097867
:104C4000884208D3DFF82C080078DFF82C180978A0
:104C5000401AC0B208E0DFF8200800784042DFF8D0
:104C6000141809780818C0B27047C0B2002809D1DA
:104C70003020DFF8081808700A20DFF800184870A4
:104C8000022044E0C0B201280DD12D20DFF8EC173E
:104C900008703120DFF8E41748700A20DFF8DC17CD
:104CA0008870032033E0C0B202280DD12D20DFF838
:104CB000CC1708703220DFF8C41748700A20DFF8DC
:104CC000BC178870032022E0C0B203280DD12D202C
:104CD000DFF8A81708703320DFF8A01748700A2003
:104CE000DFF898178870032011E0C0B204280DD1B6
:104CF0002D20DFF8881708703420DFF880174870FF
:104D00000A20DFF878178870032000E00020704741
:104D100038B5040000255B20ADB260556D1CDFF88E
:104D200060070268E3A1280080B2204401F0BAFFC6
:104D300045192C20ADB260556D1CDFF84407426860
:104D4000DCA1280080B2204401F0ACFF45192C20E2
:104D5000ADB260556D1CDFF828078268D5A1280028
:104D600080B2204401F09EFF45192C20ADB2605561
:104D70006D1CDFF80C07C268CEA1280080B2204469
:104D800001F090FF45192C20ADB260556D1CDFF885
:104D9000F0060269C7A1280080B2204401F082FF1A
:104DA00045192C20ADB260556D1CDFF8D80600689F
:104DB000FFF700FD0022DFF8D036FCF709FEFCF714
:104DC00003FD0200BBA1280080B2204401F06AFF6D
:104DD00045192C20ADB260556D1CDFF8B006027885
:104DE000B4A1280080B2204401F05CFF45192C20BA
:104DF000ADB260556D1CDFF898060278ADA12800B1
:104E000080B2204401F04EFF45192C20ADB2605510
:104E10006D1CDFF880060268A6A1280080B220443D
:104E200001F040FF45192C20ADB260556D1CDFF834
:104E3000640642689FA1280080B2204401F032FF3E
:104E400045192C20ADB260556D1CDFF8480680680E
:104E5000FFF7B0FC0022DFF83036FCF7B9FDFCF7B5
:104E6000B3FC020093A1280080B2204401F01AFF95
:104E700045192C20ADB260556D1CDFF81C06027878
:104E80008CA1280080B2204401F00CFF45192C2091
:104E9000ADB260556D1CDFF80006827885A1280050
:104EA00080B2204401F0FEFE45192C20ADB26055C1
:104EB0006D1CDFF8E40582687EA1280080B22044E2
:104EC00001F0F0FE45192C20ADB260556D1CDFF8E5
:104ED000C805427D77A1280080B2204401F0E2FE9F
:104EE00045192C20ADB260556D1CDFF8AC05827DF4
:104EF00070A1280080B2204401F0D4FE45192C2076
:104F0000ADB260556D1CDFF89005C27D69A1280027
:104F100080B2204401F0C6FE45192C20ADB2605588
:104F20006D1CDFF87405827C62A1280080B22044E9
:104F300001F0B8FE45192C20ADB260556D1CDFF8AC
:104F40005805C27C5BA1280080B2204401F0AAFE73
:104F500045192C20ADB260556D1CDFF83C05027D73
:104F600054A1280080B2204401F09CFE45192C2059
:104F7000ADB260556D1CDFF82005027E4DA1280002
:104F800080B2204401F08EFE45192C20ADB2605550
:104F90006D1CDFF80405427E46A1280080B2204443
:104FA00001F080FE45192C20ADB260556D1CDFF874
:104FB000E804C27B3FA1280080B2204401F072FEC9
:104FC00045192C20ADB260556D1CDFF8CC04827EF3
:104FD00038A1280080B2204401F064FE45192C203D
:104FE000ADB260556D1CDFF8B004828931A1280094
:104FF00080B2204401F056FE45192C20ADB2605518
:105000006D1CDFF89404827B2AA1280080B2204422
:1050100001F048FE45195D20ADB260556D1C0A20B7
:10502000ADB260556D1C280080B232BD10B50400D1
:10503000DFF860048068FFF7BDFB0022DFF848342A
:10504000FCF7C6FCFCF7D6FB02001AA1200001F019
:1050500029FE0A2180B22154401C80B210BD80B5C7
:105060000A22694601F038FEFFF78AFBFFF7A2FB30
:105070000022DFF81434FCF77DFD00F01DFADFF8A4
:10508000041408600098401C00900A2269460098A9
:1050900001F022FEDFF8F41308700098401C009025
:1050A0000A220021009801F017FEDFF8E4130870CF
:1050B00001BD00002564000080B50A22694601F0A8
:1050C0000BFEDFF8D81348600098401C00900A22BD
:1050D0006946009801F000FEDFF8C013C860009830
:1050E000401C00900A226946009801F0F5FDDFF8A7
:1050F000AC1348610098401C00900A226946009851
:1051000001F0EAFDDFF89413C8610098401C00909C
:105110000A226946009801F0DFFDDFF8801348623B
:105120000098401C00900A226946009801F0D4FDC6
:10513000DFF86813C8620098401C00900A22694694
:10514000009801F0C9FDDFF8541348630098401C33
:1051500000900A226946009801F0BEFDDFF83C137A
:10516000C8630098401C00900A220021009801F0BA
:10517000B3FDDFF82813486401BD70B504000A22AE
:105180000021200001F0A8FD0500C2484068FFF79B
:1051900001FB06002800FFF7F3FA310001F0A0FD43
:1051A000FFF730FBBB4948600A220021200001F0D4
:1051B00093FDFFF7E5FAB749896801F091FDB5491C
:1051C000886070BDB648808DB549C98D401A401EB3
:1051D000B449C0B2095C0A2909D1A649097802007C
:1051E000D2B2914203D0A3490870012000E0002010
:1051F000704780B5AB48AA498862A048A8490862B0
:105200004FF48072A749A64801F054F901BD38B5A2
:105210000400002501F0A6FDA348007867281FD1EF
:10522000FFF708FD032803DB0320FFF71EFD4519E8
:10523000FFF700FD022803DA0220FFF716FD4519EB
:10524000FFF7F8FC022807D10020FFF70EFD4519F3
:10525000A01CFFF75DFD4519EDB2280080B2FBE010
:1052600091480078632840F0E3808F4840787328A5
:1052700006D10020FFF7F9FC45198C48FFF7EFFE37
:1052800089484078662806D10020FFF7EEFC4519D2
:105290008648FFF711FF84484078772817D1FFF739
:1052A000C9FC042803DB0320FFF7DFFC4519FFF7E7
:1052B000C1FC032803DA0220FFF7D7FC4519FFF7EA
:1052C000B9FC032803D10020FFF7CFFC451976482D
:1052D0004078722817D1FFF7ADFC042803DB0320C8
:1052E000FFF7C3FC4519FFF7A5FC032803DA0220EA
:1052F000FFF7BBFC4519FFF79DFC032803D10020F5
:10530000FFF7B3FC4519684840786E281AD1FFF7BB
:1053100091FC042803DB0320FFF7A7FC4519FFF7E6
:1053200089FC032803DA0220FFF79FFC4519FFF7E9
:1053300081FC032806D10020FFF797FC45190220C5
:10534000554908705848407869281BD15248007860
:10535000022813D10020FFF788FC451900224FF4E2
:1053600080715348FEF78AFC00224FF400715048C8
:10537000FEF784FC00204849887303E00420FFF70F
:1053800074FC4519484840786A2812D10020FFF77C
:105390006CFC451901224FF480714548FEF76EFC04
:1053A00001224FF400714248FEF768FC01203A499F
:1053B00088733D4840786D282ED1FFF73BFC0428C8
:1053C00003DB0320FFF751FC4519FFF733FC0328EB
:1053D00003DA0220FFF749FC4519FFF72BFC0328ED
:1053E0001AD12000FFF722FE451902202A49087031
:1053F000FDF77CF827480068264949680C182548BD
:105400008068FFF7FFF9201A22490860002021492F
:10541000486000201F49886023484078742803D1E1
:105420000020FFF722FC4519EDB2280080B213E0FE
:105430001D4800786D280AD10020FFF716FC451999
:105440001C48FFF79AFEEDB2280080B204E001206C
:10545000FFF70BFC4519002032BD80B50748FFF768
:10546000D6FE020092B205490D4800F0FAFF01F0A5
:1054700095FC01BD940D00201501002018070020A7
:10548000480C0020080000200000594011010020B5
:10549000120100208C0C00202C0C0020700A00202F
:1054A0003C0B002018080020180900201A090020D1
:1054B00000140140190900204FEAF17CBCF1E04CD6
:1054C0002CBFBCF5001F11E05FEA4C0C34BFBCF1EF
:1054D0007F5F2EE05FEA9C0C4FEA0C1C4FEA3C0C0D
:1054E000C10071F100414CEB50707047C90241EAB4
:1054F0005051C00218BF41F0010141F000414FEA94
:105500006C50C0F10900212810D240EACC7CCCF1CB
:10551000200C11FA0CF070F10040CCF1200C21FAB3
:105520000CF00CF0004C40EB0C0070474FEACC70D4
:105530007047490011F5001F04D84FEACC10FF3026
:10554000C0057047C81770474FF0807C1CEB400FB8
:1055500094BF1CEB410F05E040EA010C5FEA4C0CE4
:1055600001D28842704718BF8142704770B582B03F
:10557000040000252078C00740F18480DFF87C0615
:10558000006810F00C0004280BD0DFF870060068EB
:1055900010F00C0008280ED1DFF860060068C00388
:1055A00009D5DFF85C06006880036BD560680028C9
:1055B00068D1012002E26068B0F5803F08D1DFF8D1
:1055C0004006006850F48030DFF83416086038E098
:1055D0006068002810D1DFF82806006830F48030B9
:1055E000DFF81C160860DFF81806006830F4802029
:1055F000DFF80C16086024E06068B0F5A02F10D129
:10560000DFF8FC05006850F48020DFF8F41508602E
:10561000DFF8EC05006850F48030DFF8E41508602E
:105620000FE0DFF8DC05006830F48030DFF8D015DB
:105630000860DFF8CC05006830F48020DFF8C01582
:105640000860606800280ED001F0BCFB0500DFF8A0
:10565000B0050068800315D401F0B4FB401B652839
:10566000F5D30320AAE101F0ADFB0500DFF89005BA
:105670000068800306D501F0A5FB401B6528F5D323
:1056800003209BE12078800726D5DFF870050068AD
:1056900010F00C0F0BD0DFF86405006810F00C0060
:1056A000082833D1DFF854050068C0032ED4DFF892
:1056B00050050068800704D52069012801D0012029
:1056C0007CE1DFF83C05006830F0F800616950EAE1
:1056D000C100DFF82C150860207800074ED5A069BE
:1056E000002800F081800120DFF82015086001F01B
:1056F00069FB0500DFF81805006880073BD401F05E
:1057000061FB401B0328F5D3032057E120690028E3
:105710001ED00120DFF8FC14086001F053FB0500E7
:10572000DFF8DC040068800706D401F04BFB401B67
:105730000328F5D3032041E1DFF8C404006830F00A
:10574000F800616950EAC100DFF8B4140860C3E7EB
:105750000020DFF8C014086001F034FB0500DFF81A
:10576000A00400688007B7D501F02CFB401B03287C
:10577000F5D3032022E1012000F02DFA2078400724
:1057800040F1B9800026DFF890040068C0000FD413
:10579000DFF88404006850F08050DFF87C14086063
:1057A000DFF87404006810F0805000900098012623
:1057B000DFF868040068C00529D4DFF860040068D9
:1057C00050F48070DFF85414086001F0FBFA050013
:1057D000DFF848040068C00519D401F0F3FA401B53
:1057E0006528F5D30320E9E00020DFF820140860E5
:1057F00001F0E8FA0500DFF8180400688007BDD55D
:1058000001F0E0FA401B0328F5D30320D6E0E0685E
:10581000012808D1DFF80804006850F00100DFF823
:105820000014086037E0E068002810D1DFF8F003CA
:10583000006840084000DFF8E8130860DFF8E00384
:10584000006830F00400DFF8D813086023E0E06857
:10585000052810D1DFF8C803006850F00400DFF815
:10586000C0130860DFF8B803006850F00100DFF8EB
:10587000B01308600FE0DFF8A8030068400840009C
:10588000DFF89C130860DFF89803006830F004002C
:10589000DFF88C130860E068002810D001F092FA5D
:1058A0000500DFF87C030068800719D401F08AFA4C
:1058B000401B41F289318842F3D303207EE001F09E
:1058C00081FA0500DFF858030068800708D501F069
:1058D00079FA401B41F289318842F3D303206DE00D
:1058E000F6B2012E07D1DFF83003006830F08050A7
:1058F000DFF824130860E06900285ED0DFF8FC02BE
:10590000006810F00C00082855D0E06902283FD14B
:105910000020DFF81013086001F054FA0500DFF8EA
:10592000E0020068800106D501F04CFA401B032814
:10593000F5D3032042E0206AB0F5803F09D1DFF8BB
:10594000BC02006830F40030A1680843DFF8AC12F4
:105950000860DFF8A802006830F47410216A084378
:10596000616A0843DFF8941208600120DFF8B4127E
:10597000086001F027FA0500DFF884020068800162
:105980001BD401F01FFA401B0328F5D3032015E0B8
:105990000020DFF89012086001F014FA0500DFF82B
:1059A00060020068800108D501F00CFA401B032852
:1059B000F5D3032002E0012000E0002076BD70B5A1
:1059C00004000D000026DFF86002006810F00700F8
:1059D000A84211D2DFF850020068C008C000284376
:1059E000DFF844120860DFF84002006810F007009A
:1059F000A84201D00120A1E02078800709D5DFF876
:105A0000FC01006830F0F000A1680843DFF8EC11F9
:105A100008602078C00756D56068012806D1DFF8F5
:105A2000E0010068800311D4012087E0606802284B
:105A300006D1DFF8CC010068800107D401207DE0A9
:105A40006F480068800701D4012077E06B48006848
:105A500080088000616808436849086001F0B2F975
:105A60000600606801280ED16448006810F00C0040
:105A7000042828D001F0A6F9801B41F28931884220
:105A8000F2D303205AE0606802280ED15B48006818
:105A900010F00C00082816D001F094F9801B41F298
:105AA00089318842F2D3032048E05448006810F05E
:105AB0000C0F08D001F086F9801B41F28931884231
:105AC000F3D303203AE05848006810F007008542FD
:105AD0000ED255480068C008C000284352490860EB
