:020000040800F2
:100000001805002029840008697D00086B7D000820
:100010006D7D00086F7D0008717D00080000000004
:10002000000000000000000000000000737D0008D8
:10003000757D000800000000777D0008797D0008CC
:100040006D840008718400087584000879840008B4
:100050007D84000881840008857D00088F7D00086C
:10006000997D0008A37D0008AD7D00088584000807
:10007000898400088D840008918400089584000814
:10008000998400089D840008A1840008A5840008C4
:10009000A9840008AD840008B1840008B77D000879
:1000A000B5840008B9840008BD840008C184000834
:1000B000C5840008DD7D0008C9840008CD840008DF
:1000C000D1840008D5840008D9840008DD840008A4
:1000D000E184000807800008E5840008E98400083E
:1000E00059800008ED840008F184000880B5DFF82D
:1000F000A00C0069DFF8981CC968401ADFF8901C52
:100100008968401A0A21B0FBF1F0DFF8881C88608A
:10011000DFF87C0C0069DFF8781CC968DFF8782C00
:100120001278521F4FF47A7303FB0211884203D2F4
:100130000120DFF8601C887001F006F9DFF8540C2C
:10014000407E00282BD1DFF84C0C8078002826D088
:10015000DFF8400C007E012821D0642001F071FE00
:10016000DFF8300C407E002819D10020DFF8241C75
:10017000087501F0CBF801224FF40071DFF8180E7A
:1001800001F0C2FF0120DFF80C1C087601F0BEF878
:1001900001224FF48071DFF83C0C01F0B5FFDFF86D
:1001A000F40B407E012804D0DFF8E80B80780028AB
:1001B0001ED1DFF8E00B007E002819D00020DFF808
:1001C000D41B087601F0A2F800224FF48071DFF80A
:1001D000040C01F099FF0120DFF8B81B087501F04D
:1001E00095F800224FF40071DFF8AC0D01F08CFFA0
:1001F00001BD00B583B0684601F0EBFFDFF8940B5A
:100200000078002805D100220421DFF8E80D01F074
:100210007BFFDFF8800B0078022805D10122042142
:10022000DFF8D00D01F070FFDFF8680B00780528CB
:1002300015D1BDF80600FA2190FBF1F201FB120086
:100240007E2806DB01220421DFF8A80D01F05CFF07
:1002500005E000220421DFF89C0D01F055FFDFF8D6
:10026000340B0078082805D100220421DFF8840D22
:1002700001F04AFFDFF81C0B0078012805D10022AD
:100280000421DFF8700D01F03FFFDFF8080B007864
:10029000062805D100220421DFF8580D01F034FFB3
:1002A000DFF8F00A0078072805D100220421DFF8E2
:1002B000440D01F029FF07BD80B5DFF8D80A0078AA
:1002C000052804D0DFF8CC0A007804286BD1DFF8C9
:1002D000C40A407C002817D0DFF8B80AC07D012886
:1002E00005D10020DFF8AC1AC87501F00FF8DFF86F
:1002F000582CD2E9000101F072FFB0F5FA7F03D962
:100300000020DFF8901A4874DFF8902CD2E9000141
:1003100001F065FFB0F5FA7F28D9DFF8780AC07DD3
:10032000012823D1DFF8740C01F082FFDFF8700C94
:1003300000680A30DFF8581AC968884204D20020E1
:10034000DFF8601C08700BE0DFF8580C0078FF281D
:1003500006D0DFF8500C0078401CDFF8481C08700D
:10036000DFF82C0AC068DFF8381C0860DFF8880C5A
:100370000078DFF8301C0978884214D2DFF8140ABC
:10038000C07D012805D10020DFF8081AC87500F0EB
:10039000BDFF0020DFF80C1C0870DFF8FC090078B6
:1003A00080B201F056F801BD70B5DFF8502CD2E9EB
:1003B000000101F014FFFB28C0F0A880DFF83C0C1E
:1003C00001F036FFDFF8CC090078002804D1DFF80F
:1003D000C409806802F017F9DFF8B809007802282C
:1003E00004D1DFF8B009806802F09BF9DFF8A409B6
:1003F0000078032823D1DFF8080C4668300002F0AB
:100400000FFC02F01DFC0022DFF8F83B02F040FC7C
:1004100004000D00DFF8F00B006802F011FC020090
:100420000B002000290002F005FD02F02FFE010064
:1004300089B26420B6FBF0F080B202F0F5F9DFF883
:100440005409007804283ED1DFF84809C07D00280F
:1004500001D1012600E00026DFF8A40B806802F03D
:10046000EFFB0022DFF89C3B02F012FC04000D00C1
:10047000DFF8940B006802F0E3FB02000B002000A1
:10048000290002F0D7FC02F017FEDFF808194860D7
:100490003300DBB21C00DFF8680B806802F022FE3C
:1004A0006421B0FBF1F22300DFF8E408C068DFF854
:1004B0005C1B0968401A6421B0FBF1F1DFF8D40835
:1004C000406802F04DFADFF8CC080078052801D129
:1004D00002F087F8DFF8BC080078082801D101F0A5
:1004E00039FFDFF8B0080078012801D101F032FFB0
:1004F000DFF8A0080078062801D101F02BFFDFF813
:1005000094080078072801D101F024FF70BD00B5E0
:1005100083B00A2001F02AFB684601F05AFEDFF89A
:1005200074080078042822D00A2001F011FB002072
:1005300001F007FB9DF80500022190FBF1F201FBA1
:10054000120000280AD0BDF80600642190FBF1F0EB
:10055000D0F10A00C0B201F002FB48E0BDF806008D
:10056000642190FBF1F0C0B201F0F9FA3FE09DF890
:100570000500022190FBF1F201FB1200002818D0C7
:10058000BDF80600642190FBF1F0C0B201F0E7FA7B
:10059000BDF80600642190FBF1F0C0B201F0D8FA7A
:1005A000BDF80600642190FBF1F0C0B201F0C9FA79
:1005B0001DE0BDF80600642190FBF1F0D0F10A00C7
:1005C000C0B201F0CCFABDF80600642190FBF1F056
:1005D000D0F10A00C0B201F0BBFABDF806006421F8
:1005E00090FBF1F0D0F10A00C0B201F0AAFA07BD09
:1005F0002DE970436421DFF8300C02F01FFE012169
:10060000DFF8240C02F0C4FE04000221DFF8180C0D
:1006100002F0BEFE0321DFF8100C02F0B9FE060066
:100620000421DFF8040C02F0B3FE0500ADB228008F
:1006300002F0F6FA02F004FB02000B000020DFF8E3
:10064000EC1B02F0F7FB80468946A4B2200002F0C2
:10065000E7FA02F0F5FA42464B4602F019FBDFF8E2
:10066000D02BDFF8D03B02F013FB0022DFF8C83BB1
:1006700002F00EFB02F00AFDDFF818178881ADB218
:10068000280002F0CDFA02F0DBFA02000B00002095
:10069000DFF8981B02F0CEFB04000D00B6B230006C
:1006A00002F0BEFA02F0CCFA22002B0002F0F0FABF
:1006B00002000B00DFF8840BDFF8841B02F0ACFFB4
:1006C000DFF8802BDFF8803B02F0B4FB0022DFF87C
:1006D0007C3B03F061F802F0D9FCDFF8B816C88162
:1006E000DFF8440B02F080FDDFF83C0B02F00CFD5C
:1006F000BDE8708380B500F00FFE00F007FE01F04A
:1007000029FEDFF890060078002812D100224FF46D
:100710008071DFF83C0B01F0F7FC00224FF4007110
:10072000DFF82C0B01F0F0FC0020DFF868160874ED
:1007300011E001224FF48071DFF8140B01F0E4FCAA
:1007400001224FF40071DFF8080B01F0DDFC0120FD
:10075000DFF840160874DFF83C06007802281BD149
:1007600001224FF48071DFF8E80A01F0CDFC01228C
:100770004FF40071DFF8D80A01F0C6FC0120DFF861
:10078000141608740020DFF80C16C87500F0BEFDC2
:100790000220DFF800160870DFF8F805007804285A
:1007A00010D1DFF8F0054078032805D1DFF8E00527
:1007B000C068DFF8581808600120DFF8D815C87540
:1007C00000F0A4FDDFF8CC05007805280ED1DFF895
:1007D000780701F02DFDDFF8BC05C07D012805D1AB
:1007E0000020DFF8B015C87500F090FDDFF8A40513
:1007F0000078DFF8A015487001BDF0B585B003F0B2
:100800003FF800F081F900F003FC00F0D7F900F0A8
:100810006CFA00F0A9FA00F0DFFA00F01DFB00F01E
:1008200067FB00F093FB00F0BFFB00F0B7FADFF8C6
:10083000240A03F055F803F01CFD40F6B8320221FB
:10084000102001F007FD0220DFF84815087007208E
:10085000DFF840154870FFF74DFF1021DFF8F80969
:1008600001F0D3FB102000900120029000200190A5
:100870006946DFF8E40901F0EDFA01222021DFF8F2
:10088000180701F041FCDFF8A00902F03DFC32201E
:1008900000F0B5FD54E00120DFF8F814C87500F051
:1008A00035FD00F023FD002815D0DFF8E8040078BE
:1008B000052810D1DFF89026D2E9000101F08FFC65
:1008C000B0F57A7F07D90420DFF8C8140870FFF765
:1008D00011FF00F0F7FCDFF8BC04007805280CD10C
:1008E000DFF86426D2E9000101F079FCB0F57A6FF7
:1008F00003D90420DFF89C14087000F0F7FC0028EE
:1009000006D0DFF890040078022801D100F0DAFC6C
:1009100000F0F0FC002803D000F0FEFC00F0D7FC53
:1009200000F0ECFC002803D000F0F6FC00F0D4FC52
:1009300000F0E8FC002803D000F0EEFC00F0D1FC51
:10094000FFF756FEFFF7D2FB03F098F9FFF72CFDF7
:10095000FFF7B2FCFFF74DFCFFF7D9FDDFF8FC080D
:1009600003F01CFEDFF82C04007804286AD1DFF8BD
:100970002404407C002805D00520DFF818140870F6
:10098000FFF7B8FEDFF87806406803F017FE0600B0
:100990000F00DFF8FC03C06803F010FE04000D0038
:1009A000DFF86806006803F009FE02000B00200073
:1009B000290002F031FE0022DFF87C3802F03AFA1A
:1009C00004000D00DFF84006006802F039F922004B
:1009D0002B0002F05DF902000B003000390002F03C
:1009E0001BFE03F0F9FDDFF818168860DFF810062B
:1009F0008068002103F038FE24D8E548C068E44947
:100A0000C96810F114029142F9D30220E14908703B
:100A1000FFF770FEDFF8E8050068DFF8E4154968C5
:100A20000C18DFF8DC05806802F05CFB201ADFF8A8
:100A3000D01508600020DFF8C81548600020DFF8F6
:100A4000C0158860DFF8B805406800280CD0D14890
:100A50000078022808D10320CE490870FFF74AFE2B
:100A600000F05AFC00F02EFCCA488068DFF8F0174E
:100A7000097864225143884208D2C6480078022887
:100A800004D10020C3490870FFF734FEC1488068D4
:100A9000DFF8CC17097864225143884208D3BD4857
:100AA0000078002804D10220BA490870FFF722FE1E
:100AB00000F01CFC00280CD0B6480078032808D1B0
:100AC0000420B4490870FFF715FE00F025FC00F083
:100AD000F9FB00F00BFC00283FF4E3AEAD480078D2
:100AE00004287FF4DEAE00F017FC00F00FFC00F0ED
:100AF000E9FBA848C07D01287FF4CDAE0020A549C0
:100B0000C87500F003FCCCE600B593B0092009904D
:100B10005FF480300A9000200B9001200D9001209E
:100B20000F90022010905FF4803011905FF48010DD
:100B3000129009A803F0AAFD002805D04FF4E57132
:100B4000DFF8200700F0B8FB0F200490022005908A
:100B5000002006904FF4806007900020089001214B
:100B600004A803F0BCFF002805D04FF4EC71DFF8B7
:100B7000F40600F0A1FB022000904FF480400290A8
:100B8000684604F0EDF8002805D040F2DF11DFF8E8
:100B9000D40600F091FB04F095F84FF47A71B0FBA5
:100BA000F1F004F067FA042004F068FA0022002152
:100BB0005FF0FF3004F048FA13B000BD00B58BB011
:100BC000DFF8A406DFF8601608604FF48070DFF8E5
:100BD000581688600020DFF85016C8600020DFF843
:100BE000481648615FF46020DFF83C16C8610020B9
:100BF000DFF8341648600120DFF82C160861DFF8B2
:100C0000280604F061FA002805D04FF40071DFF8DF
:100C1000540600F051FB102008900120099000209C
:100C20000A9008A9DFF8000604F0E9FA002805D0C8
:100C300040F20A21DFF82C0600F03EFB0420009071
:100C40000120019004200490002002904FF4E04025
:100C50000790002006900020059000200390694630
:100C6000DFF8C40502F0A9FB002805D040F21921E5
:100C7000DFF8F00500F020FB052000900220019035
:100C80006946DFF8A40502F098FB002805D040F281
:100C90002221DFF8D00500F00FFB10200090032088
:100CA0000190012002906946DFF87C0502F085FB87
:100CB000002805D04FF40B71DFF8A80500F0FCFA0E
:100CC0001120009004200190002002906946DFF876
:100CD000580502F072FB002805D040F23621DFF8FB
:100CE000840500F0E9FA0BB000BD80B5DFF87C05A3
:100CF000DFF87C1508601020DFF8741548600020CC
:100D0000DFF86C1588600020DFF86415C8600020EB
:100D1000DFF85C1508610020DFF8541548610020F9
:100D2000DFF84C1588610020DFF84415C861002009
:100D3000DFF83C1508620020DFF834154862002017
:100D4000DFF82C1588620020DFF82415C862DFF870
:100D5000200504F05FFB002805D040F24D21DFF8AC
:100D6000040500F0A9FA01BD80B5DFF80805DFF839
:100D700008150860DFF8000504F0F6FB002805D030
:100D800040F25921DFF8DC0400F096FA01BD0000C2
:100D90004C0C00202C0C00201201002080B5DFF844
:100DA000DC04DFF8B81408600520DFF8B0144860F0
:100DB00040F2DC50DFF8A4148860DFF8A00403F0F0
:100DC000C5FB002805D040F26721DFF8980400F049
:100DD00073FA01BD0008014080B5DFF8A404DFF814
:100DE000A41408600020DFF89C1448600020DFF89D
:100DF000941488600020DFF88C14C8600020DFF8AD
:100E0000841408610020DFF87C1448614FF40070FE
:100E1000DFF8701488610020DFF86814C8610020D2
:100E2000DFF8601408620020DFF8581448620020E0
:100E3000DFF8501488620A20DFF84814C862DFF82F
:100E4000440404F0A3FB002805D040F27E21DFF823
:100E5000140400F031FA01BD00B587B0DFF82804B2
:100E6000DFF8F01308602F20DFF8E8134860002057
:100E7000DFF8E013886040F2E730DFF8D813C8608D
:100E80004FF40070DFF8CC1308610020DFF8C413C2
:100E90008861DFF8C00302F007FD002805D040F2AA
:100EA0009221DFF8C00300F007FA4FF4805002905F
:100EB00002A9DFF8A00302F0DCFD002805D04FF402
:100EC0002671DFF8A00300F0F7F900200090002061
:100ED00001906946DFF87C0304F09EFB002805D0F2
:100EE00040F29F21DFF87C0300F0E6F907B000BD77
:100EF00080B5DFF89803DFF8981308605FF4E130FD
:100F0000DFF88C1348600020DFF88413886000202D
:100F1000DFF87C13C8600020DFF8741308610C2030
:100F2000DFF86C1348610020D94988610020D84956
:100F3000C861D74804F09EFB002804D040F2B221DB
:100F4000C84800F0B9F901BDC80C002080B5D148EF
:100F5000D14908605FF4E130CF4948600020CE49B4
:100F600088600020CC49C8600020CB4908610C2073
:100F7000C94948610020C84988610020C649C86144
:100F8000C54804F077FB002804D040F2C521B548DD
:100F900000F092F901BD000000100140D00C0020CB
:100FA0005C0D0020960D002080B5BC48BC4908604F
:100FB0005FF4E130BA4948600020B94988600020F8
:100FC000B749C8600020B64908610C20B44948619F
:100FD0000020B34988610020B149C861B04804F0DD
:100FE00049FB002804D04FF436719E4800F064F9A4
:100FF00001BD0000000C014010010020D80C0020B1
:101000009C0C00200000244008000020580D002007
:1010100000B585B0A348006850F04000A1490860C1
:10102000A048006810F04000009000989D480068BB
:1010300050F010009B4908609A48006810F01000BA
:10104000009000989748006850F0040095490860A7
:101050009448006810F004000090009891480068DF
:1010600050F008008F4908608E48006810F00800B2
:10107000009000988B48006850F020008949086073
:101080008848006810F0200000900098002240F28C
:10109000FF31854801F038F8002248F2C311834837
:1010A00001F032F8002241F20701814801F02CF8EA
:1010B00000224FF68071684801F026F800224FF4B4
:1010C0007F41634801F020F83C200190794802906C
:1010D0000020039001A9604800F0BCFE432001906D
:1010E000744802900120039001A95B4800F0B2FE11
:1010F0004FF47C4001906F4802900120039001A9B9
:10110000694800F0A7FE40F2FF30019001200290F4
:101110000220049001A9644800F09CFE48F2C3102C
:101120000190012002900220049001A95F4800F084
:1011300091FE41F2070001900120029002200490EC
:1011400001A95B4800F086FE4FF6807001900120F7
:1011500002900220049001A93F4800F07BFE4FF46A
:101160007F400190012002900220049001A938489C
:1011700000F070FEFF2001900020029001200390FB
:1011800001A9334800F066FE78200190002002900B
:101190000120039001A9464800F05CFE4FF4607006
:1011A0000190444802900120039001A9404800F0BA
:1011B00051FE00220221062003F046FF062003F024
:1011C00054FF00220221072003F03EFF072003F016
:1011D0004CFF00220221082003F036FF082003F014
:1011E00044FF00220221092003F02EFF092003F012
:1011F0003CFF002202210A2003F026FF0A2003F010
:1012000034FF00220221172003F01EFF172003F0F5
:101210002CFF00220221282003F016FF282003F0D3
:1012200024FF05B000BD0000FC0B00200000F83FCB
:101230000AD7A3703D0A094000408F40E17A14AEFE
:1012400047E1F63F22FDF675E09C713F0000394012
:1012500000140140FC0A002000180140900C0020FE
:1012600011010020FC8100080024014000640040BE
:10127000B80A002000300240C00C002000300040BE
:1012800000380040180A00200004004000380140E7
:101290003C0B0020004400407C0B00200048004034
:1012A000BC0B002018100240001001400008014053
:1012B000000C014000001110FEE70268531C03609F
:1012C000117070470020DFF8681A0870704700201E
:1012D000DFF8641A087070470020DFF8601A0870A1
:1012E00070470020DFF8581A08707047DFF8400A8E
:1012F00000787047DFF8400A00787047DFF83C0A52
:1013000000787047DFF8380A0078704780B5DFF85A
:10131000340A00F08DFF01BD80B5DFF82C0A00F023
:1013200087FF01BD80B54021DFF8200A00F0E3FE11
:10133000002804D00020DFF8181AC87603E0012046
:10134000DFF80C1AC87601BD80B51021DFF8FC0962
:1013500000F0D1FE002804D00020DFF8F419487610
:1013600003E00120DFF8E819487601BD80B52021AF
:10137000DFF8D80900F0BFFE002804D00120DFF814
:10138000D019887603E00020DFF8C419887601BD03
:1013900080B50821DFF8B40900F0ADFE002804D0C4
:1013A0000120DFF8AC19087703E00020DFF8A0196E
:1013B000087701BD38B5DFF89C090068401CDFF8EC
:1013C00094190860DFF88C09006803F0F7F8002230
:1013D000DFF8843901F05CFC04000D00DFF87C09C3
:1013E000006803F0EBF802000B002000290001F078
:1013F00021FD01F061FEDFF86819086131BD38B5E3
:10140000DFF8581909680A22B1FBF2F180B200FB3B
:1014100001F0DFF840190860DFF83809006803F0D0
:10142000CDF80022DFF8303901F032FC04000D0065
:10143000DFF82809006803F0C1F802000B00200063
:10144000290001F0F7FC01F037FEDFF814190861FC
:1014500031BD38B5DFF8041909680A22B1FBF2F191
:1014600080B200FB01F0DFF8EC180968884207D26F
:10147000DFF8E0180968081ADFF8D818086003E0F8
:101480000020DFF8D0180860DFF8C808006803F013
:1014900095F80022DFF8C03801F0FAFB04000D00D7
:1014A000DFF8B808006803F089F802000B0020009C
:1014B000290001F0BFFC01F0FFFDDFF8A41808616E
:1014C00031BD10B51021DFF89C0800F014FE002893
:1014D00001D0012400E00024DFF88C28D2E90001CB
:1014E00000F07DFE40F6B831884224D3E4B2002CEF
:1014F00009D1DFF87808007800280CD10120DFF846
:101500006C18087007E0DFF8680800F091FE002012
:10151000DFF858180870DFF85828D2E9000100F009
:101520005EFEC92807D30120DFF824184874DFF8CD
:10153000380800F07DFE10BD704738B5DFF814089C
:101540008068401CDFF80C188860DFF808088068A5
:1015500003F034F80022DFF8003801F099FB0400B2
:101560000D00DFF8F807006803F028F802000B0010
:101570002000290001F05EFC01F09EFDDFF8E0177D
:101580008860DFF8F027D2E9000100F028FEB0F50E
:10159000FA7F07D2DFF8E0070078401CDFF8D817A1
:1015A000087003E00020DFF8D0170870DFF8C407E8
:1015B00000F03EFEDFF8C00700781A2852DB00205A
:1015C000DFF88C178870DFF898070169DFF890075B
:1015D000C268DFF880070068DFF880371B680A24DC
:1015E000B3FBF4F3DFF894472478891ADFF8702707
:1015F0009268891A4FF47A72B1FBF2F1611A01FB19
:101600000300DFF850170860DFF84807006802F0B1
:10161000D5FF0022DFF8403701F03AFB04000D004F
:10162000DFF83807006802F0C9FF02000B00200055
:10163000290001F0FFFB01F03FFDDFF824170861EE
:10164000DFF81C070069DFF81817C968401ADFF8CF
:1016500010178968401A4FF47A71B0FBF1F0DFF887
:10166000F016886031BD38B5DFF8E8064068401CE8
:10167000DFF8E0164860DFF8DC06406802F09EFF05
:101680000022DFF8D43601F003FB04000D00DFF880
:10169000F006006802F092FF02000B002000290013
:1016A00001F0C8FB01F008FDDFF8B416C86031BDD9
:1016B00010B5DFF8D0060078411CDFF8C82611709D
:1016C000C0B20528C0F222810020DFF8B8160870E9
:1016D000DFF8B4060478601CDFF8AC16087002214D
:1016E000DFF8680600F007FDDFF8A016E4B2085541
:1016F000DFF8940600780A2803DB0020DFF888165C
:101700000870DFF88C060078002804D1DFF8840622
:101710000078012846D1DFF874060078DFF86C16EF
:1017200049780818DFF8641689780818DFF85C161D
:10173000C9780818DFF8541609790818DFF84C162C
:1017400049790818DFF8441689790818DFF83C163B
:10175000C9790818DFF83416097A0818DFF82C164A
:10176000497A081800281DD10020DFF828160870D3
:10177000DFF81C060078002810D1DFF8E405406887
:10178000401CDFF8DC154860DFF8C8054068DFF86A
:10179000081608600120DFF8041608700020DFF842
:1017A000F0150870DFF8E8050078002804D1DFF8AC
:1017B000E4050078002846D1DFF8D0050078DFF88E
:1017C000CC1549780818DFF8C41589780818DFF8AF
:1017D000BC15C9780818DFF8B41509790818DFF8BE
:1017E000AC1549790818DFF8A41589790818DFF8CD
:1017F0009C15C9790818DFF89415097A0818DFF8DC
:101800008C15497A08180A281DD10120DFF88415A3
:101810000870DFF87C050078002810D1DFF840055B
:101820004068401CDFF838154860DFF8280540683C
:10183000DFF86C1508600120DFF8601508700020E3
:10184000DFF84C150870DFF85405007800285DD0EB
:101850000020DFF848150870DFF83C050068002814
:1018600054D0DFF83C05006800284FD0DFF834057D
:101870000078411CDFF82C251170DFF82415096869
:10188000DFF814251268914207D2DFF80C150968B9
:10189000DFF80C251268891A06E0DFF804150968DC
:1018A000DFF8F4241268891ADFF8FC24C0B242F889
:1018B0002010DFF8F0040078042827DB0020DFF890
:1018C000E4140870DFF8E0040068DFF8DC148968CD
:1018D000401A04F0ADF9642818DADFF8CC04406847
:1018E000DFF8C414C968401A04F0A2F964280DDABC
:1018F0000020002106E0DFF8B024C9B252F8212010
:101900001018491CC9B20429F5DB400810BD10B5F8
:10191000DFF898040078411CDFF890241170C0B201
:101920000528C0F20D810020DFF880140870DFF870
:1019300080040478601CDFF8781408700421DFF854
:101940000C0400F0D8FBDFF86C14E4B20855DFF8A3
:10195000600400780A2803DB0020DFF854140870C4
:10196000DFF854040078002804D1DFF85004007830
:10197000012846D1DFF83C040078DFF838144978B4
:101980000818DFF8301489780818DFF82814C978A7
:101990000818DFF8201409790818DFF818144979B5
:1019A0000818DFF8101489790818DFF80814C979C5
:1019B0000818DFF80014097A0818DFF8F813497AD4
:1019C000081800281DD10020DFF8F0130870DFF898
:1019D000E8030078002810D1DFF884030068401C79
:1019E000DFF87C130860DFF86C030068DFF8D013C1
:1019F00008600120DFF8CC1308700020DFF8B8136E
:101A00000870DFF8B4030078002804D1DFF8AC03D5
:101A10000078002843D1DFF89C030078DFF89413A6
:101A200049780818DFF88C1389780818DFF88413D0
:101A3000C9780818DFF87C1309790818DFF87413DF
:101A400049790818DFF86C1389790818DFF86413EE
:101A5000C9790818DFF85C13097A0818DFF85413FD
:101A6000497A08180A281AD10120DFF850130870A3
:101A7000DFF84403007800280DD1B9480068401C05
:101A8000B7490860B3480068DFF83C1308600120DC
:101A9000DFF8301308700020DFF81C130870DFF83F
:101AA0002403007800284BD00020DFF818130870BA
:101AB000C3480068002843D0C348006800283FD0CE
:101AC000C2480078411CC14A1170BF490968BC4A2C
:101AD0001268914205D2BA490968BB4A1268891A4C
:101AE00004E0B9490968B64A1268891AB84AC0B20E
:101AF00042F82010B5480078042821DB0020B349C3
:101B00000870B3480068B2498968401A04F090F838
:101B1000642815DAAE484068AD49C968401A04F037
:101B200087F864280CDA0020002105E0A84AC9B231
:101B300052F821201018491CC9B20429F6DB4008CC
:101B400010BDC0B20B2800DB0A20A2490870704704
:101B5000C0B20B2800DB0A209E4988707047C0B2D3
:101B60000B2800DB0A209B4948707047C0B20B2845
:101B700000DB0A209749C870704710B50400714A0D
:101B8000D2E9000100F02BFB332864D3A4B2B4F5F2
:101B9000807F04D190480088401C8F490880A4B2FF
:101BA000042C06D1FFF75FFD8C480088401C8B4950
:101BB0000880A4B2082C06D1FFF7BFFC8848008833
:101BC000401C87490880A4B2102C06D1FFF7B4FC52
:101BD00084480088401C83490880A4B2202C06D188
:101BE000FFF7E8FB80480088401C7F490880A4B2CA
:101BF000012C04D17D480088401C7C490880A4B297
:101C0000802C04D17A480088401C79490880A4B20D
:101C1000B4F5007F04D177480088401C75490880DE
:101C2000A4B2B4F5806F04D173480088401C724997
:101C30000880A4B2B4F5006F04D170480088401C3D
:101C40006E490880A4B2B4F5805F04D16C48008866
:101C5000401C6B4908803C4AD2E9000100F0BFFA01
:101C6000332861D3A4B2022C1BD1664AD2E9000109
:101C700000F0B5FAB0F5FA7F13D9052000F0E1F8CD
:101C80000221384800F037FA00284FD05D4800F0B4
:101C9000CFFA0120264908705B480078401C5A4959
:101CA0000870A4B2B4F5005F0CD1584AD2E9000123
:101CB00000F095FAC92805D3544800F0B9FA01207C
:101CC0001C490870A4B2B4F5804F0CD1504AD2E937
:101CD000000100F084FAC92805D34D4800F0A8FAA5
:101CE000012017490870A4B2B4F5004F0CD1494A3D
:101CF000D2E9000100F073FAC92805D3454800F085
:101D000097FA01200C490870A4B2402C0CD1424A29
:101D1000D2E9000100F063FAC92805D33E4800F07B
:101D200087FA0120054908703C48048010BD000076
:101D3000990D00209A0D00209B0D00209C0D002085
:101D40009D0D0020F80C0020F00C00200014014034
:101D50002C0C0020600C00200088C34000000020F4
:101D60004C0C002000180140080D00209E0D0020A2
:101D7000000D0020100D00209F0D002012010020FA
:101D800004000020A20D0020A00D0020A80C0020BF
:101D900013010020A10D0020600D0020A30D0020E4
:101DA000640D0020A40D0020700C0020A70D002061
:101DB000A50D0020B40C002014010020A60D002069
:101DC000680D0020A80D00206C0D0020A90D00203A
:101DD000800C0020700D00207E0D0020800D002062
:101DE000820D0020840D0020860D0020880D00202B
:101DF0008A0D00208C0D00208E0D0020900D0020FB
:101E0000920D0020180D0020AA0D0020200D0020AA
:101E1000280D0020300D0020380D00207C0D002002
:101E200002B44FF00E0101FB00F04FF0240190FBD3
:101E3000F1F10844C82880F2098000BF00BF0338D0
:101E400004E002B44FF4615101FB00F00138FDD809
:101E500002BC7047F8B400250024002500220026AB
:101E6000002307E0DFF8D0522D6835EA0404B24DB4
:101E70002C605B1C102B80F0C680012414FA03F543
:101E80000C682C40AC42F4D14E68002E27D0012EB5
:101E90001AD0022E1DD0032E2FD0112E16D0122EA6
:101EA0001AD0A64FBE421AD0A54FBE4217D0A54F9A
:101EB000BE4214D0A44FBE4211D0A44FBE420ED099
:101EC000A34FBE420BD01AE0CA6818E0CA68121DC0
:101ED00015E0CA68083212E0CA680C320FE08A685E
:101EE000002A01D1042207E08A68012A02D10822CF
:101EF000056101E00822456101E00022FFE7FF2CB7
:101F000001D8050000E0051DFF2C01D89E0002E06D
:101F1000B3F10806B6002F685FF00F0C1CFA06FC40
:101F200037EA0C0712FA06F63E432E604D68ED00C4
:101F30009FD5884D2D6855F00105864E3560854D3D
:101F40002D6815F001050095009D834D9E0855F8FC
:101F500026500F2613F00307FFB2BF00BE40B54363
:101F60007E4EB04201D100260FE07D4EB04201D13D
:101F700001260AE07B4EB04201D1022605E07A4EEE
:101F8000B04201D1032600E0042613F00307FFB29C
:101F9000BF00BE403543704E9F0846F827504D683D
:101FA000ED0305D5714D2D682543704E356004E075
:101FB0006E4D2D68A5436D4E35604D68AD0305D55A
:101FC0006B4D2D6825436A4E356004E0684D2D68E1
:101FD000A543674E35604D68ED0205D5654D2D680A
:101FE0002543644E356004E0624D2D68A543614E83
:101FF00035604D68AD027FF535AF4F4D2D682C43F0
:102000004D4D2C6035E7F1BC7047F0B40022002341
:10201000002400252DE0042512F00306F6B2B600D8
:10202000B540AC4224D10F2412F00305EDB2AD004F
:10203000AC40494D960855F8265035EA0404464D03
:10204000960845F82640494C24689C43474D2C602F
:10205000474C24689C43464D2C60464C24689C4366
:10206000444D2C60344C246834EA0303324C236022
:10207000521C0B00D340002B3BD0012393400B405C
:10208000002BF5D0FF2B01D8040000E0041DFF2B2E
:1020900001D8950002E0B2F10805AD0026680F27CF
:1020A000AF40BE43042717FA05F535432560C468E1
:1020B0009C43C460284C950854F825400F2512F025
:1020C0000306F6B2B600B5402C40244DA84201D11B
:1020D0000025A1E7224DA84201D101259CE7214D11
:1020E000A84201D1022597E71F4DA84293D10325AD
:1020F00092E7F0BC7047806889B2084201D00120A5
:1021000000E00020C0B27047D2B2002A02D089B2EB
:10211000016102E089B209040161704780B5164986
:10212000096880B2014205D080B21349086080B2CC
:10213000FFF723FD01BD00000C0401400000111059
:1021400000001210000021100000221000003110C9
:102150000000321018100240080001400008014041
:10216000000C014000100140001401400004014037
:102170000404014008040140140401403348C088AD
:10218000401C3249C8803148C088B0F57A7F07DBEF
:1021900000202E49C8802D484079401C2B494871A9
:1021A0002A4840793C2807DB002028494871274805
:1021B0000079401C25490871244800793C2807DB38
:1021C00000202249087121480068401C1F4908600E
:1021D00070471E49D1E90023C0E90023704703B4CA
:1021E0001A4800681A49194A12794EF660235A4370
:1021F00001FB0020154949794FF47A7202FB010076
:102200001249C98808180099114A02FB11009DF86B
:1022100004104EF6602202FB11009DF805104FF4E9
:102220007A7202FB1100BDF80610401A02B0704726
:10223000064909680160054909790171034949792D
:1022400041710249C988C18070470000400D0020DB
:1022500080EE360070B58AB006000C00150000F064
:1022600076F94AF6C870FFF7DBFDDFF85009C47055
:10227000DFF8480906710020DFF840194871002096
:10228000DFF8381988710020DFF830194870E4B29F
:10229000022C07DBDFF82409407850F00800DFF853
:1022A0001C194870032000F0E2F841F28830FFF773
:1022B000B7FD032000F0DBF841F28830FFF7B0FDF6
:1022C000032000F0D4F841F28830FFF7A9FD022086
:1022D00000F0CDF8C820FFF7A3FDDFF8E008407854
:1022E00050F02000C0B200F09EF80420DFF8CC18B7
:1022F000087000F086F800F02DF80220DFF8BC1816
:102300008870DFF8B808807850F00400C0B200F0A0
:102310008AF841F28830FFF783FD05A8DFF8A0189E
:10232000142203F099FC05AA0021002000F01BF8FC
:102330006846DFF89018142203F08EFC6A460121EB
:10234000002000F010F82800FFF77BFD00F002F8F5
:102350000AB070BD80B5012000F065F840F6AC50C1
:10236000FFF75EFD01BD10B51400C9B2C0B200F0A8
:10237000CFF80AE0207800F068F8DFF840084079EC
:10238000401CDFF838184871641C2078002837D0CA
:10239000DFF828084079DFF824180979884212D339
:1023A0000020DFF818184871DFF810088079401C09
:1023B000DFF808188871DFF804088179DFF8FC0776
:1023C000407900F0A5F820780A280FD1DFF8EC0753
:1023D0008079401CDFF8E4178871DFF8E007817925
:1023E000DFF8D807407900F093F8CDE720780D2882
:1023F000C0D1DFF8C8078179002000F089F8C3E771
:1024000010BD80B5DFF8B407007850F00400DFF8A5
:10241000AC170870DFF8A407007850F00800C0B2CD
:1024200000F001F801BD10B5040000220221DFF820
:102430009C07FFF769FE2000C0B2000900F017F802
:1024400014F00F0000F013F810BD10B504000122C5
:102450000221DFF87807FFF757FE2000C0B200091D
:1024600000F005F814F00F0000F001F810BD10B5F1
:102470000400200706D501220121DFF84C07FFF7F1
:1024800043FE05E000220121DFF83C07FFF73CFE98
:10249000600706D501220221DFF82C07FFF734FE82
:1024A00005E000220221DFF82007FFF72DFEA0073C
:1024B00006D501220421DFF81007FFF725FE05E00D
:1024C00000220421DFF80007FFF71EFEE00706D513
:1024D00001220821DFF8F006FFF716FE05E00022D2
:1024E0000821DFF8E406FFF70FFE01220121DFF8E3
:1024F000DC06FFF709FE3C20FFF792FC00220121D9
:10250000DFF8C806FFF700FE3C20FFF789FC10BD8E
:1025100010B582B06A46DFF8B8361C6814600A004D
:10252000DFF89836DB78D2B29A4200D30021DFF888
:102530008C265071DFF8842691716A46C9B2515CCD
:10254000081850F08000C0B2FFF76DFF13BD80B5D2
:1025500001220821DFF87006FFF7D6FD00220821CE
:10256000DFF86406FFF7D0FD01220421DFF85806EA
:10257000FFF7CAFD00220421DFF84C06FFF7C4FD77
:1025800001220221DFF84006FFF7BEFD00220221F2
:10259000DFF83406FFF7B8FD01220121DFF8280635
:1025A000FFF7B2FD00220121DFF81C06FFF7ACFDAA
:1025B00001220121DFF81406FFF7A6FD0022012108
:1025C000DFF80806FFF7A0FD01220221DFF8FC0575
:1025D000FFF79AFD00220221DFF8F005FFF794FDD6
:1025E00001BD80B5DFF8EC2501210020FFF7BBFE1F
:1025F000DFF8EC050088ADF800006A4601210920EB
:10260000FFF7B1FE01BD10B588B00400D3A20021D0
:102610000020FFF7A8FE02A8DFF8BC150A680260D8
:1026200002AA00210320FFF79EFEDFF8B02500215B
:102630000420FFF798FE42F21070844201D342F268
:102640000F746420B4FBF0F06421B0FBF1F1303181
:102650008DF800109DF80010302902D120218DF84E
:1026600000106421B0FBF1F201FB12010A22B1FB60
:10267000F2F130318DF801109DF80110302906D1AA
:102680009DF80010202902D120218DF801100A2187
:10269000B0FBF1F201FB120030308DF80200002097
:1026A0008DF803000DF1010200210920FFF75BFE08
:1026B0006420B4FBF0F100FB11402C218DF80010D8
:1026C0000A21B0FBF1F130318DF801100A21B0FB85
:1026D000F1F201FB120030308DF8020000208DF87D
:1026E00003006A4600210B20FFF73DFEA7208DF86E
:1026F00008002E208DF8090000208DF80A0002AA9B
:1027000000210E20FFF72FFE03A8DFF8D8141422B3
:1027100003F0A2FA03AA01210020FFF724FE08B06B
:1027200010BD10B58CB0040002A8DFF8BC14142250
:1027300003F092FA02AA00210020FFF714FEDFF84E
:10274000AC04844201D3DFF8A8446420B4FBF0F069
:102750006421B0FBF1F130318DF800109DF80010CC
:10276000302902D120218DF800106421B0FBF1F254
:1027700001FB12010A22B1FBF2F130318DF8011098
:102780009DF80110302906D19DF80010202902D1B2
:1027900020218DF801100A21B0FBF1F201FB12009B
:1027A00030308DF8020000208DF803006A460021C9
:1027B0000820FFF7D8FD6420B4FBF0F100FB1140C6
:1027C0002C218DF800100A21B0FBF1F130318DF889
:1027D00001100A21B0FBF1F201FB120030308DF83C
:1027E000020000208DF803006A4600210B20FFF74D
:1027F000BAFDA7208DF808002E208DF809000020D2
:102800008DF80A0002AA00210E20FFF7ACFD07A8F0
:10281000DFF8E013142203F01FFA07AA01210020B9
:10282000FFF7A1FD0CB010BD10B58AB00C0080B24E
:10283000B0F57A7F01DB40F2E73080B2642190FB93
:10284000F1F130318DF800109DF80010302902D1DF
:1028500020218DF8001080B2642190FBF1F201FB81
:1028600012010A2291FBF2F130318DF801109DF82E
:102870000110302906D19DF80010202902D1202115
:102880008DF8011080B20A2190FBF1F201FB1200D9
:1028900030308DF8020000208DF803006A460021D8
:1028A0000020FFF760FD02A8DFF84C13D1E90023F8
:1028B000C0E9002302AA00210320FFF754FDA4B2BF
:1028C000B4F57A7F01DB40F2E734A4B2642094FBD4
:1028D000F0F030308DF800009DF80000302802D173
:1028E00020208DF80000A4B2642094FBF0F100FBDE
:1028F00011400A2190FBF1F030308DF801002E20BC
:102900008DF80200A4B20A2094FBF0F100FB114004
:1029100030308DF8030000208DF804006A46002155
:102920000920FFF720FDA7208DF800002E208DF84C
:10293000010000208DF802006A4600210E20FFF7FA
:1029400012FD04A8DFF8B412142203F085F904AADA
:1029500001210020FFF707FD0AB010BD4845200007
:10296000F0B58FB004000E0015001F0009A8DFF8B5
:102970009012142203F070F904A8DFF888121422D0
:1029800003F06AF9FFB2002F05D004AA002100204D
:10299000FFF7E9FC04E009AA00210020FFF7E3FCAF
:1029A000B6F57A7F01D340F2E736642E2ED3642049
:1029B000B6FBF0F030308DF800009DF800003028B4
:1029C00002D120208DF800006420B6FBF0F100FB5E
:1029D00011600A21B0FBF1F030308DF801009DF854
:1029E0000100302806D19DF80000202802D12020C7
:1029F0008DF801002C208DF802000A20B6FBF0F1C2
:102A000000FB116030308DF8030013E020208DF8BA
:102A100000000A20B6FBF0F030308DF801002C20C9
:102A20008DF802000A20B6FBF0F100FB1160303097
:102A30008DF8030000208DF804006A46002109206B
:102A4000FFF791FCA7208DF800002E208DF80100E3
:102A500000208DF802006A4600210D20FFF783FC5C
:102A6000B4F57A7F01D340F2E734642C2ED364208E
:102A7000B4FBF0F030308DF800009DF800003028F5
:102A800002D120208DF800006420B4FBF0F100FB9F
:102A900011400A21B0FBF1F030308DF801009DF8B3
:102AA0000100302806D19DF80000202802D1202006
:102AB0008DF801002C208DF802000A20B4FBF0F103
:102AC00000FB114030308DF8030013E020208DF81A
:102AD00000000A20B4FBF0F030308DF801002C200B
:102AE0008DF802000A20B4FBF0F100FB11403030F9
:102AF0008DF8030000208DF804006A4601210020B3
:102B0000FFF731FC20208DF80000A7208DF8010090
:102B10002E208DF802002D208DF8030000208DF866
:102B200004006A4601210420FFF71DFC6420B5FB68
:102B3000F0F030308DF800009DF80000302802D110
:102B400020208DF800009DF80000302802D12020C0
:102B50008DF800006420B5FBF0F100FB11500A2154
:102B6000B0FBF1F030308DF801009DF80100302805
:102B700006D19DF80000202802D120208DF8010008
:102B80000A20B5FBF0F100FB115030308DF8020047
:102B900000208DF803006A4601210820FFF7E3FBBF
:102BA00002A8DFF86410D1E90023C0E9002302AADB
:102BB00001210B20FFF7D7FB0FB0F0BD480D00201F
:102BC00044830008588300080010014000080140B9
:102BD000648400086C830008688400084C84000842
:102BE000322E00088083000894830008A08601002C
:102BF0009F860100A883000854840008BC83000855
:102C0000D0830008E48300085C840008002840F1B9
:102C10000980F446404200F005F850F0004060475B
:102C2000002800BF0AD0B0FA80F18840D1F19D01A0
:102C3000C905020672F1004241EB10207047010203
:102C40005FF0FF0C1CEAD05114BF614506E0C110D3
:102C5000400721F0E04101F16051704779B900F07F
:102C6000004100020AD0B0FA80FC00FA0CF001F139
:102C70006051A1EB0C5101EBD0214005704741029E
:102C80000CBF40F4E0016FF000010020704701022A
:102C9000B0B581EA030C0CF0004C40F2FF7515EA68
:102CA00011541DBF15EA1357AC42AF4239E0E41985
:102CB00023EA455343F48013C90241F0004141EA3D
:102CC000505EC7021100A7FB020200284FF000006F
:102CD000EEFB01204FF00001E3FB072118BF42F09B
:102CE0000102401800214941E3FB0E01A4F5806474
:102CF0000F0302D252004041494154F101046CDDFE
:102D0000470872F1004250F1000051EB0451A1F567
:102D100080115CBF41EA0C01B0BD4CEA05510020B6
:102D2000B0BD05EA1357AC4214BFAF4241E050EAD0
:102D3000410E1CBF52EA430E02E061460020B0BDC6
:102D400024423C441BD15FEA070EF6D0090302BFC0
:102D500001460020AEF1140EB1FA81F7AEEB070484
:102D600001FA07FE0C37C7F1200100FA07F7C84047
:102D70004EEA000E23EA455343F48013A2E733F0F2
:102D80000043B3FA83F704BFB2FA82FE77440B3FE5
:102D9000E41BB7F1200E2FBF02FA0EF3BB40C7F1C0
:102DA000200E22FA0EFE38BF43EA0E03BA40641C1E
:102DB00082E750EA410E14BF52EA430E6FF0000161
:102DC0004FF4001717EB430F8ABF194617EB410F5B
:102DD000B5E74CEA05510020B0BDD4F10104B4F1CF
:102DE00020070FDAC4F12007520828BF42F0010281
:102DF00010FA07F501FA07F7E1BF2A43E04038432C
:102E0000E1400FE0352C98DCC7F1200452EA400283
:102E100020FA07F218BF42F0010231FA07F0A14090
:102E20000A43002172F1004250F1000051EB0C0105
:102E3000B0BDAE002DE9F04140F2FF7581EA030C10
:102E40000CF0004C15EA11541DBF15EA1357AC42A3
:102E5000AF42E9E0BC41C1F31301C3F31303801A8D
:102E6000994143F4801304D2641E40004941801804
:102E70005941C90241EA5051B1FBF3F603FB161167
:102E8000A2FB0675D7EBC020A94102D2761E80189E
:102E90005941C90241EA5051B1FBF3FE03FB1E1137
:102EA000A2FB0E75D7EBC020A94103D2AEF1010EF3
:102EB00080185941890241EA9051760546EA8E2EE2
:102EC000B1FBF3F603FB1611A2FB0675D7EB8020CE
:102ED000A94102D2761E80185941C90241EA5051D7
:102EE0004EEA060EB1FBF3F603FB1611A2FB0675C4
:102EF000D7EBC020A94102D2761E80185941C902E1
:102F000041EA5051B1FBF3F703FB1711A2FB073560
:102F1000D3EBC020A94167F100070CBF004247F086
:102F2000010766F3D5274FEA1E31B80814F580640F
:102F300014DDBD0775F1004250EB0E5051EB04510A
:102F400011F5801F5CBF41EA0C01BDE8F0814CF037
:102F50007F6141F0E0410020BDE8F081BD076D08D0
:102F600040EA0E5041F48011D4F10104B4F120067E
:102F70000ADAC4F120060200E04001FA06F3E1405B
:102F80001843B24015430EE0342C14DCC6F1200483
:102F900045EA40056D0820FA06F2154321FA06F0CD
:102FA000A1400D43002175F1004250F1000051EBAA
:102FB0000C01BDE8F08100205FEA0C01BDE8F08162
:102FC000CFB992185B41B3FA83F704BFB2FA82F625
:102FD000BF190B3FB7F120062FBF02FA06F3BB4023
:102FE000C7F1200622FA06F638BF3343BA401CB1B7
:102FF000E419641E2FE77F4231F00041B1FA81F4F9
:1030000004BFB0FA80F6A4190B3CB4F120062FBF20
:1030100000FA06F1A140C4F1200620FA06F638BFF6
:103020003143A0403C1B16E7AC421ABF05EA1357D8
:10303000AF4214E050EA41061CBF52EA4306BFE724
:1030400050EA4107304661461CBF41EA0551BDE8E0
:10305000F08152EA430C08BFC143BDE8F081002073
:103060004FF4001616EB410F98BF16EB430F08BF45
:1030700016EB410F24BFC14305E016EB430F0CBF15
:1030800061464CEA0551BDE8F0810000F446400D70
:1030900040EAC120490006D200F014F8004248BFBF
:1030A0006FF00040604700F00DF84FF0004188429B
:1030B0008CBF084640426047400D40EAC1204900AD
:1030C00080F00D8040F00040490DA1F58061491C61
:1030D00005D4D1F11F0154BFC840C01770474FF04D
:1030E0000000704740000DD2010E7F390AD4D1F1A3
:1030F0001F0104D4C00140F00040C84070477FF079
:10310000000070470020704710B50400002094F8BC
:103110002400012801D1022065E0012084F8240068
:10312000200002F010F9C0B2002858D1A16ADFF8DF
:10313000BC24114051F48051A1622168DFF8B02411
:10314000914209D1DFF8AC14096811F4702F01D154
:10315000012102E0002100E00121002904D0A16A40
:1031600031F48011A16203E0A16A51F48011A162DF
:10317000A16AC90501D40021E162002184F824106C
:103180007FF004012268116021684968490529D44B
:103190002168896811F4E041B1F5E04F18D1216848
:1031A000DFF84C24914209D1DFF84814096811F482
:1031B000702F01D1012102E0002100E0012100294E
:1031C00006D02168896851F402112268916009E0F3
:1031D0002168896851F400412268916002E0002171
:1031E00084F82410C0B210BD10B50400002094F87B
:1031F0002400012801D102201FE0012084F82400CE
:10320000A06AC00510D42068406840050CD4200096
:1032100002F0DAF8C0B200280BD1A16A31F488516B
:1032200051F00101A16204E0A06A50F02000A06208
:103230000120002184F82410C0B210BDF8B50400AC
:103240000D0000200090002702F032FD06002068EB
:10325000806B10F4401F16D12068006840076DD4C1
:1032600015F1010FF8D0002D04D002F021FD801BD4
:103270008542F1D2A06A50F00400A062002084F8D8
:103280002400032083E0022001F0EEFD216809699B
:10329000DFF86423114215D12168C968DFF85C2387
:1032A00011420FD121680969DFF85423114207D177
:1032B0002168C968DFF84C23114201D114211CE0B8
:1032C00029211AE021680969DFF83423114205D168
:1032D0002168C968DFF82C2311420BD021680969E5
:1032E000DFF82423114207D12168C968DFF81823C9
:1032F000114201D1542100E0FC21DFF8EC221268D8
:10330000B2FBF0F001FB00F702E00098401C0090D7
:103310000098B84212D215F1010FF6D0002D04D05A
:1033200002F0C6FC801B8542EFD2A06A50F0040078
:10333000A062002084F82400032028E07FF00E0023
:1033400021680860A06A50F40050A062206880687C
:1033500010F4E040B0F5E04F0DD020684068400523
:1033600014D42068806810F46020B0F5602F0DD16F
:10337000E06800280AD1A06A30F48050A062A06AF8
:10338000C00503D4A06A50F00100A0620020F2BD85
:10339000002202290AD00CD3042901D003D308E06B
:1033A0000068826C07E00068426C04E00068026C10
:1033B00001E00068C26B1000704778B40A00002179
:1033C000002300938368002B90F82430012B01D157
:1033D000022006E1012380F824308368002B12D1FB
:1033E0005368012B09D103689B6B9B0D9B051468E7
:1033F00053EAC4330468A36335E0816A51F02001C5
:10340000816201212FE013695468A3421CD3036831
:103410009B6B1F2415695668751BED1C05267543AB
:10342000AC4054F44014A3431469641E53EA04539B
:10343000146815695668751BED1C05267543AC406C
:1034400023430468A3630EE003689B6B1F24156984
:103450005668751BED1C05267543AC4054F44014AA
:10346000A3430468A36303689B68DB0707D403686E
:103470009B68664C2340D46923430468A360936926
:10348000012B0FD1D369B3F5E04F06D103685B6818
:1034900053F480630468636004E0816A51F02001A2
:1034A000816201215369012B0ED19369002B06D152
:1034B00003685B6853F480530468636004E0816AC6
:1034C00051F020018162012113680A2B12D3036895
:1034D000DB68072415680A3D03267543AC40A34307
:1034E000946815680A3D03267543AC40234304687D
:1034F000E3600FE003681B69072415680326754322
:10350000AC40A3439468156803267543AC4023433D
:10351000046823611368102B02D01368112B05D1A6
:1035200003689B6853F400030468A3605368012B8D
:1035300004D01ED3032B13D009D31AE003685B69B0
:103540001B0B1B03D46823430468636119E0036801
:103550009B691B0B1B03D46823430468A36110E021
:103560000368DB691B0B1B03D46823430468E36116
:1035700007E003681B6A1B0B1B03D4682343046822
:1035800023621368102B02D01368112B24D1036817
:103590001F4CA3421BD103689B681B021CD4036809
:1035A0009B6853F400030468A3601268102A13D1C7
:1035B0000D4A1268174BB2FBF3F20A235A430092EA
:1035C000009A002A08D0009A521E0092F8E7816AF9
:1035D00051F0200181620121002280F8242008009E
:1035E000C0B272BC704700000C000020FEDFFFFF7D
:1035F00000280140042401402449922424499200D7
:10360000922449129224490049922400FE8FFFFF20
:103610000024014040420F00F0B44FF0004591EA11
:10362000030F44BF6B4000F0C1B800BF841A71EBB8
:10363000030604D26E40001BB141121973414FF4CE
:10364000001C1CEB410F34BF7CEB430684E00C0DE7
:10365000A4EB1356362E7DDC012E43DC45EAC32352
:1036600043EA525312BFD20292025B08240545EA94
:10367000C12141EA5051D2EBC020994125D407D154
:10368000B0FA80F610FA06F164D00020203608E087
:10369000B1FA81F6B140C6F1200220FA02F21143DC
:1036A000B0404FEAF474B4EB465434F001064FEAEC
:1036B00074040AD8D6F50016760D04F00044F040E4
:1036C00061FA06F25040F1404840C00A40EA4150D9
:1036D00021F0004128BF5FEA500550F1000044EBA3
:1036E000D12137E045EAC323DB0A45EAC121C90AF3
:1036F000B6F120050EDD42EA0242120CC5F12006A9
:1037000003FA06F6EB4042EA06056D42984161F184
:1037100000010DE062FA06F5F240554063FA06FC3E
:1037200082EA0C02F3405A406D42904161EB030182
:1037300011F4801F05D1641E620502D06D00404166
:10374000494121F48011430875F1004350F1000014
:1037500041EB0451F0BC70471CEB410F15D223F034
:10376000004352EA43060BD04FEA4C0CBCEB410F2E
:1037700004D80C0D661E342EB7DDEBE7801A994194
:1037800050EA410608BF0021E4E708BF1CEB430FE5
:1037900028BF6FF00001DDE7F0B44FF0004591EA7B
:1037A000030C44BF6B40FFF741BF00BF841A71EBAD
:1037B000030603D2001BB141121973414FF4001CE0
:1037C0001CEB410F34BF7CEB430443E00C0DA4EB36
:1037D0001356352E50DC45EAC323DB0A45EAC121E6
:1037E000C912B6F120050DDD63FA05F6EB4086EA55
:1037F0000305124218BF45F00105C01851F1000140
:103800000CD213E062FA06F5F2405540F3415A40FB
:10381000B340F3405A408018594107D349085FEA42
:1038200030005FEA350528BF45F0010501F580113C
:10383000420875F1004250F1000041EB0451F0BC28
:103840004FF4001C1CEB410F38BF70470020090DDE
:10385000090570471CEB410F10D252EA43060BD00A
:10386000BCEB410F05D80C0DAB43661E342EB5DD05
:1038700002E0AB4380185941F0BC7047F0BC704780
:1038800080B50848006850F0100006490860032021
:1038900001F0D6FB002002F011FA02F023FA00201A
:1038A00002BD00000020024010B50400002C01D130
:1038B000012014E094F83D00002805D1002084F890
:1038C0003C00200002F0E0FA022084F83D00211DB7
:1038D000206800F05AF9012084F83D00002010BD56
:1038E0000168C96851F001010268D1600168096886
:1038F00051F00101006801600020704710B504001C
:103900002068006980071AD52068C068800716D52E
:103910007FF002002168086101202077206880691B
:1039200010F0030F03D0200002F062FB05E020003E
:1039300002F05FFB200002F05DFB00202077206892
:10394000006940071AD52068C068400716D57FF087
:10395000040021680861022020772068806910F443
:10396000407F03D0200002F043FB05E0200002F07E
:1039700040FB200002F03EFB002020772068006919
:1039800000071AD52068C068000716D57FF0080028
:1039900021680861042020772068C06910F0030FB7
:1039A00003D0200002F024FB05E0200002F021FB00
:1039B000200002F01FFB0020207720680069C0066D
:1039C0001AD52068C068C00616D57FF0100021689F
:1039D0000861082020772068C06910F4407F03D078
:1039E000200002F005FB05E0200002F002FB2000B1
:1039F00002F000FB0020207720680069C0070AD58C
:103A00002068C068C00706D57FF001002168086102
:103A1000200002F0F0FA2068006900060AD520684C
:103A2000C068000606D57FF080002168086120008C
:103A300002F0E2FA2068006940060AD52068C068F2
:103A4000400606D57FF0400021680861200002F0A2
:103A5000D4FA2068006980060AD52068C06880060C
:103A600006D57FF0200021680861200002F0C6FA28
:103A700010BD10B50400002094F83C00012801D1CD
:103A8000022081E0012084F83C00022084F83D00FF
:103A90002068806830F0770030F47F4022689060C2
:103AA0000868002855D0102858D020285BD030282E
:103AB0005ED0402843D050282DD0602835D07028C3
:103AC0000DD0B0F5805F03D0B0F5005F16D054E0A4
:103AD00020688068C008C000216888604DE0CB681D
:103AE0004A688968206800F0BCF82068806830F077
:103AF000770050F07700216888603EE0CB684A6824
:103B00008968206800F0ADF82068806850F4804033
:103B10002168886031E0CA684968206800F06EF862
:103B20005021206800F093F827E0CA6849682068AF
:103B300000F078F86021206800F089F81DE0CA687C
:103B40004968206800F05AF84021206800F07FF8AA
:103B500013E00021206800F07AF80EE010212068C0
:103B600000F075F809E02021206800F070F804E00A
:103B70003021206800F06BF8FFE7012084F83D0059
:103B8000002084F83C00002010BD00220268184B81
:103B9000984208D0B0F1804F05D0164B984202D021
:103BA000154B984203D132F070024B681A43104B08
:103BB000984208D0B0F1804F05D00E4B984202D009
:103BC0000D4B984203D132F44072CB681A4332F065
:103BD00080024B691A4302608A68C2620A68826284
:103BE000034A904201D10969016301214161704793
:103BF000002C0140000400400008004010B40023E5
:103C00000024046A036A5B085B000362836933F083
:103C1000F00353EA021334F00A040C438361046294
:103C200010BC704710B400230024036A33F0100363
:103C300003628369046A33F4704353EA023334F055
:103C4000A00454EA01148361046210BC704700228E
:103C5000826832F0700289B251F007010A43826033
:103C6000704710B40024846834F47F44114351EA4F
:103C700003210C43846010BC7047000080B500F045
:103C8000E1FA002801D000F031FC01BDDFF878082E
:103C90000078DFF878180978884208D3DFF86808D8
:103CA0000078DFF868180978401AC0B208E0DFF839
:103CB0005C0800784042DFF8501809780818C0B254
:103CC0007047C0B2002809D13020DFF844180870CE
:103CD0000A20DFF83C184870022044E0C0B20128F6
:103CE0000DD12D20DFF8281808703120DFF82018BA
:103CF00048700A20DFF818188870032033E0C0B23B
:103D000002280DD12D20DFF8081808703220DFF8C6
:103D1000001848700A20DFF8F8178870032022E0A6
:103D2000C0B203280DD12D20DFF8E417087033202E
:103D3000DFF8DC1748700A20DFF8D41788700320FA
:103D400011E0C0B204280DD12D20DFF8C41708708F
:103D50003420DFF8BC1748700A20DFF8B4178870E9
:103D6000032000E00020704738B5040000255B20E8
:103D7000ADB260556D1CDFF89C070268EDA128000C
:103D800080B2204402F03CF945192C20ADB26055B8
:103D90006D1CDFF880074268E6A1280080B220444D
:103DA00002F02EF945192C20ADB260556D1CDFF8DC
:103DB00064078268DFA1280080B2204402F020F965
:103DC00045192C20ADB260556D1CDFF84807C2685C
:103DD000D8A1280080B2204402F012F945192C2005
:103DE000ADB260556D1CDFF82C070269D1A1280027
:103DF00080B2204402F004F945192C20ADB2605580
:103E00006D1CDFF814070068FEF71AFF0022DFF8C8
:103E10000C37FEF73DFFFFF739F90200C5A1280076
:103E200080B2204402F0ECF845192C20ADB2605568
:103E30006D1CDFF8EC060278BEA1280080B2204499
:103E400002F0DEF845192C20ADB260556D1CDFF88C
:103E5000D4060278B7A1280080B2204402F0D0F83E
:103E600045192C20ADB260556D1CDFF8BC06026808
:103E7000B0A1280080B2204402F0C2F845192C20DD
:103E8000ADB260556D1CDFF8A0064268A9A12800FC
:103E900080B2204402F0B4F845192C20ADB2605530
:103EA0006D1CDFF884068068FEF7CAFE0022DFF88A
:103EB0006C36FEF7EDFEFFF7E9F802009DA1280041
:103EC00080B2204402F09CF845192C20ADB2605518
:103ED0006D1CDFF85806027896A1280080B22044B5
:103EE00002F08EF845192C20ADB260556D1CDFF83C
:103EF0003C0682788FA1280080B2204402F080F82E
:103F000045192C20ADB260556D1CDFF82006826883
:103F100088A1280080B2204402F072F845192C20B4
:103F2000ADB260556D1CDFF80406C27D81A128008A
:103F300080B2204402F064F845192C20ADB26055DF
:103F40006D1CDFF8E805027E7AA1280080B22044CB
:103F500002F056F845192C20ADB260556D1CDFF803
:103F6000CC05427E73A1280080B2204402F048F8BC
:103F700045192C20ADB260556D1CDFF8B005027DEF
:103F80006CA1280080B2204402F03AF845192C2098
:103F9000ADB260556D1CDFF89405427D65A1280027
:103FA00080B2204402F02CF845192C20ADB26055A7
:103FB0006D1CDFF87805827D5EA1280080B2204468
:103FC00002F01EF845192C20ADB260556D1CDFF8CB
:103FD0005C05827E57A1280080B2204402F010F8D0
:103FE00045192C20ADB260556D1CDFF84005C27E2E
:103FF00050A1280080B2204402F002F845192C207C
:10400000ADB260556D1CDFF82405427C49A1280043
:1040100080B2204401F0F4FF45192C20ADB2605568
:104020006D1CDFF80805027F42A1280080B2204401
:1040300001F0E6FF45192C20ADB260556D1CDFF88C
:10404000EC0482893BA1280080B2204401F0D8FF13
:1040500045192C20ADB260556D1CDFF8D004027CF0
:1040600034A1280080B2204401F0CAFF45192C2059
:10407000ADB260556D1C0122D2B22EA1280080B2D3
:10408000204401F0BDFF45195D20ADB260556D1CA7
:10409000DFF89804C28927A1280080B2204401F0EB
:1040A000AFFF45195D20ADB260556D1C0A20ADB261
:1040B00060556D1C280080B232BD10B50400DFF8D9
:1040C00068048068FFF70EF802001AA1200001F0D2
:1040D00097FF0A2180B22154401C80B210BD80B5E8
:1040E0000A22694601F0A6FFFEF790FDFEF7A8FD43
:1040F0000022DFF82834FEF79DFE00F06DFADFF8AD
:10410000181408600098401C00900A226946009824
:1041100001F090FFDFF8081408700098401C009030
:104120000A220021009801F085FFDFF8F8130870DB
:1041300001BD00002564000080B50A22694601F037
:1041400079FFDFF8EC1348600098401C00900A22C9
:104150006946009801F06EFFDFF8D413C86000983C
:10416000401C00900A226946009801F063FFDFF8C6
:10417000C01348610098401C00900A2269460098CC
:1041800001F058FFDFF8A813C8610098401C0090A8
:104190000A226946009801F04DFFDFF89413486247
:1041A0000098401C00900A226946009801F042FFE6
:1041B000DFF87C13C8620098401C00900A22694610
:1041C000009801F037FFDFF8681348630098401C3F
:1041D00000900A226946009801F02CFFDFF8501386
:1041E000C8630098401C00900A220021009801F04A
:1041F00021FFDFF83C13486401BD70B504000A22BA
:104200000021200001F016FF0500C7484068FEF7B6
:1042100007FD06002800FEF7F9FC310001F00EFF53
:10422000FEF760FFC04948600A220021200001F02B
:1042300001FFFEF7EBFCBC49896801F0FFFEBA49BB
:10424000886070BDBB48808DBA49C98D401A401E38
:10425000B949C0B2095C0A2909D1AB490978020001
:10426000D2B2914203D0A8490870012000E000209A
:10427000704780B5B048AF498862A548AD4908622B
:104280004FF48072AC49AB4801F058FA01BD38B523
:104290000400002501F014FFA64801F084FA4FF451
:1042A0008072A549A34801F049FAA448007867281C
:1042B0001FD1FFF7EBFC032803DB0320FFF701FD11
:1042C0004519FFF7E3FC022803DA0220FFF7F9FCA7
:1042D0004519FFF7DBFC022807D10020FFF7F1FCAE
:1042E0004519A01CFFF740FD4519EDB2280080B22A
:1042F000FBE092480078632840F0E3808F484078E4
:10430000732806D10020FFF7DCFC45198C48FFF725
:10431000E6FE8A484078662806D10020FFF7D1FCE7
:1043200045198748FFF708FF84484078772817D158
:10433000FFF7ACFC042803DB0320FFF7C2FC4519A0
:10434000FFF7A4FC032803DA0220FFF7BAFC4519A3
:10435000FFF79CFC032803D10020FFF7B2FC4519AE
:1043600076484078722817D1FFF790FC042803DBC9
:104370000320FFF7A6FC4519FFF788FC032803DAA2
:104380000220FFF79EFC4519FFF780FC032803D1AC
:104390000020FFF796FC4519684840786E281AD12E
:1043A000FFF774FC042803DB0320FFF78AFC4519A0
:1043B000FFF76CFC032803DA0220FFF782FC4519A3
:1043C000FFF764FC032806D10020FFF77AFC4519AB
:1043D0000220564908705948407869281BD1534833
:1043E0000078022813D10020FFF76BFC451900224A
:1043F0004FF480715348FDF787FE00224FF400719F
:104400005048FDF781FE00204849087403E004206D
:10441000FFF757FC4519494840786A2812D1002017
:10442000FFF74FFC451901224FF480714548FDF715
:104430006BFE01224FF400714248FDF765FE01203A
:104440003A4908743D4840786D282ED1FFF71EFC8C
:10445000042803DB0320FFF734FC4519FFF716FCA3
:10446000032803DA0220FFF72CFC4519FFF70EFCA6
:1044700003281AD12000FFF720FE451902202B49FE
:104480000870FCF737F928480068274949680C1874
:1044900025488068FEF726FE201A23490860002080
:1044A00021494860002020498860244840787428C9
:1044B00003D10020FFF705FC4519EDB2280080B2BA
:1044C00013E01E4800786D280AD10020FFF7F9FBA1
:1044D00045191D48FFF791FEEDB2280080B204E0B7
:1044E0000120FFF7EEFB4519002032BD80B50848DA
:1044F000FFF7CDFE020092B205490E4801F0F5F833
:1045000001F0FAFD01BD0000AC0D002015010020F6
:10451000180700204C0C0020080000200000594023
:1045200011010020120100209C0C00202C0C002006
:10453000700A00203C0B00201808002018090020F9
:104540001A090020001401401909002038B50400A0
:10455000002C01D1012020E04CF6CC4021680860FD
:1045600045F2555021680860606821684860A0687D
:104570002168886001F09CFB05002068C068002865
:1045800006D001F095FB401B3128F6D3032004E050
:104590004AF6AA2021680860002032BD4AF6AA2106
:1045A0000068016000207047010040F10980F44676
:1045B000404200F005F851F000416047010000BFA3
:1045C00009D0B0FA80F18840C91CC1F584610905A1
:1045D00001EBD021400570474FEAF17CBCF1E04C83
:1045E0002CBFBCF5001F11E05FEA4C0C34BFBCF1DE
:1045F0007F5F2EE05FEA9C0C4FEA0C1C4FEA3C0CFC
:10460000C10071F100414CEB50707047C90241EAA2
:104610005051C00218BF41F0010141F000414FEA82
:104620006C50C0F10900212810D240EACC7CCCF1BA
:10463000200C11FA0CF070F10040CCF1200C21FAA2
:104640000CF00CF0004C40EB0C0070474FEACC70C3
:104650007047490011F5001F04D84FEACC10FF3015
:10466000C0057047C81770474FF0807C1CEB400FA7
:1046700094BF1CEB410F05E040EA010C5FEA4C0CD3
:1046800001D28842704718BF8142704770B582B02E
:10469000040000252078C00740F18480DFF87C0604
:1046A000006810F00C0004280BD0DFF870060068DA
:1046B00010F00C0008280ED1DFF860060068C00377
:1046C00009D5DFF85C06006880036BD560680028B8
:1046D00068D1012002E26068B0F5803F08D1DFF8C0
:1046E0004006006850F48030DFF83416086038E087
:1046F0006068002810D1DFF82806006830F48030A8
:10470000DFF81C160860DFF81806006830F4802017
:10471000DFF80C16086024E06068B0F5A02F10D117
:10472000DFF8FC05006850F48020DFF8F41508601D
:10473000DFF8EC05006850F48030DFF8E41508601D
:104740000FE0DFF8DC05006830F48030DFF8D015CA
:104750000860DFF8CC05006830F48020DFF8C01571
:104760000860606800280ED001F0A2FA0500DFF8AA
:10477000B0050068800315D401F09AFA401B652843
:10478000F5D30320AAE101F093FA0500DFF89005C4
:104790000068800306D501F08BFA401B6528F5D32D
:1047A00003209BE12078800726D5DFF8700500689C
:1047B00010F00C0F0BD0DFF86405006810F00C004F
:1047C000082833D1DFF854050068C0032ED4DFF881
:1047D00050050068800704D52069012801D0012018
:1047E0007CE1DFF83C05006830F0F800616950EAD0
:1047F000C100DFF82C150860207800074ED5A069AD
:10480000002800F081800120DFF82015086001F009
:104810004FFA0500DFF81805006880073BD401F067
:1048200047FA401B0328F5D3032057E120690028ED
:104830001ED00120DFF8FC14086001F039FA0500F1
:10484000DFF8DC040068800706D401F031FA401B71
:104850000328F5D3032041E1DFF8C404006830F0F9
:10486000F800616950EAC100DFF8B4140860C3E7DA
:104870000020DFF8C014086001F01AFA0500DFF824
:10488000A00400688007B7D501F012FA401B032886
:10489000F5D3032022E1012000F02DFA2078400713
:1048A00040F1B9800026DFF890040068C0000FD402
:1048B000DFF88404006850F08050DFF87C14086052
:1048C000DFF87404006810F0805000900098012612
:1048D000DFF868040068C00529D4DFF860040068C8
:1048E00050F48070DFF85414086001F0E1F905001D
:1048F000DFF848040068C00519D401F0D9F9401B5D
:104900006528F5D30320E9E00020DFF820140860D3
:1049100001F0CEF90500DFF8180400688007BDD566
:1049200001F0C6F9401B0328F5D30320D6E0E06868
:10493000012808D1DFF80804006850F00100DFF812
:104940000014086037E0E068002810D1DFF8F003B9
:10495000006840084000DFF8E8130860DFF8E00373
:10496000006830F00400DFF8D813086023E0E06846
:10497000052810D1DFF8C803006850F00400DFF804
:10498000C0130860DFF8B803006850F00100DFF8DA
:10499000B01308600FE0DFF8A8030068400840008B
:1049A000DFF89C130860DFF89803006830F004001B
:1049B000DFF88C130860E068002810D001F078F967
:1049C0000500DFF87C030068800719D401F070F956
:1049D000401B41F289318842F3D303207EE001F08D
:1049E00067F90500DFF858030068800708D501F073
:1049F0005FF9401B41F289318842F3D303206DE017
:104A0000F6B2012E07D1DFF83003006830F0805095
:104A1000DFF824130860E06900285ED0DFF8FC02AC
:104A2000006810F00C00082855D0E06902283FD13A
:104A30000020DFF81013086001F03AF90500DFF8F4
:104A4000E0020068800106D501F032F9401B03281E
:104A5000F5D3032042E0206AB0F5803F09D1DFF8AA
:104A6000BC02006830F40030A1680843DFF8AC12E3
:104A70000860DFF8A802006830F47410216A084367
:104A8000616A0843DFF8941208600120DFF8B4126D
:104A9000086001F00DF90500DFF88402006880016C
:104AA0001BD401F005F9401B0328F5D3032015E0C2
:104AB0000020DFF89012086001F0FAF80500DFF836
:104AC00060020068800108D501F0F2F8401B03285D
:104AD000F5D3032002E0012000E0002076BD70B590
:104AE00004000D000026DFF86002006810F00700E7
:104AF000A84211D2DFF850020068C008C000284365
:104B0000DFF844120860DFF84002006810F0070088
:104B1000A84201D00120A1E02078800709D5DFF864
:104B2000FC01006830F0F000A1680843DFF8EC11E8
:104B300008602078C00756D56068012806D1DFF8E4
:104B4000E0010068800311D4012087E0606802283A
:104B500006D1DFF8CC010068800107D401207DE098
:104B60006F480068800701D4012077E06B48006837
:104B700080088000616808436849086001F098F87F
:104B80000600606801280ED16448006810F00C002F
:104B9000042828D001F08CF8801B41F2893188422A
:104BA000F2D303205AE0606802280ED15B48006807
:104BB00010F00C00082816D001F07AF8801B41F2A2
:104BC00089318842F2D3032048E05448006810F04D
:104BD0000C0F08D001F06CF8801B41F2893188423B
:104BE000F3D303203AE05848006810F007008542EC
:104BF0000ED255480068C008C000284352490860DA
:104C00005148006810F00700A84201D0012025E0BB
:104C10002078400707D54148006830F4E060E1683B
:104C200008433E4908602078000708D53B480068E3
:104C300030F46050216950EAC1003849086000F042
:104C40000EF84249354A1268C2F30312895CC84023
:104C500035490860002001F031F8002070BD00B532
:104C600085B001A83A49102200F0F6FF39480088C3
:104C7000ADF800000020002000200021002027487F
:104C8000006810F00C01042902D0082902D016E0B7
:104C9000244815E001A9C0F38342895CC0030AD50A
:104CA00068461E4A1268C2F34042805C1D4AB2FB4D
:104CB000F0F0484302E0284800FB01F000E019480A
:104CC00005B000BD18480068704780B5FFF7FAFFCF
:104CD0002249124A1268C2F30222895CC84002BD0E
:104CE00080B5FFF7EFFF1D490C4A1268C2F3C222DC
:104CF000895CC84002BD81B00B490968C9084FF4FE
:104D00007A72B1FBF2F14843009000BF0098411E57
:104D100000910028F9D101B0704700000410024052
:104D20000010024000127A000C0000208004424271
:104D300024100240000042421C100240007000405B
:104D40002010024060004242002002401884000807
:104D5000F88300083E2C000800093D004484000848
:104D600070B582B00400002600202078C00763D50B
:104D7000002576480068C0000CD47448006850F0E4
:104D80008050724908607148006810F080500090AF
:104D9000009801256E480068C00513D46C4800686F
:104DA00050F480706A49086000F082FF060068488D
:104DB0000068C00506D400F07BFF801B6528F6D391
:104DC000032050E06348006810F44070002822D0AF
:104DD000616811F4407188421DD05E48006830F46B
:104DE000407001215C4A116000215B4A1160594901
:104DF0000860C0070FD500F05BFF0600554800684B
:104E0000800708D400F054FF801B41F289318842AA
:104E1000F4D3032027E04F48006830F44070616805
:104E200008434C490860EDB2012D05D147480068A0
:104E300030F08050454908602078800707D5474802
:104E4000006830F44040A168084344490860207875
:104E5000C00607D54148006830F48000E168084387
:104E60003E490860002076BD10B586B0040001A858
:104E70003B49102200F0F0FE3A480088ADF80000EF
:104E800000200021002300220020012C2BD0022C26
:104E90004ED0102C57D1314A1268334B1B68DB01BE
:104EA00020D501A8C2F38343C35CD0030DD5684667
:104EB0002A4C2468C4F34044005DD20308D52B4932
:104EC000B1FBF0F003FB00F102E0294800FB03F125
:104ED00022480068400201D5080003E04800032191
:104EE000B0FBF1F02FE01B48026840F202301040A6
:104EF000B0F5817F02D14FF4004018E012F4407009
:104F0000B0F5007F06D11B480068800702D549F63E
:104F100040400CE012F44070B0F5407F06D11248DA
:104F20000068800302D54FF2244000E000200AE030
:104F3000FFF7D6FE09490968C1F38131491C4900D0
:104F4000B0FBF1F0FFE706B010BD00001C100240FE
:104F50000070004020100240400442420410024011
:104F6000088400088E2C00080010024000127A000D
:104F700000093D002410024010F007014748006876
:104F80004FF6FF021040464A52EA012108434349C6
:104F90000860704741480068C0F302207047012153
:104FA00010F01F0291403F4A40B2400942F82010E1
:104FB000704740B2002808D509013B4A40B210F0C2
:104FC0000F00104400F8041C03E00901374A40B206
:104FD0001154704710B410F00700D0F10703052BEF
:104FE00001D3042301E0D0F10703041D072C01D2F3
:104FF000002000E0C01E012414FA03F35B1E1940D8
:105000008140012313FA00F0401E1040084310BCF9
:10501000704780B5411EB1F1807F01D301200EE0C1
:10502000401E234908600F215FF0FF30FFF7C1FFEA
:1050300000202049086007201F490860002002BDA9
:1050400080B5FFF799FF01BD70B504000D00160093
:105050000020FFF79FFF32002900FFF7BBFF010090
:10506000200040B2FFF7A5FF70BD80B540B2FFF74A
:1050700096FF01BD80B5FFF7CCFF02BD042806D125
:105080000D48006850F004000B49086005E00A482C
:10509000006830F004000849086070470CED00E03B
:1050A0000000FA0500E100E018ED00E000E400E097
:1050B00014E000E018E000E010E000E080B500F04F
:1050C00001F801BD70470000F8B50400002000277A
:1050D00000250026002C01D101208FE0A0680028C7
:1050E00001D060690028A06A002807D10020E06292
:1050F000002084F82400200000F042FE200000F090
:1051000063F9A16AC90673D4C0B2002870D1A16A3C
:1051100031F4885151F00201A1626168E2691143E2
:10512000E26851EA42010D43A168B1F5807F02D0E7
:10513000A168012902D14FF4807100E000210F43E2
:105140006169012911D1E168002906D1A169491ECF
:10515000490351F400610F4307E0A16A51F02001B7
:10516000A162E16A51F00101E1622168496831F40C
:10517000694139432268516021688968DFF8342227
:105180001140294322689160A168B1F5807F02D067
:10519000A168012902D14FF4807100E00021B1F52E
:1051A000807F02D12169491E0E052168C96A31F448
:1051B000700131432268D16221688968DFF8F821E3
:1051C0001140A94208D10021E162A16A31F0020137
:1051D00051F00101A16210E0A06A30F0020050F02D
:1051E0001000A062E06A50F00100E062012004E0DB
:1051F000A06A50F01000A0620120C0B2F2BD78B4E5
:105200000A0000210023009390F82430012B01D1E3
:10521000022096E0012380F824305368072B12D235
:1052200003685B6B1F2455686D1E05267543AC40F3
:10523000A343146855686D1E05267543AC4023438F
:105240000468636327E053680D2B12D203681B6B5D
:105250001F245568ED1F05267543AC40A343146811
:105260005568ED1F05267543AC402343046823634E
:1052700011E00368DB6A1F2455680D3D0526754360
:10528000AC40A343146855680D3D05267543AC40FA
:1052900023430468E36213680A2B12D30368DB68B4
:1052A000072415680A3D03267543AC40A343946860
:1052B00015680A3D03267543AC4023430468E36048
:1052C0000FE003681B690724156803267543AC408B
:1052D000A3439468156803267543AC4023430468D0
:1052E00023611368102B02D01368112B24D103689B
:1052F000324CA3421BD103689B681B021CD4036879
:105300009B6853F400030468A3601268102A13D149
:105310002B4A12682B4BB2FBF3F20A235A4300923A
:10532000009A002A08D0009A521E0092F8E7816A7B
:1053300051F0200181620121002280F82420080020
:10534000C0B272BC704738B5040000250020009040
:1053500020688068C0072BD42068806850F0010066
:1053600021688860164800681649B0FBF1F000908B
:1053700002E00098401E009000980028F9D100F04B
:1053800097FC050020688068C00711D400F090FCED
:10539000401B0328F6D3A06A50F01000A062E06A18
:1053A00050F00100E062002084F82400012000E0B9
:1053B000002032BDFDF7E1FFFE0E1FFF002401407B
:1053C0000C00002040420F0038B504000025206882
:1053D0008068C0071BD520688068400840002168AD
:1053E000886000F065FC050020688068C0070ED565
:1053F00000F05EFC401B0328F6D3A06A50F01000BA
:10540000A062E06A50F00100E062012000E00020AC
:1054100032BD0000F8B50400002500270026002C4E
:1054200001D101209FE094F83C00002805D1002024
:1054300084F83D00200000F0C0FC022084F83C000D
:105440002068006830F00200216808602068006869
:1054500050F001002168086000F02AFC0700206875
:105460004068C0070CD400F023FCC01B0B28F6D307
:10547000032084F83C00002084F83D00032072E003
:1054800020684068C00761D5A069012802D156F0A4
:10549000800601E036F08006E069012802D156F06E
:1054A000400601E036F04006206A012802D156F09D
:1054B000200601E036F02006606A012802D156F08D
:1054C000100601E036F01006A06A012802D156F05D
:1054D000080601E036F00806E06A012802D156F01D
:1054E000040601E036F004062068006830F0FC0095
:1054F000304321680860A068E168084321690843D7
:10550000616908436168491E08432168C8612068D1
:105510000068400840002168086000F0C9FB0700EF
:1055200020684068C0070CD500F0C2FBC01B0B28E8
:10553000F6D3032084F83C00002084F83D000320CB
:1055400011E020684068C00700D40125012D06D174
:1055500000202064012084F83C00002003E00420A7
:1055600084F83C000120F2BD10B50400002C01D1EC
:1055700001200AE06079002804D100202071200079
:1055800000F045FC01206071002010BD10B5040042
:10559000002C01D101203DE00020A06294F85100D0
:1055A000002802D1200000F045FC022084F85100C0
:1055B0002068006830F04000216808606068A168D9
:1055C0000843E16808432169084361690843A16908
:1055D00011F400710843E1690843216A0843A16A94
:1055E000084321680860A069000C10F00400616A9B
:1055F000084321684860E06A216808612068C06942
:1056000030F400602168C86100206065012084F8E2
:105610005100002010BD000090F83C20012A01D16B
:10562000022024E0012280F83C20022280F83D2064
:105630000268526832F0700203685A600268526869
:105640000B681A4303685A600268926832F080025D
:1056500003689A6002689268496811430268916021
:10566000012180F83D10002180F83C100020704797
:105670000000000010B50400002C01D1012033E02F
:10568000A0690028FFD194F83900002805D1002036
:1056900084F83800200000F011FC242084F8390040
:1056A0002068C06830F400502168C860200000F015
:1056B000EEF92068006930F49040216808612068A4
:1056C000406930F02A00216848612068C06850F4C1
:1056D00000502168C8600020E063202084F8390071
:1056E000202084F83A00002010BD90F83930202B9B
:1056F00022D1002902D092B2002A01D101201CE05F
:1057000090F83830012B01D1022016E0012380F8F7
:10571000383001628284C2840021C163212180F873
:105720003910002180F838100168C96851F08001F3
:105730000068C160002000E00220704790F83A3015
:10574000202B2ED1002902D092B2002A01D10120B3
:1057500028E090F83830012B01D1022022E001230B
:1057600080F8383081628285C2850021C1632221A0
:1057700080F83A10002180F838100168C96851F4A7
:1057800080710268D1600168496951F001010268C5
:1057900051610168C96851F020010068C1600020B2
:1057A00000E00220704710B504002068C06830F4A3
:1057B00090702168C86020684069400840002168F6
:1057C00048612068406940060ED52068406930F085
:1057D000400021684861606B002805D00020616BA3
:1057E0004863606B00F09EFC0020E085202084F878
:1057F0003A00002010BD38B5040020680068216818
:10580000C968226852690023002310F00F03002B9F
:1058100007D1850605D58D0603D5200000F0E3F8F5
:1058200082E0002B70D0D30702D411F4907F6BD0AC
:1058300010F00103DBB2002B05D0CB0503D5E36BE1
:1058400053F00103E363430708D512F00103DBB211
:10585000002B03D0E36B53F00203E363830708D507
:1058600012F00103DBB2002B03D0E36B53F004030F
:10587000E363030708D512F00102D2B2002A03D075
:10588000E26B52F00802E263E26B002A3BD0800632
:1058900004D5880602D5200000F0A5F820684069EC
:1058A000800910F00103E06B000701D4002B25D024
:1058B000200000F03AF82068406940061AD52068B8
:1058C000406930F0400021684861606B00280DD0CD
:1058D0000FF27900616B4863606B00F03EFC0028BA
:1058E00011D0606B616B496B88470CE0200000F0C1
:1058F00099FC08E0200000F095FC04E0200000F096
:1059000091FC0020E0630FE0020605D50A0603D5EE
:10591000200000F025F807E0400605D5480603D52D
:10592000200000F052F8FFE731BD0168C96831F48A
:1059300090710268D16001684969490849000268AC
:105940005161202180F83A107047000080B5406A0C
:105950000021C1850021C18400F064FC01BD00006C
:1059600090F8391021292ED18168B1F5805F10D1CE
:10597000016A0988C905C90D0268516001690029D9
:1059800003D1016A891C016209E0016A491C0162B4
:1059900005E0016A4A1C0262097802685160C18C04
:1059A000491EC18489B200290BD10168C96831F050
:1059B00080010268D1600168C96851F04001006847
:1059C000C160002000E00220704780B50168C9680E
:1059D00031F040010268D160202180F8391000F0D8
:1059E00022FC002002BD80B590F83A1022294CD14B
:1059F0008168B1F5805F15D1816A0269002A08D1FA
:105A000002685268D205D20D0A80816A891C8162BF
:105A10001AE00268526802F0FF020A80816A491C9B
:105A2000816211E00169002906D1816A4A1C826203
:105A3000026852680A7007E0816A4A1C8262026842
:105A4000526812F07F020A70C18D491EC18589B269
:105A5000002918D10168C96831F020010268D160BD
:105A60000168C96831F480710268D16001684969D0
:105A70004908490002685161202180F83A1000F07D
:105A8000D3FB002002E0002000E0022002BD2DE94F
:105A9000F041040000202168096931F44051E268B6
:105AA000114322681161A16822691143626911439F
:105AB00008432168C9685C4A114008432168C860EE
:105AC0002068406930F44070A1690843216848614A
:105AD00020685649884252D1FFF702F98046FFF705
