:020000040800F2
:1000000018050020A18400088D7D00088F7D000860
:10001000977D00089F7D0008A77D00080000000074
:10002000000000000000000000000000AF7D00089C
:10003000B17D000800000000B37D0008B57D000818
:10004000C17D0008F5840008F9840008FD840008DB
:100050000185000805850008CF7D0008D97D0008CE
:10006000E37D0008ED7D0008F77D000809850008A4
:100070000D85000811850008158500081985000800
:100080001D850008218500082585000829850008B0
:100090002D8500083185000835850008017E00089F
:1000A000398500083D850008418500084585000820
:1000B00049850008277E00084D8500085185000805
:1000C00055850008598500085D8500086185000890
:1000D0006585000855800008698500086D85000861
:1000E000B18000087185000875850008BFF34F8F47
:1000F000DFF8CC0D006810F4E060DFF8DC1B08438B
:10010000DFF8BC1D0860BFF34F8F00BFFDE780B56F
:10011000DFF8C80B0069DFF8C41BC968401ADFF8B4
:10012000BC1B8968401A0A21B0FBF1F0DFF8B01B54
:100130008860DFF8A80B0069DFF8A01BC968DFF84A
:10014000A42B1278521F4FF47A7303FB02118842DA
:1001500003D20120DFF8881B887001F067F9DFF80F
:10016000800B407E00282BD1DFF8740B80780028AC
:1001700026D0DFF86C0B007E012821D0642001F02E
:10018000C0FEDFF85C0B407E002819D10020DFF8AC
:10019000501B087501F02CF901224FF40071DFF8B3
:1001A000A40D01F09BFF0120DFF8341B087601F05D
:1001B0001FF901224FF48071DFF85C0C01F08EFF13
:1001C000DFF81C0B407E012804D0DFF8140B807888
:1001D00000281ED1DFF8080B007E002819D000206F
:1001E000DFF8FC1A087601F003F900224FF4807161
:1001F000DFF8240C01F072FF0120DFF8E41A087523
:1002000001F0F6F800224FF40071DFF8380D01F02C
:1002100065FF01BD00B583B0684601F0C4FFDFF89B
:10022000C00A0078002805D100220421DFF80C0E56
:1002300001F054FFDFF8A80A0078022837D19DF8B2
:100240000500142190FBF1F201FB1200C0B20B2853
:1002500006DB01220421DFF8E40D01F03FFF26E078
:10026000C0B2022190FBF1F0C0B2022190FBF1F28A
:1002700001FB1200012806D100220421DFF8BC0D89
:1002800001F02CFF13E0BDF80600052190FBF1F012
:10029000642806DA00220421DFF8A00D01F01EFF19
:1002A00005E001220421DFF8940D01F017FFDFF8CB
:1002B000300A0078052815D1BDF80600FA2190FB18
:1002C000F1F201FB12007E2806DB01220421DFF897
:1002D0006C0D01F003FF05E000220421DFF85C0D46
:1002E00001F0FCFEDFF8F8090078082805D10022AB
:1002F0000421DFF8480D01F0F1FEDFF8E409007891
:10030000012805D100220421DFF8300D01F0E6FEBE
:10031000DFF8CC090078062805D100220421DFF897
:100320001C0D01F0DBFEDFF8B8090078072805D1C5
:1003300000220421DFF8040D01F0D0FE07BD80B5D6
:10034000DFF89C090078052804D0DFF894090078CC
:1003500004286BD1DFF88809407C002817D0DFF82B
:100360008009C07D012805D10020DFF87419C87507
:1003700001F03EF8DFF8682CD2E9000101F019FF26
:10038000B0F5FA7F03D90020DFF854194874DFF87C
:10039000542CD2E9000101F00CFFB0F5FA7F28D906
:1003A000DFF83C09C07D012823D1DFF8380C01F0CB
:1003B00029FFDFF88C0C00680A30DFF82019C968C3
:1003C000884204D20020DFF87C1C08700BE0DFF8C4
:1003D000740C0078FF2806D0DFF8680C0078401C09
:1003E000DFF8601C0870DFF8F408C068DFF8501C04
:1003F0000860DFF8540C0078DFF8481C0978884260
:1004000014D2DFF8DC08C07D012805D10020DFF818
:10041000D018C87500F0ECFF0020DFF8281C087029
:10042000DFF8C008007880B201F085F801BD70B532
:10043000DFF8642CD2E9000101F0BBFEFB28C0F01C
:10044000A880DFF8540C01F0DDFEDFF89408007896
:10045000002804D1DFF88808806802F0BEF8DFF8D1
:1004600080080078022804D1DFF87408806802F060
:1004700042F9DFF86C080078032823D1DFF8680C14
:100480004668300002F0B6FB02F0C8FB0022DFF83D
:100490005C3C02F0EBFB04000D00DFF8540C00683C
:1004A00002F0BCFB02000B002000290002F0B0FCAF
:1004B00002F0DAFD010089B26420B6FBF0F080B2F0
:1004C00002F09CF9DFF81808007804283ED1DFF824
:1004D0001008C07D002801D1012600E00026DFF8C9
:1004E000080C806802F09AFB0022DFF8003C02F062
:1004F000BDFB04000D00DFF8F80B006802F08EFB76
:1005000002000B002000290002F082FC02F0C2FD74
:10051000DFF8CC1748603300DBB21C00DFF8C80BF3
:10052000806802F0CDFD6421B0FBF1F22300DFF81A
:10053000AC07C068DFF8BC1B0968401A6421B0FB37
:10054000F1F1DFF89C07406802F0F4F9DFF890075A
:100550000078052801D102F02EF8DFF88407007832
:10056000082801D101F0E0FEDFF8740700780128C7
:1005700001D101F0D9FEDFF868070078062801D123
:1005800001F0D2FEDFF858070078072801D101F00A
:10059000CBFE70BD00B583B00A2001F049FB684670
:1005A00001F001FEDFF838070078042822D00A2085
:1005B00001F030FB002001F026FB9DF80500022130
:1005C00090FBF1F201FB120000280AD0BDF80600F2
:1005D000642190FBF1F0D0F10A00C0B201F021FBE0
:1005E00048E0BDF80600642190FBF1F0C0B201F0D4
:1005F00018FB3FE09DF80500022190FBF1F201FBA2
:100600001200002818D0BDF80600642190FBF1F01C
:10061000C0B201F006FBBDF80600642190FBF1F0CA
:10062000C0B201F0F7FABDF80600642190FBF1F0CA
:10063000C0B201F0E8FA1DE0BDF80600642190FBAD
:10064000F1F0D0F10A00C0B201F0EBFABDF80600FB
:10065000642190FBF1F0D0F10A00C0B201F0DAFAA7
:10066000BDF80600642190FBF1F0D0F10A00C0B2A1
:1006700001F0C9FA07BD2DE970436421DFF8900C41
:1006800002F0CAFD0121DFF8880C02F06FFE0400C1
:100690000221DFF87C0C02F069FE0321DFF8700C08
:1006A00002F064FE06000421DFF8640C02F05EFE36
:1006B0000500ADB2280002F09DFA02F0AFFA020088
:1006C0000B000020DFF84C1C02F0A2FB804689469C
:1006D000A4B2200002F08EFA02F0A0FA42464B4685
:1006E00002F0C4FADFF8302CDFF8303C02F0BEFA3A
:1006F0000022DFF82C3C02F0B9FA02F0B5FCDFF87A
:10070000E0158881ADB2280002F074FA02F086FA92
:1007100002000B000020DFF8FC1B02F079FB040054
:100720000D00B6B2300002F065FA02F077FA22004E
:100730002B0002F09BFA02000B00DFF8E80BDFF859
:10074000E81B02F057FFDFF8E42BDFF8E43B02F090
:100750005FFB0022DFF8DC3B03F00CF802F084FCC6
:10076000DFF87C15C881DFF8A80B02F02BFDDFF85D
:10077000A00B02F0B7FCBDE8708380B500F03EFE30
:1007800000F036FE01F0D0FDDFF8540500780028B7
:1007900012D100224FF48071DFF89C0B01F09EFC17
:1007A00000224FF40071DFF8900B01F097FC00205D
:1007B000DFF82C15087411E001224FF48071DFF886
:1007C000780B01F08BFC01224FF40071DFF8680B0D
:1007D00001F084FC0120DFF808150874DFF800053B
:1007E000007802281BD101224FF48071DFF8480BFA
:1007F00001F074FC01224FF40071DFF83C0B01F0B2
:100800006DFC0120DFF8D81408740020DFF8D01444
:10081000C87500F0EDFD0220DFF8C4140870DFF8A1
:10082000C0040078042810D1DFF8B404407803280D
:1008300005D1DFF8A804C068DFF8B8180860012007
:10084000DFF89C14C87500F0D3FDDFF8940400783D
:1008500005280ED1DFF8880701F0D4FCDFF880040A
:10086000C07D012805D10020DFF87414C87500F0A0
:10087000BFFDDFF86C040078DFF86414487001BD38
:1008800080B5FFF733FC01BDC0B2002808D00228B4
:100890000CD008D304280FD00BD305280FD011E0BB
:1008A00040F6B8300FE040F6B8300CE041F2883046
:1008B00009E043F6982006E047F2305003E04EF698
:1008C000602000E000207047F8B502F0C7FF00F09C
:1008D00013FC4FF4FA720221102001F0A5FC00F085
:1008E000A1F900F009FC00F0FFF900F097FA00F020
:1008F000D4FA00F0E7FA00F027FB00F075FB00F0F7
:10090000A5FB00F0CBFBDFF8340A02F0E7FF03F0B1
:10091000CAFC0220DFF8C81308700720DFF8C013F4
:100920004870FFF72AFF01222021DFF8180601F0A6
:10093000D5FBDFF8DC0902F0D5FB322000F0D1FD59
:100940006CE00120DFF89813C87500F051FDDFF866
:10095000F0090078002803D0DFF8E80901F052FC24
:1009600000F036FD002822D0DD48007805281ED191
:10097000DFF8CC090078FFF787FF0400DFF8C4290F
:10098000D2E9000101F015FC610881420DD2DFF8C7
:100990005026D2E9000101F00CFCB0F57A7F04D9B1
:1009A0000420CF490870FFF7E8FE00F0FDFCCC48BA
:1009B0000078052810D1DFF888090078FFF764FF78
:1009C0000400DFF81C26D2E9000101F0F2FB8442AA
:1009D00002D20420C249087000F0FAFC002805D0B9
:1009E000BF480078022801D100F0DEFC00F0F4FCE2
:1009F000002803D000F002FD00F0DBFC00F0F0FC6A
:100A0000002803D000F0FAFC00F0D8FC00F0ECFC69
:100A1000002803D000F0F2FC00F0D5FCFFF72BFE1D
:100A2000FFF775FB03F028F9FFF701FDFFF787FCDF
:100A3000FFF7F0FBFFF7AEFDA9480078042840F06F
:100A40008780A748407C002823D00520A44908704F
:100A5000DFF8F028D2E9000101F0ABFB0400DFF879
:100A6000E0080078FFF710FF844210D2DFF8D008CA
:100A70000078052807D0DFF8C8080078401CDFF8A8
:100A8000C018087003E00020DFF8B4180870FFF702
:100A900074FEDFF85406406803F080FD06000F0086
:100AA0008E48C06803F07AFD04000D00DFF84406AC
:100AB000006803F073FD02000B002000290002F023
:100AC00099FD0022DFF8583802F0A2F904000D0069
:100AD000DFF81C06006802F0A1F822002B0002F0EB
:100AE000C5F802000B003000390002F083FD03F06E
:100AF00063FDDFF8F4158860DFF8EC05806803F02B
:100B0000A3FD012824DA7548C0687449C96810F14A
:100B100014029142F9D3022071490870FFF72DFEAB
:100B2000DFF8C4050068DFF8C01549680C18DFF865
:100B3000B805806802F0C4FA201ADFF8AC15086026
:100B40000020DFF8A41548600020DFF89C158860BD
:100B5000DFF89405406800280CD06148007802282E
:100B600008D103205E490870FFF707FE00F046FC3D
:100B700000F01AFC5A488068DFF8CC170978642224
:100B80005143884208D256480078022804D10020F8
:100B900053490870FFF7F1FD51488068DFF8A81746
:100BA000097864225143884208D34D4800780028D0
:100BB00004D102204A490870FFF7DFFD00F008FC6D
:100BC000002814D046480078032810D10420444956
:100BD0000870DFF8700701F015FB0020DFF86017E0
:100BE0000870FFF7CAFD00F009FC00F0DDFB00F023
:100BF000EFFB00283FF4B4AE3948007804287FF4B6
:100C0000AFAE00F0FBFB00F0F3FB00F0CDFB34488F
:100C1000C07D01287FF495AE00203149C87500F0F1
:100C2000E7FB9DE600B593B0092009905FF48030A2
:100C30000A9000200B9001200D9001200F900220BF
:100C400010905FF4803011905FF48010129009A82A
:100C500003F01CFD002805D04FF40371DFF8EC060B
:100C600000F09EFB0F2004900220059000200690CB
:100C70004FF48060079000200890012104A803F041
:100C80002EFF002805D040F21A21DFF8C00600F040
:100C900087FB022000904FF480400290684604F0E9
:100CA0005FF8002805D040F22121DFF8A00600F00F
:100CB00077FB04F007F84FF47A71B0FBF1F004F021
:100CC000D9F9042004F0DAF9002200215FF0FF30A6
:100CD00004F0BAF913B000BD0400FA05600C00205E
:100CE0002C0C00201301002000B58BB0DFF860064B
:100CF000DFF81C1608604FF48070DFF81416886067
:100D00000020DFF80C16C8600020DFF804164861E8
:100D10005FF46020DFF8F815C8610020DFF8F015F7
:100D200048600120DFF8E8150861DFF8E40504F009
:100D3000CBF9002805D040F24221DFF8100600F080
:100D40002FFB102008900120099000200A9008A98C
:100D5000DFF8BC0504F053FA002805D04FF41371F6
:100D6000DFF8E80500F01CFB042000900120019052
:100D700004200490002002904FF4E04007900020EF
:100D8000069000200590002003906946DFF880055A
:100D900002F001FB002805D040F25B21DFF8AC0532
:100DA00000F0FEFA05200090022001906946DFF86D
:100DB000600502F0F0FA002805D04FF41971DFF851
:100DC0008C0500F0EDFA1020009003200190012026
:100DD00002906946DFF8380502F0DDFA002805D0F8
:100DE00040F26E21DFF8640500F0DAFA112000907D
:100DF00004200190002002906946DFF8140502F0FB
:100E0000CAFA002805D04FF41E71DFF8400500F043
:100E1000C7FA0BB000BD00000008014080B5DFF844
:100E20003405DFF8341508601020DFF82C15486011
:100E30000020DFF8241588600020DFF81C15C8604A
:100E40000020DFF8141508610020DFF80C15486158
:100E50000020DFF8041588610020DFF8FC14C86169
:100E60000020DFF8F41408620020DFF8EC14486278
:100E70000020DFF8E41488620020DFF8DC14C86288
:100E8000DFF8D40404F0C6FA002805D040F28F2120
:100E9000DFF8B80400F084FA01BD80B5DFF8BC04C7
:100EA000DFF8BC140860DFF8B80404F05DFB00282C
:100EB00005D040F29B21DFF8940400F071FA01BDE7
:100EC0000CED00E080B5DFF89C04DFF89C140860AE
:100ED0000020DFF8941448600020DFF88C1488604C
:100EE0000020DFF88414C8600020DFF87C1408615B
:100EF0000020DFF8741448614FF40070DFF86814C4
:100F000088610020DFF86014C8610020DFF8581401
:100F100008620020DFF8501448620020DFF848140F
:100F200088620A20DFF84014C862DFF83C0404F04D
:100F30002DFB002805D040F2C121DFF8100400F09D
:100F40002FFA01BD0010014000B587B0DFF81C0486
:100F5000DFF8E81308602F20DFF8E0134860002076
:100F6000DFF8D813886040F2E730DFF8D013C860AC
:100F70004FF40070DFF8C41308610020DFF8BC13E1
:100F80008861DFF8B80302F08DFC002805D040F23C
:100F9000D521DFF8B80300F003FA4FF48050029037
:100FA00002A9DFF8980302F062FD002805D040F2A4
:100FB000DB21DFF8980300F0F3F900200090002017
:100FC00001906946DFF8740304F026FB002805D081
:100FD00040F2E221DFF8740300F0E2F907B000BD4F
:100FE000D80C0020E00C002080B5DFF88403DFF887
:100FF000841308604FF41650DFF87813486000201F
:10100000DFF8701388600020DFF86813C8600020E4
:10101000D84908610C20D74948610020D54988612A
:101020000020D449C861D34804F024FB002804D030
:1010300040F2F521C54800F0B3F901BD000C0140B4
:10104000640D00209E0D00201101002080B5CA48CB
:10105000CA4908604FF41650C84948600020C74983
:1010600088600020C549C8600020C44908610C2080
:10107000C24948610020C14988610020BF49C86158
:10108000BE4804F0F7FA002804D04FF44271AF488C
:1010900000F086F901BD0000E80C002080B5B848DA
:1010A000B84908604FF41650B64948600020B54969
:1010B00088600020B349C8600020B24908610C2054
:1010C000B04948610020AF4988610020AD49C8613E
:1010D000AC4804F0CFFA002804D040F21B319B4802
:1010E00000F05EF901BD0000A40C002000002440C7
:1010F00008000020600D002000B585B0A2480068FF
:1011000050F04000A04908609F48006810F040007F
:10111000009000989C48006850F010009A490860C0
:101120009948006810F010000090009896480068F8
:1011300050F00400944908609348006810F00400DF
:10114000009000989048006850F008008E490860B0
:101150008D48006810F00800009000988A480068E8
:1011600050F02000884908608748006810F020008F
:1011700000900098002240F2FF31844800F0AEFF5A
:10118000002248F2C311824800F0A8FF002241F279
:101190000701804800F0A2FF00224FF680717E48D0
:1011A00000F09CFF00224FF47F41634800F096FF5F
:1011B0003C200190794802900020039001A97648D4
:1011C00000F0A8FE43200190744802900120039093
:1011D00001A9714800F09EFE4FF47C4001906F48D9
:1011E00002900120039001A9684800F093FE40F2AC
:1011F000FF300190012002900220049001A9634871
:1012000000F088FE48F2C3100190012002900220F5
:10121000049001A95E4800F07DFE41F207000190B4
:10122000012002900220049001A95A4800F072FEA9
:101230004FF680700190012002900220049001A9D5
:10124000554800F067FE4FF47F4001900120029066
:101250000220049001A9384800F05CFEFF200190B4
:10126000002002900120039001A9334800F052FEB3
:1012700078200190002002900120039001A94548A8
:1012800000F048FE4FF46070019044480290012045
:10129000039001A93F4800F03DFE002202210620F4
:1012A00003F0D2FE062003F0E0FE00220221072018
:1012B00003F0CAFE072003F0D8FE00220221082016
:1012C00003F0C2FE082003F0D0FE00220221092014
:1012D00003F0BAFE092003F0C8FE002202210A2012
:1012E00003F0B2FE0A2003F0C0FE00220221172004
:1012F00003F0AAFE172003F0B8FE002202212820E6
:1013000003F0A2FE282003F0B0FE05B000BD0000EF
:10131000FC0B00200000F83F0AD7A3703D0A0940EB
:1013200000408F40E17A14AE47E1F63F22FDF675AA
:10133000E09C713F0000394000140140FC0A00208D
:1013400010010020D00C002012010020748200083F
:101350000024014000640040B80A00200030024030
:10136000C80C002000380040180A0020000400408B
:10137000003801403C0B0020004400407C0B002062
:1013800000480040BC0B0020181002400010014033
:1013900000080140000C014000180140000011103D
:1013A00080B5FEF7A3FEFEE70020DFF8481A0870BC
:1013B00070470020DFF8441A087070470020DFF8FB
:1013C000401A087070470020DFF8381A087070471C
:1013D000DFF8200A00787047DFF8200A00787047AD
:1013E000DFF81C0A00787047DFF8180A00787047A9
:1013F00080B5DFF8140A00F005FF01BD80B5DFF805
:101400000C0A00F0FFFE01BD80B54021DFF8000AA4
:1014100000F05BFE002804D00020DFF8F819C87641
:1014200003E00120DFF8EC19C87601BD80B510217A
:10143000DFF8DC0900F049FE002804D00020DFF8C6
:10144000D419487603E00120DFF8C819487601BDB9
:1014500080B52021DFF8B80900F037FE002804D05D
:101460000120DFF8B019887603E00020DFF8A41926
:10147000887601BD80B50821DFF8940900F025FECB
:10148000002804D00120DFF88C19087703E0002041
:10149000DFF88019087701BD38B5DFF87C090068EE
:1014A000401CDFF874190860DFF86C09006803F06D
:1014B00075F80022DFF8643901F0D8FB04000D0054
:1014C000DFF85C09006803F069F802000B002000F7
:1014D000290001F09DFC01F0DDFDDFF848190861ED
:1014E00031BD38B5DFF8381909680A22B1FBF2F1CD
:1014F00080B200FB01F0DFF820190860DFF818095E
:10150000006803F04BF80022DFF8103901F0AEFB61
:1015100004000D00DFF80809006803F03FF802003E
:101520000B002000290001F073FC01F0B3FDDFF88F
:10153000F418086131BD38B5DFF8E41809680A22EB
:10154000B1FBF2F180B200FB01F0DFF8CC180968C2
:10155000884207D2DFF8C0180968081ADFF8B818FF
:10156000086003E00020DFF8B0180860DFF8A80882
:10157000006803F013F80022DFF8A03801F076FBD2
:1015800004000D00DFF89808006803F007F8020077
:101590000B002000290001F03BFC01F07BFDDFF88F
:1015A0008418086131BD704780B5DFF86C08C068E9
:1015B000401CDFF86418C860DFF86C28D2E900012D
:1015C00000F0F7FDB0F5FA7F07D2DFF86008007889
:1015D000401CDFF85818087003E00020DFF84C18B2
:1015E0000870DFF8480800781A2803DB0120DFF8CC
:1015F00024184874DFF8300800F004FE01BD70477D
:1016000038B5DFF814088068401CDFF80C188860D3
:10161000DFF80408806802F0C1FF0022DFF8FC3721
:1016200001F024FB04000D00DFF8F407006802F06D
:10163000B5FF02000B002000290001F0E9FB01F0DA
:1016400029FDDFF8E0178860DFF8E427D2E9000120
:1016500000F0AFFDB0F5FA7F07D2DFF8D8070078C9
:10166000401CDFF8D017087003E00020DFF8C41733
:101670000870DFF8BC0700F0C5FDDFF8B807007898
:101680001A2852DB0020DFF88C178870DFF89407E7
:101690000169DFF89007C268DFF87C070068DFF8AF
:1016A00080371B680A24B3FBF4F3DFF88C472478F7
:1016B000891ADFF870279268891A4FF47A72B1FBA1
:1016C000F2F1611A01FB0300DFF84C170860DFF844
:1016D0004807006802F062FF0022DFF8403701F09F
:1016E000C5FA04000D00DFF83807006802F056FF65
:1016F00002000B002000290001F08AFB01F0CAFC67
:10170000DFF820170861DFF81C070069DFF81417FD
:10171000C968401ADFF80C178968401A4FF47A71CB
:10172000B0FBF1F0DFF8EC16886031BD38B5DFF8BA
:10173000E8064068401CDFF8E0164860DFF8D8068D
:10174000406802F02BFF0022DFF8D03601F08EFA5D
:1017500004000D00DFF8E406006802F01FFF02003D
:101760000B002000290001F053FB01F093FCDFF88F
:10177000B416C86031BD10B5DFF8C4060078411C4E
:10178000DFF8BC261170C0B20528C0F2228100200B
:10179000DFF8AC160870DFF8AC060478601CDFF8E0
:1017A000A41608700221DFF8680600F08EFCDFF84E
:1017B0009816E4B20855DFF88C0600780A2803DB97
:1017C0000020DFF880160870DFF880060078002817
:1017D00004D1DFF87C060078012846D1DFF86806DE
:1017E0000078DFF8641649780818DFF85C16897805
:1017F0000818DFF85416C9780818DFF84C1609796C
:101800000818DFF8441649790818DFF83C1689797A
:101810000818DFF83416C9790818DFF82C16097A89
:101820000818DFF82416497A081800281DD100206E
:10183000DFF81C160870DFF814060078002810D1B5
:10184000DFF8E0054068401CDFF8D8154860DFF895
:10185000C8054068DFF8FC1508600120DFF8F815BE
:1018600008700020DFF8E4150870DFF8E005007864
:10187000002804D1DFF8D8050078002846D1DFF829
:10188000C8050078DFF8C01549780818DFF8B815E2
:1018900089780818DFF8B015C9780818DFF8A81596
:1018A00009790818DFF8A01549790818DFF89815A4
:1018B00089790818DFF89015C9790818DFF88815B4
:1018C000097A0818DFF88015497A08180A281DD106
:1018D0000120DFF87C150870DFF87005007800281B
:1018E00010D1DFF840054068401CDFF8381548602B
:1018F000DFF824054068DFF8641508600120DFF890
:10190000581508700020DFF844150870DFF8480506
:10191000007800285DD00020DFF83C150870DFF863
:1019200034050068002854D0DFF83005006800282E
:101930004FD0DFF82C050078411CDFF8242511700A
:10194000DFF818150968DFF80C251268914207D2F4
:10195000DFF800150968DFF804251268891A06E027
:10196000DFF8F8140968DFF8EC241268891ADFF848
:10197000F424C0B242F82010DFF8E4040078042810
:1019800027DB0020DFF8D8140870DFF8D8040068DF
:10199000DFF8D0148968401A04F04AF9642818DA8C
:1019A000DFF8C0044068DFF8BC14C968401A04F0CE
:1019B0003FF964280DDA0020002106E0DFF8A424B6
:1019C000C9B252F821201018491CC9B20429F5DB0C
:1019D000400810BD10B5DFF890040078411CDFF816
:1019E00088241170C0B20528C0F20C810020DFF8F5
:1019F00078140870DFF874040478601CDFF86C1445
:101A000008700421DFF8080400F05FFBDFF86014C1
:101A1000E4B20855DFF8540400780A2803DB0020FC
:101A2000DFF848140870DFF84C040078002804D16F
:101A3000DFF844040078012846D1DFF83404007848
:101A4000DFF82C1449780818DFF82414897808186E
:101A5000DFF81C14C9780818DFF81414097908187D
:101A6000DFF80C1449790818DFF80414897908188C
:101A7000DFF8FC13C9790818DFF8F413097A08189D
:101A8000DFF8EC13497A081800281DD10020DFF890
:101A9000E8130870DFF8DC030078002810D1DFF8C5
:101AA00084030068401CDFF87C130860DFF86803DB
:101AB0000068DFF8C81308600120DFF8C41308705D
:101AC0000020DFF8B0130870DFF8A80300780028C2
:101AD00004D1DFF8A4030078002843D1DFF8900395
:101AE0000078DFF88C1349780818DFF884138978B8
:101AF0000818DFF87C13C9780818DFF8741309791F
:101B00000818DFF86C1349790818DFF8641389792D
:101B10000818DFF85C13C9790818DFF85413097A3C
:101B20000818DFF84C13497A08180A281AD101203E
:101B3000DFF844130870DFF83C03007800280DD16B
:101B4000B8480068401CB7490860B3480068DFF82F
:101B5000341308600120DFF8281308700020DFF834
:101B600014130870DFF81803007800284AD000200A
:101B7000C3490870C1480068002843D0C1480068C4
:101B800000283FD0C0480078411CBF4A1170BD49B1
:101B90000968BA4A1268914205D2B8490968B94A37
:101BA0001268891A04E0B7490968B44A1268891AA8
:101BB000B64AC0B242F82010B3480078042821DBAE
:101BC0000020B1490870B1480068B0498968401ADE
:101BD00004F02EF8642815DAAC484068AB49C968AF
:101BE000401A04F025F864280CDA0020002105E0F2
:101BF000A64AC9B252F821201018491CC9B20429BA
:101C0000F6DB400810BDC0B20B2800DB0A20A0495B
:101C100008707047C0B20B2800DB0A209C4988700E
:101C20007047C0B20B2800DB0A2099494870704702
:101C3000C0B20B2800DB0A209549C870704710B568
:101C40000400714AD2E9000100F0B3FA332864D3EA
:101C5000A4B2B4F5807F04D18E480088401C8D4921
:101C60000880A4B2042C06D1FFF760FD8A480088E2
:101C7000401C89490880A4B2082C06D1FFF7C0FC9B
:101C800086480088401C85490880A4B2102C06D1E3
:101C9000FFF78AFC82480088401C81490880A4B272
:101CA000202C06D1FFF7F8FB7E480088401C7D49B8
:101CB0000880A4B2012C04D17B480088401C7A49DA
:101CC0000880A4B2802C04D178480088401C774951
:101CD0000880A4B2B4F5007F04D175480088401C88
:101CE00073490880A4B2B4F5806F04D171480088AC
:101CF000401C70490880A4B2B4F5006F04D16E484E
:101D00000088401C6C490880A4B2B4F5805F04D1FF
:101D10006A480088401C694908803C4AD2E90001B1
:101D200000F047FA332861D3A4B2022C1BD1644AD5
:101D3000D2E9000100F03DFAB0F5FA7F13D9052091
:101D400000F0DFF802215F4800F0BFF900284FD013
:101D50005B4800F057FA0120264908705A4800787D
:101D6000401C59490870A4B2B4F5005F0CD1574A21
:101D7000D2E9000100F01DFAC92805D3534800F04C
:101D800041FA01201C490870A4B2B4F5804F0CD16F
:101D90004F4AD2E9000100F00CFAC92805D34C489B
:101DA00000F030FA012017490870A4B2B4F5004FD2
:101DB0000CD1484AD2E9000100F0FBF9C92805D34B
:101DC000444800F01FFA01200C490870A4B2402CCE
:101DD0000CD1414AD2E9000100F0EBF9C92805D342
:101DE0003D4800F00FFA0120054908703B48048087
:101DF00010BD0000A10D0020A20D0020A30D0020A9
:101E0000A40D0020A50D0020080D0020000D0020CD
:101E1000001401402C0C0020740C00200088C340EA
:101E200000000020600C0020100D0020A60D0020F6
:101E3000180D0020A70D0020130100200400002031
:101E4000AA0D0020A80D0020B00C002014010020D5
:101E5000A90D0020680D0020AB0D00206C0D0020A6
:101E6000AC0D0020840C0020AF0D0020AD0D002033
:101E7000BC0C002015010020AE0D0020700D0020CC
:101E8000B00D0020740D0020B10D0020940C002036
:101E9000780D0020860D0020880D00208A0D00207E
:101EA0008C0D00208E0D0020900D0020920D002042
:101EB000940D0020960D0020980D00209A0D002012
:101EC000200D002000180140B20D0020280D002038
:101ED000300D0020380D0020400D0020840D002022
:101EE00002B44FF00E0101FB00F04FF0240190FB13
:101EF000F1F10844C82880F2098000BF00BF033810
:101F000004E002B44FF4615101FB00F00138FDD848
:101F100002BC7047F8B400250024002500220026EA
:101F2000002307E0DFF8E4512D6835EA0404774D1B
:101F30002C605B1C102B80F0C680012414FA03F582
:101F40000C682C40AC42F4D14E68002E27D0012EF4
:101F50001AD0022E1DD0032E2FD0112E16D0122EE5
:101F60001AD06B4FBE421AD06A4FBE4217D06A4F8A
:101F7000BE4214D0694FBE4211D0694FBE420ED04E
:101F8000684FBE420BD01AE0CA6818E0CA68121D3A
:101F900015E0CA68083212E0CA680C320FE08A689D
:101FA000002A01D1042207E08A68012A02D108220E
:101FB000056101E00822456101E00022FFE7FF2CF6
:101FC00001D8050000E0051DFF2C01D89E0002E0AD
:101FD000B3F10806B6002F685FF00F0C1CFA06FC80
:101FE00037EA0C0712FA06F63E432E604D68ED0004
:101FF0009FD54D4D2D6855F001054B4E35604A4D2E
:102000002D6815F001050095009D484D9E0855F876
:1020100026500F2613F00307FFB2BF00BE40B543A2
:10202000434EB04201D100260FE0424EB04201D1F2
:1020300001260AE0404EB04201D1022605E03F4EA3
:10204000B04201D1032600E0042613F00307FFB2DB
:10205000BF00BE403543354E9F0846F827504D68B7
:10206000ED0305D5364D2D682543354E356004E02A
:10207000334D2D68A543324E35604D68AD0305D50F
:10208000304D2D6825432F4E356004E02D4D2D68D1
:10209000A5432C4E35604D68ED0205D52A4D2D68BF
:1020A0002543294E356004E0274D2D68A543264E73
:1020B00035604D68AD027FF535AF144D2D682C436A
:1020C000124D2C6035E7F1BC7047806889B2084238
:1020D00001D0012000E00020C0B27047D2B2002A37
:1020E00002D089B2016102E089B20904016170473E
:1020F00080B51649096880B2014205D080B2134903
:10210000086080B2FFF79BFD01BD00000C04014098
:102110000000111000001210000021100000221019
:102120000000311000003210181002400800014079
:1021300000080140000C0140001001400014014063
:10214000000401400404014008040140140401405B
:102150003348C088401C3249C8803148C088B0F537
:102160007A7F07DB00202E49C8802D484079401C2B
:102170002B4948712A4840793C2807DB0020284930
:10218000487127480079401C254908712448007986
:102190003C2807DB00202249087121480068401CC8
:1021A0001F49086070471E49D1E90023C0E9002398
:1021B000704703B41A4800681A49194A12794EF652
:1021C00060235A4301FB0020154949794FF47A7284
:1021D00002FB01001249C98808180099114A02FB44
:1021E00011009DF804104EF6602202FB11009DF8CC
:1021F00005104FF47A7202FB1100BDF80610401A68
:1022000002B0704706490968016005490979017102
:102210000349497941710249C988C180704700006A
:10222000480D002080EE360070B58AB006000C0024
:10223000150000F076F94AF6C870FFF751FEDFF896
:102240005009C470DFF8480906710020DFF8401912
:1022500048710020DFF8381988710020DFF8301944
:102260004870E4B2022C07DBDFF82409407850F014
:102270000800DFF81C194870032000F0E2F841F272
:102280008830FFF72DFE032000F0DBF841F28830A4
:10229000FFF726FE032000F0D4F841F28830FFF764
:1022A0001FFE022000F0CDF8C820FFF719FEDFF86E
:1022B000E008407850F02000C0B200F09EF8042002
:1022C000DFF8CC18087000F086F800F02DF8022036
:1022D000DFF8BC188870DFF8B808807850F0040088
:1022E000C0B200F08AF841F28830FFF7F9FD05A886
:1022F000DFF8A018142203F0AFFC05AA002100208B
:1023000000F01BF86846DFF89018142203F0A4FCD4
:102310006A460121002000F010F82800FFF7F1FDC7
:1023200000F002F80AB070BD80B5012000F065F839
:1023300040F6AC50FFF7D4FD01BD10B51400C9B292
:10234000C0B200F0CFF80AE0207800F068F8DFF8BB
:1023500040084079401CDFF838184871641C207828
:10236000002837D0DFF828084079DFF824180979E9
:10237000884212D30020DFF818184871DFF81008DF
:102380008079401CDFF808188871DFF8040881792B
:10239000DFF8FC07407900F0A5F820780A280FD173
:1023A000DFF8EC078079401CDFF8E4178871DFF86C
:1023B000E0078179DFF8D807407900F093F8CDE79E
:1023C00020780D28C0D1DFF8C8078179002000F0FF
:1023D00089F8C3E710BD80B5DFF8B407007850F086
:1023E0000400DFF8AC170870DFF8A407007850F09D
:1023F0000800C0B200F001F801BD10B504000022D1
:102400000221DFF89C07FFF769FE2000C0B2000937
:1024100000F017F814F00F0000F013F810BD10B51D
:10242000040001220221DFF87807FFF757FE2000A1
:10243000C0B2000900F005F814F00F0000F001F838
:1024400010BD10B50400200706D501220121DFF8D8
:102450004C07FFF743FE05E000220121DFF83C07AF
:10246000FFF73CFE600706D501220221DFF82C07AA
:10247000FFF734FE05E000220221DFF82007FFF716
:102480002DFEA00706D501220421DFF81007FFF773
:1024900025FE05E000220421DFF80007FFF71EFEFD
:1024A000E00706D501220821DFF8F006FFF716FE47
:1024B00005E000220821DFF8E406FFF70FFE012205
:1024C0000121DFF8DC06FFF709FE3C20FFF708FDDD
:1024D00000220121DFF8C806FFF700FE3C20FFF7CD
:1024E000FFFC10BD10B582B06A46DFF8B8361C6834
:1024F00014600A00DFF89836DB78D2B29A4200D333
:102500000021DFF88C265071DFF8842691716A462D
:10251000C9B2515C081850F08000C0B2FFF76DFFDF
:1025200013BD80B501220821DFF87006FFF7D6FD44
:1025300000220821DFF86406FFF7D0FD0122042104
:10254000DFF85806FFF7CAFD00220421DFF84C0629
:10255000FFF7C4FD01220221DFF84006FFF7BEFDB0
:1025600000220221DFF83406FFF7B8FD0122012125
:10257000DFF82806FFF7B2FD00220121DFF81C0674
:10258000FFF7ACFD01220121DFF81406FFF7A6FDDD
:1025900000220121DFF80806FFF7A0FD0122022139
:1025A000DFF8FC05FFF79AFD00220221DFF8F005B5
:1025B000FFF794FD01BD80B5DFF8EC250121002077
:1025C000FFF7BBFEDFF8EC050088ADF800006A46B7
:1025D00001210920FFF7B1FE01BD10B588B004004C
:1025E000D3A200210020FFF7A8FE02A8DFF8BC1547
:1025F0000A68026002AA00210320FFF79EFEDFF8AE
:10260000B02500210420FFF798FE42F210708442AA
:1026100001D342F20F746420B4FBF0F06421B0FBEC
:10262000F1F130318DF800109DF80010302902D101
:1026300020218DF800106421B0FBF1F201FB1201A2
:102640000A22B1FBF2F130318DF801109DF8011032
:10265000302906D19DF80010202902D120218DF8C3
:1026600001100A21B0FBF1F201FB120030308DF8AD
:10267000020000208DF803000DF101020021092065
:10268000FFF75BFE6420B4FBF0F100FB11402C214E
:102690008DF800100A21B0FBF1F130318DF80110F6
:1026A0000A21B0FBF1F201FB120030308DF802007C
:1026B00000208DF803006A4600210B20FFF73DFE45
:1026C000A7208DF808002E208DF8090000208DF835
:1026D0000A0002AA00210E20FFF72FFE03A8DFF850
:1026E000D814142203F0B8FA03AA01210020FFF73E
:1026F00024FE08B010BD10B58CB0040002A8DFF8AD
:10270000BC14142203F0A8FA02AA00210020FFF74B
:1027100014FEDFF8AC04844201D3DFF8A84464203F
:10272000B4FBF0F06421B0FBF1F130318DF8001012
:102730009DF80010302902D120218DF8001064216D
:10274000B0FBF1F201FB12010A22B1FBF2F13031D0
:102750008DF801109DF80110302906D19DF8001068
:10276000202902D120218DF801100A21B0FBF1F2BD
:1027700001FB120030308DF8020000208DF80300BC
:102780006A4600210820FFF7D8FD6420B4FBF0F171
:1027900000FB11402C218DF800100A21B0FBF1F153
:1027A00030318DF801100A21B0FBF1F201FB12006B
:1027B00030308DF8020000208DF803006A460021B9
:1027C0000B20FFF7BAFDA7208DF808002E208DF80A
:1027D000090000208DF80A0002AA00210E20FFF750
:1027E000ACFD07A8DFF8E013142203F035FA07AABE
:1027F00001210020FFF7A1FD0CB010BD10B58AB07B
:102800000C0080B2B0F57A7F01DB40F2E73080B295
:10281000642190FBF1F130318DF800109DF800102B
:10282000302902D120218DF8001080B2642190FB64
:10283000F1F201FB12010A2291FBF2F130318DF825
:1028400001109DF80110302906D19DF800102029B3
:1028500002D120218DF8011080B20A2190FBF1F203
:1028600001FB120030308DF8020000208DF80300CB
:102870006A4600210020FFF760FD02A8DFF84C1334
:10288000D1E90023C0E9002302AA00210320FFF7B9
:1028900054FDA4B2B4F57A7F01DB40F2E734A4B270
:1028A000642094FBF0F030308DF800009DF80000BB
:1028B000302802D120208DF80000A4B2642094FBBF
:1028C000F0F100FB11400A2190FBF1F030308DF85F
:1028D00001002E208DF80200A4B20A2094FBF0F132
:1028E00000FB114030308DF8030000208DF804000B
:1028F0006A4600210920FFF720FDA7208DF800007F
:102900002E208DF8010000208DF802006A4600217B
:102910000E20FFF712FD04A8DFF8B412142203F012
:102920009BF904AA01210020FFF707FD0AB010BDA2
:1029300048452000F0B58FB004000E0015001F00C0
:1029400009A8DFF89012142203F086F904A8DFF832
:102950008812142203F080F9FFB2002F05D004AAD8
:1029600000210020FFF7E9FC04E009AA0021002073
:10297000FFF7E3FCB6F57A7F01D340F2E736642E29
:102980002ED36420B6FBF0F030308DF800009DF8B7
:102990000000302802D120208DF800006420B6FB12
:1029A000F0F100FB11600A21B0FBF1F030308DF83E
:1029B00001009DF80100302806D19DF80000202874
:1029C00002D120208DF801002C208DF802000A2071
:1029D000B6FBF0F100FB116030308DF8030013E01E
:1029E00020208DF800000A20B6FBF0F030308DF882
:1029F00001002C208DF802000A20B6FBF0F100FB4C
:102A0000116030308DF8030000208DF804006A4614
:102A100000210920FFF791FCA7208DF800002E204F
:102A20008DF8010000208DF802006A4600210D207B
:102A3000FFF783FCB4F57A7F01D340F2E734642CCE
:102A40002ED36420B4FBF0F030308DF800009DF8F8
:102A50000000302802D120208DF800006420B4FB53
:102A6000F0F100FB11400A21B0FBF1F030308DF89D
:102A700001009DF80100302806D19DF800002028B3
:102A800002D120208DF801002C208DF802000A20B0
:102A9000B4FBF0F100FB114030308DF8030013E07F
:102AA00020208DF800000A20B4FBF0F030308DF8C3
:102AB00001002C208DF802000A20B4FBF0F100FB8D
:102AC000114030308DF8030000208DF804006A4674
:102AD00001210020FFF731FC20208DF80000A72005
:102AE0008DF801002E208DF802002D208DF80300B6
:102AF00000208DF804006A4601210420FFF71DFC28
:102B00006420B5FBF0F030308DF800009DF8000037
:102B1000302802D120208DF800009DF800003028D8
:102B200002D120208DF800006420B5FBF0F100FBFD
:102B300011500A21B0FBF1F030308DF801009DF802
:102B40000100302806D19DF80000202802D1202065
:102B50008DF801000A20B5FBF0F100FB1150303078
:102B60008DF8020000208DF803006A46012108203C
:102B7000FFF7E3FB02A8DFF86410D1E90023C0E906
:102B8000002302AA01210B20FFF7D7FB0FB0F0BDF5
:102B9000500D0020BC830008D083000800100140C5
:102BA00000080140EC840008E4830008F084000879
:102BB000C484000866300008F88300080C8400080C
:102BC000A08601009F86010020840008CC840008B4
:102BD00034840008488400085C840008D484000819
:102BE000002840F10980F446404200F005F850F01A
:102BF00000406047002800BF0AD0B0FA80F188404A
:102C0000D1F19D01C905020672F1004241EB10208D
:102C100070470268531C0360117070475FF0FF0C2F
:102C20001CEAD05114BF614506E0C110400721F0F5
:102C3000E04101F16051704779B900F000410002B4
:102C40000AD0B0FA80FC00FA0CF001F16051A1EB5F
:102C50000C5101EBD0214005704741020CBF40F4FC
:102C6000E0016FF00001002070470102B0B581EA79
:102C7000030C0CF0004C40F2FF7515EA11541DBF17
:102C800015EA1357AC42AF4239E0E41923EA455341
:102C900043F48013C90241F0004141EA505EC7028B
:102CA0001100A7FB020200284FF00000EEFB0120FC
:102CB0004FF00001E3FB072118BF42F0010240186A
:102CC00000214941E3FB0E01A4F580640F0302D209
:102CD00052004041494154F101046CDD470872F152
:102CE000004250F1000051EB0451A1F580115CBF8E
:102CF00041EA0C01B0BD4CEA05510020B0BD05EA27
:102D00001357AC4214BFAF4241E050EA410E1CBF22
:102D100052EA430E02E061460020B0BD24423C442A
:102D20001BD15FEA070EF6D0090302BF014600205F
:102D3000AEF1140EB1FA81F7AEEB070401FA07FE0B
:102D40000C37C7F1200100FA07F7C8404EEA000E21
:102D500023EA455343F48013A2E733F00043B3FA68
:102D600083F704BFB2FA82FE77440B3FE41BB7F14E
:102D7000200E2FBF02FA0EF3BB40C7F1200E22FA3D
:102D80000EFE38BF43EA0E03BA40641C82E750EAE5
:102D9000410E14BF52EA430E6FF000014FF40017CA
:102DA00017EB430F8ABF194617EB410FB5E74CEA03
:102DB00005510020B0BDD4F10104B4F120070FDAB1
:102DC000C4F12007520828BF42F0010210FA07F5AB
:102DD00001FA07F7E1BF2A43E0403843E1400FE042
:102DE000352C98DCC7F1200452EA400220FA07F2A1
:102DF00018BF42F0010231FA07F0A1400A43002156
:102E000072F1004250F1000051EB0C01B0BD010223
:102E10002DE9F04140F2FF7581EA030C0CF0004C03
:102E200015EA11541DBF15EA1357AC42AF42E9E051
:102E3000BC41C1F31301C3F31303801A994143F456
:102E4000801304D2641E4000494180185941C902D0
:102E500041EA5051B1FBF3F603FB1611A2FB0675D4
:102E6000D7EBC020A94102D2761E80185941C90271
:102E700041EA5051B1FBF3FE03FB1E11A2FB0E759C
:102E8000D7EBC020A94103D2AEF1010E8018594101
:102E9000890241EA9051760546EA8E2EB1FBF3F69F
:102EA00003FB1611A2FB0675D7EB8020A94102D2C5
:102EB000761E80185941C90241EA50514EEA060E69
:102EC000B1FBF3F603FB1611A2FB0675D7EBC0208E
:102ED000A94102D2761E80185941C90241EA5051D7
:102EE000B1FBF3F703FB1711A2FB0735D3EBC020AF
:102EF000A94167F100070CBF004247F0010766F3E4
:102F0000D5274FEA1E31B80814F5806414DDBD07DB
:102F100075F1004250EB0E5051EB045111F5801F3A
:102F20005CBF41EA0C01BDE8F0814CF07F6141F0EB
:102F3000E0410020BDE8F081BD076D0840EA0E5079
:102F400041F48011D4F10104B4F120060ADAC4F18D
:102F500020060200E04001FA06F3E1401843B240C7
:102F600015430EE0342C14DCC6F1200445EA40057C
:102F70006D0820FA06F2154321FA06F0A1400D4330
:102F8000002175F1004250F1000051EB0C01BDE849
:102F9000F08100205FEA0C01BDE8F081CFB9921802
:102FA0005B41B3FA83F704BFB2FA82F6BF190B3F55
:102FB000B7F120062FBF02FA06F3BB40C7F1200687
:102FC00022FA06F638BF3343BA401CB1E419641E36
:102FD0002FE77F4231F00041B1FA81F404BFB0FA2B
:102FE00080F6A4190B3CB4F120062FBF00FA06F1BD
:102FF000A140C4F1200620FA06F638BF3143A040B4
:103000003C1B16E7AC421ABF05EA1357AF4214E067
:1030100050EA41061CBF52EA4306BFE750EA4107A7
:10302000304661461CBF41EA0551BDE8F08152EAD5
:10303000430C08BFC143BDE8F08100204FF40016E7
:1030400016EB410F98BF16EB430F08BF16EB410F6D
:1030500024BFC14305E016EB430F0CBF61464CEAA9
:103060000551BDE8F081AE00F446400D40EAC120B4
:10307000490006D200F014F8004248BF6FF000404B
:10308000604700F00DF84FF0004188428CBF0846C1
:1030900040426047400D40EAC120490080F00D8069
:1030A00040F00040490DA1F58061491C05D4D1F1E3
:1030B0001F0154BFC840C01770474FF00000704751
:1030C00040000DD2010E7F390AD4D1F11F0104D482
:1030D000C00140F00040C84070477FF000007047DA
:1030E0000020704710B50400002094F82400012847
:1030F00001D1022065E0012084F82400200002F0C4
:1031000022F9C0B2002858D1A16ADFF8BC241140CE
:1031100051F48051A1622168DFF8B024914209D1B5
:10312000DFF8AC14096811F4702F01D1012102E01D
:10313000002100E00121002904D0A16A31F48011AE
:10314000A16203E0A16A51F48011A162A16AC905DC
:1031500001D40021E162002184F824107FF00401F1
:103160002268116021684968490529D42168896865
:1031700011F4E041B1F5E04F18D12168DFF84C249B
:10318000914209D1DFF84814096811F4702F01D178
:10319000012102E0002100E00121002906D0216880
:1031A000896851F402112268916009E021688968F8
:1031B00051F400412268916002E0002184F824105B
:1031C000C0B210BD10B50400002094F824000128FE
:1031D00001D102201FE0012084F82400A06AC0056C
:1031E00010D42068406840050CD4200002F0ECF8B0
:1031F000C0B200280BD1A16A31F4885151F001010D
:10320000A16204E0A06A50F02000A0620120002129
:1032100084F82410C0B210BDF8B504000D000020E1
:103220000090002702F044FD06002068806B10F437
:10323000401F16D12068006840076DD415F1010FBA
:10324000F8D0002D04D002F033FD801B8542F1D26E
:10325000A06A50F00400A062002084F8240003203B
:1032600083E0022001F000FE21680969DFF8642391
:10327000114215D12168C968DFF85C2311420FD1D2
:1032800021680969DFF85423114207D12168C96810
:10329000DFF84C23114201D114211CE029211AE04E
:1032A00021680969DFF83423114205D12168C96812
:1032B000DFF82C2311420BD021680969DFF82423A1
:1032C000114207D12168C968DFF81823114201D1E2
:1032D000542100E0FC21DFF8EC221268B2FBF0F090
:1032E00001FB00F702E00098401C00900098B842F3
:1032F00012D215F1010FF6D0002D04D002F0D8FC47
:10330000801B8542EFD2A06A50F00400A06200202A
:1033100084F82400032028E07FF00E002168086074
:10332000A06A50F40050A0622068806810F4E04069
:10333000B0F5E04F0DD020684068400514D42068F7
:10334000806810F46020B0F5602F0DD1E06800288F
:103350000AD1A06A30F48050A062A06AC00503D4EC
:10336000A06A50F00100A0620020F2BD00220229F4
:103370000AD00CD3042901D003D308E00068826C82
:1033800007E00068426C04E00068026C01E000683D
:10339000C26B1000704778B40A000021002300932C
:1033A0008368002B90F82430012B01D1022006E124
:1033B000012380F824308368002B12D15368012B3D
:1033C00009D103689B6B9B0D9B05146853EAC433BA
:1033D0000468A36335E0816A51F020018162012114
:1033E0002FE013695468A3421CD303689B6B1F240E
:1033F00015695668751BED1C05267543AC4054F4E1
:103400004014A3431469641E53EA045314681569F5
:103410005668751BED1C05267543AC4023430468B4
:10342000A3630EE003689B6B1F2415695668751B28
:10343000ED1C05267543AC4054F44014A3430468C6
:10344000A36303689B68DB0707D403689B68664C2B
:103450002340D46923430468A3609369012B0FD1EF
:10346000D369B3F5E04F06D103685B6853F480631A
:103470000468636004E0816A51F0200181620121E7
:103480005369012B0ED19369002B06D103685B6849
:1034900053F480530468636004E0816A51F02001B2
:1034A0008162012113680A2B12D30368DB680724A9
:1034B00015680A3D03267543AC40A343946815681C
:1034C0000A3D03267543AC4023430468E3600FE0E4
:1034D00003681B690724156803267543AC40A343A2
:1034E0009468156803267543AC4023430468236140
:1034F0001368102B02D01368112B05D103689B6849
:1035000053F400030468A3605368012B04D01ED356
:10351000032B13D009D31AE003685B691B0B1B0351
:10352000D46823430468636119E003689B691B0B3B
:103530001B03D46823430468A36110E00368DB69BC
:103540001B0B1B03D46823430468E36107E0036893
:103550001B6A1B0B1B03D468234304682362136894
:10356000102B02D01368112B24D103681F4CA342E7
:103570001BD103689B681B021CD403689B6853F42F
:1035800000030468A3601268102A13D10D4A126860
:10359000174BB2FBF3F20A235A430092009A002A17
:1035A00008D0009A521E0092F8E7816A51F020017B
:1035B00081620121002280F824200800C0B272BC80
:1035C000704700000C000020FEDFFFFF00280140D4
:1035D000042401402449922424499200922449124F
:1035E0009224490049922400FE8FFFFF00240140ED
:1035F00040420F00F0B44FF0004591EA030F44BF82
:103600006B4000F0C1B800BF841A71EB030604D20E
:103610006E40001BB141121973414FF4001C1CEBAA
:10362000410F34BF7CEB430684E00C0DA4EB135632
:10363000362E7DDC012E43DC45EAC32343EA525398
:1036400012BFD20292025B08240545EAC12141EA79
:103650005051D2EBC020994125D407D1B0FA80F661
:1036600010FA06F164D00020203608E0B1FA81F6A5
:10367000B140C6F1200220FA02F21143B0404FEAF5
:10368000F474B4EB465434F001064FEA74040AD8DB
:10369000D6F50016760D04F00044F04061FA06F20B
:1036A0005040F1404840C00A40EA415021F00041FA
:1036B00028BF5FEA500550F1000044EBD12137E00C
:1036C00045EAC323DB0A45EAC121C90AB6F1200550
:1036D0000EDD42EA0242120CC5F1200603FA06F69C
:1036E000EB4042EA06056D42984161F100010DE0B0
:1036F00062FA06F5F240554063FA06FC82EA0C02D3
:10370000F3405A406D42904161EB030111F4801F78
:1037100005D1641E620502D06D004041494121F48B
:103720008011430875F1004350F1000041EB045152
:10373000F0BC70471CEB410F15D223F0004352EA56
:1037400043060BD04FEA4C0CBCEB410F04D80C0DD8
:10375000661E342EB7DDEBE7801A994150EA410628
:1037600008BF0021E4E708BF1CEB430F28BF6FF040
:103770000001DDE7F0B44FF0004591EA030C44BFCF
:103780006B40FFF741BF00BF841A71EB030603D201
:10379000001BB141121973414FF4001C1CEB410F87
:1037A00034BF7CEB430443E00C0DA4EB1356352EE1
:1037B00050DC45EAC323DB0A45EAC121C912B6F150
:1037C00020050DDD63FA05F6EB4086EA030512429B
:1037D00018BF45F00105C01851F100010CD213E0EB
:1037E00062FA06F5F2405540F3415A40B340F340C7
:1037F0005A408018594107D349085FEA30005FEA10
:10380000350528BF45F0010501F58011420875F125
:10381000004250F1000041EB0451F0BC4FF4001C99
:103820001CEB410F38BF70470020090D0905704798
:103830001CEB410F10D252EA43060BD0BCEB410FF8
:1038400005D80C0DAB43661E342EB5DD02E0AB434C
:1038500080185941F0BC7047F0BC704780B50D48E6
:10386000006850F010000B490860032001F0E8FBED
:10387000002002F023FA02F035FA002002BD0649CA
:103880000968016005490968416005490968816066
:103890007047000000200240E8F7FF1FECF7FF1F11
:1038A000F0F7FF1F10B50400002C01D1012014E037
:1038B00094F83D00002805D1002084F83C00200049
:1038C00002F0E6FA022084F83D00211D206800F095
:1038D0005AF9012084F83D00002010BD0168C96834
:1038E00051F001010268D1600168096851F00101DD
:1038F000006801600020704710B50400206800696E
:1039000080071AD52068C068800716D57FF00200AE
:1039100021680861012020772068806910F0030F7A
:1039200003D0200002F068FB05E0200002F065FBF8
:10393000200002F063FB0020207720680069400728
:103940001AD52068C068400716D57FF004002168AA
:103950000861022020772068806910F4407F03D03E
:10396000200002F049FB05E0200002F046FB2000A9
:1039700002F044FB002020772068006900071AD578
:103980002068C068000716D57FF00800216808612C
:10399000042020772068C06910F0030F03D02000B6
:1039A00002F02AFB05E0200002F027FB200002F0D5
:1039B00025FB0020207720680069C0061AD5206802
:1039C000C068C00616D57FF0100021680861082085
:1039D00020772068C06910F4407F03D0200002F0F7
:1039E0000BFB05E0200002F008FB200002F006FBC4
:1039F0000020207720680069C0070AD52068C068C9
:103A0000C00706D57FF0010021680861200002F0A0
:103A1000F6FA2068006900060AD52068C06800062A
:103A200006D57FF0800021680861200002F0E8FAE6
:103A30002068006940060AD52068C068400606D59F
:103A40007FF0400021680861200002F0DAFA206867
:103A5000006980060AD52068C068800606D57FF018
:103A6000200021680861200002F0CCFA10BD10B5DA
:103A70000400002094F83C00012801D1022081E0DC
:103A8000012084F83C00022084F83D002068806812
:103A900030F0770030F47F4022689060086800289A
:103AA00055D0102858D020285BD030285ED0402830
:103AB00043D050282DD0602835D070280DD0B0F5D7
:103AC000805F03D0B0F5005F16D054E020688068B6
:103AD000C008C000216888604DE0CB684A688968EA
:103AE000206800F0BCF82068806830F0770050F063
:103AF0007700216888603EE0CB684A688968206862
:103B000000F0ADF82068806850F48040216888603B
:103B100031E0CA684968206800F06EF850212068DA
:103B200000F093F827E0CA684968206800F078F848
:103B30006021206800F089F81DE0CA6849682068A3
:103B400000F05AF84021206800F07FF813E00021CF
:103B5000206800F07AF80EE01021206800F075F877
:103B600009E02021206800F070F804E0302120688E
:103B700000F06BF8FFE7012084F83D00002084F896
:103B80003C00002010BD00220268184B984208D06B
:103B9000B0F1804F05D0164B984202D0154B984299
:103BA00003D132F070024B681A43104B984208D090
:103BB000B0F1804F05D00E4B984202D00D4B984289
:103BC00003D132F44072CB681A4332F080024B6961
:103BD0001A4302608A68C2620A688262034A90429B
:103BE00001D109690163012141617047002C014045
:103BF000000400400008004010B400230024046AC0
:103C0000036A5B085B000362836933F0F00353EAE5
:103C1000021334F00A040C438361046210BC704741
:103C200010B400230024036A33F010030362836995
:103C3000046A33F4704353EA023334F0A00454EAC4
:103C400001148361046210BC70470022826832F064
:103C5000700289B251F007010A438260704710B4C4
:103C60000024846834F47F44114351EA03210C4357
:103C7000846010BC7047000080B500F0FDFA002899
:103C800001D000F04DFC01BDDFF8B0080078DFF88E
:103C9000B0180978884208D3DFF8A0080078DFF868
:103CA000A0180978401AC0B208E0DFF8940800783C
:103CB0004042DFF8881809780818C0B27047C0B2CF
:103CC000002809D13020DFF87C1808700A20DFF8BE
:103CD00074184870022044E0C0B201280DD12D2094
:103CE000DFF8601808703120DFF8581848700A2093
:103CF000DFF850188870032033E0C0B202280DD1DD
:103D00002D20DFF8401808703220DFF8381848708E
:103D10000A20DFF830188870032022E0C0B20328A0
:103D20000DD12D20DFF81C1808703320DFF814188F
:103D300048700A20DFF80C188870032011E0C0B228
:103D400004280DD12D20DFF8FC1708703420DFF88F
:103D5000F41748700A20DFF8EC178870032000E0A1
:103D6000002070473EB5040000255B20ADB26055D1
:103D70006D1CDFF8D4070268E6A1280080B2204459
:103D800002F042F945192C20ADB260556D1CDFF8E8
:103D9000B8074268DFA1280080B2204402F034F95D
:103DA00045192C20ADB260556D1CDFF89C07826868
:103DB000D8A1280080B2204402F026F945192C2011
:103DC000ADB260556D1CDFF88007C268D1A1280034
:103DD00080B2204402F018F945192C20ADB260558C
:103DE0006D1CDFF864070269CAA1280080B2204474
:103DF00002F00AF945192C20ADB260556D1CDFF8B0
:103E00004C07006800F020FC0200C2A1280080B22C
:103E1000204402F0F9F845192C20ADB260556D1C14
:103E2000DFF82C070278BBA1280080B2204402F002
:103E3000EBF845192C20ADB260556D1CDFF8140766
:103E40000278B4A1280080B2204402F0DDF84519C0
:103E50002C20ADB260556D1CDFF8FC060268ADA1E8
:103E6000280080B2204402F0CFF845192C20ADB2D2
:103E700060556D1CDFF8E0064268A6A1280080B2FC
:103E8000204402F0C1F845192C20ADB260556D1CDC
:103E9000DFF8C406806800F0D7FB02009DA128006F
:103EA00080B2204402F0B0F845192C20ADB2605524
:103EB0006D1CDFF8A806027896A1280080B2204485
:103EC00002F0A2F845192C20ADB260556D1CDFF848
:103ED0008C0682788FA1280080B2204402F094F8EA
:103EE00045192C20ADB260556D1CDFF87006826854
:103EF00088A1280080B2204402F086F845192C20C1
:103F0000ADB260556D1CDFF85406C27D81A128005A
:103F100080B2204402F078F845192C20ADB26055EB
:103F20006D1CDFF83806027E7AA1280080B220449A
:103F300002F06AF845192C20ADB260556D1CDFF80F
:103F40001C06427E73A1280080B2204402F05CF877
:103F500045192C20ADB260556D1CDFF80006027DBE
:103F60006CA1280080B2204402F04EF845192C20A4
:103F7000ADB260556D1CDFF8E405427D65A12800F7
:103F800080B2204402F040F845192C20ADB26055B3
:103F90006D1CDFF8C805827D5EA1280080B2204438
:103FA00002F032F845192C20ADB260556D1CDFF8D7
:103FB000AC05827E57A1280080B2204402F024F88C
:103FC00045192C20ADB260556D1CDFF89005C27EFE
:103FD00050A1280080B2204402F016F845192C2088
:103FE000ADB260556D1CDFF87405427C49A1280014
:103FF00080B2204402F008F845192C20ADB260557B
:104000006D1CDFF85805027F42A1280080B22044D1
:1040100001F0FAFF45192C20ADB260556D1CDFF898
:104020003C0582893BA1280080B2204401F0ECFFCE
:1040300045192C20ADB260556D1CDFF82005027CBF
:1040400034A1280080B2204401F0DEFF45192C2065
:10405000ADB260556D1C0122D2B22EA1280080B2F3
:10406000204401F0D1FF45192C20ADB260556D1CE4
:104070006846FFF704FC2220ADB260556D1C009A23
:10408000DFF8DC14280080B2204401F0BDFF4519A0
:10409000019ADFF8D014280080B2204401F0B4FF68
:1040A0004519029ADFF8BC14280080B2204401F0C0
:1040B000ABFF45192220ADB260556D1C2C20ADB26E
:1040C00060556D1CDFF89404C28912A1280080B2EB
:1040D000204401F099FF45195D20ADB260556D1C7B
:1040E0000A20ADB260556D1C280080B23EBD10B5EF
:1040F0000400DFF864048068FEF7E2FF020005A117
:10410000200001F081FF0A2180B22154401C80B2BE
:1041100010BD00002564000080B50A22694601F048
:104120008DFFFEF75DFDFEF779FD0022DFF83834E4
:10413000FEF76EFE00F040FADFF8101408600098F9
:10414000401C00900A226946009801F077FFDFF8D2
:10415000001408700098401C00900A22002100986A
:1041600001F06CFFDFF8EC13087001BD80B50A2286
:10417000694601F063FFDFF8F41348600098401CC3
:1041800000900A226946009801F058FFDFF8DC131E
:10419000C8600098401C00900A226946009801F00F
:1041A0004DFFDFF8C81348610098401C00900A22B8
:1041B0006946009801F042FFDFF8B013C86100982B
:1041C000401C00900A226946009801F037FFDFF892
:1041D0009C1348620098401C00900A22694600988F
:1041E00001F02CFFDFF88413C8620098401C009097
:1041F0000A226946009801F021FFDFF87013486336
:104200000098401C00900A226946009801F016FFB1
:10421000DFF85813C8630098401C00900A22002160
:10422000009801F00BFFDFF84413486401BD70B53E
:1042300004000A220021200001F000FF0500C6480A
:104240004068FEF7D7FC06002800FEF7C9FC3100E5
:1042500001F0F8FEFEF734FFBF4948600A22002152
:10426000200001F0EBFEFEF7BBFCBB49896801F0C2
:10427000E9FEB949886070BDBD48808DBC49C98DD3
:10428000401A401EBB49C0B2095C0A2909D1AB499A
:1042900009780200D2B2914203D0A84908700120E7
:1042A00000E00020704780B5B248B1498862A54857
:1042B000AF4908624FF48072AE49AD4801F03EFA52
:1042C00001BD38B50400002501F0FEFEA84801F04C
:1042D0006AFA4FF48072A749A54801F02FFAA64860
:1042E000007867281FD1FFF7CFFC032803DB0320EA
:1042F000FFF7E5FC4519FFF7C7FC022803DA0220A7
:10430000FFF7DDFC4519FFF7BFFC022807D10020AD
:10431000FFF7D5FC4519A01CFFF724FD4519EDB2A8
:10432000280080B2FBE094480078632840F0E380E6
:1043300091484078732806D10020FFF7C0FC45194A
:104340008E48FFF7E9FE8C484078662806D10020A9
:10435000FFF7B5FC45198948FFF708FF8648407804
:10436000772817D1FFF790FC042803DB0320FFF721
:10437000A6FC4519FFF788FC032803DA0220FFF7A3
:104380009EFC4519FFF780FC032803D10020FFF7AE
:1043900096FC451978484078722817D1FFF774FCCD
:1043A000042803DB0320FFF78AFC4519FFF76CFCA8
:1043B000032803DA0220FFF782FC4519FFF764FCAB
:1043C000032803D10020FFF77AFC45196A4840789A
:1043D0006E281AD1FFF758FC042803DB0320FFF7EF
:1043E0006EFC4519FFF750FC032803DA0220FFF7A3
:1043F00066FC4519FFF748FC032806D10020FFF7AB
:104400005EFC45190220554908705B4840786928D0
:104410001BD152480078022813D10020FFF74FFC2F
:10442000451900224FF480715548FDF757FE0022D0
:104430004FF400715248FDF751FE002047490874BF
:1044400003E00420FFF73BFC45194B4840786A28FD
:1044500012D10020FFF733FC451901224FF480717F
:104460004748FDF73BFE01224FF400714448FDF739
:1044700035FE0120394908743F4840786D282ED117
:10448000FFF702FC042803DB0320FFF718FC4519A3
:10449000FFF7FAFB032803DA0220FFF710FC4519A7
:1044A000FFF7F2FB03281AD12000FFF720FE451981
:1044B00002202A490870FCF760F92748006826495D
:1044C00049680C1824488068FEF7FAFD201A224932
:1044D000086000202049486000201F498860264865
:1044E0004078742803D10020FFF7E9FB4519EDB2AD
:1044F000280080B213E0204800786D280AD10020FF
:10450000FFF7DDFB45191F48FFF791FEEDB22800CC
:1045100080B204E00120FFF7D2FB4519002032BD34
:1045200080B50848FFF7CDFE020092B20549104859
:1045300001F0DBF801F0E4FD01BD0000B40D002046
:104540001601002018070020600C00200800002041
:104550001201002013010020A40C00202C0C0020CC
:10456000DC840008E484000800005940700A002040
:104570003C0B002018080020180900201A09002010
:104580000014014019090020010040F10980F4469F
:10459000404200F005F851F000416047010000BFC3
:1045A00009D0B0FA80F18840C91CC1F584610905C1
:1045B00001EBD021400570474FEAF17CBCF1E04CA3
:1045C0002CBFBCF5001F11E05FEA4C0C34BFBCF1FE
:1045D0007F5F2EE05FEA9C0C4FEA0C1C4FEA3C0C1C
:1045E000C10071F100414CEB50707047C90241EAC3
:1045F0005051C00218BF41F0010141F000414FEAA3
:104600006C50C0F10900212810D240EACC7CCCF1DA
:10461000200C11FA0CF070F10040CCF1200C21FAC2
:104620000CF00CF0004C40EB0C0070474FEACC70E3
:104630007047490011F5001F04D84FEACC10FF3035
:10464000C0057047C81770474100090E7F3915D45F
:10465000D1F11F0114D4400007D2C00140F0004046
:10466000C84048BF6FF000407047C00140F00040B4
:10467000C8404CBF4FF00040404270470020704798
:1046800000424FF0004058BFC043704770B582B041
:10469000040000252078C00740F18480DFF87C0604
:1046A000006810F00C0004280BD0DFF870060068DA
:1046B00010F00C0008280ED1DFF860060068C00377
:1046C00009D5DFF85C06006880036BD560680028B8
:1046D00068D1012002E26068B0F5803F08D1DFF8C0
:1046E0004006006850F48030DFF83416086038E087
:1046F0006068002810D1DFF82806006830F48030A8
:10470000DFF81C160860DFF81806006830F4802017
:10471000DFF80C16086024E06068B0F5A02F10D117
:10472000DFF8FC05006850F48020DFF8F41508601D
:10473000DFF8EC05006850F48030DFF8E41508601D
:104740000FE0DFF8DC05006830F48030DFF8D015CA
:104750000860DFF8CC05006830F48020DFF8C01571
:104760000860606800280ED001F0A2FA0500DFF8AA
:10477000B0050068800315D401F09AFA401B652843
:10478000F5D30320AAE101F093FA0500DFF89005C4
:104790000068800306D501F08BFA401B6528F5D32D
:1047A00003209BE12078800726D5DFF8700500689C
:1047B00010F00C0F0BD0DFF86405006810F00C004F
:1047C000082833D1DFF854050068C0032ED4DFF881
:1047D00050050068800704D52069012801D0012018
:1047E0007CE1DFF83C05006830F0F800616950EAD0
:1047F000C100DFF82C150860207800074ED5A069AD
:10480000002800F081800120DFF82015086001F009
:104810004FFA0500DFF81805006880073BD401F067
:1048200047FA401B0328F5D3032057E120690028ED
:104830001ED00120DFF8FC14086001F039FA0500F1
:10484000DFF8DC040068800706D401F031FA401B71
:104850000328F5D3032041E1DFF8C404006830F0F9
:10486000F800616950EAC100DFF8B4140860C3E7DA
:104870000020DFF8C014086001F01AFA0500DFF824
:10488000A00400688007B7D501F012FA401B032886
:10489000F5D3032022E1012000F02DFA2078400713
:1048A00040F1B9800026DFF890040068C0000FD402
:1048B000DFF88404006850F08050DFF87C14086052
:1048C000DFF87404006810F0805000900098012612
:1048D000DFF868040068C00529D4DFF860040068C8
:1048E00050F48070DFF85414086001F0E1F905001D
:1048F000DFF848040068C00519D401F0D9F9401B5D
:104900006528F5D30320E9E00020DFF820140860D3
:1049100001F0CEF90500DFF8180400688007BDD566
:1049200001F0C6F9401B0328F5D30320D6E0E06868
:10493000012808D1DFF80804006850F00100DFF812
:104940000014086037E0E068002810D1DFF8F003B9
:10495000006840084000DFF8E8130860DFF8E00373
:10496000006830F00400DFF8D813086023E0E06846
:10497000052810D1DFF8C803006850F00400DFF804
:10498000C0130860DFF8B803006850F00100DFF8DA
:10499000B01308600FE0DFF8A8030068400840008B
:1049A000DFF89C130860DFF89803006830F004001B
:1049B000DFF88C130860E068002810D001F078F967
:1049C0000500DFF87C030068800719D401F070F956
:1049D000401B41F289318842F3D303207EE001F08D
:1049E00067F90500DFF858030068800708D501F073
:1049F0005FF9401B41F289318842F3D303206DE017
:104A0000F6B2012E07D1DFF83003006830F0805095
:104A1000DFF824130860E06900285ED0DFF8FC02AC
:104A2000006810F00C00082855D0E06902283FD13A
:104A30000020DFF81013086001F03AF90500DFF8F4
:104A4000E0020068800106D501F032F9401B03281E
:104A5000F5D3032042E0206AB0F5803F09D1DFF8AA
:104A6000BC02006830F40030A1680843DFF8AC12E3
:104A70000860DFF8A802006830F47410216A084367
:104A8000616A0843DFF8941208600120DFF8B4126D
:104A9000086001F00DF90500DFF88402006880016C
:104AA0001BD401F005F9401B0328F5D3032015E0C2
:104AB0000020DFF89012086001F0FAF80500DFF836
:104AC00060020068800108D501F0F2F8401B03285D
:104AD000F5D3032002E0012000E0002076BD70B590
:104AE00004000D000026DFF86002006810F00700E7
:104AF000A84211D2DFF850020068C008C000284365
:104B0000DFF844120860DFF84002006810F0070088
:104B1000A84201D00120A1E02078800709D5DFF864
:104B2000FC01006830F0F000A1680843DFF8EC11E8
:104B300008602078C00756D56068012806D1DFF8E4
:104B4000E0010068800311D4012087E0606802283A
:104B500006D1DFF8CC010068800107D401207DE098
:104B60006F480068800701D4012077E06B48006837
:104B700080088000616808436849086001F098F87F
:104B80000600606801280ED16448006810F00C002F
:104B9000042828D001F08CF8801B41F2893188422A
:104BA000F2D303205AE0606802280ED15B48006807
:104BB00010F00C00082816D001F07AF8801B41F2A2
:104BC00089318842F2D3032048E05448006810F04D
:104BD0000C0F08D001F06CF8801B41F2893188423B
:104BE000F3D303203AE05848006810F007008542EC
:104BF0000ED255480068C008C000284352490860DA
:104C00005148006810F00700A84201D0012025E0BB
:104C10002078400707D54148006830F4E060E1683B
:104C200008433E4908602078000708D53B480068E3
:104C300030F46050216950EAC1003849086000F042
:104C40000EF84249354A1268C2F30312895CC84023
:104C500035490860002001F031F8002070BD00B532
:104C600085B001A83A49102200F0F6FF39480088C3
:104C7000ADF800000020002000200021002027487F
:104C8000006810F00C01042902D0082902D016E0B7
:104C9000244815E001A9C0F38342895CC0030AD50A
:104CA00068461E4A1268C2F34042805C1D4AB2FB4D
:104CB000F0F0484302E0284800FB01F000E019480A
:104CC00005B000BD18480068704780B5FFF7FAFFCF
:104CD0002249124A1268C2F30222895CC84002BD0E
:104CE00080B5FFF7EFFF1D490C4A1268C2F3C222DC
:104CF000895CC84002BD81B00B490968C9084FF4FE
:104D00007A72B1FBF2F14843009000BF0098411E57
:104D100000910028F9D101B0704700000410024052
:104D20000010024000127A000C0000208004424271
:104D300024100240000042421C100240007000405B
:104D4000201002406000424200200240908400088F
:104D5000708400086A2C000800093D00BC8400082B
:104D600070B582B00400002600202078C00763D50B
:104D7000002576480068C0000CD47448006850F0E4
:104D80008050724908607148006810F080500090AF
:104D9000009801256E480068C00513D46C4800686F
:104DA00050F480706A49086000F082FF060068488D
:104DB0000068C00506D400F07BFF801B6528F6D391
:104DC000032050E06348006810F44070002822D0AF
:104DD000616811F4407188421DD05E48006830F46B
:104DE000407001215C4A116000215B4A1160594901
:104DF0000860C0070FD500F05BFF0600554800684B
:104E0000800708D400F054FF801B41F289318842AA
:104E1000F4D3032027E04F48006830F44070616805
:104E200008434C490860EDB2012D05D147480068A0
:104E300030F08050454908602078800707D5474802
:104E4000006830F44040A168084344490860207875
:104E5000C00607D54148006830F48000E168084387
:104E60003E490860002076BD10B586B0040001A858
:104E70003B49102200F0F0FE3A480088ADF80000EF
:104E800000200021002300220020012C2BD0022C26
:104E90004ED0102C57D1314A1268334B1B68DB01BE
:104EA00020D501A8C2F38343C35CD0030DD5684667
:104EB0002A4C2468C4F34044005DD20308D52B4932
:104EC000B1FBF0F003FB00F102E0294800FB03F125
:104ED00022480068400201D5080003E04800032191
:104EE000B0FBF1F02FE01B48026840F202301040A6
:104EF000B0F5817F02D14FF4004018E012F4407009
:104F0000B0F5007F06D11B480068800702D549F63E
:104F100040400CE012F44070B0F5407F06D11248DA
:104F20000068800302D54FF2244000E000200AE030
:104F3000FFF7D6FE09490968C1F38131491C4900D0
:104F4000B0FBF1F0FFE706B010BD00001C100240FE
:104F50000070004020100240400442420410024011
:104F6000808400080E2E00080010024000127A0013
:104F700000093D002410024010F007014748006876
:104F80004FF6FF021040464A52EA012108434349C6
:104F90000860704741480068C0F302207047012153
:104FA00010F01F0291403F4A40B2400942F82010E1
:104FB000704740B2002808D509013B4A40B210F0C2
:104FC0000F00104400F8041C03E00901374A40B206
:104FD0001154704710B410F00700D0F10703052BEF
:104FE00001D3042301E0D0F10703041D072C01D2F3
:104FF000002000E0C01E012414FA03F35B1E1940D8
:105000008140012313FA00F0401E1040084310BCF9
:10501000704780B5411EB1F1807F01D301200EE0C1
:10502000401E234908600F215FF0FF30FFF7C1FFEA
:1050300000202049086007201F490860002002BDA9
:1050400080B5FFF799FF01BD70B504000D00160093
:105050000020FFF79FFF32002900FFF7BBFF010090
:10506000200040B2FFF7A5FF70BD80B540B2FFF74A
:1050700096FF01BD80B5FFF7CCFF02BD042806D125
:105080000D48006850F004000B49086005E00A482C
:10509000006830F004000849086070470CED00E03B
:1050A0000000FA0500E100E018ED00E000E400E097
:1050B00014E000E018E000E010E000E080B500F04F
:1050C00001F801BD70470000F8B50400002000277A
:1050D00000250026002C01D101208FE0A0680028C7
:1050E00001D060690028A06A002807D10020E06292
:1050F000002084F82400200000F042FE200000F090
:1051000063F9A16AC90673D4C0B2002870D1A16A3C
:1051100031F4885151F00201A1626168E2691143E2
:10512000E26851EA42010D43A168B1F5807F02D0E7
:10513000A168012902D14FF4807100E000210F43E2
:105140006169012911D1E168002906D1A169491ECF
:10515000490351F400610F4307E0A16A51F02001B7
:10516000A162E16A51F00101E1622168496831F40C
:10517000694139432268516021688968DFF8342227
:105180001140294322689160A168B1F5807F02D067
:10519000A168012902D14FF4807100E00021B1F52E
:1051A000807F02D12169491E0E052168C96A31F448
:1051B000700131432268D16221688968DFF8F821E3
:1051C0001140A94208D10021E162A16A31F0020137
:1051D00051F00101A16210E0A06A30F0020050F02D
:1051E0001000A062E06A50F00100E062012004E0DB
:1051F000A06A50F01000A0620120C0B2F2BD78B4E5
:105200000A0000210023009390F82430012B01D1E3
:10521000022096E0012380F824305368072B12D235
:1052200003685B6B1F2455686D1E05267543AC40F3
:10523000A343146855686D1E05267543AC4023438F
:105240000468636327E053680D2B12D203681B6B5D
:105250001F245568ED1F05267543AC40A343146811
:105260005568ED1F05267543AC402343046823634E
:1052700011E00368DB6A1F2455680D3D0526754360
:10528000AC40A343146855680D3D05267543AC40FA
:1052900023430468E36213680A2B12D30368DB68B4
:1052A000072415680A3D03267543AC40A343946860
:1052B00015680A3D03267543AC4023430468E36048
:1052C0000FE003681B690724156803267543AC408B
:1052D000A3439468156803267543AC4023430468D0
:1052E00023611368102B02D01368112B24D103689B
:1052F000324CA3421BD103689B681B021CD4036879
:105300009B6853F400030468A3601268102A13D149
:105310002B4A12682B4BB2FBF3F20A235A4300923A
:10532000009A002A08D0009A521E0092F8E7816A7B
:1053300051F0200181620121002280F82420080020
:10534000C0B272BC704738B5040000250020009040
:1053500020688068C0072BD42068806850F0010066
:1053600021688860164800681649B0FBF1F000908B
:1053700002E00098401E009000980028F9D100F04B
:1053800097FC050020688068C00711D400F090FCED
:10539000401B0328F6D3A06A50F01000A062E06A18
:1053A00050F00100E062002084F82400012000E0B9
:1053B000002032BDFDF7E1FFFE0E1FFF002401407B
:1053C0000C00002040420F0038B504000025206882
:1053D0008068C0071BD520688068400840002168AD
:1053E000886000F065FC050020688068C0070ED565
:1053F00000F05EFC401B0328F6D3A06A50F01000BA
:10540000A062E06A50F00100E062012000E00020AC
:1054100032BD0000F8B50400002500270026002C4E
:1054200001D101209FE094F83C00002805D1002024
:1054300084F83D00200000F0C4FC022084F83C0009
:105440002068006830F00200216808602068006869
:1054500050F001002168086000F02AFC0700206875
:105460004068C0070CD400F023FCC01B0B28F6D307
:10547000032084F83C00002084F83D00032072E003
:1054800020684068C00761D5A069012802D156F0A4
:10549000800601E036F08006E069012802D156F06E
:1054A000400601E036F04006206A012802D156F09D
:1054B000200601E036F02006606A012802D156F08D
:1054C000100601E036F01006A06A012802D156F05D
:1054D000080601E036F00806E06A012802D156F01D
:1054E000040601E036F004062068006830F0FC0095
:1054F000304321680860A068E168084321690843D7
:10550000616908436168491E08432168C8612068D1
:105510000068400840002168086000F0C9FB0700EF
:1055200020684068C0070CD500F0C2FBC01B0B28E8
:10553000F6D3032084F83C00002084F83D000320CB
:1055400011E020684068C00700D40125012D06D174
:1055500000202064012084F83C00002003E00420A7
:1055600084F83C000120F2BD10B50400002C01D1EC
:1055700001200AE06079002804D100202071200079
:1055800000F049FC01206071002010BD10B504003E
:10559000002C01D101203DE00020A06294F85100D0
:1055A000002802D1200000F049FC022084F85100BC
:1055B0002068006830F04000216808606068A168D9
:1055C0000843E16808432169084361690843A16908
:1055D00011F400710843E1690843216A0843A16A94
:1055E000084321680860A069000C10F00400616A9B
:1055F000084321684860E06A216808612068C06942
:1056000030F400602168C86100206065012084F8E2
:105610005100002010BD000090F83C20012A01D16B
:10562000022024E0012280F83C20022280F83D2064
:105630000268526832F0700203685A600268526869
:105640000B681A4303685A600268926832F080025D
:1056500003689A6002689268496811430268916021
:10566000012180F83D10002180F83C100020704797
:105670000000000010B50400002C01D1012033E02F
:10568000A0690028FFD194F83900002805D1002036
:1056900084F83800200000F015FC242084F839003C
:1056A0002068C06830F400502168C860200000F015
:1056B000EEF92068006930F49040216808612068A4
:1056C000406930F02A00216848612068C06850F4C1
:1056D00000502168C8600020E063202084F8390071
:1056E000202084F83A00002010BD90F83930202B9B
:1056F00022D1002902D092B2002A01D101201CE05F
:1057000090F83830012B01D1022016E0012380F8F7
:10571000383001628284C2840021C163212180F873
:105720003910002180F838100168C96851F08001F3
:105730000068C160002000E00220704790F83A3015
:10574000202B2ED1002902D092B2002A01D10120B3
:1057500028E090F83830012B01D1022022E001230B
:1057600080F8383081628285C2850021C1632221A0
:1057700080F83A10002180F838100168C96851F4A7
:1057800080710268D1600168496951F001010268C5
:1057900051610168C96851F020010068C1600020B2
:1057A00000E00220704710B504002068C06830F4A3
:1057B00090702168C86020684069400840002168F6
:1057C00048612068406940060ED52068406930F085
:1057D000400021684861606B002805D00020616BA3
:1057E0004863606B00F0A2FC0020E085202084F874
:1057F0003A00002010BD38B5040020680068216818
:10580000C968226852690023002310F00F03002B9F
:1058100007D1850605D58D0603D5200000F0E3F8F5
:1058200082E0002B70D0D30702D411F4907F6BD0AC
:1058300010F00103DBB2002B05D0CB0503D5E36BE1
:1058400053F00103E363430708D512F00103DBB211
:10585000002B03D0E36B53F00203E363830708D507
:1058600012F00103DBB2002B03D0E36B53F004030F
:10587000E363030708D512F00102D2B2002A03D075
:10588000E26B52F00802E263E26B002A3BD0800632
:1058900004D5880602D5200000F0A5F820684069EC
:1058A000800910F00103E06B000701D4002B25D024
:1058B000200000F03AF82068406940061AD52068B8
:1058C000406930F0400021684861606B00280DD0CD
:1058D0000FF27900616B4863606B00F042FC0028B6
:1058E00011D0606B616B496B88470CE0200000F0C1
:1058F0009DFC08E0200000F099FC04E0200000F08E
:1059000095FC0020E0630FE0020605D50A0603D5EA
:10591000200000F025F807E0400605D5480603D52D
:10592000200000F052F8FFE731BD0168C96831F48A
:1059300090710268D16001684969490849000268AC
:105940005161202180F83A107047000080B5406A0C
:105950000021C1850021C18400F068FC01BD000068
:1059600090F8391021292ED18168B1F5805F10D1CE
:10597000016A0988C905C90D0268516001690029D9
:1059800003D1016A891C016209E0016A491C0162B4
:1059900005E0016A4A1C0262097802685160C18C04
:1059A000491EC18489B200290BD10168C96831F050
:1059B00080010268D1600168C96851F04001006847
:1059C000C160002000E00220704780B50168C9680E
:1059D00031F040010268D160202180F8391000F0D8
:1059E00026FC002002BD80B590F83A1022294CD147
:1059F0008168B1F5805F15D1816A0269002A08D1FA
:105A000002685268D205D20D0A80816A891C8162BF
:105A10001AE00268526802F0FF020A80816A491C9B
:105A2000816211E00169002906D1816A4A1C826203
:105A3000026852680A7007E0816A4A1C8262026842
:105A4000526812F07F020A70C18D491EC18589B269
:105A5000002918D10168C96831F020010268D160BD
:105A60000168C96831F480710268D16001684969D0
:105A70004908490002685161202180F83A1000F07D
:105A8000D7FB002002E0002000E0022002BD2DE94B
:105A9000F041040000202168096931F44051E268B6
:105AA000114322681161A16822691143626911439F
:105AB00008432168C9685C4A114008432168C860EE
:105AC0002068406930F44070A1690843216848614A
:105AD00020685649884252D1FFF702F98046FFF705
